:020000040800F2
:100000000000032021060008CD190008CF190008C0
:10001000D1190008D3190008D51900080000000004
:10002000000000000000000000000000819E0008A9
:10003000D719000800000000119F000891970008E0
:1000400071060008710600087106000871060008B4
:1000500071060008710600087106000871060008A4
:100060007106000871060008710600087106000894
:100070007106000871060008710600087106000884
:100080007106000871060008710600087106000874
:100090007106000871060008710600087106000864
:1000A0007106000871060008710600087106000854
:1000B0007106000871060008710600087106000844
:1000C0007106000871060008710600087106000834
:1000D0007106000871060008710600087106000824
:1000E0007106000871060008710600087106000814
:1000F0007106000871060008710600087106000804
:1001000071060008710600087106000871060008F3
:100110007106000871060008D91900087106000868
:1001200071060008710600087106000871060008D3
:1001300071060008710600087106000871060008C3
:1001400071060008710600087106000871060008B3
:1001500071060008710600087106000871060008A3
:100160007106000871060008710600087106000893
:100170007106000871060008710600080000000002
:100180007106000871060008710600087106000873
:100190007106000871060008710600087106000863
:0C01A000E519000871060008F1190008BC
:1001B00010B5054C237833B9044B13B10448AFF3A1
:1001C00000800123237010BD000400200000000007
:1001D0006067020808B5034B1BB103490348AFF33E
:1001E000008008BD000000000404002060670208D1
:1001F00001F0FF01102A2BDB10F0070F08D010F8D8
:10020000013B013A8B422DD010F0070F42B3F6D1DB
:10021000F0B441EA012141EA014122F007047FF0F4
:1002200000070023F0E80256083C85EA010586EA4B
:10023000010685FA47F5A3FA87F586FA47F6A5FA87
:1002400087F68EB9EED1F0BC01F0FF0102F0070293
:1002500032B110F8013B013A83EA010313B1F8D13E
:100260000020704701387047002D06BF354603381F
:10027000073815F0010F07D1013015F4807F02BF58
:10028000013015F4C03F0130F0BC0138704700BFA9
:100290007BB972B90029BEBF00204FF0004106E0D3
:1002A00008BF00281CBF6FF000414FF0FF3000F086
:1002B000B5B9ADF1080C6DE904CE002909DB002BBE
:1002C0001ADB00F04DF8DDF804E0DDE9022304B0AC
:1002D0007047404261EB4101002B1BDB00F040F80E
:1002E000DDF804E0DDE9022304B0404261EB4101A6
:1002F000524263EB43037047524263EB430300F007
:100300002FF8DDF804E0DDE9022304B0404261EBA0
:1003100041017047524263EB430300F021F8DDF8DE
:1003200004E0DDE9022304B0524263EB430370476B
:1003300053B94AB9002908BF00281CBF4FF0FF314C
:100340004FF0FF3000F06AB9ADF1080C6DE904CE52
:1003500000F006F8DDF804E0DDE9022304B07047A0
:100360002DE9F047089D0C46002B4ED194468C4554
:100370008646B2FA82F262D94AB1C2F120039140B4
:1003800020FA03F30CFA02FC194300FA02FE4FEACA
:100390001C471FFA8CF6B1FBF7F44FEA1E4307FB2C
:1003A000141143EA014304FB06F199420AD91CEBFC
:1003B000030304F1FF3080F01281994240F20F8173
:1003C000023C6344591A1FFA8EF3B1FBF7F007FBA6
:1003D000101143EA014300FB06F69E420AD91CEBCA
:1003E000030300F1FF3180F0FC809E4240F2F9806F
:1003F000634402389B1B40EA044000211DB1D340F6
:100400000022C5E90032BDE8F0878B4205D90DB165
:10041000C5E9000100210846F5E7B3FA83F1002998
:1004200046D1A34202D39042C0F0F080861A64EB1A
:1004300003030120002DE6D0C5E90063E3E7002AAD
:1004400040F09080A1EB0C044FEA1C481FFA8CF797
:100450000121B4FBF8F64FEA1E4308FB164443EAB9
:10046000044307FB06F0984208D91CEB030306F18E
:10047000FF3402D2984200F2CD8026461C1A1FFAA1
:100480008EF3B4FBF8F008FB104443EA044300FB8E
:1004900007F79F4208D91CEB030300F1FF3402D297
:1004A0009F4200F2B0802046DB1B40EA0640A5E7F1
:1004B000C1F120068B4022FA06F71F4320FA06FC02
:1004C00004FA01F343EA0C03F44000FA01F8380C93
:1004D0004FEA1349B4FBF0FE1FFA87FC00FB1E44F1
:1004E00049EA04440EFB0CF9A14502FA01F20AD9CB
:1004F0003C190EF1FF3A80F08480A14540F28180E2
:10050000AEF1020E3C44A4EB09041FFA83F9B4FBDC
:10051000F0F300FB134449EA044403FB0CFCA4453C
:1005200007D93C1903F1FF3067D2A44565D9023BD6
:100530003C4443EA0E40A0FB0293A4EB0C049C4213
:10054000CE469C4651D34ED055B1B8EB0E0364EB6A
:100550000C0404FA06F6CB401E43CC40C5E9006407
:10056000002150E7C2F1200320FA03F10CFA02FC4B
:1005700024FA03F394400C434FEA1C4800FA02FEAD
:100580001FFA8CF7B3FBF8F008FB1031230C43EA99
:10059000014300FB07F1994208D91CEB030300F16A
:1005A000FF362CD299422AD9023863445B1AA4B28E
:1005B000B3FBF8F108FB113344EA034401FB07F3F2
:1005C000A34208D91CEB040401F1FF3613D2A34265
:1005D00011D902396444E41A41EA004139E704467A
:1005E000F0E6084606E7C845AED2B9EB020E63EB6B
:1005F000070C0138A8E73146EDE7034699E7304696
:10060000D4E7D6467FE7634402384DE706462346E3
:1006100008460FE7023E634430E700BF704700BF63
:10062000DFF834D0002103E00C4B5B584350043119
:100630000B480C4B42189A42F6D30B4A02E00023B7
:1006400042F8043B094B9A42F9D306F0FFFD25F02E
:100650000FFB00F04DFC70470000032068630608A4
:1006600000000020F0010020000400206478012038
:10067000FEE70000F8B50A4D2C787CB9094B0A4F0B
:1006800026461846394625F01AFB01340346052C48
:10069000466003F10803F4D101232B70F8BD00BFBD
:1006A0001C04002020040020B8670208024B1878C0
:1006B00080F00100704700BF1C040020034B5B6A00
:1006C00083422CBF00200120704700BF200400207F
:1006D000134A2DE9F84306468846002452F8343080
:1006E000B3424FEAC40904F1010305D3052B1C46AC
:1006F000F4D1E0B2BDE8F883DB000A4DA3F10807AE
:100700002F44C4F10402E818D20039464D4425F0C4
:10071000DAF904224146384625F0F7F96E60E8E739
:100720002404002020040020F8B5194C194D0023A2
:100730002370012363700223A3700323E370042357
:100740002371052363710623A3712B6813B909F084
:1007500059F828602B681048072183EA433383EA5D
:10076000534383EA431323F00042B2FBF1F601FB4B
:100770001622013910F9016DA75607700129A654F8
:10078000EBD12B60054B6770A65400221A70F8BDA0
:1007900052080020100500205908002051080020B0
:1007A000014B1868704700BF5C080020014B1878A7
:1007B000704700BF5A080020044B187818B1044B4A
:1007C000187880F0010000F00100704759080020FF
:1007D0005A080020014B93F9000070474C08002094
:1007E000534203F0030302F0030258BF5A42032AA4
:1007F00014D8DFE802F00205090E00EB8100704713
:100800000C31A1EB800070478900C1F10F01081A7B
:100810007047C1F1030101EB800070470020704771
:100820002DE9F74F1A4E009198461A4B174606EBE2
:100830008206002403EB001A4FF0280945460021E8
:1008400004EB070B009A01912046FFF7C9FF1AF845
:1008500000200199012A0BD1BBF1090F14D8132DE7
:1008600012DC002D04DB09FB05F2B258002A0BDC78
:100870000131042905F10105E4D10134042C06F10C
:100880000406DBD1012000E0002003B0BDE8F08FBA
:10089000600800200800002070B5144E144D154C5F
:1008A00033782B7094F90030062B01DDFFF73CFF05
:1008B00094F90030104995F900005A1C22700F4A33
:1008C000D35C0F4A33700023137003220A700D4962
:1008D0000B701946FFF7A4FF0B4B80F00100C0B26C
:1008E000187010B9094B01221A7070BD4C08002015
:1008F00050080020510800204E0800205208002017
:100900004F0800204D0800205A08002059080020F8
:1009100008B54FF4487200210B4825F0EEF80B4A59
:10092000002313600A4A13700A4A1370FFF7FCFE93
:10093000094B01221A70094B1A78094B1A70BDE84D
:100940000840FFF7A9BF00BF600800205C08002036
:100950005A080020590800205108002052080020A1
:100960004C08002038B5214B1B781BB1204B0022CE
:100970001A7038BD01380328FBD8DFE800F00216F2
:100980001B241C4D95F90040013C1B4B93F9003092
:1009900022461A4991F90010194890F90000FFF712
:1009A0003FFF0028E5D02C70E3E7124D95F9004099
:1009B0000134EAE7104D0F4A95F9004092F9002002
:1009C00001342346E5E70D4D0A4A95F9004092F9B6
:1009D00000200134634203F0030304F0030458BF12
:1009E0005C42054B214693F90030D5E75A080020B8
:1009F000170500204E0800204D0800204F08002059
:100A0000500800202DE9F84F3C4B1B78BBB93C4BFC
:100A10003C4E93F900703C4B96F9005093F90090CE
:100A20003A4B93F9008005F1010A53464246494684
:100A30003846FFF7F5FE044618B186F800A0BDE879
:100A4000F88F334B03EB071BC24600264A4621466C
:100A50003046FFF7C5FE1BF80030012B0BD1BAF171
:100A6000090F08D8132D06D82A4B282202FB05337C
:100A70007A1C43F82A200136042E0AF1010AE5D136
:100A80000134042C05F10105DED1DFF888904FF028
:100A9000000813274FF0280A0AFB07942246002378
:100AA00052F8041BD9B101330A2BF9D108F101081E
:100AB0003E460AE065460FCD0FC40FCD0FC495E842
:100AC0000300013E84E803006446A4F1280C002ED4
:100AD000F0D128223146484625F00FF80137013F72
:100AE000DAD2B8F1000F05D00B4A1368642101FB7C
:100AF00008331360BDE8F84FFFF7CEBE5A08002058
:100B0000500800204D0800204F0800204E0800200B
:100B100008000020600800205C0800202DE9F74F45
:100B2000DFF8BCA0C8220021504624F0E6FF264B87
:100B300052460021154618460024013450F8046B33
:100B400005F8016B0A2CF8D10131142903F12803AF
:100B500002F10A02EED11D4B1D4993F900201D4BF5
:100B600091F9007093F900901B4B1C4993F90030E8
:100B700001EB091B4FF0000809F101091E46002591
:100B800041462846CDE90023FFF72AFE1BF8001056
:100B90000129DDE9002307D1092E05D8132F9CBFB9
:100BA00004FB07A101F806900135042D06F10106AA
:100BB000E6D108F10108B8F1040F07F10107DDD112
:100BC000074803B0BDE8F08F600800204F08002000
:100BD0004D080020500800204E080020080000208A
:100BE00048040020054B18684FF44873B0FBF3F03D
:100BF0000130082828BF0820704700BF5C0800208B
:100C000008B5FFF7EFFF0238062896BF024B40F207
:100C1000B63033F8100008BDBC6702081B4B1C49F6
:100C20004FF44872184610B525F051F8194A127859
:100C300080F82023184A127880F82123174A127866
:100C400080F82223164A127880F82323154A127856
:100C500080F82423144A1268C0F82823134A127813
:100C600080F82C23124A127880F82D2300220346A4
:100C7000114653F8044B0132CC2A81EA0401F8D121
:100C80000C4BC0F8301301221A7010BD180500205B
:100C900060080020500800204F0800204E08002067
:100CA0004D0800204C0800205C0800205A08002055
:100CB0005908002017050020014B1870704700BF2D
:100CC000160500200A4B187810B578B109490023A1
:100CD0001A46084651F8044B0133CC2B82EA040231
:100CE000F8D1D0F83003831A5842584110BD00BFE4
:100CF000170500201805002010B5FFF7E3FF30B3FB
:100D0000134C14484FF44872214624F0E0FF124B74
:100D100094F820231A70114B94F821231A70104B69
:100D200094F822231A700F4B94F823231A700E4B59
:100D300094F824231A700D4BD4F828231A600C4B16
:100D400094F82C231A700B4B94F82D231A7010BDB5
:100D50001805002060080020500800204F080020DF
:100D60004E0800204D0800204C0800205C080020A0
:100D70005A08002059080020014B1870704700BF26
:100D800014050020054B00221A70054B5F211970D5
:100D900059709970DA70034B1A707047140500206F
:100DA0000400002015050020014B1878704700BF93
:100DB00014050020064B1A785F2A07D05A785F2A5C
:100DC00004D098785F3818BF012070470020704722
:100DD0000400002007B5064BADF806001B68054867
:100DE00001220DF1060108F079F803B05DF804FB6B
:100DF00078000020C80B00202DE9F341114FDFF8E7
:100E000050800026104D8DF80760002435F8021B35
:100E1000384606F0ABFC01280FD118F804308DF8E5
:100E200007300A4800231A460DF10701006808F050
:100E30001DFE502008F034FDE4E70134042CE5D118
:100E4000EFE700BF00040240CE670208840B0020D9
:100E5000CA67020830B595B0102200210AA824F014
:100E60004CFE1422002103A824F047FE00241E4B50
:100E700001941A6C42F080521A641B6C03F0805388
:100E80000193019B194B02941A6842F440421A6084
:100E90001B6803F4404302930122029B4FF480330A
:100EA000CDE9082302254FF480030821CDE90E5334
:100EB0004FF4B473CDE9101308A8042313931295CB
:100EC00007F0C4FA07F088FA0F23CDE903354FF491
:100ED000A0504FF48053CDE90603052103A80594E3
:100EE00007F090FC15B030BD0038024000700040A3
:100EF00080B59CB0C74DDFF85883002406F0B4F9E4
:100F0000FFF7A8FF1022002110A824F0F6FD01949D
:100F10002B6BC14843F002032B632B6B03F00203DE
:100F20000193019B0FA947F201030F9306F03AFBCF
:100F300002942B6BB94843F010032B632B6B03F027
:100F400010030293029B03942B6B43F020032B634B
:100F50002B6B03F020030393039B04942B6B43F050
:100F600080032B632B6B03F080030493049B059495
:100F70002B6B43F004032B632B6B03F004030593EB
:100F8000059B06942B6B43F001032B632B6B03F043
:100F900001030693069B07942B6B43F002032B631C
:100FA0002B6B03F002030793079B08942B6B43F012
:100FB00040032B632B6B03F040030893089B0994B9
:100FC0002B6B43F008032B632B6B954D03F0080349
:100FD000224609933C21099B06F0CEFB9148012251
:100FE000022106F0C9FB22468E48042106F0C4FB0C
:100FF00022468D484FF4405106F0BEFB01263C23AB
:10100000CDE90F368548119403230FA902271293C7
:1010100006F0C8FA83480FA9CDE90F76CDE911444F
:1010200006F0C0FA04237F480FA9CDE90F36CDE9B9
:10103000114706F0B7FA0FA94FF440537A48CDE9AB
:101040000F36CDE9114706F0ADFA7848784B0360CA
:1010500006F09CF9DFF8FCE1764B2C62C5E900E371
:1010600028464FF48043C5E90434C5E90244C5E984
:10107000064406F08FFD1021284606F0D3FF2146D6
:1010800028466D4D06F0EDFF4FF48273C5E90083ED
:101090004FF400791823C5E9069328460A23C5E9C9
:1010A0000244C5E90444C5E90844AC62EB6207F0B8
:1010B000B9FE8F23224639465A488DF82C308DF8D8
:1010C0003C4006F059FB32464FF47A730BA9284690
:1010D00007F004FF4FF47A7332460FA9284608F050
:1010E000A9F8324639464F48544D06F045FB9DF865
:1010F0003C30D32B04BF524B1E70524B0126C5E926
:101100000036102240230024C5E904234FF4C073A5
:10111000C5E906344FF40063C5E908344FF40053C1
:1011200002274FF00409AB624FF0030A07230FA90F
:101130002846CDE90F73CDE911934FF00808C5E9B2
:101140000249CDE913A7159707F050FD4FF6FF723E
:101150000BA92846CDE90C860A940B960E9407F04D
:1011600065FD304606F0ACF84FF6FF720BA9284635
:10117000CDE90B78CDE90D6407F058FD4FF6FF720D
:101180000BA92846CDE90BA8CDE90D9407F04EFD3B
:101190004FF40C730A930A9B0E934FF6FF720BA940
:1011A0002846CDE90B980D9607F040FD40F26A51B4
:1011B000284607F059FD342221460FA824F09DFC53
:1011C000214D224B2C61C5E900340923C5E90536C0
:1011D0001D23C5E9073A40F20D1140F24313C5E95A
:1011E000091340F2171040F24713C5E90B032846D4
:1011F000C5E90244AC8685F8364006F0D7FFFF21EA
:101200004FF4806CF022CDE914140521CDE916C10C
:1012100022E000BF003802400004024000100240FB
:10122000C80C002000080240000C02405C0D0020A9
:1012300000300240A0860100C80B0020940B002063
:10124000880B0020400100A0200C00200068014015
:1012500000500140005C00404FF4A0730FA9CDE99D
:101260001024CDE9184228462246204D1A93CDE994
:1012700012370F94ADF86C408DF86E4007F061F8AE
:101280001B4B2B601B6898472B681A4DDB689847EF
:10129000194B2846C5E90034C5E90274C5E90A4777
:1012A000C5E90C4406F082F83146284606F036F9C6
:1012B00000F0F7FB00F0F4FB08F078FA0F4A314633
:1012C000404608F098FB0E4B0E4A186021460E4827
:1012D00008F09FFA0D4B0E4A186021460D4808F0A1
:1012E00098FA0D4B186008F073FAFEE7800B0020A7
:1012F000A00000201C0D002000B002408000002053
:10130000840B00201C680208F90D0008900B0020D7
:10131000F8670208B11A00088C0B0020704770476C
:101320007FB5094B8DF817201B6802930DF117024A
:101330000123009201930A460146044806F0D2FCBC
:1013400007B05DF804FB00BF7C000020C80C002043
:101350007FB500238DF81730084B1B6802930A46AF
:1013600001230DF11701009101930146044806F095
:1013700049FD9DF8170007B05DF804FB7C000020D4
:10138000C80C00201FB5084C24680092CDE9013438
:101390000A4601230146054806F034FD003818BF0F
:1013A000012004B010BD00BF7C000020C80C00204C
:1013B00005F086BF10B5064C00222046042106F039
:1013C000DBF920460122BDE81040042106F0D4B923
:1013D0000008024038B50B4D044601220A484FF47C
:1013E000005106F0C9F900220421284606F0C4F98C
:1013F0002046FFF7EFFC28460122BDE838400421D3
:1014000006F0BAB900080240000C024038B50B4D96
:10141000044600220A484FF4005106F0ADF90022BC
:101420000421284606F0A8F92046FFF7D3FC2846F9
:101430000122BDE83840042106F09EB900080240B0
:10144000000C0240F7B5144E144F05460C463046CA
:101450000022042106F090F900224FF40051384692
:1014600006F08AF92846FFF7B5FC0D4B0D481B68BE
:10147000224601A907F0DEFE384601224FF4005152
:10148000019C06F079F930460122042106F074F936
:10149000204603B0F0BD00BF00080240000C02402F
:1014A00078000020C80B002005F00ABF0268034B3B
:1014B0009A4201D105F0F2BE704700BF0010004013
:1014C0007047000082B00E4B00220092596C41F42C
:1014D00080415964596C01F4804100910099019256
:1014E000196C41F0805119641B6C03F08053019317
:1014F000019B0F216FF0010002B005F007BF00BF94
:10150000003802400268094B9A4282B00BD1002396
:101510000193074B1A6B42F480521A631B6B03F45E
:1015200080530193019B02B0704700BF003002401E
:101530000038024007B50F4B02689A4216D10022CC
:10154000A3F5F0430192196B41F4000119631B6B81
:1015500003F40003019305215A20019B05F0D6FEF8
:101560005A2003B05DF804EB05F002BF03B05DF84C
:1015700004FB00BF00B002402DE9F043044689B0EF
:101580001422002103A824F0B8FA2268244B9A42BE
:1015900043D1244C244800250095236B43F00403D9
:1015A0002363236B03F004030093009B0195236BDB
:1015B00043F001032363236B03F001030193019BB9
:1015C0004FF012094FF400734FF00108032704266F
:1015D00003A9CDE90339CDE90587079605F0E2FFB8
:1015E0004FF480731148079603A9CDE90339CDE97B
:1015F000058705F0D7FF0295236C43F400032364AD
:10160000236C03F400030293029B236A43F4000358
:101610002362236A23F40003236209B0BDE8F08348
:10162000005C004000380240000802400000024018
:10163000F0B599B004461422002107A824F05DFA01
:1016400030220DEB0200002124F057FA22685E4B95
:101650009A4240F0B78008230C93C02310930423D0
:1016600012930CA84FF40033159307F093F908B1C7
:10167000FFF726FF554B5648002400945A6C42F061
:1016800080625A645A6C02F080620092009A01945F
:101690001A6B42F020021A631A6B02F020020192C8
:1016A000019A02941A6B42F001021A631A6B02F05B
:1016B00001020292029A03941A6B42F002021A6328
:1016C0001A6B02F002020392039A04941A6B42F01E
:1016D00040021A631A6B02F040020492049A0594C5
:1016E0001A6B42F004021A631A6B02F004020592AC
:1016F000059A06941A6B42F008021A631B6B03F0FA
:101700000803069302250E26069B0B964FF4806372
:1017100007A9CDE90735CDE9094505F043FF41F6B5
:1017200058032C480B9607A9CDE907350927CDE9C1
:10173000094505F037FF032327480B9707A9CDE993
:101740000735CDE9094505F02DFF4FF470632248B8
:101750000B9607A9CDE90735CDE9094505F022FF2C
:101760004FF40C631D480B9607A9CDE90735CDE969
:10177000094505F017FFC02319480B9607A9CDE9C5
:101780000735CDE9094505F00DFF082315480B96EF
:1017900007A9CDE90735CDE9094505F003FF4FF469
:1017A000A0530E480B9707A9CDE90735CDE90945A8
:1017B00005F0F8FE58202246052105F0A7FD582027
:1017C00005F0D6FD19B0F0BD0068014000380240B8
:1017D00000140240000002400004024000180240D1
:1017E00000080240000C024010B5044688B01422E4
:1017F000002103A824F081F92268144B9A4223D1D6
:1018000003F56843002101915A6C114842F480129B
:101810005A645A6C02F480120192019A02911A6B76
:1018200042F020021A631B6B03F020030293029B19
:101830004FF4607202230321CDE903230523CDE990
:10184000061303A905F0AEFE08B010BD005001401C
:10185000001402402DE9F04186B0002303932B4B86
:101860001C68002C4FD14FF00108C3F80080284BB2
:1018700000949A6B274842EA08029A639B6B03EA3A
:1018800008030093022703260C25009B01A94FF6AD
:101890003F03CDE90137CDE9046505F083FE1E481D
:1018A000059501A9CDE90187CDE9034605F07AFE4A
:1018B00048F233131948059501A9CDE90137CDE95F
:1018C000034605F06FFE4FF683731548059501A991
:1018D000CDE90137CDE9034605F064FE4CF2037310
:1018E0001048059501A9CDE90137CDE9034605F07A
:1018F00059FE60230C48059501A9CDE90137CDE9D2
:10190000034605F04FFE06B0BDE8F081640D0020EF
:101910000038024000140240000802400018024053
:1019200000100240000C02400004024070B588B074
:1019300000230293204B1A6C42F010021A641B6CB5
:1019400003F010030293054601A903A8029B07F0C8
:1019500003F8069B4BBB06F0EFFF184E184B3360A5
:1019600040F2E733F360174BB0FBF3F3013B7360D6
:10197000304600233361B360B36107F03FFE044695
:1019800080B9304607F0FCFC044658B9362005F013
:10199000EFFC0F2D0DD822462946362005F0B6FC67
:1019A000094B1D60204608B070BD06F0C5FF400021
:1019B000D3E70124F6E700BF00380240680D00209D
:1019C0000010004040420F00080100207047FEE771
:1019D000FEE7FEE7FEE77047014807F00FBD00BFD6
:1019E000680D0020014806F04FBC00BF200C00200D
:1019F000014805F009BD00BF1C0D00200120704703
:101A000008B524F02FF9162303604FF0FF3008BD0E
:101A100008B524F027F916230360FEE770B50D46DC
:101A200014460E46731B9C4201DC204670BDAFF38A
:101A3000008006F8010BF5E770B50D4614460E461A
:101A4000731B9C4201DC204670BD16F8010BAFF3FE
:101A50000080F5E74FF0FF3070474FF400534B60C4
:101A60000020704701207047002070470A4A116823
:101A700008B5034609B9094911601068694603446D
:101A80008B4206D924F0EEF80C2303604FF0FF30B0
:101A900008BD1360FCE700BFB00D0020687801208E
:101AA000704708B500F0BAFDBDE8084000F03CBD45
:101AB00000F0B6BD704710B50421044622F0B6FE12
:101AC000204610BD38B50C4B0C4C18800C4B8220B6
:101AD00019806368984740F6110398420AD1094D6E
:101AE00023682C60822098472B688220DB68984707
:101AF000002038BD0120FCE7BE0D0020D8000020EA
:101B0000BC0D0020C00D00204FF4A071F020FFF7A5
:101B1000D9BF0000F7B5374D2B6804461B698220FA
:101B20009847208000284ED02B680DF106025B6993
:101B300001A982209847304B1B78002B4BD0BDF871
:101B4000063040F6746293423FD9ADF80620BDF8E6
:101B50000630D21A92B20A2A42D90B23B2FBF3F210
:101B6000264B1B889A4201D9013B9AB2BDF804303A
:101B700040F6B8318B4235D8C3F571630E339BB252
:101B80000F21B3FBF1F31E4909888B4201D90139BA
:101B90008BB21C4E1C4D30682F68834281B28CBFC3
:101BA000591AC91AB8B2BA428CBF101A801A89B22F
:101BB00080B201440529C8BF33603368C8BF2A60BA
:101BC00063802B68A38003B0F0BDB32B9CBFB4230C
:101BD000ADF80630BBE7BDF80620A2F5B472B9E750
:101BE0000022C3E7C3F56D6308339BB20E2BC7D841
:101BF0000023CEE7C00D0020880B0020BC0D002084
:101C0000BE0D0020B80D0020B40D002037B5684689
:101C10000D461446FFF77EFFBDF8000030B1BDF859
:101C200002302B60BDF804302360012003B030BDCA
:101C3000032821D8DFE800F0020B12190F4B1A68B5
:101C4000B2FA82F2520904210D4805F095BD0B4B02
:101C50005A68B2FA82F252090821F5E7074B9A68EE
:101C6000B2FA82F252091021EEE7044BDA68B2FAB6
:101C700082F252092021E7E7704700BFC40D00201F
:101C800000100240032821D8DFE800F0020B1219EF
:101C90000F4B1A68003A18BF012204210D4805F0C5
:101CA0006BBD0B4B5A68003A18BF01220821F5E7BB
:101CB000074B9A68003A18BF01221021EEE7044B47
:101CC000DA68003A18BF01222021E7E7704700BF19
:101CD000C40D00200010024003280DD8DFE800F0FA
:101CE0000206080A0421054805F04BBD0821FAE761
:101CF0001021F8E72021F6E7704700BF00100240EE
:101D000008B5032811D8DFE800F0020A0C0E042100
:101D1000074805F02BFD431E5842584108BD0821D5
:101D2000F6E71021F4E72021F2E70020F3E700BFF7
:101D30000010024070B5084D00240126E0B2FFF704
:101D4000DFFF18B12B68012B18BF2E600134052C62
:101D500005F10405F2D170BDC40D0020012380F807
:101D6000781080F879307047704700207047000085
:101D7000034B4164003918BF01211970704700BF3F
:101D8000236B0120704700207047836B0BB108461E
:101D9000184770474FF6FF707047406803689B69AB
:101DA00018477047704770477047704710B5044632
:101DB00000F04CFD23680349D3F890302046BDE87D
:101DC00010401847000000D008B503680446D3F857
:101DD0008430984723682046DB6F984700F0ECF882
:101DE000236820465B6F98472920FFF70FFB00F020
:101DF000E3F8236820465B6F9847F8E710B5044680
:101E00000AF03EFE23682046D3F8BC30BDE81040FF
:101E1000184700F0FDBC00F001BD00F035BD00F03A
:101E2000D3BC00F045BD00F04DBD00F0D7BC0AF0BA
:101E300055B810B58421044622F0F8FC204610BDA8
:101E400010B590F8341090F878400C4B8C421A780A
:101E500009D03AB90A4A0B491488088810800C80C6
:101E600001221A7010BD002AFCD0054A05491488C9
:101E7000088810800C800022F3E700BF1C6B012053
:101E8000186B01201A6B012070B50D46194635B943
:101E9000094B0A4A0A4840F2FF2123F00DFCC0E931
:101EA0000F52084B003A18BF01221A700368BDE8B0
:101EB0007040D3F8903018475868020890680208BC
:101EC000DE680208226B012008B5094B1B888B4293
:101ED00003D8084B1B88934205D9074B074A08488B
:101EE000A32123F0E9FB074B1980074B1A8008BD9B
:101EF000186B01201A6B0120236902088669020809
:101F0000DE6802081E6B0120206B0120034690F85A
:101F10007A0018B1586803681B68184770470000BA
:101F2000012108B50022084607F0C6FC0A4B1860DC
:101F300028B90A4B0A4A28210A4823F0BDFB00228F
:101F40000421012007F057FD074B186018B9074B13
:101F5000034A2C21F0E708BDD80D0020B86A02081A
:101F6000016B0208306B0208D40D00207D6B020863
:101F7000024B4FF0FF31186807F0E8BCD80D002085
:101F8000014B186807F00EBDD80D0020024B002150
:101F9000186807F0DBBC00BFD80D0020FFF7F0BFCA
:101FA00003480449006800231A4607F05FBD00BFDC
:101FB000D40D00209800002013B5084C00231A46C9
:101FC00001A9206807F083FD20684FF0FF3300224D
:101FD00001A907F07CFD02B010BD00BFD40D0020A8
:101FE00003685B6C18470120704703689B6A1847B9
:101FF000FEE740F2EF307047054B0360054B4FF0B2
:102000008062C3F88820BFF34F8FBFF36F8F704794
:102010001C6D020800E100E010B504464FF45A615F
:10202000FFF7EAFF204622F001FC204610BD000029
:1020300082B0002301930E4B1A6B42F400021A6324
:102040001A6B02F400020192019A1A6942F400022A
:102050001A611A6922F400021A61064B064A1A61D3
:10206000064A5A61064B4FF080629A6002B0704790
:10207000003802401C0D0020D1220008F11F00088A
:1020800000E100E008B50A2809D8DFE800F00610F2
:102090000E080808081010101000022008BD054B9B
:1020A000054A0648902123F007FB0020F6E70120AF
:1020B000F4E700BFBF6B0208DA6B0208256C020868
:1020C00038B50C46887FFFF7DDFFA58AE28A164BFC
:1020D0002169586342EA05425A64628BD963521BF4
:1020E0001A642568082D0ED19A611A615862207F02
:1020F0000E4A42EA0062DA61E2681A620C4A5961E9
:10210000D9601A6038BD0022D8611A61E1680A0AF4
:10211000480902F4784200F4FC600243C1F3C401B0
:102120000A439A63034AECE700B002400900010049
:10213000012302000123030008B50B280BD8DFE8B8
:1021400000F00612100A0A0A0A0808080808022005
:1021500008BD0520FCE7054B054A06486F2123F022
:10216000ABFA0020F4E70120F2E700BFBF6B0208E2
:10217000706C0208256C02082DE9F04191F81D8071
:102180000C464046FFF7D8FFA77F05463846FFF7C5
:10219000D3FF06463846FFF775FFA18A628B444B92
:1021A000521A1A649A61228B521A1A61E28A58638F
:1021B00042EA01425A6421696268D963DA602068A0
:1021C000802828D0227F0FD8202867D0402865D0CB
:1021D00004281AD0364B45EA026545F40035B84567
:1021E000DD6161D0334A44E0B0F5807F04D0B0F5C2
:1021F000007FEFD1304800E0304840EA0262DA6107
:10220000E2681A625E62596132E045EA026242F4B3
:102210000032DA61F6E7A068021DDA62227F45EA41
:10222000026545F40035DD615E625961017841B1B6
:10223000012921D0224B234A23484FF48D7123F0EA
:102240003BFADA69418822F47F42013922F0100218
:1022500042EA0122DA610121154BDA6942F02002DB
:10226000DA61DA699206FCD410229A600029B9D0AA
:10227000164A1A60BDE8F081B2F1FF01DA694088C0
:1022800022F47F4200F1FF3022F0100242EA0022E5
:1022900042F0100218BF0121DA61DDE745EA02626F
:1022A000034B42F40032B4E742F20132E1E700BFEF
:1022B00000B0024001230100090002000A000200F0
:1022C000BA6C0208D46C0208256C020801230200D3
:1022D000024B1B68586803685B691847246B012030
:1022E00070B5044625460A4B0C3000266060267205
:1022F000667245F8203B602229460AF017FD04F576
:102300005A63EE6024359D42FBD1204670BD00BF6C
:102310001C6D0208034B1A68D207FCD423229A6072
:10232000704700BF00B002407047000030B50F4C4E
:102330002568ED07FCD423250904A56041F00101BF
:102340000225FF2B65636164E0630AD0084965627A
:1023500041EA0363E361074B22626061E06023604E
:1023600030BDE561039BA363034BF8E700B0024077
:1023700009000100010002000100030030B50E4C0D
:102380002568ED07FCD423251204A56042F0010264
:102390000225FF2B65636264E063E16008D01B06E1
:1023A00043F00213E361054B65626061236030BD59
:1023B000034BE3610123F9E700B002400100020092
:1023C000020002FF30B50B4C2568ED07FCD4232535
:1023D00012041B06A56043F40033022542F00102FB
:1023E00065636264E063E160E361034B65626061C1
:1023F000236030BD00B002400100020001207047A0
:102400000C2070470C2303FB0100083070470C239D
:1024100003FB0100083070470120704743F6184065
:10242000704743F6184303FB01000830704743F63A
:10243000184303FB0100083070470120704710204B
:10244000704700EB01100830704700EB01100830B6
:102450007047084600F00EBF10B5034B03600446FA
:1024600009F093FA204610BDD46D020810B5044659
:10247000FFF7F2FF2046142122F0D8F9204610BDC4
:1024800010B5034B0360044609F07FFA204610BDE7
:10249000A06D020810B50446FFF7F2FF204643F690
:1024A000204122F0C3F9204610BD000010B5034BB7
:1024B0000360044609F069FA204610BD6C6D0208FD
:1024C00010B50446FFF7F2FF2046182122F0AEF9BE
:1024D000204610BD10B5094B0360044600F571504D
:1024E0000C30FFF7B9FF04F12C00FFF7C9FF04F12E
:1024F0001400FFF7DBFF204610BD00BF086E020886
:1025000008B50248FFF7E6FF08BD00BFB41C002075
:1025100010B50446FFF7DEFF20464FF4775122F056
:1025200085F9204610BD00002DE9F34100F0ECFADA
:10253000054600F0EDFA00240146234628462246CF
:10254000009413F0C1F8274B274A1A60204603F085
:10255000E3FB264D264B274A27489A6013F01CF8C8
:102560002B68BFF35B8FDB0736D4284622F060F977
:1025700090B3224C224F234B236007F1180604F13D
:10258000140004F12C086060C4F80880E76026613C
:1025900009F0FCF91C4B6361404609F0F7F91B4B4D
:1025A000E362384609F0F2F904F5405303F546605A
:1025B000174AC3F84C2C04F065FA224607F11401BF
:1025C000304603F0A1FC304600F054FE114823F0E1
:1025D00091F8284622F038F90F4802B0BDE8F041E2
:1025E000FFF7E4BB886B0120600E0020B01C0020C8
:1025F000800E0020640E00209C000020B41C0020EF
:1026000000590020086E02086C6D0208A06D0208D7
:10261000D46D020801250008DC0D00207047000081
:102620000148FFF7D1BB00BFDC0D002070B5264E7E
:10263000264C274D274B23603046FFF751FE284696
:1026400018F048F9244810F04FFD244B2448DC6072
:1026500000224FF48071C3E9121222491A86C3E99D
:102660001A12214983F85820C3E91E011F49C3F8F3
:1026700080101F491F480B60F021C3E90422C3E901
:102680000622C3E90822C3E90A22C3E90E22C3E9EC
:102690001022C3E91422C3E917225A6683F8702076
:1026A0005A67C3E9016501801348018013484FF45C
:1026B000A07101801248018012490A70012283F83A
:1026C0003420114A1A6070BD0C0F0020AC1C002091
:1026D000800E002048680208640E0020DC0D0020F7
:1026E0000000010101000001000450001A00140064
:1026F000246B0120186B01201E6B01201A6B012036
:10270000206B01201C6B0120D46902080148FFF7EF
:1027100073BC00BF0C0F0020002070478180704701
:10272000C180704701817047418170477047704791
:1027300070477047704710B4C4880368121B8488C0
:102740005B6D091B12B25DF8044B09B218474FF6D6
:10275000FF7383814FF0FF3303621368C36110601E
:102760007047002070478B88838001207047704736
:1027700080F82610704790F82600704710B50022A8
:10278000B1F90840B1F90A10028042808480C1800A
:1027900010BD0022028042808280C2807047017793
:1027A000704780ED080A704780F82410704780F861
:1027B0002510704701207047983070478C30704763
:1027C0008430704770470000034B902283F85A23EF
:1027D00083F85823704700BF00E100E0094A0A4926
:1027E000D3680A48C3F30A03013B9BB20B8011690B
:1027F000C1F30A01013901801364536B43F00103F3
:102800005363704700680140765A0020745A0020D4
:10281000014BD3F8AC00704700680140024B012225
:10282000C3F8AC105A6270470068014070477047A7
:1028300010B52C21044621F0F9FF204610BD10B53B
:10284000BC21044621F0F2FF204610BD70B50446BD
:1028500009F099FB23689D6E0FF0DEF901462046D2
:10286000A8472368054AD3F88C502046AC4600237D
:10287000BDE87040A2F51631604700BF00B004D03B
:1028800009F068BB09F072BB09F02EBB09F09DBCD2
:1028900090F8252012B103685B691847704790F8DB
:1028A00025201AB190F8242002B11860704700006A
:1028B000034B4FF080629A604FF080729A607047CD
:1028C00000E100E0084B4FF08062C3F88820BFF3BE
:1028D0004F8FBFF36F8F4FF08072C3F88820BFF324
:1028E0004F8FBFF36F8F704700E100E070B500239A
:1028F000124E8380124B0360336893F858200546CC
:102900000AB1D86C00B998680368DB6A98473368E5
:10291000B0FA80F4D86C640930B10368DB6A984778
:10292000002808BF44F001042CB9064B064A0748AA
:102930002C2122F0C1FE284670BD00BF246B01206F
:10294000186F0208146E0208726E0208AB6E02085D
:1029500070B5254E3568BFF35B8F15F0010540D18A
:10296000304621F065FF00283BD0204C204B2561EC
:1029700004F13400C4E90035C4E90255E584A562D8
:10298000A58510F096FE04F158000BF085FE194B5A
:10299000A3652046184B40F8843BFFF7A7FF174B71
:1029A000C4F884302433C4F88C304FF4C803C4E92D
:1029B00028350023C4F8AC30C4F8B030C4F8B430C3
:1029C000C4F8B8300E480F4BC4F89050C4F89C506F
:1029D000C4F8A850C4F8983022F08CFE304621F09C
:1029E00033FF024870BD00BF785A00207C5A002097
:1029F000488D0208386F0208B06F0208FC8C02088C
:102A0000C5270008DC8C020838B5184C23685BB376
:102A1000174B184A1B6C11888B4216D1164B19881C
:102A200005F0BCFC236893F86A200025013283F886
:102A30006A2083F87C50FFF7B3FA20680AF020F888
:102A40002846BDE83840FFF7F3B805F0A7FC246836
:102A5000236820461B6A9847012384F87C300020B5
:102A6000BDE83840FFF70EB938BD00BF246B012028
:102A700000680140765A0020745A0020704708B55B
:102A80000C2938D8DFE801F0070B0F13172F1B1F95
:102A900023272B2F330003F08BF9006808BD03F0C8
:102AA00087F94068FAE703F083F98068F6E703F0F6
:102AB0007FF9C068F2E703F07BF90069EEE703F005
:102AC00077F98069EAE703F073F9C069E6E703F094
:102AD0006FF9006AE2E703F06BF9406ADEE703F0A2
:102AE00067F9806ADAE703F063F94069D6E703F033
:102AF0005FF9C06AD2E70020D0E710B50421044690
:102B000021F094FE204610BD00487047087002086E
:102B10000820704713B5002451B1036801948DF863
:102B2000034001AA9C680DF10303A04702B010BD49
:102B30000846FBE7C0897047008A7047C088704725
:102B400080887047807A00F07F007047807AC009E3
:102B500070470020704700009FED010A704700BFDA
:102B600000000000806A7047704730B5036801813B
:102B700085B06D460146D3F8843004462846984710
:102B800095E807003C3484E8070005B030BD30B557
:102B90000368418185B06D460146D3F88430044610
:102BA0002846984795E807003C3484E8070005B0BC
:102BB00030BD0022028042808280C280704780F84F
:102BC0003610704770B5036804461B6B154698476E
:102BD0002368294620465B6EBDE8704018470020F8
:102BE0007047806C70477047704790F82C304BB13D
:102BF00000F16C021268C2653BB100F174031B68FE
:102C00000366704700F16802F4E700F17003F6E72D
:102C10007047704790F82D3080F85A30704710B5E3
:102C20000821044621F002FE204610BD10B54C21BB
:102C3000044621F0FBFD204610BD10B57821044666
:102C400021F0F4FD204610BD10B54FF41571044677
:102C500021F0ECFD204610BD08B5FFF719FE08BDB8
:102C600010B50446006B50B10368DB68984730B17B
:102C7000206B036821469B68BDE81040184710BDD3
:102C80000B7970B590F82C6004460D460BB916B15F
:102C900070BD002EFCD0B3FA83F35B0984F82C30AE
:102CA00023682046D3F88C309847236820465B6918
:102CB0009847002EECD02B79012BE9D123682046D0
:102CC000D3F88830BDE8704018470000036870B53D
:102CD0005E6B124B1B6804468DB22BB9104B114A28
:102CE0006C21114822F0E8FC1049828D098891423C
:102CF00003D80F4B0B4A6D21F3E713F812200D4B4D
:102D00001B6853F8220003681B6B9847291A334647
:102D1000204609B2BDE87040184700BF7C6B012017
:102D2000A8700208EA70020825710208806B012071
:102D30006C710208846B012000224FF0FF31C0E962
:102D40000021826070470000074A02600022C0E94B
:102D50000122C0E90322C0E90522C0E907224FF49D
:102D600080728284704700BF2491020870B50368A6
:102D700004461B6B154698472368294620465B6B23
:102D8000BDE87040184770B504461D46BDF9106097
:102D9000FFF7ECFF2368294620469B6B9847236882
:102DA00031462046DB6BBDE87040184710B526223F
:102DB0000446002122F0A1FE2046FFF7C5FF044B88
:102DC0002360FF2384F826300023A362204610BD31
:102DD0009C8E020810B526220446002122F08DFEAA
:102DE0002046FFF7B1FF0A4B23600A4BA3624FF660
:102DF000FF73A3854FF47F020023C4E90C322387BD
:102E00004FF0FF32C4E91023E363204610BD00BF3A
:102E10000C8E0208B47102082DE9F04F04468DB003
:102E2000A1460025FFF790FFB34BA56249F82C3B64
:102E300004F158064846FFF7B9FF3046FFF784FF14
:102E40004FF47F43A4F88430012384F87C30AB4BEB
:102E5000A36504F18C03C4F88050C4F88850184668
:102E60000393FFF7A3FFA64BC4F88C302A460398C0
:102E7000C4F8B8502946C4E93055C4E93255A4F81D
:102E8000BC50FFF773FF03999E4F304608F090FD4A
:102E900004F1D00304F1FC0818460493FFF786FF01
:102EA0004046FFF797FF04F5A27318460593FFF716
:102EB0007DFF04F5B87304F5DE7A184604F5027B4D
:102EC0000293FFF787FFC4F87071C4F8B8515046F9
:102ED000FFF780FFC4F8BC71C4F804525846FFF7EE
:102EE00079FF894BA3606423C4F80872C4F8505278
:102EF0005022009329464846F023FFF744FF4FF045
:102F00007F47322384F8523049462046676508F0EF
:102F10004FFD64232A46294603980093F023FFF7C8
:102F200032FF0523A4F8BC30784BC4F8C03003F559
:102F30004C533333C4F8C430A3F5CC43663BC4F8D8
:102F4000C83003F1331303F54C53C4F8CC3030468A
:102F5000D4F85890FFF749FE142384F88530D9F847
:102F60009030DFF8B09130469847642300935022A8
:102F7000F02329463046FFF706FF3146204608F089
:102F800017FD50232A46049800932946F023FFF7A3
:102F9000FAFE5F4BC4F8F8300499204606AE08F0FC
:102FA00007FD062240463C21FFF7E0FE4146304641
:102FB000C4F82C71A4F830510BF06CFC96E80700B3
:102FC00004F59C7383E8070011230AA94046ADF875
:102FD0002C30CDF828900BF005FF4146204608F034
:102FE000E7FC1C2305980093222215234021FFF7BC
:102FF000CAFE4FF0FF33C4F86C31C7234FF01908F5
:10300000059984F86A31204608F0D2FC0298CDF880
:103010000080434628224421FFF7B5FED4F87031E2
:103020000299D3F88430C4F8A0713046A4F8A451B2
:10303000984796E8070004F5D67383E80700102345
:103040000298ADF82C300AA9CDF828900BF0CAFEF2
:103050000299204608F0ACFC434628225046CDF8A1
:1030600000806E21FFF78FFED4F8BC31C4F8EC71FC
:1030700051463046D3F88430A4F8F051984796E88A
:10308000070004F5FC7383E807000F230AA95046E4
:10309000ADF82C30CDF828900BF0A4FE5146204618
:1030A00008F086FC434628225846CDF80080982137
:1030B000FFF769FED4F80832C4F838725946304632
:1030C000D3F88430A4F83C52984796E8070004F5FA
:1030D000117383E807000E230AA95846ADF82C3077
:1030E000CDF828900BF07EFE2046594608F060FC93
:1030F00020460DB0BDE8F08FF0720208547202084D
:10310000788F0208C4710208F000B400996600FFCD
:1031100017BDFEFFB47102087047704700F5987341
:103120000868496803C3704770477047416070473B
:1031300070470000064BC0F84C310023C0F85031F6
:1031400000F5A273C0F84801C0F84031704700BFD5
:10315000713500080123037270477047704710B43F
:10316000C26841685410034601EB6200D20748BFB1
:103170000A599B685DF8044B48BFD358184703466B
:10318000406830B19A681AB9D86800F001007047F9
:103190000120704710B50C21044621F047FB204662
:1031A00010BD10B51021044621F040FB204610BD93
:1031B00010B54FF4AE71044621F038FB204610BD27
:1031C00010B50EF029FD0368BDE81040DB6B184711
:1031D00010B50446D0F8400158B10368DB68984741
:1031E00038B1D4F8400103689B6898470023C4F8BD
:1031F000403110BD044B1B6893F858200AB1D86CBD
:1032000000B99868704700BF246B0120F8B51746D5
:1032100004460E460EF0C2FD124B1C60124B23609A
:10322000124B0025C4E95135114BC4E953551868B8
:10323000036801219B68C4E94F55C4E95576984756
:10324000284602F069FDFFF7D5FF19F0ECF9FFF70A
:10325000D1FF19F063FAFFF7CDFF19F06BFA2046A2
:10326000F8BD00BF786B01204C7802083478020862
:10327000246B0120064BC0F84C310023C0F85031BC
:1032800000F5A273C0F84801C0F84031704700BF94
:1032900071350008064BC0F84C310023C0F850319E
:1032A00000F5A273C0F84801C0F84031704700BF74
:1032B00025340008064BC0F84C310023C0F85031CB
:1032C00000F5A273C0F84801C0F84031704700BF54
:1032D000DD32000803685B6A184700002DE9F14FF2
:1032E000D0E9556A0746B06803681B6A9847B0F58D
:1032F000437F05D2434B444AA321444822F0DCF9E2
:10330000706803681B6A98470F2803D8404B3E4AF1
:10331000A421F2E7F06803681B6A98470B2803D8DA
:103320003C4B394AA521E8E70EF076FCDFF8EC903B
:1033300004300EF096FCD9F8000010B10368DB6889
:103340009847D9F8000010B103681B689847DFF868
:10335000D080D8F8000010B103685B699847D7F8AF
:103360003C0110B103685B689847D8F8000010B1C1
:1033700003681B689847D7F83C0110B103689B6845
:103380009847F0680021FFF7A5FF4FF0000B224B94
:10339000C0F804B0044680F808B00360B068036861
:1033A00059465B6A9847054603F016FA7068036849
:1033B00059465B6A98472946064603F0EBF9331DE8
:1033C000C7F83C61C9F80040C8F80050CAF800309E
:1033D0002B68C6F808A02846DB68EE639847336878
:1033E00030461B6898472146284610F0C5FD2368E3
:1033F00020461B69984723685B69204601B0BDE8F9
:10340000F04F18477C7302080A740208F07402082F
:1034100037750208DA750208A07802086C6B012083
:10342000686B01202DE9F14FD0E9556A0746B06875
:1034300003681B6A984743F61743984205D8444BE4
:10344000444AA321444822F037F9706803681B6A94
:1034500098470F2803D8414B3E4AA421F2E7F06871
:1034600003681B6A98470B2803D83D4B394AA521AE
:10347000E8E70EF0D1FBDFF8F09004300EF0F1FB3E
:10348000D9F8000010B10368DB689847D9F800004C
:1034900010B103681B689847DFF8D080D8F80000A7
:1034A00010B103685B699847D7F83C0110B1036815
:1034B0005B689847D8F8000010B103681B6898470C
:1034C000D7F83C0110B103689B689847F068002169
:1034D000FFF700FF4FF0000B224BC0F804B004468A
:1034E00080F808B00360B068036859465B6A984783
:1034F000054602F033FE7068036859465B6A9847D8
:103500002946064602F0CCFD331DC7F83C61C9F8D8
:103510000040C8F80050CAF800302B68C6F808A070
:103520002846DB68EE639847336830461B68984747
:103530002146284610F020FD236820461B69984745
:1035400023685B69204601B0BDE8F04F184700BF13
:103550007C7302087D760208F07402083775020851
:10356000DA750208A07802086C6B0120686B0120F4
:103570002DE9F14FD0E9556A0746B06803681B6A28
:103580009847B0F5DA7F05D2434B444AA32144481B
:1035900022F092F8706803681B6A98470F2803D8D6
:1035A000404B3E4AA421F2E7F06803681B6A984743
:1035B0000B2803D83C4B394AA521E8E70EF02CFB39
:1035C000DFF8EC9004300EF04CFBD9F8000010B19D
:1035D0000368DB689847D9F8000010B103681B68DE
:1035E0009847DFF8D080D8F8000010B103685B6915
:1035F0009847D7F83C0110B103685B689847D8F842
:10360000000010B103681B689847D7F83C0110B15F
:1036100003689B689847F0680021FFF75BFE4FF056
:10362000000B224BC0F804B0044680F808B00360D9
:10363000B068036859465B6A9847054603F0B0F9DD
:103640007068036859465B6A98472946064603F046
:1036500071F9331DC7F83C61C9F80040C8F8005043
:10366000CAF800302B68C6F808A02846DB68EE636D
:103670009847336830461B6898472146284610F023
:103680007BFC236820461B69984723685B692046BA
:1036900001B0BDE8F04F18477C7302085577020867
:1036A000F074020837750208DA750208A07802087B
:1036B0006C6B0120686B0120806C7047C06C704798
:1036C00070477047704730B4C2684468551003466D
:1036D00004EB6200D20748BF62599B6830BC48BF08
:1036E000D35818470346406830B19A681AB9D86869
:1036F00000F0010070470120704710B550210446CA
:1037000021F094F8204610BD10B51021044621F098
:103710008DF8204610BD00F5297002F0DFBB38B5EA
:1037200000F5BE73994204460D4603D10EF074FABB
:10373000FFF7A0FD04F5E2739D4204D12368204603
:10374000D3F88C30984704F50374A54205D10EF0E8
:1037500063FABDE83840FFF7ADBD38BD10B5064B84
:103760000360064BC0F8A432044600F52970FFF749
:103770003AFA204610BD00BF6C790208BC830208EB
:1037800010B50446FFF7EAFF204640F2145121F03D
:103790004DF8204610BD0000F8B5194B018F1B886D
:1037A0008B4206462AD9174B1B682BB9164B174A72
:1037B00017486C2121F080FF13F81120154B1B686E
:1037C00053F82250144B186802F0E2FA2B680746AF
:1037D0009B6B284698472B6804469B6C39462846C5
:1037E00098472B6814FB00F45B6A394628469847D3
:1037F000A4B223181BB2A6F84630F8BD0023FAE79E
:10380000806B01207C6B0120A8700208EA7002081E
:1038100025710208846B0120886B01202DE9F04F8F
:10382000044691B025460026FFF78EFAC84BA662E3
:1038300045F82C3B31462622284622F05EF92846E0
:10384000FFF782FAC34BE36204F1580BFF2304F144
:10385000A00A84F8523066655846FFF7BBFA04F1B7
:10386000E8095046FFF7B6FA4846FFF7B3FABA4BF5
:10387000C4F8E83004F59A73C4F83061184603932D
:10388000FFF7A8FA04F5BE73184604930BF018FE70
:1038900004F5E273184605930BF012FE04F503736A
:1038A00004F51578184606930BF00AFE4046FFF71C
:1038B00091FAAA4BC4F8543204F52973C4E9A766F7
:1038C0001846079302F0C0FAA54BC4F80435A54B7F
:1038D000C4F80C35A44BA3604FF4A0733246C4F86F
:1038E0000845C4F81065314600932846F023FFF7D9
:1038F0004AFA4FF07F4363659B2384F85230294690
:10390000204608AD4FF0FF3708F052F81022584615
:103910000C21FFF72BFA59462846C4F88870A4F802
:103920008C600AF0B7FF95E8070004F1940383E880
:1039300007008E4B0E934FF015020EA95846ADF8B6
:103940003C200BF04FFA5946204608F031F8382257
:1039500050464E21FFF70AFA51462846C4F8D07067
:10396000A4F8D4600AF096FF95E8070004F1DC03A0
:1039700083E807007D4B0E930EA914235046ADF843
:103980003C300BF02FFA514620464FF0130A08F056
:103990000FF8CDF800A05622484657234E21FFF7D6
:1039A000F2F94FF0FF23C4F81831D4F8E830A4F846
:1039B0001C6149462846D3F88430984795E80700AB
:1039C00004F5927383E80700684B0E930EA94846EE
:1039D000ADF83CA00BF006FA4946204607F0E8FF98
:1039E000039876222221FFF7C1F90399C4F8647184
:1039F0002846A4F868610AF04DFF95E8070004F531
:103A0000B87383E80700594B03980E930EA912234D
:103A1000ADF83C300BF0E6F9039984F85961204683
:103A200007F0C6FF049840F215124621FFF79EF9F1
:103A30004FF003090EAA0DA90498ADF83490ADF823
:103A400038900BF02DFA0D23A4F8B4310498FFF749
:103A5000A3FE04F2045A4FF07F42C4E96E27049992
:103A6000C4F8A4A1204607F0A3FF0598EB220C217F
:103A7000FFF77CF90EAA0DA90598ADF83490ADF8C2
:103A800038900BF00DFA0C23A4F8FC310598FFF7E1
:103A900083FE4FF07F42C4E980270599C4F8ECA16A
:103AA000204607F085FF0698EB228121FFF75EF99B
:103AB0000EAA0DA90698ADF83490ADF838900BF029
:103AC000EFF90B23A4F844320698FFF765FE4FF098
:103AD0007F42C4E992270699C4F834A2204607F031
:103AE00067FF1923009387224046C8231521FFF75B
:103AF0004AF9D4F85432C4F8847241462846D3F8BF
:103B00008430A4F88862984795E8070004F5247388
:103B100083E80700154B0E930EA94046ADF83C60B4
:103B20000BF060F94146204684F8796207F040FFC7
:103B300007988B223146FFF719F92046079984F838
:103B4000C96207F035FF204611B0BDE8F08F00BF15
:103B50006C7902089C8E0208C4710208C4780208BD
:103B6000547902081F370008F0004001B4710208C0
:103B7000704770477047704770477047704770478D
:103B800030B4C26844685510034604EB6200D207A3
:103B900048BF62599B6830BC48BFD358184703469A
:103BA000406830B19A681AB9D86800F001007047CF
:103BB0000120704790F82D3080F86030704710B5C4
:103BC0006421044620F032FE204610BD10B51021BD
:103BD000044620F02BFE204610BD0146383091F8F7
:103BE0002C3013B136310BF029BB3431FBE710B563
:103BF000044600F53E7002F074FF04F57D7002F09B
:103C0000FAFF04F59E6003F052F804F2EC5003F062
:103C100020F804F5DD6003F078F804F2E47002F0B7
:103C20008EFF04F50E6002F0B8FF04F6DC1002F01F
:103C300020FA04F62C7002F023FF04F589500C30B2
:103C4000BDE8104002F096BD00F1F0028A4202D1B8
:103C50000368DB6A18477047274B284A10B5036092
:103C600000F58053044600F58950C3F82C210C3030
:103C700000F085FB224BC4F82C3F04F62C7000F0BA
:103C8000C6FF204BC4F8DC3904F6DC10FFF766FDF4
:103C90001D4BC4F8E03804F50E6001F029FD1B4B04
:103CA000C4F8E43704F2E47001F09AFC184BC4F84D
:103CB000E83604F5DD6001F033FF164BC4F8EC354F
:103CC00004F2EC5001F020FE134BC4F8F03404F57C
:103CD0009E6001F09FFE114BC4F8F43304F57D7033
:103CE00001F08CFD0E4BC4F8F83204F53E7001F083
:103CF000D9FB204610BD00BFBC7A0208B885020877
:103D000010870208C0840208D88802084488020884
:103D1000288B0208008A0208948A02086C8902082B
:103D2000B087020810B50446FFF796FF204641F21F
:103D30008C2120F07BFD204610BD0B882DE9F04141
:103D400083861388B0F90850C3860446104690460F
:103D500011F0CEFCB4F90A30074603EBD3734046AA
:103D6000C3F34F0611F0F8FC05EBD575C5F34F050D
:103D700000EBD07007EBD777A6EB6002A5EB6701ED
:103D800004F1380012B209B2FEF7F0FF23682046B2
:103D9000D3F88C30BDE8F041184700002DE9F04F12
:103DA00004469DB0A04600250FF03AFFDD4BE563C9
:103DB00048F8403B4046FEF7F9FF04F16C03184613
:103DC0000793FEF7F3FF04F1980318460893FEF7F4
:103DD000EDFF04F1C403184604F1F0070993FEF760
:103DE000B3FFD14BC4F8C430C4F8EC503846FEF7EA
:103DF000ABFF4FF47F43A4F81C31012384F8143146
:103E0000CA4BC4F8F03004F594764FF0FF33262205
:103E1000C4F8243129464FF6FF7BC4F81851C4F882
:103E200020513046ADF868B021F067FE3046FEF70D
:103E30008BFFBF4BC4F82831BDF86830A4F84E3171
:103E400084F850B11AA930460BF0F8F931463846DB
:103E500007F0AEFD04F5AA7318460393FEF7BAFF08
:103E600004F5CE731846B34E0493FEF7B3FF04F582
:103E7000F473C4F89C61C4F8E45118460593FEF746
:103E8000A9FF04F50C7304F51F7A18460693FEF794
:103E9000A1FFC4F83062C4F878525046FEF79AFF8A
:103EA00004F5317318460A93FEF780FFA24BC4F85D
:103EB000C43204F53E73C4F8F052A4F8F452184624
:103EC0000B9302F0F7FD04F57D7318460C9302F096
:103ED0007BFE04F59E6318460D9302F0D1FE04F2BA
:103EE000EC5318460E9302F09DFE04F5DD63184670
:103EF0000F9302F0F3FE04F2E4731846109302F0FD
:103F000007FE04F50E631846119302F02FFE04F627
:103F1000DC131846129304F5895B02F043F804F6AB
:103F20002C730BF10C0B1846139302F08DFD5846C1
:103F300002F00CFC814B04F58059C9E99F34804B99
:103F4000C9E9A1354FF4A0732A460093294640469B
:103F5000F023261DFEF717FF4FF07F43A36641466F
:103F6000304607F025FD4FF4A0732A4607980093CA
:103F700029469623FEF707FF724B0799C4F8943041
:103F800030464FF48C7807F013FD0898CDF8008088
:103F900023228C230521FEF7F6FE6B4B0899C4F80B
:103FA000C030304607F004FD0998CDF800808C231E
:103FB00023220521FEF7E7FE0999DFF890813046BC
:103FC00007F0F6FC06231AAA19A93846ADF86430A2
:103FD000ADF86830FFF7B1FE04F593531C33C4F815
:103FE00020311C23C4F82C510422009338460521AB
:103FF000FEF7C9FE3946304607F0DAFC0398E422A2
:10400000A62114AFFEF7B2FE4FF0FF330399C4F8B8
:1040100084313846A4F888510AF03CFC97E8070040
:1040200004F5C87383E807001B230398ADF86C30D0
:104030001AA9CDF868800AF0D5FE0399304607F03A
:10404000B7FC1E2304980093FF2257239621FEF706
:104050009AFE4FF0FF33C4F8CC31D4F89C31049968
:10406000D3F88430A4F8D0513846984797E8070031
:1040700004F5EC7383E807001A230498ADF86C305C
:104080001AA9CDF868800AF0ADFE0499304607F011
:104090008FFC152305980093992250239C21FEF74D
:1040A00072FE4FF0FF330599C4F818323846A4F871
:1040B0001C520AF0EFFB97E8070004F5097383E848
:1040C000070022230598ADF86C301AA9CDF8688056
:1040D0000AF088FE0599304607F06AFC132306981B
:1040E0000093B42257239621FEF74DFE4FF0FF2395
:1040F000C4F86032D4F830320699D3F88430A4F88A
:1041000064523846984797E8070004F51B7383E824
:10411000070021230698ADF86C301AA9CDF8688005
:1041200016E000BFBC7A02081C8C0208047A020860
:10413000E08F0208C4710208788F0208A47A02088E
:10414000493C0008BB4446FF764446FFB471020870
:104150000AF048FE0699304607F02AFC282250460D
:10416000AA21FEF703FE4FF0FF33C4F8AC325146EC
:104170003846A4F8B0520AF08DFB97E8070004F522
:104180002E7383E8070020231AA95046ADF86C303F
:10419000CDF868800AF026FE5146304607F008FC4C
:1041A00042230A9800933C22A321FEF7ECFD4FF036
:1041B0007F43C4F8EC3203F57F03C4F8F0320323E5
:1041C000A4F8F4320A99304607F0F2FB0B98462225
:1041D000A821FEF7CBFD0B9984F81D53304607F05C
:1041E000E7FB0C984122A821FEF7C0FD0C9984F84A
:1041F0001954304607F0DCFB0D984122AF21FEF741
:10420000B5FD0D9984F81555304607F0D1FB0E9891
:104210004122A121FEF7AAFD0E9984F811563046DD
:1042200007F0C6FB0F984122AE21FEF79FFD0F99C4
:1042300084F80D57304607F0BBFB10984122AF21A0
:10424000FEF794FD109984F80958304607F0B0FB4A
:1042500011984122A121FEF789FD119984F8055991
:10426000304607F0A5FB2A4612982946FEF77EFD48
:10427000129984F8015A304607F09AFB2A4613989F
:104280002946FEF773FD139984F8515F304607F015
:104290008FFB2A4629465846FEF768FD304689F8C6
:1042A0005151594607F084FB20461DB0BDE8F08F00
:1042B000406A7047806A704770478A880B8810B5DB
:1042C000D20A4C88C1699BB251F8220043EA0443E8
:1042D000184410BD10B50446BAB1107B68B1537BC9
:1042E000D27A1B0203F4E0631A43236A03EB8203CE
:1042F0001A888A4202D193F9020010BD05D801380C
:1043000080B204330028F3D1F7E70020F5E710B5B9
:104310002C21044620F08AFA204610BD30B58BB01F
:104320000446BDF860500895BDF85C5007959DF8AF
:10433000505006959DF84C5005959DF848500495B1
:104340009DF8445003959DF8405002959DF83C50CF
:104350000195BDF8385000950FF068FA064B2360C0
:10436000159BE361169B2362199B63621A9BA362F0
:1043700020460BB030BD00BFF47A0208704770478A
:104380007047704730B4C26844685510034604EB68
:104390006200D20748BF62599B6830BC48BFD358FF
:1043A00018470346406830B19A681AB9D86800F0D7
:1043B000010070470120704710B51021044620F01D
:1043C00035FA204610BD10B54FF4A071044620F018
:1043D0002DFA204610BD00F1A0028A4203D10368E5
:1043E000D3F88C30184770472DE9F04F044689B058
:1043F0002546FEF7A9FC00265A4BA66245F82C3B41
:1044000031462622284621F078FB2846FEF79CFC00
:10441000554BE36204F15807FF2304F1A00A84F826
:10442000523066653846FEF7D5FC04F1E80950467F
:104430000BF046F84846FEF7CDFC4C4BC4E94C3433
:104440004B4BC4E94E364B4BA360324631462846AF
:10445000FEF78CFC2846F021FEF764F928464FF45D
:10446000A071FEF761F94FF07F436365294620464E
:1044700007F09EFA4C2238460921FEF777FC6D467C
:104480004FF0FF334FF0010BC4F88830394628460F
:10449000A4F88CB00AF0FEF995E8070004F194083E
:1044A00088E807003946284684F891B00AF0F2F906
:1044B00095E8070088E807000322DFF8BC80ADF824
:1044C0001C2006A93846CDF818800AF08BFC394626
:1044D000204607F06DFA5046EA220D21FEF746FC11
:1044E00005A906AA5046ADF814B0ADF818600AF058
:1044F000D7FC0222A4F8D8205046FFF74DF94FF020
:10450000FF334FF07F42C4E9372304F59872C4F8B3
:10451000C8205146204607F04BFA1D22484641214B
:10452000FEF724FC4FF0FF33C4F818314946284603
:10453000A4F81C610AF0AEF995E8070004F592733F
:1045400083E8070006A94846CDF81880ADF81CB0EE
:104550000AF048FC2046494607F02AFA204609B0EE
:10456000BDE8F08F747B02089C8E02085C7B020819
:10457000D7430008F0004001B4710208704770474B
:10458000704730B4C26844685510034604EB6200BB
:10459000D20748BF62599B6830BC48BFD358184700
:1045A0000346406830B19A681AB9D86800F0010033
:1045B00070470120704710B51021044620F036F9ED
:1045C000204610BD10B54FF42771044620F02EF997
:1045D000204610BD00F51170884208B505D10DF0D8
:1045E0001BFBBDE80840FEF745BE08BD10B50446FC
:1045F000FEF7F0FB034B23600023C4E9123320468F
:1046000010BD00BFC47802082DE9F04F04468FB0FA
:1046100025460FF005FB0026B24BE66345F8403B0C
:10462000B14B2666C4E910364FF4807304F16C096F
:10463000A4F86430FF2304F1B40B84F86630C4E9B5
:104640001266C4E91466C4E91666A6664846FEF713
:10465000C1FB04F5827A5846FFF7C8FF5046FFF7C2
:10466000C5FF04F5AA7318460293FFF7BFFF04F5D0
:10467000D27318460393FFF7B9FF04F5FA7318468F
:104680000493FFF7B3FF04F51173184605930AF07E
:1046900017FF964BDFF87082C4E9A334944BC4E94A
:1046A000A5364FF4A0733246009331462846F023D6
:1046B000271DFEF768FB4FF07F43A3662946384667
:1046C00007F076F9182248460D2106ADFEF74EFB9D
:1046D0004FF0FF33C4F89C3049462846A4F8A06048
:1046E0000AF0D8F895E8070004F1A80383E807006A
:1046F0000A230CA94846ADF83430CDF830800AF0D2
:1047000071FB494638464FF0190907F051F93C2230
:104710005846CDF80090C8231421FEF734FB754BA2
:10472000C4F8E430D4F8B430A4F8E8605946284618
:10473000D3F88430984795E8070004F1F00383E844
:10474000070009230CA95846ADF83430CDF8308065
:104750000AF048FB5946384607F02AF98D225046A0
:10476000CDF80090C8231421FEF70DFB624BC4F86E
:104770003431D4F80431A4F8386151462846D3F8CE
:104780008430984795E8070004F5A07383E8070094
:1047900008230CA95046ADF83430CDF830800AF02B
:1047A00021FB5146384607F003F90298CDF80090F6
:1047B000B422C8231421FEF7E6FA504BC4F8843122
:1047C000D4F854310299D3F88430A4F8886128468B
:1047D000984795E8070004F5C87383E807000623A7
:1047E0000298ADF834300CA9CDF830800AF0FAFA0E
:1047F0000299384607F0DCF80398CDF80090DD22E6
:10480000C8231421FEF7BFFA3D4BC4F8D431D4F8C5
:10481000A4310399D3F88430A4F8D8612846984786
:1048200095E8070004F5F07383E807000523039873
:10483000ADF834300CA9CDF830800AF0D3FA0399E2
:10484000384607F0B5F80498CDF800906422C823E4
:104850001421FEF798FA2B4BC4F82432D4F8F43123
:104860000499D3F88430A4F828622846984795E83C
:10487000070004F50C7383E8070007230498ADF8DC
:1048800034300CA9CDF830800AF0ACFA04993846DF
:1048900007F08EF805984FF485720D21FEF766FA41
:1048A00001230CAA0BA90598ADF82C30ADF83030D7
:1048B0000AF0F6FA04230598A4F87C32FEF76CFFA0
:1048C0004FF07F424FF0FF33C4E9A02304F5237378
:1048D00038460599C4F86C3207F06AF820460FB0E4
:1048E000BDE8F08F247C02089C8E02080C7C020834
:1048F000D54500080100FFFF00C3FFFF376A01FF35
:104900008A5100FF0668F7FFB471020870477047CC
:1049100070477047704730B4C2684468551003460A
:1049200004EB6200D20748BF62599B6830BC48BFA5
:10493000D35818470346406830B19A681AB9D86806
:1049400000F0010070470120704710B510210446A7
:104950001FF06CFF204610BD10B54FF4DA7104460D
:104960001FF064FF204610BD38B500F1980399424E
:1049700004460D4602D10368DB6A984704F5947338
:104980009D4203D1236820461B6B984704F1E00346
:104990009D4203D10DF040F9FEF78CFC04F5B8748C
:1049A000A54205D10DF038F9BDE83840FEF772BCDC
:1049B00038BD00000022C0E90122C0E90322C0E99D
:1049C0000522C0E907224FF480728284014A026006
:1049D000704700BF587C02082DE9F04F044685B0AF
:1049E000264600250FF01CF9814BE56346F8403B55
:1049F00029462622304621F080F83046FFF7DAFFBC
:104A000004F16C087B4B23644FF0FF0926224FF61C
:104A1000FF77294684F86690A5664046ADF80C708D
:104A200021F06BF84046FFF7C5FF734BE366BDF816
:104A30000C30A4F8923003A904F1980B84F89490F8
:104A400040460AF0FBFB04F1E00A58460AF038FD44
:104A500004F5947950460AF033FD48460AF030FDDB
:104A600004F5B873294626221846019321F045F82B
:104A70000198FFF79FFF614AC4F87021604AA4F8CB
:104A80009E71C4E969245F4AA4F8A071012384F8E7
:104A90009431C4E96B2584F8A2712A462946304630
:104AA000C4F8985184F89C51FEF760F93046F02123
:104AB000FDF738FE30464FF4A071FDF735FE271D97
:104AC0004FF07F43A3663146384606F071FF2A4611
:104AD00040464621FEF74AF9072203A94046ADF8B1
:104AE0000C200AF0ABFB4146384606F061FF584601
:104AF000CA220D21FEF73AF9012302A903AA58465A
:104B0000ADF80830ADF80C300AF0CAF91922A4F853
:104B1000D0205846FEF740FE04F5D2764FF07F4392
:104B20004FF0FF38C4E9353859463846C4F8C060FC
:104B300006F03EFF50464FF483720D21FEF716F942
:104B400003AA012302A95046ADF80830ADF80C3095
:104B50000AF0A6F91823A4F818315046FEF71CFEF7
:104B60004FF07F43C4E9473851463846C4F80861DE
:104B700006F01EFF48468E223321FEF7F7F803AAFF
:104B8000022302A94846ADF80830ADF80C300AF00F
:104B900087F91723A4F860314846FEF7FDFD4FF072
:104BA0007F43C4E959384946384684F84D51C4F822
:104BB000506106F0FDFE01982A462946FEF7D6F818
:104BC00004230198ADF8083003AA052302A9ADF823
:104BD0000C300AF065F93846019984F89551C4F80B
:104BE000986106F0E5FE204605B0BDE8F08F00BFF5
:104BF000D87C02089C8E0208E08F0208048F02080D
:104C0000C07C0208694900087047704770477047C8
:104C10007047704730B4C26844685510034604EBCF
:104C20006200D20748BF62599B6830BC48BFD35866
:104C300018470346406830B19A681AB9D86800F03E
:104C4000010070470120704710B5102104461FF085
:104C5000EDFD204610BD10B54FF4E87104461FF07D
:104C6000E5FD204610BD38B500F1A0039942044689
:104C70000D4603D10368D3F88C30984704F5BC7314
:104C80009D4204D123682046D3F89030984704F120
:104C9000E8039D4204D123682046D3F89430984716
:104CA00004F59874A54205D10CF0B6FFBDE8384074
:104CB000FEF7E0BA38BD00002DE9F04F04468BB096
:104CC00025460027FEF740F8814AA76245F82C2BBD
:104CD000262632463946284620F00FFF2846FEF7A2
:104CE00033F87C4AE26204F15803FF22394684F823
:104CF0005220676532461846009320F0FEFE009869
:104D0000FEF722F8744AA2654FF6FF72734BA4F8BF
:104D100084204FF0FF3604F1A00B4FF47F02C4F85B
:104D2000803004F1E80AC4F88C20C4E92667C4F88E
:104D30008870A4F89070C4F8947058460AF0C0FBCC
:104D400004F5987950460AF0BBFB48460AF0B8FBD8
:104D500004F5BC72104601920AF0B2FB604AC4E945
:104D60007024604AC4E972275F4AA26039463A4615
:104D70002846FDF7FBFF2846F021FDF7D3FC284627
:104D80004FF4A071FDF7D0FC4FF07F488C2284F8DF
:104D9000522029462046C4F8548006F009FE02AD90
:104DA000009817223F21FDF7E1FF0099A4F88C70CD
:104DB0002846C4F8886009F06DFD95E8070004F105
:104DC000940383E80700454B0098089308A91F2324
:104DD000ADF824300AF006F80099204606F0E8FD08
:104DE00058465D220D21FDF7C1FF012708AA07A93A
:104DF0005846ADF81C70ADF820700AF051F81E232B
:104E0000A4F8D83004F5E0755846FEF7C5FC5946BD
:104E10002046C4E93786C4F8C85006F0C9FD50469C
:104E20004FF485720D21FDF7A1FF08AA07A950468E
:104E3000ADF81C70ADF820700AF032F81D23A4F80C
:104E400020315046FEF7A8FC51462046C4E9498669
:104E5000C4F8105106F0ACFD4846C2220D21FDF702
:104E600085FF08AA07A94846ADF81C70ADF8207068
:104E70000AF016F81623A4F868314846FEF78CFCB1
:104E800049462046C4E95B86C4F8585106F090FDB7
:104E900001988E220D21FDF769FF08AA07A9019844
:104EA000ADF81C70ADF8207009F0FAFF1C230198D2
:104EB000A4F8B031FEF770FC2046C4E96D86019974
:104EC000C4F8A05106F074FD20460BB0BDE8F08F89
:104ED0002C7D02089C8E02080C8E0208B471020818
:104EE000147D0208674C0008F00040017047000084
:104EF00030B5174D2C68BFF35B8F14F001048FB0F1
:104F000022D128461FF094FCF0B13F230993114BA6
:104F10000893114B114912480A94CDE90643012226
:104F20000423CDE903320E2300930B220F23CDE996
:104F30000B44CDE901440594FFF7F0F9094820F04E
:104F4000D9FB28461FF080FC05480FB030BD00BFDC
:104F5000385B0020801603082C1703088808030814
:104F60003C5B0020ED4E00087047000030B5174D47
:104F70002C68BFF35B8F14F001048FB022D1284658
:104F80001FF056FCF0B13F230993114B0893114BCE
:104F9000114912480A94CDE9064301220423CDE9C0
:104FA0000332142300930B221623CDE90B44CDE9E1
:104FB00001440594FFF7B2F9094820F09BFB28460D
:104FC0001FF042FC05480FB030BD00BF685B0020F9
:104FD0008416030830170308240903086C5B0020BB
:104FE000694F00087047000030B5174D2C68BFF3BB
:104FF0005B8F14F001048FB022D128461FF018FCFB
:10500000F0B13F230993114B0893114B07930123F0
:10501000CDE9054304930423CDE9024316230D494A
:10502000009341221823CDE90B440B480A940194C4
:10503000FFF774F9094820F05DFB28461FF004FCD7
:1050400005480FB030BD00BF985B002088160308EC
:1050500034170308C00903089C5B0020E54F0008D3
:105060007047000030B5164D2C68BFF35B8F14F00D
:1050700001048FB021D128461FF0DAFBE8B13F23AD
:105080000993104B0893104B104911480A94CDE92D
:10509000064301220423CDE90332CDE901340C2378
:1050A00000931A22CDE90B440594FFF737F909481C
:1050B00020F020FB28461FF0C7FB05480FB030BD8D
:1050C000C85B0020F816030838170308500D0308C2
:1050D000CC5B0020615000087047000030B5174DD0
:1050E0002C68BFF35B8F14F001048FB022D12846E7
:1050F0001FF09EFBF0B13F230993114B0893114B16
:1051000011480A94CDE9064301220423CDE9033274
:1051100006211123CDE9003135220C490594CDE952
:105120000B440294FFF7FAF8094820F0E3FA284606
:105130001FF08AFB04480FB030BD00BFF85B0020B1
:10514000FC1603083C170308FC5B0020BC0E030898
:10515000D95000087047000030B5174D2C68BFF3D8
:105160005B8F14F001048FB022D128461FF060FB42
:10517000F0B13F230993114B0893114B11480A9446
:10518000CDE9064301220423CDE90332072114238C
:10519000CDE9003110220C490594CDE90B4402946D
:1051A000FFF7BCF8094820F0A5FA28461FF04CFB91
:1051B00004480FB030BD00BF285C00200017030872
:1051C000401703082C5C0020A41103085551000867
:1051D0007047000030B5164D2C68BFF35B8F14F09C
:1051E00001048FB021D128461FF022FBE8B13F23F4
:1051F0000993104B0893104B104911480A94CDE9BC
:10520000064301220423CDE9033219230922CDE903
:105210000032CDE90B4405940294FFF77FF809486A
:1052200020F068FA28461FF00FFB05480FB030BD8C
:10523000585C00200417030844170308841203086D
:105240005C5C0020D15100087047000030B5164D5D
:105250002C68BFF35B8F14F001048FB021D1284676
:105260001FF0E6FAE8B13F230993104B0893104B67
:10527000104911480A94CDE9064301220423CDE9DF
:105280000332CDE90134082300930F22CDE90B440A
:105290000594FFF743F8094820F02CFA28461FF040
:1052A000D3FA05480FB030BD885C0020081703080A
:1052B00048170308041303088C5C002049520008B7
:1052C0007047000030B5174D2C68BFF35B8F14F0AA
:1052D00001048FB022D128461FF0AAFAF0B13F2373
:1052E0000993114B0893114B07930123CDE9054313
:1052F00004930423CDE902430A230D4900932D2290
:105300000C23CDE90B440B480A940194FFF706F8EF
:10531000094820F0EFF928461FF096FA05480FB02B
:1053200030BD00BFB85C00200C1703084C17030801
:10533000D8130308BC5C0020C1520008704700006D
:1053400030B5164D2C68BFF35B8F14F001048FB09D
:1053500020D128461FF06CFAE0B13F230993104B8F
:105360000893104B104911480A940122CDE90643D5
:105370000423CDE903320F230093CDE90B44CDE99B
:1053800001440594FEF7CAFF094820F0B3F9284606
:105390001FF05AFA05480FB030BD00BFE85C00208E
:1053A000201703085017030850160308EC5C002070
:1053B0003D5300087047000030B5164D2C68BFF310
:1053C0005B8F14F001048FB020D128461FF030FA13
:1053D000E0B13F230993104B0893104B104911483B
:1053E0000A940122CDE906430423CDE903321423B4
:1053F0000093CDE90B44CDE901440594FEF78EFFFF
:10540000094820F077F928461FF01EFA05480FB02A
:1054100030BD00BF185D002024170308541703088F
:10542000601603081C5D0020B5530008704700009B
:1054300030B5164D2C68BFF35B8F14F001048FB0AC
:1054400020D128461FF0F4F9E0B13F230993104B17
:105450000893104B104911480A940122CDE90643E4
:105460000423CDE9033228230093CDE90B44CDE991
:1054700001440594FEF752FF094820F03BF9284605
:105480001FF0E2F905480FB030BD00BF485D0020B5
:105490002817030858170308701603084C5D0020EE
:1054A0002D5400087047704710B5FC2104461FF0CA
:1054B000BDF9204610BD00004FF480718184FF21AA
:1054C000002280F8261007498262C0E90122C0E963
:1054D0000322C0E90522C0E907220160C2620286F8
:1054E000704700BF788F02082DE9F04F4FF48073AA
:1054F000054600268384374B8662C0E90166C0E911
:105500000366C0E90566C0E9076645F82C3B04461A
:1055100085B004F1600B2846FFF7CEFF04F1940A32
:105520005846FFF7C9FF5046FFF7C6FF04F1C8030E
:1055300018464FF00E09DFF8A480274F0393FFF7BA
:10554000BBFF4FF03813A3604A464B46314628460E
:105550000226CDF80090FDF716FC29462046C4E946
:105560001587A4F85C6006F023FA4B464A46494684
:105570005846CDF80090FDF706FC59462046C4E990
:105580002287A4F8906006F013FA4B464A4650462C
:10559000CDF800901C21FDF7F6FB51462046C4E9EA
:1055A0002F87A4F8C46006F003FA0398CDF80090A2
:1055B0004B464A462A21FDF7E6FB2046C4E93C87D4
:1055C0000399A4F8F86006F0F3F9204605B0BDE8A9
:1055D000F08F00BFCC7D0208E4D79FFFD8C853FFEF
:1055E0007047704710B5FC2104461FF01FF9204694
:1055F00010BD00002DE9F04F4FF4807306460025E2
:105600008384384B8562C0E90155C0E90355C0E980
:105610000555C0E9075546F82C3B044685B004F112
:10562000600B3046FFF748FF5846FFF745FF04F18F
:10563000940318460293FFF73FFF04F1C80318468E
:105640004FF00E0ADFF8A090DFF8A0800393FFF779
:1056500033FF4FF038130227A360524653462946C2
:105660003046CDF800A0FDF78EFB31462046C4E958
:105670001598A4F85C7006F09BF953461C22294645
:105680005846CDF800A0FDF77EFB59462046C4E9F8
:105690002298A4F8907006F08BF953460298CDF842
:1056A00000A01C225146FDF76EFB0299A4F8C470BD
:1056B0002046C4E92F9806F07BF91C221146039876
:1056C000CDF800A05346FDF75EFB2046C4E93C98A8
:1056D0000399A4F8F87006F06BF9204605B0BDE810
:1056E000F08F00BF607E0208A55520FFA75F2FFF47
:1056F0007047704710B5FC2104461FF097F820460C
:1057000010BD00002DE9F04F002305464FF48072D4
:10571000C0E90133C0E90333C0E90533C0E9073309
:105720008362334B828445F82C3B044685B004F1F8
:10573000600B2846FFF7C0FE04F1940A5846FFF7B5
:10574000BBFE5046FFF7B8FE04F1C80318464FF001
:105750000E09DFF8A480274F0393FFF7ADFE4FF04B
:1057600038130226A3601C224B4649462846CDF832
:105770000090FDF708FB29462046C4E91587A4F8E8
:105780005C6006F015F91C224B4611465846CDF8D0
:105790000090FDF7F8FA59462046C4E92287A4F89C
:1057A000906006F005F94B461C225046CDF800905B
:1057B0002A21FDF7E8FA51462046C4E92F87A4F8CC
:1057C000C46006F0F5F80398CDF800904B464A46C1
:1057D0002A21FDF7D8FA2046C4E93C870399A4F8AA
:1057E000F86006F0E5F8204605B0BDE8F08F00BF90
:1057F000F47E02083095FCFF3374F4FF7047704765
:1058000010B5FC2104461FF011F8204610BD000021
:105810002DE9F04F002305464FF48072C0E90133B3
:10582000C0E90333C0E90533C0E907338362334B72
:10583000828445F82C3B044685B004F1600B284671
:10584000FFF73AFE04F1940A5846FFF735FE50463A
:10585000FFF732FE04F1C80318464FF00E09DFF8D7
:10586000A480274F0393FFF727FE4FF0381302263B
:10587000A3604A464B4649462846CDF80090FDF7BE
:1058800082FA29462046C4E91587A4F85C6006F030
:105890008FF84B461C2249465846CDF80090FDF73C
:1058A00072FA59462046C4E92287A4F8906006F0AF
:1058B0007FF81C224B4611465046CDF80090FDF76C
:1058C00062FA51462046C4E92F87A4F8C46006F066
:1058D0006FF80398CDF800904B464A461C21FDF71F
:1058E00052FA2046C4E93C870399A4F8F86006F010
:1058F0005FF8204605B0BDE8F08F00BF887F020842
:1059000057D5DBFF21E9EFFF7047704710B5FC2149
:1059100004461EF08BFF204610BD00002DE9F04F1D
:10592000002305464FF48072C0E90133C0E9033318
:10593000C0E90533C0E907338362334B828445F8FD
:105940002C3B044685B004F1600B2846FFF7B4FDFC
:1059500004F1940A5846FFF7AFFD5046FFF7ACFD3F
:1059600004F1C80318464FF00E09DFF8A480274F52
:105970000393FFF7A1FD4FF038130226A3601C220A
:105980004B4649462846CDF80090FDF7FCF92946DC
:105990002046C4E91587A4F85C6006F009F81C22CB
:1059A0004B4611465846CDF80090FDF7ECF95946A4
:1059B0002046C4E92287A4F8906005F0F9FF4B4621
:1059C0004A465046CDF800901C21FDF7DCF95146BF
:1059D0002046C4E92F87A4F8C46005F0E9FF0398C6
:1059E000CDF800904B464A462A21FDF7CCF92046D7
:1059F000C4E93C870399A4F8F86005F0D9FF204674
:105A000005B0BDE8F08F00BF1C8002081C17DCFF4A
:105A10002E33EEFF7047704710B5FC2104461EF090
:105A200005FF204610BD00002DE9F04F4FF48073B4
:105A3000054600268384374B8662C0E90166C0E9CB
:105A40000366C0E90566C0E9076645F82C3B0446D5
:105A500085B004F1600B2846FFF72EFD04F1940A8F
:105A60005846FFF729FD5046FFF726FD04F1C8030D
:105A700018464FF00E09DFF8A480274F0393FFF775
:105A80001BFD4FF03813A3604A464B46314628466B
:105A90000226CDF80090FDF776F929462046C4E9A4
:105AA0001587A4F85C6005F083FF4B464A464946DB
:105AB0005846CDF80090FDF766F959462046C4E9EE
:105AC0002287A4F8906005F073FF4B464A46504683
:105AD000CDF800901C21FDF756F951462046C4E947
