:020000040800F2
:1000000000000320210600082D1900082F19000800
:1000100031190008331900083519000800000000E4
:10002000000000000000000000000000C19800086F
:10003000371900080000000051990008D19100080C
:1000400071060008710600087106000871060008B4
:1000500071060008710600087106000871060008A4
:100060007106000871060008710600087106000894
:100070007106000871060008710600087106000884
:100080007106000871060008710600087106000874
:100090007106000871060008710600087106000864
:1000A0007106000871060008710600087106000854
:1000B0007106000871060008710600087106000844
:1000C0007106000871060008710600087106000834
:1000D0007106000871060008710600087106000824
:1000E0007106000871060008710600087106000814
:1000F0007106000871060008710600087106000804
:1001000071060008710600087106000871060008F3
:100110007106000871060008391900087106000808
:1001200071060008710600087106000871060008D3
:1001300071060008710600087106000871060008C3
:1001400071060008710600087106000871060008B3
:1001500071060008710600087106000871060008A3
:100160007106000871060008710600087106000893
:100170007106000871060008710600080000000002
:100180007106000871060008710600087106000873
:100190007106000871060008710600087106000863
:0C01A000451900087106000851190008FC
:1001B00010B5054C237833B9044B13B10448AFF3A1
:1001C00000800123237010BD4005002000000000C6
:1001D0002861020808B5034B1BB103490348AFF37C
:1001E000008008BD000000004405002028610208CE
:1001F00001F0FF01102A2BDB10F0070F08D010F8D8
:10020000013B013A8B422DD010F0070F42B3F6D1DB
:10021000F0B441EA012141EA014122F007047FF0F4
:1002200000070023F0E80256083C85EA010586EA4B
:10023000010685FA47F5A3FA87F586FA47F6A5FA87
:1002400087F68EB9EED1F0BC01F0FF0102F0070293
:1002500032B110F8013B013A83EA010313B1F8D13E
:100260000020704701387047002D06BF354603381F
:10027000073815F0010F07D1013015F4807F02BF58
:10028000013015F4C03F0130F0BC0138704700BFA9
:100290007BB972B90029BEBF00204FF0004106E0D3
:1002A00008BF00281CBF6FF000414FF0FF3000F086
:1002B000B5B9ADF1080C6DE904CE002909DB002BBE
:1002C0001ADB00F04DF8DDF804E0DDE9022304B0AC
:1002D0007047404261EB4101002B1BDB00F040F80E
:1002E000DDF804E0DDE9022304B0404261EB4101A6
:1002F000524263EB43037047524263EB430300F007
:100300002FF8DDF804E0DDE9022304B0404261EBA0
:1003100041017047524263EB430300F021F8DDF8DE
:1003200004E0DDE9022304B0524263EB430370476B
:1003300053B94AB9002908BF00281CBF4FF0FF314C
:100340004FF0FF3000F06AB9ADF1080C6DE904CE52
:1003500000F006F8DDF804E0DDE9022304B07047A0
:100360002DE9F047089D0C46002B4ED194468C4554
:100370008646B2FA82F262D94AB1C2F120039140B4
:1003800020FA03F30CFA02FC194300FA02FE4FEACA
:100390001C471FFA8CF6B1FBF7F44FEA1E4307FB2C
:1003A000141143EA014304FB06F199420AD91CEBFC
:1003B000030304F1FF3080F01281994240F20F8173
:1003C000023C6344591A1FFA8EF3B1FBF7F007FBA6
:1003D000101143EA014300FB06F69E420AD91CEBCA
:1003E000030300F1FF3180F0FC809E4240F2F9806F
:1003F000634402389B1B40EA044000211DB1D340F6
:100400000022C5E90032BDE8F0878B4205D90DB165
:10041000C5E9000100210846F5E7B3FA83F1002998
:1004200046D1A34202D39042C0F0F080861A64EB1A
:1004300003030120002DE6D0C5E90063E3E7002AAD
:1004400040F09080A1EB0C044FEA1C481FFA8CF797
:100450000121B4FBF8F64FEA1E4308FB164443EAB9
:10046000044307FB06F0984208D91CEB030306F18E
:10047000FF3402D2984200F2CD8026461C1A1FFAA1
:100480008EF3B4FBF8F008FB104443EA044300FB8E
:1004900007F79F4208D91CEB030300F1FF3402D297
:1004A0009F4200F2B0802046DB1B40EA0640A5E7F1
:1004B000C1F120068B4022FA06F71F4320FA06FC02
:1004C00004FA01F343EA0C03F44000FA01F8380C93
:1004D0004FEA1349B4FBF0FE1FFA87FC00FB1E44F1
:1004E00049EA04440EFB0CF9A14502FA01F20AD9CB
:1004F0003C190EF1FF3A80F08480A14540F28180E2
:10050000AEF1020E3C44A4EB09041FFA83F9B4FBDC
:10051000F0F300FB134449EA044403FB0CFCA4453C
:1005200007D93C1903F1FF3067D2A44565D9023BD6
:100530003C4443EA0E40A0FB0293A4EB0C049C4213
:10054000CE469C4651D34ED055B1B8EB0E0364EB6A
:100550000C0404FA06F6CB401E43CC40C5E9006407
:10056000002150E7C2F1200320FA03F10CFA02FC4B
:1005700024FA03F394400C434FEA1C4800FA02FEAD
:100580001FFA8CF7B3FBF8F008FB1031230C43EA99
:10059000014300FB07F1994208D91CEB030300F16A
:1005A000FF362CD299422AD9023863445B1AA4B28E
:1005B000B3FBF8F108FB113344EA034401FB07F3F2
:1005C000A34208D91CEB040401F1FF3613D2A34265
:1005D00011D902396444E41A41EA004139E704467A
:1005E000F0E6084606E7C845AED2B9EB020E63EB6B
:1005F000070C0138A8E73146EDE7034699E7304696
:10060000D4E7D6467FE7634402384DE706462346E3
:1006100008460FE7023E634430E700BF704700BF63
:10062000DFF834D0002103E00C4B5B584350043119
:100630000B480C4B42189A42F6D30B4A02E00023B7
:1006400042F8043B094B9A42F9D306F01FFB24F011
:10065000FBFF00F0FFFB704700000320FCA704082D
:10066000000000204003002040050020A87F01205A
:10067000FEE70000F8B51B4C1B4D01230022C4E926
:10068000002302210323C4E9021304200523C4E943
:1006900004030623A3612B6813B908F0D3FD286077
:1006A0002B681248072183EA433383EA534383EAE2
:1006B000431323F00042B2FBF1F601FB162201398D
:1006C00050F8046D54F822700760012944F8226044
:1006D000E9D12B60064B676044F8226000221A6063
:1006E000F8BD00BF8809002024060020A4090020CE
:1006F00084090020014B1868704700BFA80900203A
:10070000014B1878704700BFA5090020044B1878EA
:1007100018B1044B187880F0010000F00100704718
:10072000A4090020A5090020014B1868704700BFEC
:1007300070090020534203F0030302F0030258BF84
:100740005A42032A14D8DFE802F00205090E00EB32
:10075000810070470C31A1EB800070478900C1F126
:100760000F01081A7047C1F1030101EB80007047C7
:10077000002070472DE9F74F1B4E00911746984611
:1007800006EB820600244FEA00194FF0280B45467D
:10079000002104EB070A009A01912046FFF7CAFFE7
:1007A000124B0199484453F82020012A0BD1BAF189
:1007B000090F14D8132D12DC002D04DB0BFB05F2FE
:1007C000B258002A0BDC0131042905F10105E2D100
:1007D0000134042C06F10406D9D1012000E00020E8
:1007E00003B0BDE8F08F00BFAC0900200800002076
:1007F00070B5134E134D144C33682B602368062BD1
:1008000001DDFFF737FF2368104928685A1C226072
:100810000F4A52F823300F4A33600023136003223B
:100820000A600D490B601946FFF7A4FF0B4B80F0DF
:100830000100C0B2187010B9094B01221A7070BDC6
:100840007009002080090020840900207809002018
:10085000880900207C09002074090020A5090020D7
:10086000A409002008B54FF4487200210B4824F079
:1008700042FE0B4A002313600A4A13700A4A13709F
:10088000FFF7F8FE094B01221A60094B1A68094B61
:100890001A60BDE80840FFF7ABBF00BFAC090020FD
:1008A000A8090020A5090020A4090020840900202F
:1008B000880900207009002038B51C4B1B781BB13B
:1008C0001B4B00221A7038BD01380328FBD8DFE823
:1008D00000F00212161D174D2C68013C164B1B68C8
:1008E00022461649096816480068FFF743FF0028AA
:1008F000E9D02C60E7E70F4D2C680134EEE70E4D90
:100900000C4A2C68126801342346EAE70B4D094A69
:100910002C6812680134634203F0030304F00304FB
:1009200058BF5C42044B21461B68DCE7A509002048
:100930002C06002078090020740900207C09002082
:10094000800900203F4B1B782DE9F74F9BB93E4BA8
:100950003E4C1F683E4B2668D3F800A03D4BD3F8B1
:100960000080751C51462B4642463846FFF702FF71
:10097000014618B1256003B0BDE8F08FDFF8E090C4
:100980000A2404FB068409EB84043B01002501EBE7
:10099000060B5246284601930091FFF7CBFE019BC0
:1009A0002D4A0099184452F82020012A09D105EB5C
:1009B0000802092A05D8BBF1130F9CBF7A1C44F822
:1009C00025200135042DE4D10131042904F1280446
:1009D000DCD1DFF88CA0002713264FF0280808FB95
:1009E00006942246002352F8041BE1B101330A2B7E
:1009F000F9D10137B4460BE075460FCD0FC40FCDCA
:100A00000FC495E803000CF1FF3C84E80300744632
:100A1000A4F1280EBCF1000FEED128226146504609
:100A200024F069FD0136013ED9D22FB10B4A13687B
:100A3000642101FB0733136003B0BDE8F04FFFF7FB
:100A4000D7BE00BFA509002080090020740900203E
:100A50007C0900207809002008000020A809002057
:100A6000AC0900202DE9F74FC8220021264824F0C8
:100A700042FD254A25490020154616460C4600230E
:100A8000013354F8047B06F8017B0A2BF8D10130BE
:100A9000142801F1280102F10A02EED11C4A126861
:100AA00001921C4A16681C4A17681C4AD2F800803A
:100AB00003FB07834FEA061B1D444FF0000A013673
:100AC00000240AEB0709019A51462046FFF732FE3F
:100AD000134B584453F82020012A07D104EB080295
:100AE000092A03D8B9F1130F98BF2E550134042CED
:100AF000E9D10AF1010ABAF1040F05F10A05DFD1C3
:100B0000014803B0BDE8F08F5C050020AC0900206F
:100B10007C09002080090020740900207809002049
:100B200008000020054B18684FF44873B0FBF3F041
:100B30000130082828BF0820704700BFA8090020FE
:100B400008B5FFF7EFFF0238062896BF024B40F2C8
:100B5000B63033F8100008BD806102081B4B1C49F9
:100B60004FF44872184610B524F095FD194A1268E2
:100B7000C0F82023184A1268C0F82423174A1268C4
:100B8000C0F82823164A1268C0F82C23154A1268A8
:100B9000C0F83023144A1268C0F83423134A12787C
:100BA00080F83823124A127880F83923002203464D
:100BB000114653F8044B0132CF2A81EA0401F8D1DF
:100BC0000C4BC0F83C1301221A7010BD30060020F7
:100BD000AC090020800900207C0900207809002051
:100BE0007409002070090020A8090020A509002030
:100BF000A40900202C0600200A4B187810B578B103
:100C0000094900231A46084651F8044B0133CF2BFB
:100C100082EA0402F8D1D0F83C03831A58425841C2
:100C200010BD00BF2C0600203006002010B5FFF7D5
:100C3000E3FF30B3134C14484FF44872214624F0BC
:100C40002AFD124BD4F820231A60114BD4F8242328
:100C50001A60104BD4F828231A600F4BD4F82C23B9
:100C60001A600E4BD4F830231A600D4BD4F834239D
:100C70001A600C4B94F838231A700B4B94F83923F4
:100C80001A7010BD30060020AC0900208009002039
:100C90007C090020780900207409002070090020D8
:100CA000A8090020A5090020A4090020064B1A78F5
:100CB0005F2A07D05A785F2A04D098785F3818BF27
:100CC00001207047002070470400002001380328ED
:100CD00022D8DFE800F0020F1822154B15491A68D8
:100CE0008B5C5F2B01D0412B02D85A238B54704769
:100CF000013BFBE70E4B0F491A688B5C592B8CBFED
:100D000041230133F2E70A4A0A4913685F20002BA6
:100D1000C85401DD013B13607047054A054913685B
:100D2000C95C5F29F8D0012BF6DC0133F3E700BF83
:100D3000280600200400002007B5064BADF8060089
:100D40001B68054801220DF1060107F0E7FD03B01D
:100D50005DF804FBC8010020140D00202DE9F341CB
:100D6000114FDFF850800026104D8DF807600024E9
:100D700035F8021B384606F019FA01280FD118F889
:100D800004308DF807300A4800231A460DF1070198
:100D9000006808F08BFB1E2008F0A2FAE4E701349B
:100DA000042CE5D1EFE700BF000402409261020885
:100DB000D00C00208E61020830B595B010220021C1
:100DC0000AA824F098FB1422002103A824F093FB26
:100DD00000241E4B01941A6C42F080521A641B6C62
:100DE00003F080530193019B194B02941A6842F45B
:100DF00040421A601B6803F4404302930122029BA5
:100E00004FF48033CDE9082302254FF480030821F5
:100E1000CDE90E534FF4B473CDE9101308A80423A1
:100E20001393129507F032F806F0F6FF0F23CDE981
:100E300003354FF4A0504FF48053CDE9060305214C
:100E400003A8059407F0FEF915B030BD0038024044
:100E50000070004080B59CB0C64DDFF8548300247C
:100E600005F022FFFFF7A8FF1022002110A824F0B0
:100E700042FB01942B6BC04843F002032B632B6BA6
:100E800003F0020301930227019B119740F60343ED
:100E90000FA90F9306F0A6F802942B6BB74843F006
:100EA00010032B632B6B03F010030293029B03943C
:100EB0002B6B43F020032B632B6B03F02003039376
:100EC000039B04942B6B43F080032B632B6B03F089
:100ED00080030493049B05942B6B43F004032B6362
:100EE0002B6B03F004030593059B06942B6B43F0D7
:100EF00001032B632B6B03F001030693069B0794FE
:100F00002B6B3B432B632B6B3B400793079B089456
:100F10002B6B43F040032B632B6B03F040030893D0
:100F2000089B09942B6B43F008032B632B6B944DA8
:100F300003F00803224609933C21099B06F03CF983
:100F400039469048012206F037F922468D4804219F
:100F500006F032F922468C484FF4405106F02CF945
:100F600001263C23CDE90F368448119403230FA9B1
:100F7000129306F037F883480FA9CDE90F76CDE933
:100F8000114406F02FF804237E480FA9CDE90F364F
:100F9000CDE9114706F026F80FA94FF440537A48DF
:100FA000CDE90F36CDE9114706F01CF87748784BAC
:100FB000036005F00BFFDFF8FCE1764B2C62C5E91E
:100FC00000E328464FF48043C5E90434C5E90244F0
:100FD000C5E9064406F0FEFA1021284606F042FD57
:100FE000214628466C4D06F05CFD4FF48273C5E93E
:100FF00000834FF400791823C5E9069328460A2395
:10100000C5E90244C5E90444C5E90844AC62EB62A1
:1010100007F028FC8F23224639465A488DF82C3099
:101020008DF83C4006F0C8F832464FF47A730BA9AD
:10103000284607F073FC4FF47A7332460FA928460E
:1010400007F018FE324639464E48544D06F0B4F8C3
:101050009DF83C30D32B04BF514B1E70514B0126E1
:10106000C5E90036102240230024C5E904234FF4CB
:10107000C073C5E906344FF40063C5E908344FF482
:10108000005302274FF00409AB624FF0030A072315
:101090000FA92846CDE90F73CDE911934FF0080849
:1010A000C5E90249CDE913A7159707F0BFFA4FF636
:1010B000FF720BA92846CDE90C860A940B960E9474
:1010C00007F0D4FA304605F01BFE4FF6FF720BA96D
:1010D0002846CDE90B78CDE90D6407F0C7FA4FF645
:1010E000FF720BA92846CDE90BA8CDE90D9407F0B6
:1010F000BDFA4FF40C730A930A9B0E934FF6FF72DE
:101100000BA92846CDE90B980D9607F0AFFA40F2EF
:101110006A51284607F0C8FA342221460FA824F065
:10112000EAF9214D214B2C61C5E900340923C5E9B9
:1011300005361D23C5E9073A40F20D1140F243136D
:10114000C5E9091340F2171040F24713C5E90B0334
:101150002846C5E90244AC8685F8364006F046FDCF
:10116000FF214FF4806CF022CDE914140521CDE964
:1011700016C121E000380240000402400010024085
:10118000140E002000080240000C0240A80E0020AF
:1011900000300240A0860100140D0020E00C002069
:1011A000D40C0020400100A06C0D0020006801401C
:1011B00000500140005C00404FF4A0730FA9CDE93E
:1011C0001024CDE9184228462246204D1A93CDE935
:1011D00012370F94ADF86C408DF86E4006F0D1FDDB
:1011E0001B4B2B601B6898472B681A4DDB68984790
:1011F000194B2846C5E90034C5E90274C5E90A4718
:10120000C5E90C4405F0F2FD3146284605F0A6FE7E
:1012100000F0F7FB00F0F4FB07F0E8FF0F4A31465F
:10122000404608F008F90E4B0E4A186021460E4859
:1012300008F00FF80D4B0E4A186021460D4808F0D3
:1012400008F80D4B186007F0E3FFFEE7CC0C002018
:10125000F0010020680E002000B00240D001002004
:10126000D00C0020E06102085D0D0008DC0C0020BD
:10127000BC610208111A0008D80C002070477047A2
:101280007FB5094B8DF817201B6802930DF11702EB
:101290000123009201930A460146044806F042FAEF
:1012A00007B05DF804FB00BFCC010020140E002045
:1012B0007FB500238DF81730084B1B6802930A4650
:1012C00001230DF11701009101930146044806F036
:1012D000B9FA9DF8170007B05DF804FBCC010020B7
:1012E000140E00201FB5084C24680092CDE901348B
:1012F0000A4601230146054806F0A4FA003818BF43
:10130000012004B010BD00BFCC010020140E00204D
:1013100005F0F6BC10B5064C00222046042105F06D
:101320004BFF20460122BDE81040042105F044BFD8
:101330000008024038B50B4D044601220A484FF41C
:10134000005105F039FF00220421284605F034FF42
:101350002046FFF7F1FC28460122BDE83840042171
:1013600005F02ABF00080240000C024038B50B4DC2
:10137000044600220A484FF4005105F01DFF0022E8
:101380000421284605F018FF2046FFF7D5FC284623
:101390000122BDE83840042105F00EBF00080240DC
:1013A000000C0240F7B5144E144F05460C4630466B
:1013B0000022042105F000FF00224FF400513846BE
:1013C00005F0FAFE2846FFF7B7FC0D4B0D481B68E9
:1013D000224601A907F04EFC384601224FF4005185
:1013E000019C05F0E9FE30460122042105F0E4FEEF
:1013F000204603B0F0BD00BF00080240000C0240D0
:10140000C8010020140D002005F07ABC0268034BCF
:101410009A4201D105F062BC704700BF0010004045
:101420007047000082B00E4B00220092596C41F4CC
:1014300080415964596C01F48041009100990192F6
:10144000196C41F0805119641B6C03F080530193B7
:10145000019B0F216FF0010002B005F077BC00BFC7
:10146000003802400268094B9A4282B00BD1002337
:101470000193074B1A6B42F480521A631B6B03F4FF
:1014800080530193019B02B0704700BF00300240BF
:101490000038024007B50F4B02689A4216D100226D
:1014A000A3F5F0430192196B41F4000119631B6B22
:1014B00003F40003019305215A20019B05F046FC2B
:1014C0005A2003B05DF804EB05F072BC03B05DF880
:1014D00004FB00BF00B002402DE9F043044689B090
:1014E0001422002103A824F006F82268244B9A4213
:1014F00043D1244C244800250095236B43F004037A
:101500002363236B03F004030093009B0195236B7B
:1015100043F001032363236B03F001030193019B59
:101520004FF012094FF400734FF00108032704260F
:1015300003A9CDE90339CDE90587079605F052FDEA
:101540004FF480731148079603A9CDE90339CDE91B
:10155000058705F047FD0295236C43F400032364DF
:10156000236C03F400030293029B236A43F40003F9
:101570002362236A23F40003236209B0BDE8F083E9
:10158000005C0040003802400008024000000240B9
:10159000F0B599B004461422002107A823F0ABFF50
:1015A00030220DEB0200002123F0A5FF22685E4BE4
:1015B0009A4240F0B78008230C93C0231093042371
:1015C00012930CA84FF40033159306F003FF08B1F3
:1015D000FFF726FF554B5648002400945A6C42F002
:1015E00080625A645A6C02F080620092009A019400
:1015F0001A6B42F020021A631A6B02F02002019269
:10160000019A02941A6B42F001021A631A6B02F0FB
:1016100001020292029A03941A6B42F002021A63C8
:101620001A6B02F002020392039A04941A6B42F0BE
:1016300040021A631A6B02F040020492049A059465
:101640001A6B42F004021A631A6B02F0040205924C
:10165000059A06941A6B42F008021A631B6B03F09A
:101660000803069302250E26069B0B964FF4806313
:1016700007A9CDE90735CDE9094505F0B3FC41F6E9
:1016800058032C480B9607A9CDE907350927CDE962
:10169000094505F0A7FC032327480B9707A9CDE9C7
:1016A0000735CDE9094505F09DFC4FF470632248EC
:1016B0000B9607A9CDE90735CDE9094505F092FC60
:1016C0004FF40C631D480B9607A9CDE90735CDE90A
:1016D000094505F087FCC02319480B9607A9CDE9F9
:1016E0000735CDE9094505F07DFC082315480B9623
:1016F00007A9CDE90735CDE9094505F073FC4FF49D
:10170000A0530E480B9707A9CDE90735CDE9094548
:1017100005F068FC58202246052105F017FB5820EB
:1017200005F046FB19B0F0BD0068014000380240EA
:101730000014024000000240000402400018024071
:1017400000080240000C024010B5044688B0142284
:10175000002103A823F0CFFE2268144B9A4223D124
:1017600003F56843002101915A6C114842F480123C
:101770005A645A6C02F480120192019A02911A6B17
:1017800042F020021A631B6B03F020030293029BBA
:101790004FF4607202230321CDE903230523CDE931
:1017A000061303A905F01EFC08B010BD005001404F
:1017B000001402402DE9F04186B0002303932B4B27
:1017C0001C68002C4FD14FF00108C3F80080284B53
:1017D00000949A6B274842EA08029A639B6B03EADB
:1017E00008030093022703260C25009B01A94FF64E
:1017F0003F03CDE90137CDE9046505F0F3FB1E4851
:10180000059501A9CDE90187CDE9034605F0EAFB7D
:1018100048F233131948059501A9CDE90137CDE9FF
:10182000034605F0DFFB4FF683731548059501A9C4
:10183000CDE90137CDE9034605F0D4FB4CF2037343
:101840001048059501A9CDE90137CDE9034605F01A
:10185000C9FB60230C48059501A9CDE90137CDE905
:10186000034605F0BFFB06B0BDE8F081B00E0020D6
:1018700000380240001402400008024000180240F4
:1018800000100240000C02400004024070B588B015
:1018900000230293204B1A6C42F010021A641B6C56
:1018A00003F010030293054601A903A8029B06F06A
:1018B00073FD069B4BBB06F05FFD184E184B336063
:1018C00040F2E733F360174BB0FBF3F3013B736077
:1018D000304600233361B360B36107F0AFFB0446C9
:1018E00080B9304607F06CFA044658B9362005F046
:1018F0005FFA0F2D0DD822462946362005F026FA2C
:10190000094B1D60204608B070BD06F035FD400053
:10191000D3E70124F6E700BF00380240B40E0020F0
:101920000010004040420F00580200207047FEE7C0
:10193000FEE7FEE7FEE77047014807F07FBA00BF09
:10194000B40E0020014806F0BFB900BF6C0D0020A6
:10195000014805F079BA00BF680E002001207047E9
:1019600008B523F06BFE162303604FF0FF3008BD6F
:1019700008B523F063FE16230360FEE770B50D463D
:1019800014460E46731B9C4201DC204670BDAFF32B
:10199000008006F8010BF5E770B50D4614460E46BB
:1019A000731B9C4201DC204670BD16F8010BAFF39F
:1019B0000080F5E74FF0FF3070474FF400534B6065
:1019C0000020704701207047002070470A4A1168C4
:1019D00008B5034609B9094911601068694603440E
:1019E0008B4206D923F02AFE0C2303604FF0FF3010
:1019F00008BD1360FCE700BFFC0E0020A87F01209B
:101A0000704708B500F0BAFDBDE8084000F03CBDE5
:101A100000F0B6BD704710B50421044622F01EFC4C
:101A2000204610BD38B50C4B0C4C18800C4B822056
:101A300019806368984740F6110398420AD1094D0E
:101A400023682C60822098472B688220DB689847A7
:101A5000002038BD0120FCE70A0F002028020020EA
:101A6000080F00200C0F00204FF4A071F020FFF7AA
:101A7000D9BF0000F7B5374D2B6804461B6982209B
:101A80009847208000284ED02B680DF106025B6934
:101A900001A982209847304B1B78002B4BD0BDF812
:101AA000063040F6746293423FD9ADF80620BDF887
:101AB0000630D21A92B20A2A42D90B23B2FBF3F2B1
:101AC000264B1B889A4201D9013B9AB2BDF80430DB
:101AD00040F6B8318B4235D8C3F571630E339BB2F3
:101AE0000F21B3FBF1F31E4909888B4201D901395B
:101AF0008BB21C4E1C4D30682F68834281B28CBF64
:101B0000591AC91AB8B2BA428CBF101A801A89B2CF
:101B100080B201440529C8BF33603368C8BF2A605A
:101B200063802B68A38003B0F0BDB32B9CBFB423AC
:101B3000ADF80630BBE7BDF80620A2F5B472B9E7F0
:101B40000022C3E7C3F56D6308339BB20E2BC7D8E1
:101B50000023CEE70C0F0020D40C0020080F00203B
:101B60000A0F0020040F0020000F002037B5684640
:101B70000D461446FFF77EFFBDF8000030B1BDF8FA
:101B800002302B60BDF804302360012003B030BD6B
:101B9000032821D8DFE800F0020B12190F4B1A6856
:101BA000B2FA82F2520904210D4805F005BB0B4B35
:101BB0005A68B2FA82F252090821F5E7074B9A688F
:101BC000B2FA82F252091021EEE7044BDA68B2FA57
:101BD00082F252092021E7E7704700BF100F002072
:101BE00000100240032821D8DFE800F0020B121990
:101BF0000F4B1A68003A18BF012204210D4805F066
:101C0000DBBA0B4B5A68003A18BF01220821F5E7EE
:101C1000074B9A68003A18BF01221021EEE7044BE7
:101C2000DA68003A18BF01222021E7E7704700BFB9
:101C3000100F00200010024003280DD8DFE800F04C
:101C40000206080A0421054805F0BBBA0821FAE794
:101C50001021F8E72021F6E7704700BF001002408E
:101C600008B5032811D8DFE800F0020A0C0E0421A1
:101C7000074805F09BFA431E5842584108BD082109
:101C8000F6E71021F4E72021F2E70020F3E700BF98
:101C90000010024070B5084D00240126E0B2FFF7A5
:101CA000DFFF18B12B68012B18BF2E600134052C03
:101CB00005F10405F2D170BD100F0020012380F85A
:101CC000781080F879307047704700207047000026
:101CD000034B4164003918BF01211970704700BFE0
:101CE00067720120704700207047836B0BB1084674
:101CF000184770474FF6FF707047406803689B694C
:101D000018477047704770477047704710B50446D2
:101D100000F04CFD23680349D3F890302046BDE81D
:101D200010401847000000D008B503680446D3F8F7
:101D30008430984723682046DB6F984700F0ECF822
:101D4000236820465B6F98472920FFF70FFB00F0C0
:101D5000E3F8236820465B6F9847F8E710B5044620
:101D60000AF0AEFB23682046D3F8BC30BDE8104033
:101D7000184700F0FDBC00F001BD00F035BD00F0DB
:101D8000D3BC00F045BD00F04DBD00F0D7BC09F05C
:101D9000C5BD10B58421044622F060FA204610BD6E
:101DA00010B590F8341090F878400C4B8C421A78AB
:101DB00009D03AB90A4A0B491488088810800C8067
:101DC00001221A7010BD002AFCD0054A054914886A
:101DD000088810800C800022F3E700BF60720120A9
:101DE0005C7201205E72012070B50D46194635B94E
:101DF000094B0A4A0A4840F2FF2123F075F9C0E96D
:101E00000F52084B003A18BF01221A700368BDE850
:101E10007040D3F8903018471C62020854620208E0
:101E2000A26202086672012008B5094B1B888B422A
:101E300003D8084B1B88934205D9074B074A08482B
:101E4000A32123F051F9074B1980074B1A8008BDD5
:101E50005C7201205E720120E76202084A63020898
:101E6000A26202086272012064720120034690F8A7
:101E70007A0018B1586803681B681847704700005B
:101E8000012108B50022084607F036FA0A4B18600F
:101E900028B90A4B0A4A28210A4823F025F90022CA
:101EA0000421012007F0C7FA074B186018B9074B47
:101EB000034A2C21F0E708BD240F00207C640208AF
:101EC000C5640208F4640208200F0020416502087E
:101ED000024B4FF0FF31186807F058BA240F00206A
:101EE000014B186807F07EBA240F0020024B002136
:101EF000186807F04BBA00BF240F0020FFF7F0BFAF
:101F000003480449006800231A4607F0CFBA00BF0F
:101F1000200F0020E801002013B5084C00231A46CA
:101F200001A9206807F0F3FA20684FF0FF33002280
:101F300001A907F0ECFA02B010BD00BF200F00208D
:101F400003685B6C18470120704703689B6A184759
:101F5000FEE740F2EF307047054B0360054B4FF052
:101F60008062C3F88820BFF34F8FBFF36F8F704735
:101F7000E066020800E100E010B504464FF45A6143
:101F8000FFF7EAFF204622F069F9204610BD000065
:101F900082B0002301930E4B1A6B42F400021A63C5
:101FA0001A6B02F400020192019A1A6942F40002CB
:101FB0001A611A6922F400021A61064B064A1A6174
:101FC000064A5A61064B4FF080629A6002B0704731
:101FD00000380240680E002031220008511F00081E
:101FE00000E100E008B50A2809D8DFE800F0061093
:101FF0000E080808081010101000022008BD054B3C
:10200000054A0648902123F06FF80020F6E70120EA
:10201000F4E700BF836502089E650208E9650208CF
:1020200038B50C46887FFFF7DDFFA58AE28A164B9C
:102030002169586342EA05425A64628BD963521B94
:102040001A642568082D0ED19A611A615862207FA2
:102050000E4A42EA0062DA61E2681A620C4A596189
:10206000D9601A6038BD0022D8611A61E1680A0A95
:10207000480902F4784200F4FC600243C1F3C40151
:102080000A439A63034AECE700B0024009000100EA
:10209000012302000123030008B50B280BD8DFE859
:1020A00000F00612100A0A0A0A08080808080220A6
:1020B00008BD0520FCE7054B054A06486F2123F0C3
:1020C00013F80020F4E70120F2E700BF836502085F
:1020D00034660208E96502082DE9F04191F81D8097
:1020E0000C464046FFF7D8FFA77F05463846FFF766
:1020F000D3FF06463846FFF775FFA18A628B444B33
:10210000521A1A649A61228B521A1A61E28A58632F
:1021100042EA01425A6421696268D963DA60206840
:10212000802828D0227F0FD8202867D0402865D06B
:1021300004281AD0364B45EA026545F40035B84507
:10214000DD6161D0334A44E0B0F5807F04D0B0F562
:10215000007FEFD1304800E0304840EA0262DA61A7
:10216000E2681A625E62596132E045EA026242F454
:102170000032DA61F6E7A068021DDA62227F45EAE2
:10218000026545F40035DD615E625961017841B157
:10219000012921D0224B234A23484FF48D7122F08C
:1021A000A3FFDA69418822F47F42013922F010024C
:1021B00042EA0122DA610121154BDA6942F020027C
:1021C000DA61DA699206FCD410229A600029B9D04B
:1021D000164A1A60BDE8F081B2F1FF01DA69408861
:1021E00022F47F4200F1FF3022F0100242EA002286
:1021F00042F0100218BF0121DA61DDE745EA026210
:10220000034B42F40032B4E742F20132E1E700BF8F
:1022100000B0024001230100090002000A00020090
:102220007E66020898660208E9650208012302003A
:10223000024B1B68586803685B6918476872012085
:1022400070B5044625460A4B0C30002660602672A5
:10225000667245F8203B602229460AF087FA04F5A9
:102260005A63EE6024359D42FBD1204670BD00BF0D
:10227000E0660208034B1A68D207FCD423229A6056
:10228000704700BF00B002407047000030B50F4CEF
:102290002568ED07FCD423250904A56041F0010160
:1022A0000225FF2B65636164E0630AD0084965621B
:1022B00041EA0363E361074B22626061E0602360EF
:1022C00030BDE561039BA363034BF8E700B0024018
:1022D00009000100010002000100030030B50E4CAE
:1022E0002568ED07FCD423251204A56042F0010205
:1022F0000225FF2B65636264E063E16008D01B0682
:1023000043F00213E361054B65626061236030BDF9
:10231000034BE3610123F9E700B002400100020032
:10232000020002FF30B50B4C2568ED07FCD42325D5
:1023300012041B06A56043F40033022542F001029B
:1023400065636264E063E160E361034B6562606161
:10235000236030BD00B00240010002000120704740
:102360000C2070470C2303FB0100083070470C233E
:1023700003FB0100083070470120704744F2102031
:10238000704744F2102303FB01000830704744F209
:10239000102303FB01000830704701207047102014
:1023A000704700EB01100830704700EB0110083057
:1023B0007047084600F044BE10B5034B0360044666
:1023C00009F003F8204610BD9867020810B50446CE
:1023D000FFF7F2FF2046142121F040FF204610BDF8
:1023E00010B5034B0360044608F0EFFF204610BD14
:1023F0006467020810B50446FFF7F2FF204644F276
:10240000182121F02BFF204610BD000010B5034B12
:102410000360044608F0D9FF204610BD306702086B
:1024200010B50446FFF7F2FF2046182121F016FFF1
:10243000204610BD10B5094B0360044600F58440EA
:102440004430FFF7B9FF04F12C00FFF7C9FF04F196
:102450001400FFF7DBFF204610BD00BFCC67020869
:1024600008B50248FFF7E6FF08BD00BF001E0020C8
:1024700010B50446FFF7DEFF204644F2B83121F0E4
:10248000EDFE204610BD00002DE9F34100F0ECFA0E
:10249000054600F0EDFA0024014623462846224670
:1024A000009412F029FE274B274A1A60204603F0B9
:1024B000B3FA264D264B274A27489A6012F084FD2E
:1024C0002B68BFF35B8FDB0736D4284621F0C8FEAC
:1024D00090B3224C224F234B236007F1180604F1DE
:1024E000140004F12C086060C4F80880E7602661DD
:1024F00008F06CFF1C4B6361404608F067FF1B4B04
:10250000E362384608F062FF04F5804303F5167075
:10251000174AC3F8442203F0D5FF224607F11401FD
:10252000304603F031FB304600F08AFD114822F0BE
:10253000F9FD284621F0A0FE0F4802B0BDE8F041A9
:10254000FFF7E4BBCC720120AC0F0020FC1D002083
:10255000CC0F0020B00F0020EC010020001E002056
:1025600044600020CC6702083067020864670208F4
:102570009867020861240008280F002070470000B7
:102580000148FFF7D1BB00BF280F002070B5264ED1
:10259000264C274D274B23603046FFF751FE284637
:1025A00017F0B0FE244810F0B7FA244B2448DC6042
:1025B00000224FF48071C3E9121222491A86C3E93E
:1025C0001A12214983F85820C3E91E011F49C3F894
:1025D00080101F491F480B60F021C3E90422C3E9A2
:1025E0000622C3E90822C3E90A22C3E90E22C3E98D
:1025F0001022C3E91422C3E917225A6683F8702017
:102600005A67C3E9016501801348018013484FF4FC
:10261000A07101801248018012490A70012283F8DA
:102620003420114A1A6070BD58100020F81D002097
:10263000CC0F00200C620208B00F0020280F0020F1
:102640000000010101000001000450001A00140004
:10265000687201205C720120627201205E720120AA
:102660006472012060720120986302080148FFF73C
:1026700073BC00BF58100020002070478180704755
:10268000C180704701817047418170477047704732
:1026900070477047704710B4C4880368121B848861
:1026A0005B6D091B12B25DF8044B09B218474FF677
:1026B000FF7383814FF0FF3303621368C3611060BF
:1026C0007047002070478B888380012070477047D7
:1026D00080F82610704790F82600704710B5002249
:1026E000B1F90840B1F90A10028042808480C180AB
:1026F00010BD0022028042808280C2807047017734
:10270000704780ED080A704780F82410704780F801
:102710002510704701207047983070478C30704703
:102720008430704770470000034B902283F85A238F
:1027300083F85823704700BF00E100E0094A0A49C6
:10274000D3680A48C3F30A03013B9BB20B801169AB
:10275000C1F30A01013901801364536B43F0010393
:102760005363704700680140BA610020B8610020DF
:10277000014BD3F8AC00704700680140024B0122C6
:10278000C3F8AC105A627047006801407047704748
:1027900010B52C21044621F061FD204610BD10B576
:1027A000BC21044621F05AFD204610BD70B50446F8
:1027B00009F009F923689D6E0EF046FF0146204698
:1027C000A8472368054AD3F88C502046AC4600231E
:1027D000BDE87040A2F51631604700BF00B004D0DC
:1027E00009F0D8B809F0E2B809F09EB809F00DBABE
:1027F00090F8252012B103685B691847704790F87C
:1028000025201AB190F8242002B11860704700000A
:10281000034B4FF080629A604FF080729A6070476D
:1028200000E100E0084B4FF08062C3F88820BFF35E
:102830004F8FBFF36F8F4FF08072C3F88820BFF3C4
:102840004F8FBFF36F8F704700E100E070B500233A
:10285000124E8380124B0360336893F8582005466C
:102860000AB1D86C00B998680368DB6A9847336886
:10287000B0FA80F4D86C640930B10368DB6A984719
:10288000002808BF44F001042CB9064B064A07484B
:102890002C2122F029FC284670BD00BF687201205F
:1028A000DC680208D8670208366802086F68020808
:1028B00070B5254E3568BFF35B8F15F0010540D12B
:1028C000304621F0CDFC00283BD0204C204B256128
:1028D00004F13400C4E90035C4E90255E584A56279
:1028E000A58510F0FEFB04F158000BF0F5FB194B29
:1028F000A3652046184B40F8843BFFF7A7FF174B12
:10290000C4F884302433C4F88C304FF4C803C4E9CD
:1029100028350023C4F8AC30C4F8B030C4F8B43063
:10292000C4F8B8300E480F4BC4F89050C4F89C500F
:10293000C4F8A850C4F8983022F0F4FB304621F0D7
:102940009BFC024870BD00BFBC610020C06100203C
:10295000D4850208FC6802087469020888850208A8
:10296000252700086885020838B5184C23685BB332
:10297000174B184A1B6C11888B4216D1164B1988BD
:1029800005F02CFA236893F86A200025013283F8B9
:102990006A2083F87C50FFF7B3FA206809F090FDB5
:1029A0002846BDE83840FFF7F3B805F017FA246869
:1029B000236820461B6A9847012384F87C30002056
:1029C000BDE83840FFF70EB938BD00BF687201207E
:1029D00000680140BA610020B8610020704708B566
:1029E0000C2938D8DFE801F0070B0F13172F1B1F36
:1029F00023272B2F330003F05BF8006808BD03F09A
:102A000057F84068FAE703F053F88068F6E703F0F8
:102A10004FF8C068F2E703F04BF80069EEE703F007
:102A200047F88069EAE703F043F8C069E6E703F096
:102A30003FF8006AE2E703F03BF8406ADEE703F0A4
:102A400037F8806ADAE703F033F84069D6E703F035
:102A50002FF8C06AD2E70020D0E710B50421044661
:102A600021F0FCFB204610BD00487047CC690208ED
:102A70000620704713B5002451B1036801948DF806
:102A8000034001AA9C680DF10303A04702B010BDEA
:102A90000846FBE7C0897047008A7047C0887047C6
:102AA00080887047807A00F07F007047807AC00984
:102AB00070470020704700009FED010A704700BF7B
:102AC00000000000806A7047704730B503680181DC
:102AD00085B06D460146D3F88430044628469847B1
:102AE00095E807003C3484E8070005B030BD30B5F8
:102AF0000368418185B06D460146D3F884300446B1
:102B00002846984795E807003C3484E8070005B05C
:102B100030BD0022028042808280C280704780F8EF
:102B20003610704770B5036804461B6B154698470E
:102B30002368294620465B6EBDE870401847002098
:102B40007047806C704770477047704710B5082118
:102B5000044621F083FB204610BD10B54C210446ED
:102B600021F07CFB204610BD10B54FF4EE710446F9
:102B700021F074FB204610BD08B5FFF739FE08BDF3
:102B8000036870B55E6B124B1B6804468DB22BB99F
:102B9000104B114A6C21114822F0A6FA1049828D7F
:102BA0000988914203D80F4B0B4A6D21F3E713F8C4
:102BB00012200D4B1B6853F8220003681B6B9847CB
:102BC000291A3346204609B2BDE87040184700BFB5
:102BD000C0720120446A0208866A0208C16A0208BB
:102BE000C4720120086B0208C872012000224FF055
:102BF000FF31C0E90021826070470000074A02608F
:102C00000022C0E90122C0E90322C0E90522C0E98F
:102C100007224FF480728284704700BF3C8902080B
:102C200070B5036804461B6B154698472368294610
:102C300020465B6BBDE87040184770B504461D46E2
:102C4000BDF91060FFF7ECFF2368294620469B6B17
:102C50009847236831462046DB6BBDE87040184733
:102C600010B526220446002122F045FC2046FFF73D
:102C7000C5FF044B2360FF2384F826300023A362A2
:102C8000204610BD2887020810B5262204460021E0
:102C900022F031FC2046FFF7B1FF0A4B23600A4BBC
:102CA000A3624FF6FF73A3854FF47F020023C4E9AC
:102CB0000C3223874FF0FF32C4E91023E363204630
:102CC00010BD00BF98860208506B02082DE9F04F36
:102CD00004468BB025460026FFF790FF7C4BA6628A
:102CE00045F82C3B04F1580B2846FFF7B9FF04F1D7
:102CF000840A5846FFF7B4FF5046FFF7C5FF04F1BA
:102D0000CC0304F1F809184604F5A2780393714F37
:102D1000FFF7A6FF4846FFF7B7FFC4F8F870C4F8FE
:102D200040614046FFF7B0FF04F5C873C4F8447132
:102D3000C4F88C6118460293FFF7A6FF664BA360A8
:102D40006423C4F89071C4F8D861502200933146CE
:102D50002846F023FFF771FF4FF07F47322384F8B6
:102D6000523029462046676508F042FB5023324620
:102D7000009331465846F023FFF75FFF574BC4F8E6
:102D800080305946204604AD08F032FB06225046FA
:102D90003C21FFF745FF51462846C4F8B470A4F81B
:102DA000B8600BF097FA95E8070004F1C00383E8D8
:102DB0000700DFF82CB1CDF820B0102308A9504649
:102DC000ADF824300BF02EFD5146204608F010FBE4
:102DD0001C2303980093222215234021FFF72DFF87
:102DE0004FF0FF33C4F8F430C72384F8F23003996E
:102DF000204608F0FDFA282248464421FFF710FF3C
:102E0000D4F8F830C4F8287149462846D3F88430FD
:102E1000A4F82C61984795E8070004F59A7383E8B5
:102E200007000F2308A94846ADF82430CDF820B09C
:102E30000BF0F8FC4946204608F0DAFA2822404612
:102E40006E21FFF7EDFED4F84431C4F874714146A9
:102E50002846D3F88430A4F87861984795E80700AD
:102E600004F5C07383E807000E2308A94046ADF8B7
:102E70002430CDF820B00BF0D5FC4146204608F0B8
:102E8000B7FA029828229821FFF7CAFED4F89031A9
:102E90000299D3F88430C4F8C0712846A4F8C461FC
:102EA000984795E8070004F5E67383E807000D23CB
:102EB0000298ADF8243008A9CDF820B00BF0B2FC90
:102EC0002046029908F094FA20460BB0BDE8F08F36
:102ED000F06B0208606B0208F000B40017BDFEFF43
:102EE000506B02087047704700F59873086849688E
:102EF00003C37047704770474160704770470000D8
:102F0000064BC0F84C310023C0F8503100F5A273D5
:102F1000C0F84801C0F84031704700BF3D33000899
:102F20000123037270477047704710B4C26841684C
:102F30005410034601EB6200D20748BF0A599B6850
:102F40005DF8044B48BFD35818470346406830B17A
:102F50009A681AB9D86800F00100704701207047DC
:102F600010B50C21044621F079F9204610BD10B5AA
:102F70001021044621F072F9204610BD10B54FF41F
:102F8000AE71044621F06AF9204610BD10B50EF06E
:102F90005BFB0368BDE81040DB6B184710B50446C7
:102FA000D0F8400158B10368DB68984738B1D4F8CD
:102FB000400103689B6898470023C4F8403110BD66
:102FC000044B1B6893F858200AB1D86C00B9986874
:102FD000704700BF68720120F8B5174604460E46D8
:102FE0000EF0F4FB124B1C60124B2360124B0025B9
:102FF000C4E95135114BC4E95355186803680121E0
:103000009B68C4E94F55C4E955769847284602F0B5
:1030100003FDFFF7D5FF19F01EF8FFF7D1FF19F0F8
:1030200095F8FFF7CDFF19F09DF82046F8BD00BFD9
:10303000BC7201204C7102083471020868720120D0
:10304000064BC0F84C310023C0F8503100F5A27394
:10305000C0F84801C0F84031704700BF3D33000858
:10306000064BC0F84C310023C0F8503100F5A27374
:10307000C0F84801C0F84031704700BFF131000886
:10308000064BC0F84C310023C0F8503100F5A27354
:10309000C0F84801C0F84031704700BFA9300008AF
:1030A00003685B6A184700002DE9F14FD0E9556AC3
:1030B0000746B06803681B6A9847B0F5277F05D2BA
:1030C000434B444AA321444822F00EF87068036839
:1030D0001B6A98470F2803D8404B3E4AA421F2E7C9
:1030E000F06803681B6A98470B2803D83C4B394AA1
:1030F000A521E8E70EF0A8FADFF8EC9004300EF016
:10310000C8FAD9F8000010B10368DB689847D9F80D
:10311000000010B103681B689847DFF8D080D8F82A
:10312000000010B103685B699847D7F83C0110B103
:1031300003685B689847D8F8000010B103681B6803
:103140009847D7F83C0110B103689B689847F0682E
:103150000021FFF7A5FF4FF0000B224BC0F804B091
:10316000044680F808B00360B068036859465B6A9B
:103170009847054603F0F6F87068036859465B6A9D
:1031800098472946064603F0CBF8331DC7F83C6143
:10319000C9F80040C8F80050CAF800302B68C6F8DB
:1031A00008A02846DB68EE639847336830461B6802
:1031B00098472146284610F0F7FB236820461B69F4
:1031C000984723685B69204601B0BDE8F04F184777
:1031D0007C6C02080A6D0208F06D0208376E020866
:1031E000DA6E0208A0710208B0720120AC720120F0
:1031F0002DE9F14FD0E9556A0746B06803681B6AAC
:10320000984744F20F23984205D8444B444AA321DF
:10321000444821F069FF706803681B6A98470F28CB
:1032200003D8414B3E4AA421F2E7F06803681B6AC9
:1032300098470B2803D83D4B394AA521E8E70EF003
:1032400003FADFF8F09004300EF023FAD9F800000A
:1032500010B10368DB689847D9F8000010B1036823
:103260001B689847DFF8D080D8F8000010B10368D9
:103270005B699847D7F83C0110B103685B689847D1
:10328000D8F8000010B103681B689847D7F83C01D4
:1032900010B103689B689847F0680021FFF700FFB2
:1032A0004FF0000B224BC0F804B0044680F808B081
:1032B0000360B068036859465B6A9847054602F0A8
:1032C0008BFD7068036859465B6A98472946064635
:1032D00002F0DEFC331DC7F83C61C9F80040C8F8B5
:1032E0000050CAF800302B68C6F808A02846DB68F2
:1032F000EE639847336830461B6898472146284656
:1033000010F052FB236820461B69984723685B69CD
:10331000204601B0BDE8F04F184700BF7C6C0208A2
:103320007D6F0208F06D0208376E0208DA6E02083F
:10333000A0710208B0720120AC7201202DE9F14F9A
:10334000D0E9556A0746B06803681B6A9847B0F52C
:10335000C07F05D2434B444AA321444821F0C4FE18
:10336000706803681B6A98470F2803D8404B3E4A91
:10337000A421F2E7F06803681B6A98470B2803D87A
:103380003C4B394AA521E8E70EF05EF9DFF8EC90F6
:1033900004300EF07EF9D9F8000010B10368DB6844
:1033A0009847D9F8000010B103681B689847DFF808
:1033B000D080D8F8000010B103685B699847D7F84F
:1033C0003C0110B103685B689847D8F8000010B161
:1033D00003681B689847D7F83C0110B103689B68E5
:1033E0009847F0680021FFF75BFE4FF0000B224B7F
:1033F000C0F804B0044680F808B00360B068036801
:1034000059465B6A9847054602F0EEFF706803680C
:1034100059465B6A98472946064602F0BDFF331DB0
:10342000C7F83C61C9F80040C8F80050CAF800303D
:103430002B68C6F808A02846DB68EE639847336817
:1034400030461B6898472146284610F0ADFA23689D
:1034500020461B69984723685B69204601B0BDE898
:10346000F04F18477C6C020855700208F06D020896
:10347000376E0208DA6E0208A0710208B0720120ED
:10348000AC7201207047704730B4C2684468551070
:10349000034604EB6200D20748BF62599B6830BC08
:1034A00048BFD35818470346406830B19A681AB9E4
:1034B000D86800F0010070470120704710B5102156
:1034C000044620F0CBFE204610BD00F5157002F03A
:1034D00045BB38B500F5BE73994204460D4603D18D
:1034E0000EF0B2F8FFF7ACFD04F5E2739D4204D193
:1034F00023682046D3F88C30984704F50374A5421E
:1035000005D10EF0A1F8BDE83840FFF7B9BD38BDD0
:1035100010B5064B0360064BC0F85432044600F564
:103520001570FFF710FB204610BD00BFDC710208CC
:103530004C7C020810B50446FFF7EAFF20464FF422
:10354000886120F08BFE204610BD0000F8B5194BB5
:10355000018F1B888B4206462AD9174B1B682BB953
:10356000164B174A17486C2121F0BEFD13F81120A5
:10357000154B1B6853F82250144B186802F088FA58
:103580002B6807469B6B284698472B6804469B6C24
:103590003946284698472B6814FB00F45B6A394685
:1035A00028469847A4B223181BB2A6F84630F8BDA7
:1035B0000023FAE7C4720120C0720120446A0208A5
:1035C000866A0208C16A0208C8720120CC72012012
:1035D0002DE9F04F04468FB025460026FFF70EFB7D
:1035E000AE4BA66245F82C3B31462622284621F0F8
:1035F00082FF2846FFF702FBA94BE36204F1580A59
:10360000FF2304F1A00984F8523066655046FFF7A5
:103610003BFB04F1E8084846FFF736FB4046FFF75E
:1036200033FBA04BC4F8E83004F59A73C4F830615A
:1036300018460293FFF728FB04F5BE731846039360
:103640000BF056FC04F5E27304F5037B1846049373
:103650000BF04EFC58460BF04BFC04F51573184666
:10366000059302F071FA904BC4F830348F4BC4F8D4
:1036700038348F4BA3604FF4A0733246C4F83444FF
:10368000C4F83C64314600932846F023FFF7D5FA8E
:103690004FF07F4363659B2384F8523029462046D0
:1036A00006AD07F0A5FE4FF0FF37102250460C2163
:1036B000FFF7B6FA51462846C4F88870A4F88C6023
:1036C0000AF008FE95E8070004F1940383E8070078
:1036D000784B0C930CA914235046ADF834300BF002
:1036E000A1F85146204607F083FE382248464E2175
:1036F000FFF796FA49462846C4F8D070A4F8D4607B
:103700000AF0E8FD95E8070004F1DC0383E8070010
:103710004FF0130A674B0C930CA94846ADF834A040
:103720000BF080F84946204607F062FE56224046DC
:10373000CDF800A057234E21FFF77FFA4FF0FF236B
:10374000C4F81831D4F8E830A4F81C614146284682
:10375000D3F88430984795E8070004F5927383E81E
:103760000700544B0C930CA912234046ADF834309B
:103770000BF058F84146204607F03AFE02987622B0
:103780002221FFF74DFA0299C4F864712846A4F883
:1037900068610AF09FFD95E8070004F5B87383E8B7
:1037A0000700444B02980C930CA91123ADF8343058
:1037B0000BF038F8029984F85961204607F018FE9A
:1037C000039840F215124621FFF72AFA03250CAAA6
:1037D0000BA90398ADF82C504FF00C09ADF8305000
:1037E0000BF07DF80398A4F8B491FFF7AFFE04F551
:1037F00086684FF07F43C4E96E370399C4F8A4810B
:10380000204607F0F5FD04984946EB22FFF708FA39
:103810000CAA0BA90498ADF82C50ADF830500BF061
:103820005EF80B230498A4F8FC31FFF78FFE4FF0ED
:103830007F43C4E980370499C4F8EC81204607F03F
:10384000D7FD5846EB228121FFF7EAF90CAA0BA914
:103850005846ADF82C50ADF830500BF040F80A2324
:10386000A4F844325846FFF771FE4FF07F43C4E995
:10387000923759462046C4F8348207F0B9FD0598BE
:103880008B223146FFF7CCF92046059984F87962FE
:1038900007F0AEFD20460FB0BDE8F08FDC710208E6
:1038A00028870208606B0208C4710208D33400083C
:1038B000F0004001506B0208704770477047704736
:1038C000704770477047704730B4C26844685510FD
:1038D000034604EB6200D20748BF62599B6830BCC4
:1038E00048BFD35818470346406830B19A681AB9A0
:1038F000D86800F0010070470120704790F82D3023
:1039000080F86030704710B56421044620F0A6FCB2
:10391000204610BD10B51021044620F09FFC204623
:1039200010BD0146383091F82C3013B136310BF010
:103930009DB93431FBE710B5044600F53E7002F046
:10394000F0FD04F57D7002F076FE04F59E6002F055
:10395000CEFE04F2EC5002F09CFE04F5DD6002F0B5
:10396000F4FE04F2E47002F00AFE04F50E6002F0C8
:1039700034FE04F6DC1002F07BF904F5646002F01A
:103980009FFD04F58250BDE8104002F0B9BC10B5AF
:103990000446006B50B10368DB68984730B1206B78
:1039A000036821469B68BDE81040184710BD00F130
:1039B000F0028A4202D10368DB6A184770470B792C
:1039C00070B590F82C6004460D460BB916B170BD69
:1039D000002EFCD0B3FA83F35B0984F82C30236803
:1039E0002046D3F88C309847236820465B69984777
:1039F000002EECD02B79012BE9D123682046D3F897
:103A00008830BDE870401847264B274A10B5036040
:103A100000F5805304461A6400F5825000F083FBE1
:103A2000224BC4F8403E04F5646000F072FF204B66
:103A3000C4F8DC3904F6DC10FFF76AFD1D4BC4F84E
:103A4000E03804F50E6001F0D3FC1B4BC4F8E437FA
:103A500004F2E47001F044FC184BC4F8E83604F5B5
:103A6000DD6001F0DDFE164BC4F8EC3504F2EC50DD
:103A700001F0CAFD134BC4F8F03404F59E6001F068
:103A800049FE114BC4F8F43304F57D7001F036FDA6
:103A90000E4BC4F8F83204F53E7001F083FB20466B
:103AA00010BD00BF2C730208487E02089C7F0208EC
:103AB000507D020864810208D0800208B4830208A5
:103AC0008C82020820830208F88102083C800208E8
:103AD00010B50446FFF798FF20464FF48D5120F0B3
:103AE000BDFB204610BD0B882DE9F041838613886D
:103AF000B0F90850C38604461046904611F010FBFA
:103B0000B4F90A30074603EBD3734046C3F34F06BC
:103B100011F03AFB05EBD575C5F34F0500EBD070FE
:103B200007EBD777A6EB6002A5EB670104F138003D
:103B300012B209B2FFF774F823682046D3F88C302C
:103B4000BDE8F041184700002DE9F04F04469DB054
:103B5000A04600250FF07CFDDE4BE56348F8403BB6
:103B60004046FFF77DF804F16C0318460693FFF713
:103B700077F804F1980318460793FFF771F804F1FA
:103B8000C403184604F1F0070893FFF737F8D24B47
:103B9000C4F8C430C4F8EC503846FFF72FF84FF49F
:103BA0007F43A4F81C31012384F81431CB4BC4F8B3
:103BB000F03004F594764FF0FF332622C4F8243118
:103BC00029464FF6FF7BC4F81851C4F820513046FF
:103BD000ADF868B021F08FFC3046FFF70FF8C04B0E
:103BE000C4F82831BDF86830A4F84E3184F850B1DB
:103BF0001AA930460BF03AF83146384607F0F8FB80
:103C000004F5AA7318460393FFF73EF804F5CE7344
:103C10001846B44E0493FFF737F804F5F47304F52F
:103C20000C7B1846C4F89C61C4F8E45104F51F7A73
:103C30000593FFF729F85846FFF726F8C4F83062D5
:103C4000C4F878525046FFF71FF804F53173184650
:103C50000993FFF705F8A44BC4F8C43204F53E738A
:103C6000C4F8F052A4F8F45218460A9302F042FC49
:103C700004F57D7318460B9302F0C6FC04F59E63B1
:103C800018460C9302F01CFD04F2EC5318460D93F9
:103C900002F0E8FC04F5DD6318460E9302F03EFDE9
:103CA00004F2E47318460F9302F052FC04F50E631D
:103CB0001846109302F07AFC04F6DC1318461193B0
:103CC00001F0B0FF04F564631846129302F0DCFBC8
:103CD00004F582531846139302F0FEFA834B04F561
:103CE0008059C9E96434824BC9E966354FF4A07341
:103CF0002A46009329464046F023261DFEF79DFFE5
:103D00004FF07F43A3664146304607F071FB4FF406
:103D1000A0732A460698009329469623FEF78DFF46
:103D2000744B0699C4F8943030464FF48C7807F001
:103D30005FFB0798CDF8008023228C230521FEF736
:103D40007CFF6D4B0799C4F8C030304607F050FB3C
:103D50008C230898CDF8008023220521FEF76DFF03
:103D60000899304607F044FB4FF004081AAA19A935
:103D70003846ADF86480ADF86880FFF7B4FE04F50E
:103D80008C531033C4F820311C234246C4F82C5104
:103D9000384600930521FEF750FF3946304607F0BC
:103DA00027FB0398DFF85481E422A62114AFFEF725
:103DB00037FF4FF0FF330399C4F884313846A4F835
:103DC00088510AF087FA97E8070004F5C87383E87A
:103DD00007001A230398ADF86C301AA9CDF8688053
:103DE0000AF020FD0399304607F002FB1E230498D9
:103DF0000093FF2257239621FEF71FFF4FF0FF335A
:103E0000C4F8CC31D4F89C310499D3F88430A4F8A8
:103E1000D0513846984797E8070004F5EC7383E8DB
:103E2000070019230498ADF86C301AA9CDF8688002
:103E30000AF0F8FC0499304607F0DAFA15230598E1
:103E40000093992250239C21FEF7F7FE4FF0FF3399
:103E50000599C4F818323846A4F81C520AF03AFA08
:103E600097E8070004F5097383E807002123059804
:103E7000ADF86C301AA9CDF868800AF0D3FC05992A
:103E8000304607F0B5FA13230093B422584657235F
:103E90009621FEF7D2FE4FF0FF23C4F86032D4F82B
:103EA0003032A4F8645259463846D3F884309847E3
:103EB00097E8070004F51B7383E8070020231AA97D
:103EC0005846ADF86C30CDF868800AF0ABFC594626
:103ED000304615E02C730208A884020874720208A8
:103EE000F8870208606B02089087020814730208C2
:103EF000AF390008BB4446FF764446FF506B0208CA
:103F000007F076FA28225046AA21FEF789FE4FF0E4
:103F1000FF33C4F8AC3251463846A4F8B0520AF028
:103F2000D9F997E8070004F52E7383E807001F23EB
:103F30001AA95046ADF86C30CDF868800AF072FCD2
:103F40005146304607F054FA4223099800933C2228
:103F5000A321FEF772FE4FF07F43C4F8EC3203F565
:103F60007F03C4F8F0320323A4F8F43209993046F1
:103F700007F03EFA0A984622A821FEF751FE0A9958
:103F800084F81D53304607F033FA0B984122A821DC
:103F9000FEF746FE0B9984F81954304607F028FACC
:103FA0000C984122AF21FEF73BFE0C9984F8155581
:103FB000304607F01DFA0D984122A121FEF730FE90
:103FC0000D9984F81156304607F012FA0E984122E6
:103FD000AE21FEF725FE0E9984F80D57304607F006
:103FE00007FA0F984122AF21FEF71AFE0F9984F8C5
:103FF0000958304607F0FCF910984122A121FEF73C
:104000000FFE109984F80559304607F0F1F92A4659
:1040100011982946FEF704FE119984F8015A30469A
:1040200007F0E6F92A4612982946FEF7F9FD12999B
:1040300084F8655E304607F0DBF913982A46294676
:10404000FEF7EEFD3046139989F8655007F0D0F978
:1040500020461DB0BDE8F08F406A7047806A704707
:1040600070478A880B8810B5D20A4C88C1699BB208
:1040700051F8220043EA0443184410BD10B5044629
:10408000BAB1107B68B1537BD27A1B0203F4E063B0
:104090001A43236A03EB82031A888A4202D193F9F6
:1040A000020010BD05D8013880B204330028F3D1D6
:1040B000F7E70020F5E710B52C21044620F0CEF8F4
:1040C000204610BD30B58BB00446BDF86050089551
:1040D000BDF85C5007959DF8505006959DF84C50E2
:1040E00005959DF8485004959DF8445003959DF81A
:1040F000405002959DF83C500195BDF83850009510
:104100000FF0ACF8064B2360159BE361169B23620E
:10411000199B63621A9BA36220460BB030BD00BF9F
:1041200064730208704770477047704730B4C268C4
:1041300044685510034604EB6200D20748BF625939
:104140009B6830BC48BFD35818470346406830B11D
:104150009A681AB9D86800F00100704701207047CA
:1041600010B51021044620F079F8204610BD10B596
:104170004FF4A071044620F071F8204610BD00F104
:10418000A0028A4203D10368D3F88C3018477047E5
:104190002DE9F04F044689B025460026FEF72EFD96
:1041A0005A4BA66245F82C3B31462622284621F080
:1041B000A2F92846FEF722FD554BE36204F15807A9
:1041C000FF2304F1A00A84F8523066653846FEF7F2
:1041D0005BFD04F1E80950460AF08AFE4846FEF706
:1041E00053FD4C4BC4E94C344B4BC4E94E364B4B5E
:1041F000A360324631462846FEF712FD2846F021DC
:10420000FEF740FA28464FF4A071FEF73DFA4FF052
:104210007F4363652946204607F0EAF84C2238467A
:104220000921FEF7FDFC6D464FF0FF334FF0010B07
:10423000C4F8883039462846A4F88CB00AF04AF809
:1042400095E8070004F1940888E8070039462846F5
:1042500084F891B00AF03EF895E8070088E8070076
:104260000222DFF8BC80ADF81C2006A93846CDF844
:1042700018800AF0D7FA3946204607F0B9F85046B8
:10428000EA220D21FEF7CCFC06AA05A95046ADF89E
:1042900014B0ADF818600AF022FB5046A4F8D8B06C
:1042A000FFF754F94FF0FF334FF07F42C4E9372353
:1042B00004F59872C4F8C8205146204607F098F8D3
:1042C0001D2248464121FEF7ABFC4FF0FF33C4F8F6
:1042D000183149462846A4F81C6109F0FBFF95E80F
:1042E000070004F5927383E8070006A94846CDF855
:1042F0001880ADF81C600AF095FA2046494607F090
:1043000077F8204609B0BDE8F08F00BFE4730208DB
:1043100028870208CC7302087F410008F0004001A2
:10432000506B0208806C7047C06C704770477047D4
:104330007047704730B4C26844685510034604EBB8
:104340006200D20748BF62599B6830BC48BFD3584F
:1043500018470346406830B19A681AB9D86800F027
:10436000010070470120704710B5502104461FF02E
:1043700075FF204610BD10B5102104461FF06EFFDA
:10438000204610BD10B54FF4277104461FF066FF9C
:10439000204610BD00F51170884208B505D10DF01A
:1043A00053F9BDE80840FEF74BBE08BD10B5044602
:1043B000FEF76AFC034B23600023C4E91233204656
:1043C00010BD00BF7C7402082DE9F04F04468DB08B
:1043D00025460FF03DF94FF00008AB4AC4F83C8089
:1043E00045F8402BA94AC4F86080C4E910284FF46E
:1043F000807204F16C0BA4F86420FF2284F866201C
:1044000004F1B40AC4E91288C4E91488C4E916881E
:10441000C4F868805846FEF737FC04F582795046A8
:10442000FFF7C4FF4846FFF7C1FF04F5AA7318461B
:104430000093FFF7BBFF04F5D27318460193FFF713
:10444000B5FF04F5FA7318460293FFF7AFFF04F5C2
:104450001173184603930AF04BFD8D4AC4E9A32457
:104460008C4A4146C4E9A52828464246FEF7D8FBB7
:104470002846F021FEF706F928464FF4A071FEF712
:1044800003F9261D4FF07F43A3662946304606F008
:10449000AFFF182258460D2104ADFEF7C1FB4FF0C7
:1044A000FF33C4F89C3059462846A4F8A08009F090
:1044B00011FF95E8070004F1A80787E80700764F89
:1044C0000A9709220AA95846ADF82C200AF0AAF941
:1044D0005946304606F08CFF50463C226221FEF7DA
:1044E0009FFB6E4AC4F8E420D4F8B420A4F8E88016
:1044F00051462846D2F88420904795E8070004F1F9
:10450000F00C8CE8070008220AA95046ADF82C20D0
:104510000A970AF087F95146304606F069FF484687
:104520008C226221FEF77CFB5D4AC4F83421D4F86A
:104530000421A4F8388149462846D2F884209047BF
:1045400095E8070004F5A07C8CE8070007220AA97B
:104550004846ADF82C200A970AF064F949463046DF
:1045600006F046FF0098B4226221FEF759FB4D4A3F
:10457000C4F88421D4F854210099D2F88420A4F8F6
:1045800088812846904795E8070004F5C87C8CE8A8
:10459000070005220098ADF82C200AA90A970AF016
:1045A00041F90099304606F023FF0198DD2262218F
:1045B000FEF736FB3C4AC4F8D421D4F8A421019973
:1045C000D2F88420A4F8D8812846904795E80700BF
:1045D00004F5F07C8CE8070004220198ADF82C204B
:1045E0000AA90A970AF01EF90199304606F000FF61
:1045F000029864226221FEF713FBD4F8F4312B4AAF
:104600000299C4F824222846D3F88430A4F82882DA
:10461000984795E8070004F50C7383E80700062324
:104620000298ADF82C300AA90A970AF0FBF8029913
:10463000304606F0DDFE03984FF485720D21FEF73B
:10464000EFFA01230AAA09A90398ADF82430ADF8BE
:1046500028300AF044F903230398A4F87C32FEF7CB
:1046600075FF4FF07F424FF0FF33C4E9A02304F5FC
:10467000237330460399C4F86C3206F0B9FE204625
:104680000DB0BDE8F08F00BF24750208288702082E
:104690000C75020895430008506B02080100FFFFEB
:1046A00000C3FFFF376A01FF8A5100FF0668F7FF6A
:1046B000704770477047704730B4C26844685510FF
:1046C000034604EB6200D20748BF62599B6830BCC6
:1046D00048BFD35818470346406830B19A681AB9A2
:1046E000D86800F0010070470120704710B5102114
:1046F00004461FF0B3FD204610BD10B54FF4C07145
:1047000004461FF0ABFD204610BD38B500F19803FC
:10471000994204460D4603D10CF096FFFEF7A0FC2B
:1047200004F594739D4203D123682046DB6A9847C1
:10473000E034A54205D10CF087FFBDE83840FEF714
:104740009FBC38BD2DE9F04F044685B025460EF0DC
:104750007FFF0026684AE66345F8402B674A2666D5
:10476000C4E910264FF48071FF2204F16C0BA4F809
:10477000641084F86620A4F890104FF6FF72604928
:10478000A4F8922084F8942004F19809E166584630
:1047900003A9C4E91266C4E91466C4E91666C4E94B
:1047A0001C66C4E91E66C4E92066C4E92266A666E2
:1047B000ADF80C2004F1E0080AF058FA48460AF077
:1047C00097FB04F5947740460AF092FB38460AF0CE
:1047D0008FFB4C4AC4E95C244B4A3146C4E95E264F
:1047E00028463246FEF71CFA2846F021FDF74AFF1C
:1047F0004FF07F4A28464FF4A071FDF745FF294648
:10480000201DC4F868A006F0F3FD32465846462144
:10481000FEF706FA052203A95846ADF80C200AF067
:1048200025FA5946201D06F0E3FD4846CA220D210F
:10483000FEF7F6F9012502A903AA4846ADF808508B
:10484000ADF80C500AF04BF81822A4F8D0204846D6
:10485000FEF77CFE4FF0FF3B04F5B873C4F8C030A0
:104860004946201DC4F8D4A0C4F8D8B0019306F07E
:10487000BFFD40464FF483720D21FEF7D1F902A926
:1048800003AA4046ADF80850ADF80C500AF027F8DE
:104890001722A4F818214046FEF758FE019BC4F8E1
:1048A00008314146201DC4E947AB06F0A1FD38465A
:1048B0008E223321FEF7B4F9022202A9ADF80820B6
:1048C000ADF80C20384603AA0AF009F81622A4F81D
:1048D00060213846FEF73AFE019B84F84D61201DA9
:1048E000C4E959ABC4F85031394606F081FD204681
:1048F00005B0BDE8F08F00BF707502082887020878
:10490000F8870208587502080B470008704770477F
:10491000704770477047704730B4C268446855109C
:10492000034604EB6200D20748BF62599B6830BC63
:1049300048BFD35818470346406830B19A681AB93F
:10494000D86800F0010070470120704710B51021B1
:1049500004461FF083FC204610BD10B54FF4E871EB
:1049600004461FF07BFC204610BD38B500F1A003C3
:10497000994204460D4603D10368D3F88C3098471A
:1049800004F5BC739D4204D123682046D3F89030CF
:10499000984704F1E8039D4204D123682046D3F8E8
:1049A0009430984704F59874A54205D10CF04CFE5C
:1049B000BDE83840FEF744BB38BD00002DE9F04F9C
:1049C00004468BB025460027FEF718F9814AA762F6
:1049D00045F82C2B262632463946284620F08BFDFA
:1049E0002846FEF70BF97C4AE26204F15803FF22E5
:1049F000394684F85220676532461846009320F005
:104A00007AFD0098FEF7FAF8744AA2654FF6FF7235
:104A1000734BA4F884204FF0FF3604F1A00B4FF441
:104A20007F02C4F8803004F1E80AC4F88C20C4E99D
:104A30002667C4F88870A4F89070C4F8947058463B
:104A40000AF056FA04F5987950460AF051FA4846A9
:104A50000AF04EFA04F5BC72104601920AF048FAC8
:104A6000604AC4E97024604AC4E972275F4AA260C0
:104A700039463A462846FEF7D3F82846F021FDF796
:104A800001FE28464FF4A071FDF7FEFD4FF07F4870
:104A90008C2284F8522029462046C4F8548006F01F
:104AA000A7FC02AD009817223F21FEF7B9F8009944
:104AB000A4F88C702846C4F8886009F00BFC95E8CF
:104AC000070004F1940383E80700454B009808931E
:104AD00008A91E23ADF8243009F0A4FE0099204651
:104AE00006F086FC58465D220D21FEF799F8012755
:104AF00008AA07A95846ADF81C70ADF8207009F057
:104B0000EEFE1D23A4F8D83004F5E0755846FEF7F4
:104B10001DFD59462046C4E93786C4F8C85006F042
:104B200067FC50464FF485720D21FEF779F808AA0C
:104B300007A95046ADF81C70ADF8207009F0CFFE03
:104B40001C23A4F820315046FEF700FD51462046B4
:104B5000C4E94986C4F8105106F04AFC4846C2220E
:104B60000D21FEF75DF808AA07A94846ADF81C70AC
:104B7000ADF8207009F0B3FE1523A4F8683148465B
:104B8000FEF7E4FC49462046C4E95B86C4F8585168
:104B900006F02EFC01988E220D21FEF741F808AA9E
:104BA00007A90198ADF81C70ADF8207009F097FEC8
:104BB0001B230198A4F8B031FEF7C8FC2046C4E9D5
:104BC0006D860199C4F8A05106F012FC20460BB086
:104BD000BDE8F08FC0750208288702089886020891
:104BE000506B0208A87502086B490008F0004001EC
:104BF0007047000030B5174D2C68BFF35B8F14F081
:104C000001048FB022D128461FF02AFBF0B13F23C8
:104C10000993114B0893114B114912480A94CDE99D
:104C2000064301220423CDE903320E2300930B2215
:104C30000F23CDE90B44CDE901440594FFF742FA77
:104C4000094820F06FFA28461FF016FB05480FB000
:104C500030BD00BF7C62002088D20208C8D20208A2
:104C600060C9020880620020F14B00087047000014
:104C700030B5174D2C68BFF35B8F14F001048FB073
:104C800022D128461FF0ECFAF0B13F230993114BD3
:104C90000893114B114912480A94CDE906430122A9
:104CA0000423CDE90332142300930B221623CDE90C
:104CB0000B44CDE901440594FFF704FA094820F0BC
:104CC00031FA28461FF0D8FA05480FB030BD00BFB2
:104CD000AC6200208CD20208CCD20208FCC90208C7
:104CE000B06200206D4C00087047000030B5164DD2
:104CF0002C68BFF35B8F14F001048FB021D12846DC
:104D00001FF0AEFAE8B13F230993104B0893104B04
:104D1000104911480A94CDE9064301220423CDE944
:104D20000332CDE901340C2300931A22CDE90B4460
:104D30000594FFF7C7F9094820F0F4F928461FF059
:104D40009BFA05480FB030BDDC62002090D202080B
:104D5000D0D2020898CA0208E0620020E94C00089C
:104D60007047000030B5174D2C68BFF35B8F14F00F
:104D700001048FB022D128461FF072FAF0B13F2310
:104D80000993114B0893114B11480A94CDE906433E
:104D900001220423CDE9033206211123CDE900319C
:104DA0001B220C490594CDE90B440294FFF78AF9C4
:104DB000094820F0B7F928461FF05EFA04480FB002
:104DC00030BD00BF0C63002094D20208D4D2020888
:104DD0001063002004CC0208614D000870470000F9
:104DE00030B5174D2C68BFF35B8F14F001048FB002
:104DF00022D128461FF034FAF0B13F230993114B1A
:104E00000893114B11480A94CDE90643012204236B
:104E1000CDE9033207211423CDE9003110220C49DA
:104E20000594CDE90B440294FFF74CF9094820F0B2
:104E300079F928461FF020FA04480FB030BD00BFB2
:104E40003C63002098D20208D8D2020840630020B8
:104E500080CD0208DD4D00087047000030B5164DCA
:104E60002C68BFF35B8F14F001048FB021D128466A
:104E70001FF0F6F9E8B13F230993104B0893104B4C
:104E8000104911480A94CDE9064301220423CDE9D3
:104E9000033219230922CDE90032CDE90B440594F0
:104EA0000294FFF70FF9094820F03CF928461FF05B
:104EB000E3F905480FB030BD6C6300209CD20208B6
:104EC000DCD2020860CE020870630020594E000850
:104ED0007047000030B5164D2C68BFF35B8F14F09F
:104EE00001048FB021D128461FF0BAF9E8B13F2361
:104EF0000993104B0893104B104911480A94CDE9BF
:104F0000064301220423CDE90332CDE9013408230D
:104F100000930F22CDE90B440594FFF7D3F809481D
:104F200020F000F928461FF0A7F905480FB030BD62
:104F30009C630020A0D20208E0D20208E0CE020862
:104F4000A0630020D14E00087047000030B5164D18
:104F50002C68BFF35B8F14F001048FB021D1284679
:104F60001FF07EF9E8B13F230993104B0893104BD3
:104F7000104911480A94CDE9064301220423CDE9E2
:104F80000332142300930322CDE90B44CDE90144FD
:104F90000594FFF797F8094820F0C4F828461FF059
:104FA0006BF905480FB030BDCC630020A4D20208D5
:104FB000E4D20208B4CF0208D0630020494F0008B1
:104FC0007047000030B5174D2C68BFF35B8F14F0AD
:104FD00001048FB022D128461FF042F9F0B13F23DF
:104FE0000993114B0893114B07930123CDE9054316
:104FF00004930423CDE902430A230D4900932D2293
:105000000C23CDE90B440B480A940194FFF75AF89E
:10501000094820F087F828461FF02EF905480FB000
:1050200030BD00BFFC630020A8D20208E8D202080D
:10503000E0CF020800640020C14F00087047000064
:1050400030B5164D2C68BFF35B8F14F001048FB0A0
:1050500020D128461FF004F9E0B13F230993104BFB
:105060000893104B104911480A940122CDE90643D8
:105070000423CDE903320F230093CDE90B44CDE99E
:1050800001440594FFF71EF8094820F04BF8284624
:105090001FF0F2F805480FB030BD00BF2C640020AF
:1050A000BCD20208ECD2020858D2020830640020B8
:1050B0003D5000087047000030B5164D2C68BFF316
:1050C0005B8F14F001048FB020D128461FF0C8F880
:1050D000E0B13F230993104B0893104B104911483E
:1050E0000A940122CDE906430423CDE903321423B7
:1050F0000093CDE90B44CDE901440594FEF7E2FFAE
:10510000094820F00FF828461FF0B6F805480FB000
:1051100030BD00BF5C640020C0D20208F0D202089B
:1051200068D2020860640020B55000087047000093
:1051300030B5164D2C68BFF35B8F14F001048FB0AF
:1051400020D128461FF08CF8E0B13F230993104B83
:105150000893104B104911480A940122CDE90643E7
:105160000423CDE9033228230093CDE90B44CDE994
:1051700001440594FEF7A6FF09481FF0D3FF284617
:105180001FF07AF805480FB030BD00BF8C640020D6
:10519000C4D20208F4D2020878D202089064002037
:1051A0002D5100087047704710B5FC2104461FF0D0
:1051B00055F8204610BD00004FF480718184FF2116
:1051C000002280F8261007498262C0E90122C0E966
:1051D0000322C0E90522C0E907220160C2620286FB
:1051E000704700BF908702082DE9F04F4FF480739D
:1051F000054600268384374B8662C0E90166C0E914
:105200000366C0E90566C0E9076645F82C3B04461D
:1052100085B004F1600B2846FFF7CEFF04F1940A35
:105220005846FFF7C9FF5046FFF7C6FF04F1C80311
:1052300018464FF00E09DFF8A480274F0393FFF7BD
:10524000BBFF4FF03813A3604A464B463146284611
:105250000226CDF80090FDF7F0FC29462046C4E96F
:105260001587A4F85C6006F0C3F84B464A464946E9
:105270005846CDF80090FDF7E0FC59462046C4E9B9
:105280002287A4F8906006F0B3F84B464A46504691
:10529000CDF800901C21FDF7D0FC51462046C4E912
:1052A0002F87A4F8C46006F0A3F80398CDF8009007
:1052B0004B464A462A21FDF7C0FC2046C4E93C87FC
:1052C0000399A4F8F86006F093F8204605B0BDE80D
:1052D000F08F00BF60760208E4D79FFFD8C853FF65
:1052E0007047704710B5FC2104461EF0B7FF2046FA
:1052F00010BD00002DE9F04F4FF4807306460025E5
:105300008384384B8562C0E90155C0E90355C0E983
:105310000555C0E9075546F82C3B044685B004F115
:10532000600B3046FFF748FF5846FFF745FF04F192
:10533000940318460293FFF73FFF04F1C803184691
:105340004FF00E0ADFF8A090DFF8A0800393FFF77C
:1053500033FF4FF038130227A360524653462946C5
:105360003046CDF800A0FDF768FC31462046C4E980
:105370001598A4F85C7006F03BF853461C222946A9
:105380005846CDF800A0FDF758FC59462046C4E920
:105390002298A4F8907006F02BF853460298CDF8A6
:1053A00000A01C225146FDF748FC0299A4F8C470E5
:1053B0002046C4E92F9806F01BF81C2211460398DA
:1053C000CDF800A05346FDF738FC2046C4E93C98D0
:1053D0000399A4F8F87006F00BF8204605B0BDE874
:1053E000F08F00BFF4760208A55520FFA75F2FFFBE
:1053F0007047704710B5FC2104461EF02FFF204671
:1054000010BD00002DE9F04F002305464FF48072D7
:10541000C0E90133C0E90333C0E90533C0E907330C
:105420008362334B828445F82C3B044685B004F1FB
:10543000600B2846FFF7C0FE04F1940A5846FFF7B8
:10544000BBFE5046FFF7B8FE04F1C80318464FF004
:105450000E09DFF8A480274F0393FFF7ADFE4FF04E
:1054600038130226A3601C224B4649462846CDF835
:105470000090FDF7E2FB29462046C4E91587A4F811
:105480005C6005F0B5FF1C224B4611465846CDF82E
:105490000090FDF7D2FB59462046C4E92287A4F8C4
:1054A000906005F0A5FF4B461C225046CDF80090B9
:1054B0002A21FDF7C2FB51462046C4E92F87A4F8F4
:1054C000C46005F095FF0398CDF800904B464A461E
:1054D0002A21FDF7B2FB2046C4E93C870399A4F8D2
:1054E000F86005F085FF204605B0BDE8F08F00BFED
:1054F000887702083095FCFF3374F4FF70477047DB
:1055000010B5FC2104461EF0A9FE204610BD000087
:105510002DE9F04F002305464FF48072C0E90133B6
:10552000C0E90333C0E90533C0E907338362334B75
:10553000828445F82C3B044685B004F1600B284674
:10554000FFF73AFE04F1940A5846FFF735FE50463D
:10555000FFF732FE04F1C80318464FF00E09DFF8DA
:10556000A480274F0393FFF727FE4FF0381302263E
:10557000A3604A464B4649462846CDF80090FDF7C1
:105580005CFB29462046C4E91587A4F85C6005F059
:105590002FFF4B461C2249465846CDF80090FDF798
:1055A0004CFB59462046C4E92287A4F8906005F0D8
:1055B0001FFF1C224B4611465046CDF80090FDF7C8
:1055C0003CFB51462046C4E92F87A4F8C46005F08F
:1055D0000FFF0398CDF800904B464A461C21FDF77B
:1055E0002CFB2046C4E93C870399A4F8F86005F039
:1055F000FFFE204605B0BDE8F08F00BF1C78020812
:1056000057D5DBFF21E9EFFF7047704710B5FC214C
:1056100004461EF023FE204610BD00002DE9F04F89
:10562000002305464FF48072C0E90133C0E903331B
:10563000C0E90533C0E907338362334B828445F800
:105640002C3B044685B004F1600B2846FFF7B4FDFF
:1056500004F1940A5846FFF7AFFD5046FFF7ACFD42
:1056600004F1C80318464FF00E09DFF8A480274F55
:105670000393FFF7A1FD4FF038130226A3601C220D
:105680004B4649462846CDF80090FDF7D6FA294604
:105690002046C4E91587A4F85C6005F0A9FE1C2229
:1056A0004B4611465846CDF80090FDF7C6FA5946CC
:1056B0002046C4E92287A4F8906005F099FE4B4685
:1056C0004A465046CDF800901C21FDF7B6FA5146E7
:1056D0002046C4E92F87A4F8C46005F089FE03982A
:1056E000CDF800904B464A462A21FDF7A6FA2046FF
:1056F000C4E93C870399A4F8F86005F079FE2046D8
:1057000005B0BDE8F08F00BFB07802081C17DCFFC1
:105710002E33EEFF7047704710B5FC2104461EF093
:105720009DFD204610BD00002DE9F04F4FF4807321
:10573000054600268384374B8662C0E90166C0E9CE
:105740000366C0E90566C0E9076645F82C3B0446D8
:1057500085B004F1600B2846FFF72EFD04F1940A92
:105760005846FFF729FD5046FFF726FD04F1C80310
:1057700018464FF00E09DFF8A480274F0393FFF778
:105780001BFD4FF03813A3604A464B46314628466E
:105790000226CDF80090FDF750FA29462046C4E9CC
:1057A0001587A4F85C6005F023FE4B464A4649463F
:1057B0005846CDF80090FDF740FA59462046C4E916
:1057C0002287A4F8906005F013FE4B464A465046E7
:1057D000CDF800901C21FDF730FA51462046C4E96F
:1057E0002F87A4F8C46005F003FE0398CDF800905D
:1057F0004B461C224946FDF720FA2046C4E93C8767
:105800000399A4F8F86005F0F3FD204605B0BDE863
:10581000F08F00BF44790208956BCCFF9438A7FF46
:105820007047704710B5FC2104461EF017FD204656
:1058300010BD00002DE9F04F4FF48073054600269F
:105840008384374B8662C0E90166C0E90366C0E91C
:105850000566C0E9076645F82C3B044685B004F1AF
:10586000600B2846FFF7A8FC04F1940A5846FFF79E
:10587000A3FC5046FFF7A0FC04F1C80318464FF004
:105880000E09DFF8A480274F0393FFF795FC4FF034
:105890003813A3604A464B46314628460226CDF8C7
:1058A0000090FDF7CAF929462046C4E91587A4F8F7
:1058B0005C6005F09DFD4B464A4649465846CDF88A
:1058C0000090FDF7BAF959462046C4E92287A4F8AA
:1058D000906005F08DFD4B461C2249465046CDF8A0
:1058E0000090FDF7AAF951462046C4E92F87A4F895
:1058F000C46005F07DFD1C2211460398CDF8009090
:105900004B46FDF79AF92046C4E93C870399A4F871
:10591000F86005F06DFD204605B0BDE8F08F00BFD2
:10592000D879020873C87DFF46BC63FF002070472A
:10593000002070470EB403B503AB002153F8042BCD
:1059400001930CF009FF02B05DF804EB03B070475F
:105950000CB407B504AB53F8042B01930CF0FCFE18
:1059600003B05DF804EB02B070470000436C10B563
:10597000044673B3038F2BB9184B194AC521194834
:105980001FF0B2FBC38E00EB43035B8C0BB30EF036
:1059900064FD238F012B03D8134B144ACB21EEE770
:1059A000E28E531C9BB2092B194688BFA3F10A0152
:1059B00004EB410140F63F10498C814209D10A2B8A
:1059C00004EB420228BF002304EB4303508C5884AD
:1059D00051842046BDE810400EF042BC647A0208B3
:1059E0006D7A0208187B0208627B0208707B02084D
:1059F0000EF0FDBB10B586B002AC84E806001A4676
:105A00000AAB05930193099B00932146089B0BF079
:105A1000B9F906B010BD000038B518BB124B1348D9
:105A20001C681349B4B122682244026062682244AF
:105A30000A60A26814440F4B00221A8000F038F864
:105A4000054600F033F80C4B1C600C4B1D600C4BF2
:105A5000188007E00B4B03600B4B0B600B4B1C6873
:105A6000002CE8D138BD00BFC8640020C06400200D
:105A7000BC640020C4640020C0720120C8720120F0
:105A8000C472012080D30208F8D2020890D602081E
:105A9000044B1B6853F82100034B1B6803EB4000C9
:105AA000704700BFBC640020C06400202220704703
:105AB00000487047CC64002010B5FFF7FDFA124C87
:105AC0002060FFF735FB6060FFF7BAFAA060FFF7D0
:105AD0000DF9E060FFF784F92061FFF78BF8606152
