:020000040800F2
:1000000000000320210600082D1900082F19000800
:1000100031190008331900083519000800000000E4
:10002000000000000000000000000000D197000860
:10003000371900080000000061980008D5900008FA
:1000400071060008710600087106000871060008B4
:1000500071060008710600087106000871060008A4
:100060007106000871060008710600087106000894
:100070007106000871060008710600087106000884
:100080007106000871060008710600087106000874
:100090007106000871060008710600087106000864
:1000A0007106000871060008710600087106000854
:1000B0007106000871060008710600087106000844
:1000C0007106000871060008710600087106000834
:1000D0007106000871060008710600087106000824
:1000E0007106000871060008710600087106000814
:1000F0007106000871060008710600087106000804
:1001000071060008710600087106000871060008F3
:100110007106000871060008391900087106000808
:1001200071060008710600087106000871060008D3
:1001300071060008710600087106000871060008C3
:1001400071060008710600087106000871060008B3
:1001500071060008710600087106000871060008A3
:100160007106000871060008710600087106000893
:100170007106000871060008710600080000000002
:100180007106000871060008710600087106000873
:100190007106000871060008710600087106000863
:0C01A000451900087106000851190008FC
:1001B00010B5054C237833B9044B13B10448AFF3A1
:1001C00000800123237010BD4005002000000000C6
:1001D0003860020808B5034B1BB103490348AFF36D
:1001E000008008BD000000004405002038600208BF
:1001F00001F0FF01102A2BDB10F0070F08D010F8D8
:10020000013B013A8B422DD010F0070F42B3F6D1DB
:10021000F0B441EA012141EA014122F007047FF0F4
:1002200000070023F0E80256083C85EA010586EA4B
:10023000010685FA47F5A3FA87F586FA47F6A5FA87
:1002400087F68EB9EED1F0BC01F0FF0102F0070293
:1002500032B110F8013B013A83EA010313B1F8D13E
:100260000020704701387047002D06BF354603381F
:10027000073815F0010F07D1013015F4807F02BF58
:10028000013015F4C03F0130F0BC0138704700BFA9
:100290007BB972B90029BEBF00204FF0004106E0D3
:1002A00008BF00281CBF6FF000414FF0FF3000F086
:1002B000B5B9ADF1080C6DE904CE002909DB002BBE
:1002C0001ADB00F04DF8DDF804E0DDE9022304B0AC
:1002D0007047404261EB4101002B1BDB00F040F80E
:1002E000DDF804E0DDE9022304B0404261EB4101A6
:1002F000524263EB43037047524263EB430300F007
:100300002FF8DDF804E0DDE9022304B0404261EBA0
:1003100041017047524263EB430300F021F8DDF8DE
:1003200004E0DDE9022304B0524263EB430370476B
:1003300053B94AB9002908BF00281CBF4FF0FF314C
:100340004FF0FF3000F06AB9ADF1080C6DE904CE52
:1003500000F006F8DDF804E0DDE9022304B07047A0
:100360002DE9F047089D0C46002B4ED194468C4554
:100370008646B2FA82F262D94AB1C2F120039140B4
:1003800020FA03F30CFA02FC194300FA02FE4FEACA
:100390001C471FFA8CF6B1FBF7F44FEA1E4307FB2C
:1003A000141143EA014304FB06F199420AD91CEBFC
:1003B000030304F1FF3080F01281994240F20F8173
:1003C000023C6344591A1FFA8EF3B1FBF7F007FBA6
:1003D000101143EA014300FB06F69E420AD91CEBCA
:1003E000030300F1FF3180F0FC809E4240F2F9806F
:1003F000634402389B1B40EA044000211DB1D340F6
:100400000022C5E90032BDE8F0878B4205D90DB165
:10041000C5E9000100210846F5E7B3FA83F1002998
:1004200046D1A34202D39042C0F0F080861A64EB1A
:1004300003030120002DE6D0C5E90063E3E7002AAD
:1004400040F09080A1EB0C044FEA1C481FFA8CF797
:100450000121B4FBF8F64FEA1E4308FB164443EAB9
:10046000044307FB06F0984208D91CEB030306F18E
:10047000FF3402D2984200F2CD8026461C1A1FFAA1
:100480008EF3B4FBF8F008FB104443EA044300FB8E
:1004900007F79F4208D91CEB030300F1FF3402D297
:1004A0009F4200F2B0802046DB1B40EA0640A5E7F1
:1004B000C1F120068B4022FA06F71F4320FA06FC02
:1004C00004FA01F343EA0C03F44000FA01F8380C93
:1004D0004FEA1349B4FBF0FE1FFA87FC00FB1E44F1
:1004E00049EA04440EFB0CF9A14502FA01F20AD9CB
:1004F0003C190EF1FF3A80F08480A14540F28180E2
:10050000AEF1020E3C44A4EB09041FFA83F9B4FBDC
:10051000F0F300FB134449EA044403FB0CFCA4453C
:1005200007D93C1903F1FF3067D2A44565D9023BD6
:100530003C4443EA0E40A0FB0293A4EB0C049C4213
:10054000CE469C4651D34ED055B1B8EB0E0364EB6A
:100550000C0404FA06F6CB401E43CC40C5E9006407
:10056000002150E7C2F1200320FA03F10CFA02FC4B
:1005700024FA03F394400C434FEA1C4800FA02FEAD
:100580001FFA8CF7B3FBF8F008FB1031230C43EA99
:10059000014300FB07F1994208D91CEB030300F16A
:1005A000FF362CD299422AD9023863445B1AA4B28E
:1005B000B3FBF8F108FB113344EA034401FB07F3F2
:1005C000A34208D91CEB040401F1FF3613D2A34265
:1005D00011D902396444E41A41EA004139E704467A
:1005E000F0E6084606E7C845AED2B9EB020E63EB6B
:1005F000070C0138A8E73146EDE7034699E7304696
:10060000D4E7D6467FE7634402384DE706462346E3
:1006100008460FE7023E634430E700BF704700BF63
:10062000DFF834D0002103E00C4B5B584350043119
:100630000B480C4B42189A42F6D30B4A02E00023B7
:1006400042F8043B094B9A42F9D306F0A1FA24F090
:1006500083FF00F0FFFB704700000320009B0408AD
:10066000000000204003002040050020647F01209E
:10067000FEE70000F8B51B4C1B4D01230022C4E926
:10068000002302210323C4E9021304200523C4E943
:1006900004030623A3612B6813B908F055FD2860F5
:1006A0002B681248072183EA433383EA534383EAE2
:1006B000431323F00042B2FBF1F601FB162201398D
:1006C00050F8046D54F822700760012944F8226044
:1006D000E9D12B60064B676044F8226000221A6063
:1006E000F8BD00BF8809002024060020A4090020CE
:1006F00084090020014B1868704700BFA80900203A
:10070000014B1878704700BFA5090020044B1878EA
:1007100018B1044B187880F0010000F00100704718
:10072000A4090020A5090020014B1868704700BFEC
:1007300070090020534203F0030302F0030258BF84
:100740005A42032A14D8DFE802F00205090E00EB32
:10075000810070470C31A1EB800070478900C1F126
:100760000F01081A7047C1F1030101EB80007047C7
:10077000002070472DE9F74F1B4E00911746984611
:1007800006EB820600244FEA00194FF0280B45467D
:10079000002104EB070A009A01912046FFF7CAFFE7
:1007A000124B0199484453F82020012A0BD1BAF189
:1007B000090F14D8132D12DC002D04DB0BFB05F2FE
:1007C000B258002A0BDC0131042905F10105E2D100
:1007D0000134042C06F10406D9D1012000E00020E8
:1007E00003B0BDE8F08F00BFAC0900200800002076
:1007F00070B5134E134D144C33682B602368062BD1
:1008000001DDFFF737FF2368104928685A1C226072
:100810000F4A52F823300F4A33600023136003223B
:100820000A600D490B601946FFF7A4FF0B4B80F0DF
:100830000100C0B2187010B9094B01221A7070BDC6
:100840007009002080090020840900207809002018
:10085000880900207C09002074090020A5090020D7
:10086000A409002008B54FF4487200210B4824F079
:10087000CAFD0B4A002313600A4A13700A4A137018
:10088000FFF7F8FE094B01221A60094B1A68094B61
:100890001A60BDE80840FFF7ABBF00BFAC090020FD
:1008A000A8090020A5090020A4090020840900202F
:1008B000880900207009002038B51C4B1B781BB13B
:1008C0001B4B00221A7038BD01380328FBD8DFE823
:1008D00000F00212161D174D2C68013C164B1B68C8
:1008E00022461649096816480068FFF743FF0028AA
:1008F000E9D02C60E7E70F4D2C680134EEE70E4D90
:100900000C4A2C68126801342346EAE70B4D094A69
:100910002C6812680134634203F0030304F00304FB
:1009200058BF5C42044B21461B68DCE7A509002048
:100930002C06002078090020740900207C09002082
:10094000800900203F4B1B782DE9F74F9BB93E4BA8
:100950003E4C1F683E4B2668D3F800A03D4BD3F8B1
:100960000080751C51462B4642463846FFF702FF71
:10097000014618B1256003B0BDE8F08FDFF8E090C4
:100980000A2404FB068409EB84043B01002501EBE7
:10099000060B5246284601930091FFF7CBFE019BC0
:1009A0002D4A0099184452F82020012A09D105EB5C
:1009B0000802092A05D8BBF1130F9CBF7A1C44F822
:1009C00025200135042DE4D10131042904F1280446
:1009D000DCD1DFF88CA0002713264FF0280808FB95
:1009E00006942246002352F8041BE1B101330A2B7E
:1009F000F9D10137B4460BE075460FCD0FC40FCDCA
:100A00000FC495E803000CF1FF3C84E80300744632
:100A1000A4F1280EBCF1000FEED128226146504609
:100A200024F0F1FC0136013ED9D22FB10B4A1368F4
:100A3000642101FB0733136003B0BDE8F04FFFF7FB
:100A4000D7BE00BFA509002080090020740900203E
:100A50007C0900207809002008000020A809002057
:100A6000AC0900202DE9F74FC8220021264824F0C8
:100A7000CAFC254A25490020154616460C46002387
:100A8000013354F8047B06F8017B0A2BF8D10130BE
:100A9000142801F1280102F10A02EED11C4A126861
:100AA00001921C4A16681C4A17681C4AD2F800803A
:100AB00003FB07834FEA061B1D444FF0000A013673
:100AC00000240AEB0709019A51462046FFF732FE3F
:100AD000134B584453F82020012A07D104EB080295
:100AE000092A03D8B9F1130F98BF2E550134042CED
:100AF000E9D10AF1010ABAF1040F05F10A05DFD1C3
:100B0000014803B0BDE8F08F5C050020AC0900206F
:100B10007C09002080090020740900207809002049
:100B200008000020054B18684FF44873B0FBF3F041
:100B30000130082828BF0820704700BFA8090020FE
:100B400008B5FFF7EFFF0238062896BF024B40F2C8
:100B5000B63033F8100008BD906002081B4B1C49EA
:100B60004FF44872184610B524F01DFD194A12685A
:100B7000C0F82023184A1268C0F82423174A1268C4
:100B8000C0F82823164A1268C0F82C23154A1268A8
:100B9000C0F83023144A1268C0F83423134A12787C
:100BA00080F83823124A127880F83923002203464D
:100BB000114653F8044B0132CF2A81EA0401F8D1DF
:100BC0000C4BC0F83C1301221A7010BD30060020F7
:100BD000AC090020800900207C0900207809002051
:100BE0007409002070090020A8090020A509002030
:100BF000A40900202C0600200A4B187810B578B103
:100C0000094900231A46084651F8044B0133CF2BFB
:100C100082EA0402F8D1D0F83C03831A58425841C2
:100C200010BD00BF2C0600203006002010B5FFF7D5
:100C3000E3FF30B3134C14484FF44872214624F0BC
:100C4000B2FC124BD4F820231A60114BD4F82423A1
:100C50001A60104BD4F828231A600F4BD4F82C23B9
:100C60001A600E4BD4F830231A600D4BD4F834239D
:100C70001A600C4B94F838231A700B4B94F83923F4
:100C80001A7010BD30060020AC0900208009002039
:100C90007C090020780900207409002070090020D8
:100CA000A8090020A5090020A4090020064B1A78F5
:100CB0005F2A07D05A785F2A04D098785F3818BF27
:100CC00001207047002070470400002001380328ED
:100CD00022D8DFE800F0020F1822154B15491A68D8
:100CE0008B5C5F2B01D0412B02D85A238B54704769
:100CF000013BFBE70E4B0F491A688B5C592B8CBFED
:100D000041230133F2E70A4A0A4913685F20002BA6
:100D1000C85401DD013B13607047054A054913685B
:100D2000C95C5F29F8D0012BF6DC0133F3E700BF83
:100D3000280600200400002007B5064BADF8060089
:100D40001B68054801220DF1060107F069FD03B09B
:100D50005DF804FBC8010020140D00202DE9F341CB
:100D6000114FDFF850800026104D8DF807600024E9
:100D700035F8021B384606F09BF901280FD118F808
:100D800004308DF807300A4800231A460DF1070198
:100D9000006808F00DFB1E2008F024FAE4E7013497
:100DA000042CE5D1EFE700BF00040240A260020876
:100DB000D00C00209E60020830B595B010220021B2
:100DC0000AA824F020FB1422002103A824F01BFB16
:100DD00000241E4B01941A6C42F080521A641B6C62
:100DE00003F080530193019B194B02941A6842F45B
:100DF00040421A601B6803F4404302930122029BA5
:100E00004FF48033CDE9082302254FF480030821F5
:100E1000CDE90E534FF4B473CDE9101308A80423A1
:100E20001393129506F0B4FF06F078FF0F23CDE977
:100E300003354FF4A0504FF48053CDE9060305214C
:100E400003A8059407F080F915B030BD00380240C2
:100E50000070004080B59CB0C64DDFF8548300247C
:100E600005F0A4FEFFF7A8FF1022002110A824F02F
:100E7000CAFA01942B6BC04843F002032B632B6B1F
:100E800003F0020301930227019B119740F60343ED
:100E90000FA90F9306F028F802942B6BB74843F084
:100EA00010032B632B6B03F010030293029B03943C
:100EB0002B6B43F020032B632B6B03F02003039376
:100EC000039B04942B6B43F080032B632B6B03F089
:100ED00080030493049B05942B6B43F004032B6362
:100EE0002B6B03F004030593059B06942B6B43F0D7
:100EF00001032B632B6B03F001030693069B0794FE
:100F00002B6B3B432B632B6B3B400793079B089456
:100F10002B6B43F040032B632B6B03F040030893D0
:100F2000089B09942B6B43F008032B632B6B944DA8
:100F300003F00803224609933C21099B06F0BEF802
:100F400039469048012206F0B9F822468D4804211E
:100F500006F0B4F822468C484FF4405106F0AEF843
:100F600001263C23CDE90F368448119403230FA9B1
:100F7000129305F0B9FF83480FA9CDE90F76CDE9AB
:100F8000114405F0B1FF04237E480FA9CDE90F36C7
:100F9000CDE9114705F0A8FF0FA94FF440537A4857
:100FA000CDE90F36CDE9114705F09EFF7748784B24
:100FB000036005F08DFEDFF8FCE1764B2C62C5E99D
:100FC00000E328464FF48043C5E90434C5E90244F0
:100FD000C5E9064406F080FA1021284606F0C4FC54
:100FE000214628466C4D06F0DEFC4FF48273C5E9BD
:100FF00000834FF400791823C5E9069328460A2395
:10100000C5E90244C5E90444C5E90844AC62EB62A1
:1010100007F0AAFB8F23224639465A488DF82C3018
:101020008DF83C4006F04AF832464FF47A730BA92B
:10103000284607F0F5FB4FF47A7332460FA928468D
:1010400007F09AFD324639464E48544D06F036F8C0
:101050009DF83C30D32B04BF514B1E70514B0126E1
:10106000C5E90036102240230024C5E904234FF4CB
:10107000C073C5E906344FF40063C5E908344FF482
:10108000005302274FF00409AB624FF0030A072315
:101090000FA92846CDE90F73CDE911934FF0080849
:1010A000C5E90249CDE913A7159707F041FA4FF6B4
:1010B000FF720BA92846CDE90C860A940B960E9474
:1010C00007F056FA304605F09DFD4FF6FF720BA96A
:1010D0002846CDE90B78CDE90D6407F049FA4FF6C3
:1010E000FF720BA92846CDE90BA8CDE90D9407F0B6
:1010F0003FFA4FF40C730A930A9B0E934FF6FF725C
:101100000BA92846CDE90B980D9607F031FA40F26D
:101110006A51284607F04AFA342221460FA824F0E3
:1011200072F9214D214B2C61C5E900340923C5E931
:1011300005361D23C5E9073A40F20D1140F243136D
:10114000C5E9091340F2171040F24713C5E90B0334
:101150002846C5E90244AC8685F8364006F0C8FC4E
:10116000FF214FF4806CF022CDE914140521CDE964
:1011700016C121E000380240000402400010024085
:10118000140E002000080240000C0240A80E0020AF
:1011900000300240A0860100140D0020E00C002069
:1011A000D40C0020400100A06C0D0020006801401C
:1011B00000500140005C00404FF4A0730FA9CDE93E
:1011C0001024CDE9184228462246204D1A93CDE935
:1011D00012370F94ADF86C408DF86E4006F053FD59
:1011E0001B4B2B601B6898472B681A4DDB68984790
:1011F000194B2846C5E90034C5E90274C5E90A4718
:10120000C5E90C4405F074FD3146284605F028FE7A
:1012100000F0F7FB00F0F4FB07F06AFF0F4A3146DD
:10122000404608F08AF80E4B0E4A186021460E48D8
:1012300007F091FF0D4B0E4A186021460D4807F04C
:101240008AFF0D4B186007F065FFFEE7CC0C00200D
:10125000F0010020680E002000B00240D001002004
:10126000D00C0020F06002085D0D0008DC0C0020AE
:10127000CC600208111A0008D80C00207047704793
:101280007FB5094B8DF817201B6802930DF11702EB
:101290000123009201930A460146044806F0C4F96E
:1012A00007B05DF804FB00BFCC010020140E002045
:1012B0007FB500238DF81730084B1B6802930A4650
:1012C00001230DF11701009101930146044806F036
:1012D0003BFA9DF8170007B05DF804FBCC01002035
:1012E000140E00201FB5084C24680092CDE901348B
:1012F0000A4601230146054806F026FA003818BFC1
:10130000012004B010BD00BFCC010020140E00204D
:1013100005F078BC10B5064C00222046042105F0EB
:10132000CDFE20460122BDE81040042105F0C6BED6
:101330000008024038B50B4D044601220A484FF41C
:10134000005105F0BBFE00220421284605F0B6FE40
:101350002046FFF7F1FC28460122BDE83840042171
:1013600005F0ACBE00080240000C024038B50B4D41
:10137000044600220A484FF4005105F09FFE002267
:101380000421284605F09AFE2046FFF7D5FC2846A2
:101390000122BDE83840042105F090BE000802405B
:1013A000000C0240F7B5144E144F05460C4630466B
:1013B0000022042105F082FE00224FF4005138463D
:1013C00005F07CFE2846FFF7B7FC0D4B0D481B6867
:1013D000224601A907F0D0FB384601224FF4005104
:1013E000019C05F06BFE30460122042105F066FEEB
:1013F000204603B0F0BD00BF00080240000C0240D0
:10140000C8010020140D002005F0FCBB0268034B4E
:101410009A4201D105F0E4BB704700BF00100040C4
:101420007047000082B00E4B00220092596C41F4CC
:1014300080415964596C01F48041009100990192F6
:10144000196C41F0805119641B6C03F080530193B7
:10145000019B0F216FF0010002B005F0F9BB00BF46
:10146000003802400268094B9A4282B00BD1002337
:101470000193074B1A6B42F480521A631B6B03F4FF
:1014800080530193019B02B0704700BF00300240BF
:101490000038024007B50F4B02689A4216D100226D
:1014A000A3F5F0430192196B41F4000119631B6B22
:1014B00003F40003019305215A20019B05F0C8FBAA
:1014C0005A2003B05DF804EB05F0F4BB03B05DF8FF
:1014D00004FB00BF00B002402DE9F043044689B090
:1014E0001422002103A823F08EFF2268244B9A4285
:1014F00043D1244C244800250095236B43F004037A
:101500002363236B03F004030093009B0195236B7B
:1015100043F001032363236B03F001030193019B59
:101520004FF012094FF400734FF00108032704260F
:1015300003A9CDE90339CDE90587079605F0D4FC69
:101540004FF480731148079603A9CDE90339CDE91B
:10155000058705F0C9FC0295236C43F4000323645E
:10156000236C03F400030293029B236A43F40003F9
:101570002362236A23F40003236209B0BDE8F083E9
:10158000005C0040003802400008024000000240B9
:10159000F0B599B004461422002107A823F033FFC8
:1015A00030220DEB0200002123F02DFF22685E4B5C
:1015B0009A4240F0B78008230C93C0231093042371
:1015C00012930CA84FF40033159306F085FE08B172
:1015D000FFF726FF554B5648002400945A6C42F002
:1015E00080625A645A6C02F080620092009A019400
:1015F0001A6B42F020021A631A6B02F02002019269
:10160000019A02941A6B42F001021A631A6B02F0FB
:1016100001020292029A03941A6B42F002021A63C8
:101620001A6B02F002020392039A04941A6B42F0BE
:1016300040021A631A6B02F040020492049A059465
:101640001A6B42F004021A631A6B02F0040205924C
:10165000059A06941A6B42F008021A631B6B03F09A
:101660000803069302250E26069B0B964FF4806313
:1016700007A9CDE90735CDE9094505F035FC41F667
:1016800058032C480B9607A9CDE907350927CDE962
:10169000094505F029FC032327480B9707A9CDE945
:1016A0000735CDE9094505F01FFC4FF4706322486A
:1016B0000B9607A9CDE90735CDE9094505F014FCDE
:1016C0004FF40C631D480B9607A9CDE90735CDE90A
:1016D000094505F009FCC02319480B9607A9CDE977
:1016E0000735CDE9094505F0FFFB082315480B96A2
:1016F00007A9CDE90735CDE9094505F0F5FB4FF41C
:10170000A0530E480B9707A9CDE90735CDE9094548
:1017100005F0EAFB58202246052105F099FA5820E9
:1017200005F0C8FA19B0F0BD006801400038024069
:101730000014024000000240000402400018024071
:1017400000080240000C024010B5044688B0142284
:10175000002103A823F057FE2268144B9A4223D19C
:1017600003F56843002101915A6C114842F480123C
:101770005A645A6C02F480120192019A02911A6B17
:1017800042F020021A631B6B03F020030293029BBA
:101790004FF4607202230321CDE903230523CDE931
:1017A000061303A905F0A0FB08B010BD00500140CE
:1017B000001402402DE9F04186B0002303932B4B27
:1017C0001C68002C4FD14FF00108C3F80080284B53
:1017D00000949A6B274842EA08029A639B6B03EADB
:1017E00008030093022703260C25009B01A94FF64E
:1017F0003F03CDE90137CDE9046505F075FB1E48CF
:10180000059501A9CDE90187CDE9034605F06CFBFB
:1018100048F233131948059501A9CDE90137CDE9FF
:10182000034605F061FB4FF683731548059501A942
:10183000CDE90137CDE9034605F056FB4CF20373C1
:101840001048059501A9CDE90137CDE9034605F01A
:101850004BFB60230C48059501A9CDE90137CDE983
:10186000034605F041FB06B0BDE8F081B00E002054
:1018700000380240001402400008024000180240F4
:1018800000100240000C02400004024070B588B015
:1018900000230293204B1A6C42F010021A641B6C56
:1018A00003F010030293054601A903A8029B06F06A
:1018B000F5FC069B4BBB06F0E1FC184E184B336061
:1018C00040F2E733F360174BB0FBF3F3013B736077
:1018D000304600233361B360B36107F031FB044647
:1018E00080B9304607F0EEF9044658B9362005F0C5
:1018F000E1F90F2D0DD822462946362005F0A8F92A
:10190000094B1D60204608B070BD06F0B7FC4000D2
:10191000D3E70124F6E700BF00380240B40E0020F0
:101920000010004040420F00580200207047FEE7C0
:10193000FEE7FEE7FEE77047014807F001BA00BF87
:10194000B40E0020014806F041B900BF6C0D002024
:10195000014805F0FBB900BF680E00200120704768
:1019600008B523F0F3FD162303604FF0FF3008BDE8
:1019700008B523F0EBFD16230360FEE770B50D46B6
:1019800014460E46731B9C4201DC204670BDAFF32B
:10199000008006F8010BF5E770B50D4614460E46BB
:1019A000731B9C4201DC204670BD16F8010BAFF39F
:1019B0000080F5E74FF0FF3070474FF400534B6065
:1019C0000020704701207047002070470A4A1168C4
:1019D00008B5034609B9094911601068694603440E
:1019E0008B4206D923F0B2FD0C2303604FF0FF3089
:1019F00008BD1360FCE700BFFC0E0020687F0120DB
:101A0000704708B500F0B8FDBDE8084000F03ABDE9
:101A100000F0B4BD704710B50421044622F0A6FBC7
:101A2000204610BD38B50C4B0C4C18800C4B822056
:101A300019806368984740F6110398420AD1094D0E
:101A400023682C60822098472B688220DB689847A7
:101A5000002038BD0120FCE70A0F002028020020EA
:101A6000080F00200C0F00204FF4A071F020FFF7AA
:101A7000D9BF0000F7B5374D2B6804461B6982209B
:101A80009847208000284ED02B680DF106025B6934
:101A900001A982209847304B1B78002B4BD0BDF812
:101AA000063040F6746293423FD9ADF80620BDF887
:101AB0000630D21A92B20A2A42D90B23B2FBF3F2B1
:101AC000264B1B889A4201D9013B9AB2BDF80430DB
:101AD00040F6B8318B4235D8C3F571630E339BB2F3
:101AE0000F21B3FBF1F31E4909888B4201D901395B
:101AF0008BB21C4E1C4D30682F68834281B28CBF64
:101B0000591AC91AB8B2BA428CBF101A801A89B2CF
:101B100080B201440529C8BF33603368C8BF2A605A
:101B200063802B68A38003B0F0BDB32B9CBFB423AC
:101B3000ADF80630BBE7BDF80620A2F5B472B9E7F0
:101B40000022C3E7C3F56D6308339BB20E2BC7D8E1
:101B50000023CEE70C0F0020D40C0020080F00203B
:101B60000A0F0020040F0020000F002037B5684640
:101B70000D461446FFF77EFFBDF8000030B1BDF8FA
:101B800002302B60BDF804302360012003B030BD6B
:101B9000032821D8DFE800F0020B12190F4B1A6856
:101BA000B2FA82F2520904210D4805F087BA0B4BB4
:101BB0005A68B2FA82F252090821F5E7074B9A688F
:101BC000B2FA82F252091021EEE7044BDA68B2FA57
:101BD00082F252092021E7E7704700BF100F002072
:101BE00000100240032821D8DFE800F0020B121990
:101BF0000F4B1A68003A18BF012204210D4805F066
:101C00005DBA0B4B5A68003A18BF01220821F5E76C
:101C1000074B9A68003A18BF01221021EEE7044BE7
:101C2000DA68003A18BF01222021E7E7704700BFB9
:101C3000100F00200010024003280DD8DFE800F04C
:101C40000206080A0421054805F03DBA0821FAE712
:101C50001021F8E72021F6E7704700BF001002408E
:101C600008B5032811D8DFE800F0020A0C0E0421A1
:101C7000074805F01DFA431E5842584108BD082187
:101C8000F6E71021F4E72021F2E70020F3E700BF98
:101C90000010024070B5084D00240126E0B2FFF7A5
:101CA000DFFF18B12B68012B18BF2E600134052C03
:101CB00005F10405F2D170BD100F0020012380F85A
:101CC000781080F879307047704700207047000026
:101CD000034B4164003918BF01211970704700BFE0
:101CE00023720120704700207047836B0BB10846B8
:101CF000184770474FF6FF707047406803689B694C
:101D000018477047704770477047704710B50446D2
:101D100000F04AFD23680349D3F890302046BDE81F
:101D200010401847000000D008B503680446D3F8F7
:101D30008430984723682046DB6F984700F0ECF822
:101D4000236820465B6F98472920FFF70FFB00F0C0
:101D5000E3F8236820465B6F9847F8E710B5044620
:101D60000AF036FB23682046D3F8BC30BDE81040AB
:101D7000184700F0FBBC00F0FFBC00F033BD00F0E2
:101D8000D1BC00F043BD00F04BBD00F0D5BC09F064
:101D90004DBD10B58421044622F0E8F9204610BD5F
:101DA00010B590F8341090F878400C4B8C421A78AB
:101DB00009D03AB90A4A0B491488088810800C8067
:101DC00001221A7010BD002AFCD0054A054914886A
:101DD000088810800C800022F3E700BF1C720120ED
:101DE000187201201A72012070B50D46194635B9D6
:101DF000094B0A4A0A4840F2FF2123F0FDF8C0E9E6
:101E00000F52084B003A18BF01221A700368BDE850
:101E10007040D3F8903018472C61020864610208C2
:101E2000B26102082272012008B5094B1B888B425F
:101E300003D8084B1B88934205D9074B074A08482B
:101E4000A32123F0D9F8074B1980074B1A8008BD4E
:101E5000187201201A720120F76102085A62020802
:101E6000B26102081E72012020720120034690F820
:101E70007A0018B1586803681B681847704700005B
:101E8000012108B50022084607F0B8F90A4B18608E
:101E900028B90A4B0A4A28210A4823F0ADF8002243
:101EA0000421012007F049FA074B186018B9074BC5
:101EB000034A2C21F0E708BD240F00208C630208A0
:101EC000D563020804640208200F00205164020850
:101ED000024B4FF0FF31186807F0DAB9240F0020E9
:101EE000014B186807F000BA240F0020024B0021B4
:101EF000186807F0CDB900BF240F0020FFF7F0BF2E
:101F000003480449006800231A4607F051BA00BF8D
:101F1000200F0020E801002013B5084C00231A46CA
:101F200001A9206807F075FA20684FF0FF330022FE
:101F300001A907F06EFA02B010BD00BF200F00200B
:101F400003685B6C18470120704703689B6A184759
:101F5000FEE740F2EF307047054B0360054B4FF052
:101F60008062C3F88820BFF34F8FBFF36F8F704735
:101F7000F065020800E100E010B504464FF45A6134
:101F8000FFF7EAFF204622F0F1F8204610BD0000DE
:101F900082B0002301930E4B1A6B42F400021A63C5
:101FA0001A6B02F400020192019A1A6942F40002CB
:101FB0001A611A6922F400021A61064B064A1A6174
:101FC000064A5A61064B4FF080629A6002B0704731
:101FD00000380240680E002031220008511F00081E
:101FE00000E100E008B50A2809D8DFE800F0061093
:101FF0000E080808081010101000022008BD054B3C
:10200000054A0648902122F0F7FF0020F6E701205C
:10201000F4E700BF93640208AE640208F9640208A2
:1020200038B50C46887FFFF7DDFFA58AE28A164B9C
:102030002169586342EA05425A64628BD963521B94
:102040001A642568082D0ED19A611A615862207FA2
:102050000E4A42EA0062DA61E2681A620C4A596189
:10206000D9601A6038BD0022D8611A61E1680A0A95
:10207000480902F4784200F4FC600243C1F3C40151
:102080000A439A63034AECE700B0024009000100EA
:10209000012302000123030008B50B280BD8DFE859
:1020A00000F00612100A0A0A0A08080808080220A6
:1020B00008BD0520FCE7054B054A06486F2122F0C4
:1020C0009BFF0020F4E70120F2E700BF93640208C1
:1020D00044650208F96402082DE9F04191F81D8079
:1020E0000C464046FFF7D8FFA77F05463846FFF766
:1020F000D3FF06463846FFF775FFA18A628B444B33
:10210000521A1A649A61228B521A1A61E28A58632F
:1021100042EA01425A6421696268D963DA60206840
:10212000802828D0227F0FD8202867D0402865D06B
:1021300004281AD0364B45EA026545F40035B84507
:10214000DD6161D0334A44E0B0F5807F04D0B0F562
:10215000007FEFD1304800E0304840EA0262DA61A7
:10216000E2681A625E62596132E045EA026242F454
:102170000032DA61F6E7A068021DDA62227F45EAE2
:10218000026545F40035DD615E625961017841B157
:10219000012921D0224B234A23484FF48D7122F08C
:1021A0002BFFDA69418822F47F42013922F01002C4
:1021B00042EA0122DA610121154BDA6942F020027C
:1021C000DA61DA699206FCD410229A600029B9D04B
:1021D000164A1A60BDE8F081B2F1FF01DA69408861
:1021E00022F47F4200F1FF3022F0100242EA002286
:1021F00042F0100218BF0121DA61DDE745EA026210
:10220000034B42F40032B4E742F20132E1E700BF8F
:1022100000B0024001230100090002000A00020090
:102220008E650208A8650208F9640208012302000D
:10223000024B1B68586803685B69184724720120C9
:1022400070B5044625460A4B0C30002660602672A5
:10225000667245F8203B602229460AF00FFA04F521
:102260005A63EE6024359D42FBD1204670BD00BF0D
:10227000F0650208034B1A68D207FCD423229A6047
:10228000704700BF00B002407047000030B50F4CEF
:102290002568ED07FCD423250904A56041F0010160
:1022A0000225FF2B65636164E0630AD0084965621B
:1022B00041EA0363E361074B22626061E0602360EF
:1022C00030BDE561039BA363034BF8E700B0024018
:1022D00009000100010002000100030030B50E4CAE
:1022E0002568ED07FCD423251204A56042F0010205
:1022F0000225FF2B65636264E063E16008D01B0682
:1023000043F00213E361054B65626061236030BDF9
:10231000034BE3610123F9E700B002400100020032
:10232000020002FF30B50B4C2568ED07FCD42325D5
:1023300012041B06A56043F40033022542F001029B
:1023400065636264E063E160E361034B6562606161
:10235000236030BD00B00240010002000120704740
:102360000C2070470C2303FB0100083070470C233E
:1023700003FB0100083070470120704744F2CC1085
:10238000704744F2CC1303FB01000830704744F25D
:10239000CC1303FB01000830704701207047102068
:1023A000704700EB01100830704700EB0110083057
:1023B0007047084600F042BE10B5034B0360044668
:1023C00008F08BFF204610BDA866020810B5044631
:1023D000FFF7F2FF2046142121F0C8FE204610BD71
:1023E00010B5034B0360044608F077FF204610BD8C
:1023F0007466020810B50446FFF7F2FF204644F267
:10240000D41121F0B3FE204610BD000010B5034BDF
:102410000360044608F061FF204610BD40660208D4
:1024200010B50446FFF7F2FF2046182121F09EFE6A
:10243000204610BD10B5084B0360044600F58440EB
:10244000FFF7BAFF04F12C00FFF7CAFF04F11400F4
:10245000FFF7DCFF204610BDDC66020808B5024825
:10246000FFF7E8FF08BD00BF001E002010B50446BE
:10247000FFF7E0FF204644F2743121F077FE20465A
:1024800010BD00002DE9F34100F0ECFA054600F024
:10249000EDFA00240146234628462246009412F015
:1024A000B3FD284B284A1A60204603F0B7FA274D9F
:1024B000274B284A28489A6012F00EFD2B68BFF37C
:1024C0005B8FDB0737D4284621F052FE98B3234CAC
:1024D000234B236004F5844707F1180604F1140028
:1024E00004F12C086060C4F80880E760266108F0F9
:1024F000F5FE1C4B6361404608F0F0FE1A4BE362A8
:10250000384608F0EBFE04F5804303F50570174AE2
:10251000C3F8002203F058FF224607F114013046A9
:1025200003F034FB304600F089FD114822F082FDB3
:10253000284621F029FE0F4802B0BDE8F041FFF720
:10254000E5BB00BF88720120AC0F0020FC1D0020FD
:10255000CC0F0020B00F0020EC010020001E002056
:10256000DC6602084066020874660208A866020873
:102570005D240008280F0020704700000148FFF785
:10258000D3BB00BF280F002070B5264E264C274D28
:10259000274B23603046FFF753FE284617F03AFEDC
:1025A000244810F041FA244B2448DC6000224FF408
:1025B0008071C3E9121222491A86C3E91A1221490D
:1025C00083F85820C3E91E011F49C3F880101F4932
:1025D0001F480B60F021C3E90422C3E90622C3E9C6
:1025E0000822C3E90A22C3E90E22C3E91022C3E983
:1025F0001422C3E917225A6683F870205A67C3E988
:10260000016501801348018013484FF4A0710180D7
:102610001248018012490A70012283F83420114ABD
:102620001A6070BD58100020F81D0020CC0F00204B
:102630001C610208B00F0020280F002000000101DB
:1026400001000001000450001A001400247201204F
:10265000187201201E7201201A72012020720120BE
:102660001C720120A86202080148FFF775BC00BF78
:10267000581000200020704781807047C18070474B
:1026800001817047418170477047704770477047BC
:10269000704710B4C4880368121B84885B6D091BE3
:1026A00012B25DF8044B09B218474FF6FF738381ED
:1026B0004FF0FF3303621368C3611060704700205E
:1026C00070478B88838001207047704780F8261000
:1026D000704790F82600704710B50022B1F9084005
:1026E000B1F90A10028042808480C18010BD0022AE
:1026F000028042808280C28070470177704780EDFF
:10270000080A704780F82410704780F82510704739
:1027100001207047983070478C3070478430704784
:1027200070470000034B902283F85A2383F8582304
:10273000704700BF00E100E0094A0A49D3680A482F
:10274000C3F30A03013B9BB20B801169C1F30A0179
:10275000013901801364536B43F0010353637047E5
:10276000006801407661002074610020014BD3F8BD
:10277000AC00704700680140024B0122C3F8AC1066
:102780005A627047006801407047704710B52C21AD
:10279000044621F0EBFC204610BD10B5BC210446D8
:1027A00021F0E4FC204610BD70B5044609F093F812
:1027B00023689D6E0EF0D0FE01462046A847236890
:1027C000054AD3F88C502046AC460023BDE8704043
:1027D000A2F51631604700BF00B004D009F062B81E
:1027E00009F06CB809F028B809F097B990F82520DD
:1027F00012B103685B691847704790F825201AB139
:1028000090F8242002B1186070470000034B4FF08D
:1028100080629A604FF080729A60704700E100E039
:10282000084B4FF08062C3F88820BFF34F8FBFF38F
:102830006F8F4FF08072C3F88820BFF34F8FBFF3C4
:102840006F8F704700E100E070B50023124E838067
:10285000124B0360336893F8582005460AB1D86CD0
:1028600000B998680368DB6A98473368B0FA80F467
:10287000D86C640930B10368DB6A9847002808BF48
:1028800044F001042CB9064B064A07482C2122F0DB
:10289000B3FB284670BD00BF24720120EC6702081C
:1028A000E8660208466702087F67020870B5254E91
:1028B0003568BFF35B8F15F0010540D1304621F03C
:1028C00057FC00283BD0204C204B256104F13400FC
:1028D000C4E90035C4E90255E584A562A58510F078
:1028E00088FB04F158000BF07FFB194BA3652046D1
:1028F000184B40F8843BFFF7A7FF174BC4F8843010
:102900002433C4F88C304FF4C803C4E928350023BD
:10291000C4F8AC30C4F8B030C4F8B430C4F8B8303F
:102920000E480F4BC4F89050C4F89C50C4F8A850FF
:10293000C4F8983022F07EFB304621F025FC024896
:1029400070BD00BF786100207C610020E484020833
:102950000C6802088468020898840208212700088D
:102960007884020838B5184C23685BB3174B184AB3
:102970001B6C11888B4216D1164B198805F0B0F9E3
:10298000236893F86A200025013283F86A2083F8CF
:102990007C50FFF7B5FA206809F01AFD2846BDE81B
:1029A0003840FFF7F5B805F09BF924682368204606
:1029B0001B6A9847012384F87C300020BDE838402A
:1029C000FFF710B938BD00BF247201200068014034
:1029D0007661002074610020704708B50C2938D852
:1029E000DFE801F0070B0F13172F1B1F23272B2FD7
:1029F000330003F05FF8006808BD03F05BF840683F
:102A0000FAE703F057F88068F6E703F053F8C06878
:102A1000F2E703F04FF80069EEE703F04BF8806946
:102A2000EAE703F047F8C069E6E703F043F8006A15
:102A3000E2E703F03FF8406ADEE703F03BF8806A24
:102A4000DAE703F037F84069D6E703F033F8C06AF5
:102A5000D2E70020D0E710B50421044621F086FB20
:102A6000204610BD00487047DC6802080620704709
:102A700013B5002451B1036801948DF8034001AAF5
:102A80009C680DF10303A04702B010BD0846FBE7A8
:102A9000C0897047008A7047C08870478088704737
:102AA000807A00F07F007047807AC009704700206C
:102AB000704700009FED010A704700BF0000000052
:102AC000806A7047704730B50368018185B06D46F4
:102AD0000146D3F8843004462846984795E8070015
:102AE0003C3484E8070005B030BD30B5036841814F
:102AF00085B06D460146D3F8843004462846984791
:102B000095E807003C3484E8070005B030BD00229A
:102B1000028042808280C280704780F83610704701
:102B200070B5036804461B6B154698472368294611
:102B300020465B6EBDE87040184700207047806CEF
:102B4000704770477047704710B50821044621F060
:102B50000DFB204610BD10B54C21044621F006FBAC
:102B6000204610BD10B54FF4EE71044621F0FEFA78
:102B7000204610BD08B5FFF739FE08BD036870B5E3
:102B80005E6B124B1B6804468DB22BB9104B114A79
:102B90006C21114822F030FA1049828D0988914247
:102BA00003D80F4B0B4A6D21F3E713F812200D4B9E
:102BB0001B6853F8220003681B6B9847291A334699
:102BC000204609B2BDE87040184700BF7C72012062
:102BD0005469020896690208D169020880720120CE
:102BE000186A02088472012000224FF0FF31C0E908
:102BF0000021826070470000074A02600022C0E99D
:102C00000122C0E90322C0E90522C0E907224FF4EE
:102C100080728284704700BF4C88020870B50368D8
:102C200004461B6B154698472368294620465B6B74
:102C3000BDE87040184770B504461D46BDF91060E8
:102C4000FFF7ECFF2368294620469B6B98472368D3
:102C500031462046DB6BBDE87040184710B5262290
:102C60000446002122F0CFFB2046FFF7C5FF044BAE
:102C70002360FF2384F826300023A362204610BD82
:102C80003886020810B526220446002122F0BBFB3C
:102C90002046FFF7B1FF0A4B23600A4BA3624FF6B1
:102CA000FF73A3854FF47F020023C4E90C3223870E
:102CB0004FF0FF32C4E91023E363204610BD00BF8C
:102CC000A8850208606A02082DE9F04F04468BB01F
:102CD00025460026FFF790FF7C4BA66245F82C3B6B
:102CE00004F1580B2846FFF7B9FF04F1840A58464F
:102CF000FFF7B4FF5046FFF7C5FF04F1CC0304F122
:102D0000F809184604F5A2780393714FFFF7A6FF60
:102D10004846FFF7B7FFC4F8F870C4F84061404672
:102D2000FFF7B0FF04F5C873C4F84471C4F88C61B0
:102D300018460293FFF7A6FF664BA3606423C4F80E
:102D40009071C4F8D8615022009331462846F02390
:102D5000FFF771FF4FF07F47322384F85230294646
:102D60002046676508F0CCFA50233246009331467E
:102D70005846F023FFF75FFF574BC4F880305946A1
:102D8000204604AD08F0BCFA062250463C21FFF76D
:102D900045FF51462846C4F8B470A4F8B8600BF05B
:102DA00021FA95E8070004F1C00383E80700DFF883
:102DB0002CB1CDF820B0102308A95046ADF824302E
:102DC0000BF0B8FC5146204608F09AFA1C230398F1
:102DD0000093222215234021FFF72DFF4FF0FF33F0
:102DE000C4F8F430C72384F8F2300399204608F081
:102DF00087FA282248464421FFF710FFD4F8F8301C
:102E0000C4F8287149462846D3F88430A4F82C61C8
:102E1000984795E8070004F59A7383E807000F23A5
:102E200008A94846ADF82430CDF820B00BF082FC5C
:102E30004946204608F064FA282240466E21FFF7F2
:102E4000EDFED4F84431C4F8747141462846D3F8F5
:102E50008430A4F87861984795E8070004F5C073BA
:102E600083E807000E2308A94046ADF82430CDF8CA
:102E700020B00BF05FFC4146204608F041FA029872
:102E800028229821FFF7CAFED4F890310299D3F88E
:102E90008430C4F8C0712846A4F8C461984795E806
:102EA000070004F5E67383E807000D230298ADF8E8
:102EB000243008A9CDF820B00BF03CFC2046029944
:102EC00008F01EFA20460BB0BDE8F08F006B020838
:102ED000706A0208F000B40017BDFEFF606A0208C5
:102EE0007047704700F598730868496803C37047D6
:102EF000704770474160704770470000064BC0F84C
:102F00004C310023C0F8503100F5A273C0F84801DD
:102F1000C0F84031704700BF393300080123037205
:102F200070477047704710B4C26841685410034638
:102F300001EB6200D20748BF0A599B685DF8044B59
:102F400048BFD35818470346406830B19A681AB949
:102F5000D86800F0010070470120704710B50C21BF
:102F6000044621F003F9204610BD10B51021044697
:102F700021F0FCF8204610BD10B54FF4AE710446A8
:102F800021F0F4F8204610BD10B50EF0E5FA036804
:102F9000BDE81040DB6B184710B50446D0F840017F
:102FA00058B10368DB68984738B1D4F8400103682A
:102FB0009B6898470023C4F8403110BD044B1B6840
:102FC00093F858200AB1D86C00B99868704700BFD0
:102FD00024720120F8B5174604460E460EF07EFB1B
:102FE000124B1C60124B2360124B0025C4E9513573
:102FF000114BC4E953551868036801219B68C4E963
:103000004F55C4E955769847284602F007FDFFF76B
:10301000D5FF18F0A8FFFFF7D1FF19F01FF8FFF751
:10302000CDFF19F027F82046F8BD00BF78720120C7
:103030005C7002084470020824720120064BC0F83C
:103040004C310023C0F8503100F5A273C0F848019C
:10305000C0F84031704700BF39330008064BC0F854
:103060004C310023C0F8503100F5A273C0F848017C
:10307000C0F84031704700BFED310008064BC0F882
:103080004C310023C0F8503100F5A273C0F848015C
:10309000C0F84031704700BFA530000803685B6A84
:1030A000184700002DE9F14FD0E9556A0746B0688E
:1030B00003681B6A9847B0F5277F05D2434B444A03
:1030C000A321444821F098FF706803681B6A984761
:1030D0000F2803D8404B3E4AA421F2E7F06803686A
:1030E0001B6A98470B2803D83C4B394AA521E8E7CF
:1030F0000EF032FADFF8EC9004300EF052FAD9F804
:10310000000010B10368DB689847D9F8000010B1DF
:1031100003681B689847DFF8D080D8F8000010B12A
:1031200003685B699847D7F83C0110B103685B6896
:103130009847D8F8000010B103681B689847D7F883
:103140003C0110B103689B689847F0680021FFF7C5
:10315000A5FF4FF0000B224BC0F804B0044680F8E6
:1031600008B00360B068036859465B6A9847054633
:1031700003F066F87068036859465B6A9847294609
:10318000064603F03BF8331DC7F83C61C9F8004020
:10319000C8F80050CAF800302B68C6F808A02846C6
:1031A000DB68EE639847336830461B6898472146D2
:1031B000284610F081FB236820461B699847236846
:1031C0005B69204601B0BDE8F04F18478C6B0208E0
:1031D0001A6C0208006D0208476D0208EA6D0208C9
:1031E000B07002086C720120687201202DE9F14F65
:1031F000D0E9556A0746B06803681B6A984744F2ED
:10320000CB13984205D8444B444AA321444821F0AB
:10321000F3FE706803681B6A98470F2803D8414B78
:103220003E4AA421F2E7F06803681B6A98470B281E
:1032300003D83D4B394AA521E8E70EF08DF9DFF8B8
:10324000F09004300EF0ADF9D9F8000010B1036829
:10325000DB689847D9F8000010B103681B689847ED
:10326000DFF8D080D8F8000010B103685B69984798
:10327000D7F83C0110B103685B689847D8F80000A4
:1032800010B103681B689847D7F83C0110B1036878
:103290009B689847F0680021FFF700FF4FF0000B94
:1032A000224BC0F804B0044680F808B00360B06850
:1032B000036859465B6A9847054602F033FD70681B
:1032C000036859465B6A98472946064602F098FC0F
:1032D000331DC7F83C61C9F80040C8F80050CAF86F
:1032E00000302B68C6F808A02846DB68EE639847D4
:1032F000336830461B6898472146284610F0DCFAB0
:10330000236820461B69984723685B69204601B003
:10331000BDE8F04F184700BF8C6B02088D6E0208A5
:10332000006D0208476D0208EA6D0208B0700208DD
:103330006C720120687201202DE9F14FD0E9556AC5
:103340000746B06803681B6A9847B0F5C07F05D28E
:10335000434B444AA321444821F04EFE7068036861
:103360001B6A98470F2803D8404B3E4AA421F2E736
:10337000F06803681B6A98470B2803D83C4B394A0E
:10338000A521E8E70EF0E8F8DFF8EC9004300EF045
:1033900008F9D9F8000010B10368DB689847D9F83C
:1033A000000010B103681B689847DFF8D080D8F898
:1033B000000010B103685B699847D7F83C0110B171
:1033C00003685B689847D8F8000010B103681B6871
:1033D0009847D7F83C0110B103689B689847F0689C
:1033E0000021FFF75BFE4FF0000B224BC0F804B04A
:1033F000044680F808B00360B068036859465B6A09
:103400009847054602F05EFF7068036859465B6A9C
:1034100098472946064602F02DFF331DC7F83C6148
:10342000C9F80040C8F80050CAF800302B68C6F848
:1034300008A02846DB68EE639847336830461B686F
:1034400098472146284610F037FA236820461B6922
:10345000984723685B69204601B0BDE8F04F1847E4
:103460008C6B0208656F0208006D0208476D020848
:10347000EA6D0208B07002086C72012068720120C7
:103480007047704730B4C26844685510034604EB77
:103490006200D20748BF62599B6830BC48BFD3580E
:1034A00018470346406830B19A681AB9D86800F0E6
:1034B000010070470120704710B51021044620F02C
:1034C00055FE204610BD00F5157002F049BB38B519
:1034D00000F5BE73994204460D4603D10EF03CF848
:1034E000FFF7ACFD04F5E2739D4204D1236820464A
:1034F000D3F88C30984704F50374A54205D10EF03B
:103500002BF8BDE83840FFF7B9BD38BD10B5064B04
:103510000360064BC0F85432044600F51570FFF7FF
:1035200010FB204610BD00BFEC7002085C7B020857
:1035300010B50446FFF7EAFF20464FF4886120F0FB
:1035400015FE204610BD0000F8B5194B018F1B88F1
:103550008B4206462AD9174B1B682BB9164B174AC4
:1035600017486C2121F048FD13F81120154B1B68FA
:1035700053F82250144B186802F08CFA2B68074657
:103580009B6B284698472B6804469B6C3946284617
:1035900098472B6814FB00F45B6A39462846984725
:1035A000A4B223181BB2A6F84630F8BD0023FAE7F0
:1035B000807201207C720120546902089669020819
:1035C000D169020884720120887201202DE9F04F30
:1035D00004468DB025460026FFF70EFBAF4BA662D2
:1035E00045F82C3B31462622284621F00CFF284680
:1035F000FFF702FBAA4BE36204F1580AFF2304F130
:10360000A00984F8523066655046FFF73BFB04F191
:10361000E8084846FFF736FB4046FFF733FBA14B6F
:10362000C4F8E83004F59A73C4F830611846009382
:10363000FFF728FB04F5BE73184601930BF0E0FB7F
:1036400004F5E27304F5037B184602930BF0D8FBF4
:1036500058460BF0D5FB04F515731846039302F09A
:1036600075FA914BC4F83034904BC4F83834904B11
:10367000A360324631462846C4F83444C4F83C645A
:10368000FFF7CCFA2846F021FEF7FAFF28464FF460
:10369000A071FEF7F7FF4FF07F4363659B2384F82B
:1036A00052302946204604AD07F02AFE4FF0FF377E
:1036B000102250460C21FFF7B1FA51462846C4F8B3
:1036C0008870A4F88C600AF08DFD95E8070004F17D
:1036D000940383E80700774B0A930AA91423504602
:1036E000ADF82C300BF026F85146204607F008FEC6
:1036F000382248464E21FFF791FA49462846C4F839
:10370000D070A4F8D4600AF06DFD95E8070004F1CC
:10371000DC0383E80700674B0A930AA91323484692
:10372000ADF82C300BF006F84946204607F0E8FDCE
:10373000562240467521FFF771FA4FF0FF23C4F877
:103740001831D4F8E830A4F81C6141462846D3F873
:103750008430984795E8070004F5927383E80700E2
:10376000544B0A930AA912234046ADF82C300AF0B4
:10377000E1FF4146204607F0C3FD00987622222152
:10378000FFF74CFA0099C4F864712846A4F8686100
:103790000AF028FD95E8070004F5B87383E80700F0
:1037A000444B00980A930AA91123ADF82C300AF073
:1037B000C1FF009984F85961204607F0A1FD0198E6
:1037C00040F215124621FFF729FA03250AAA09A992
:1037D0000198ADF824504FF00C09ADF828500BF0CB
:1037E00006F80198A4F8B491FFF7AEFE04F58668D8
:1037F0004FF07F43C4E96E370199C4F8A481204695
:1038000007F07EFD02984946EB22FFF707FA0AAA65
:1038100009A90298ADF82450ADF828500AF0E7FF46
:103820000B230298A4F8FC31FFF78EFE4FF07F4384
:10383000C4E980370299C4F8EC81204607F060FDA6
:103840005846EB228121FFF7E9F90AAA09A958464F
:10385000ADF82450ADF828500AF0C9FF0A23A4F8A7
:1038600044325846FFF770FE4FF07F43C4E9923769
:1038700059462046C4F8348207F042FD03988B2253
:103880003146FFF7CBF92046039984F8796207F0B7
:1038900037FD20460DB0BDE8F08F00BFEC70020888
:1038A00038860208706A0208D4700208CF34000813
:1038B000F0004001606A0208704770477047704727
:1038C000704770477047704730B4C26844685510FD
:1038D000034604EB6200D20748BF62599B6830BCC4
:1038E00048BFD35818470346406830B19A681AB9A0
:1038F000D86800F0010070470120704790F82D3023
:1039000080F86030704710B56421044620F02EFC2A
:10391000204610BD10B51021044620F027FC20469B
:1039200010BD0146383091F82C3013B136310BF010
:1039300025B93431FBE710B5044600F53E7002F0BE
:1039400072FD04F57D7002F0F8FD04F59E6002F052
:1039500050FE04F2EC5002F01EFE04F5DD6002F0B1
:1039600076FE04F2E47002F08CFD04F50E6002F0C5
:10397000B6FD04F6DC1002F033F904F61C6002F028
:1039800021FD04F580500C30BDE8104002F026BC4B
:1039900010B50446006B50B10368DB68984730B13E
:1039A000206B036821469B68BDE81040184710BD96
:1039B00000F1F0028A4202D10368DB6A18477047BF
:1039C0000B7970B590F82C6004460D460BB916B112
:1039D00070BD002EFCD0B3FA83F35B0984F82C3061
:1039E00023682046D3F88C309847236820465B69CB
:1039F0009847002EECD02B79012BE9D12368204683
:103A0000D3F88830BDE8704018470000264B274A9D
:103A100010B5036000F5805304461846DA600C3098
:103A200000F085FB224BC4F81C3E04F61C6000F03D
:103A300074FF204BC4F8DC3904F6DC10FFF766FD98
:103A40001D4BC4F8E03804F50E6001F0D3FC1B4BAD
:103A5000C4F8E43704F2E47001F044FC184BC4F8F5
:103A6000E83604F5DD6001F0DDFE164BC4F8EC35F8
:103A700004F2EC5001F0CAFD134BC4F8F03404F525
:103A80009E6001F049FE114BC4F8F43304F57D70DB
:103A900001F036FD0E4BC4F8F83204F53E7001F02B
:103AA00083FB204610BD00BF3C720208407D020827
:103AB000AC7E0208447C020874800208E07F0208A1
:103AC000C48202089C810208308202080881020830
:103AD0004C7F020810B50446FFF798FF204641F2DC
:103AE0005C1120F043FB204610BD0B882DE9F0410E
:103AF00083861388B0F90850C38604461046904662
:103B000011F096FAB4F90A30074603EBD373404636
:103B1000C3F34F0611F0C0FA05EBD575C5F34F0599
:103B200000EBD07007EBD777A6EB6002A5EB67013F
:103B300004F1380012B209B2FFF770F8236820468A
:103B4000D3F88C30BDE8F041184700002DE9F04F64
:103B500004469DB0A04600250FF002FDDC4BE56356
:103B600048F8403B4046FFF779F804F16C031846EB
:103B70000793FFF773F804F1980318460893FFF7CB
:103B80006DF804F1C403184604F1F0070993FFF738
:103B900033F8D04BC4F8C430C4F8EC503846FFF7C3
:103BA0002BF84FF47F43A4F81C31012384F814311F
:103BB000C94BC4F8F03004F594764FF0FF33262259
:103BC000C4F8243129464FF6FF7BC4F81851C4F8D5
:103BD00020513046ADF868B021F015FC3046FFF7B3
:103BE0000BF8BE4BC4F82831BDF86830A4F84E314C
:103BF00084F850B11AA930460AF0C0FF3146384661
:103C000007F07EFB04F5AA7318460393FFF73AF812
:103C100004F5CE731846B24E0493FFF733F804F55B
:103C2000F473C4F89C61C4F8E45118460593FFF797
:103C300029F804F50C7304F51F7A18460693FFF76C
:103C400021F8C4F83062C4F878525046FFF71AF8E9
:103C500004F5317318460A93FFF700F8A14BC4F836
:103C6000C43204F53E73C4F8F052A4F8F452184676
:103C70000B9302F0C1FB04F57D7318460C9302F020
:103C800045FC04F59E6318460D9302F09BFC04F27C
:103C9000EC5318460E9302F067FC04F5DD631846FA
:103CA0000F9302F0BDFC04F2E4731846109302F087
:103CB000D1FB04F50E631846119302F0F9FB04F6EC
:103CC000DC131846129304F5805B01F07FFF04F6C5
:103CD0001C630BF10C0B1846139302F05BFB584668
:103CE00002F072FA804B04F58059C9E953347F4BD6
:103CF000C9E955354FF4A0732A460093294640463A
:103D0000F023261DFEF797FF4FF07F43A366414641
:103D1000304607F0F5FA4FF4A0732A46079800934F
:103D200029469623FEF787FF714B0799C4F8943014
:103D300030464FF48C7807F0E3FA0898CDF800800D
:103D400023228C230521FEF776FF6A4B0899C4F8DD
:103D5000C030304607F0D4FA8C230998CDF80080A3
:103D600023220521FEF767FF0999304607F0C8FABC
:103D70004FF004081AAA19A93846ADF86480ADF8C6
:103D80006880FFF7B2FE04F58A530C33C4F8203183
:103D90001C234246C4F82C51384600930521FEF7F7
:103DA0004AFF3946304607F0ABFA0398DFF84881FE
:103DB000E422A62114AFFEF731FF4FF0FF33039941
:103DC000C4F884313846A4F888510AF00BFA97E811
:103DD000070004F5C87383E807001A230398ADF8B9
:103DE0006C301AA9CDF868800AF0A4FC039930461B
:103DF00007F086FA1E2304980093FF22572396218A
:103E0000FEF719FF4FF0FF33C4F8CC31D4F89C31E2
:103E10000499D3F88430A4F8D0513846984797E8ED
:103E2000070004F5EC7383E8070019230498ADF844
:103E30006C301AA9CDF868800AF07CFC04993046F1
:103E400007F05EFA152305980093992250239C21D0
:103E5000FEF7F1FE4FF0FF330599C4F818323846EB
:103E6000A4F81C520AF0BEF997E8070004F509739C
:103E700083E8070021230598ADF86C301AA9CDF826
:103E800068800AF057FC0599304607F039FA132389
:103E900006980093B42257239621FEF7CCFE4FF0EC
:103EA000FF23C4F86032D4F830320699D3F8843056
:103EB000A4F864523846984797E8070004F51B7346
:103EC00083E8070020230698ADF86C301AA915E0A6
:103ED0003C720208B883020884710208088702084D
:103EE000706A0208A086020824720208B13900082C
:103EF000BB4446FF764446FF606A0208CDF86880FE
:103F00000AF018FC0699304607F0FAF928225046C4
:103F1000AA21FEF783FE4FF0FF33C4F8AC325146BE
:103F20003846A4F8B0520AF05DF997E8070004F5A6
:103F30002E7383E807001F231AA95046ADF86C3092
:103F4000CDF868800AF0F6FB5146304607F0D8F904
:103F500042230A9800933C22A321FEF76CFE4FF007
:103F60007F43C4F8EC3203F57F03C4F8F032032337
:103F7000A4F8F4320A99304607F0C2F90B984622A9
:103F8000A821FEF74BFE0B9984F81D53304607F02D
:103F9000B7F90C984122A821FEF740FE0C9984F84D
:103FA0001954304607F0ACF90D984122AF21FEF7C5
:103FB00035FE0D9984F81555304607F0A1F90E9895
:103FC0004122A121FEF72AFE0E9984F811563046AF
:103FD00007F096F90F984122AE21FEF71FFE0F99C8
:103FE00084F80D57304607F08BF910984122AF2125
:103FF000FEF714FE109984F80958304607F080F94E
:1040000011984122A121FEF709FE119984F8055962
:10401000304607F075F92A4612982946FEF7FEFD4C
:10402000129984F8015A304607F06AF92A46139823
:104030002946FEF7F3FD139984F8415E304607F0F8
:104040005FF92A4629465846FEF7E8FD304689F8CA
:104050003150594607F054F920461DB0BDE8F08FA5
:10406000406A7047806A704770478A880B8810B52D
:10407000D20A4C88C1699BB251F8220043EA04433A
:10408000184410BD10B50446BAB1107B68B1537B1B
:10409000D27A1B0203F4E0631A43236A03EB820320
:1040A0001A888A4202D193F9020010BD05D801385E
:1040B00080B204330028F3D1F7E70020F5E710B50C
:1040C0002C21044620F052F8204610BD30B58BB0AC
:1040D0000446BDF860500895BDF85C5007959DF802
:1040E000505006959DF84C5005959DF84850049504
:1040F0009DF8445003959DF8405002959DF83C5022
:104100000195BDF8385000950FF030F8064B23604C
:10411000159BE361169B2362199B63621A9BA36242
:1041200020460BB030BD00BF747202087047704764
:104130007047704730B4C26844685510034604EBBA
:104140006200D20748BF62599B6830BC48BFD35851
:1041500018470346406830B19A681AB9D86800F029
:10416000010070470120704710B5102104461FF070
:10417000FDFF204610BD10B54FF4A07104461FF09E
:10418000F5FF204610BD00F1A0028A4203D103686A
:10419000D3F88C30184770472DE9F04F044689B0AA
:1041A00025460026FEF728FD5A4BA66245F82C3B13
:1041B00031462622284621F026F92846FEF71CFD26
:1041C000554BE36204F15807FF2304F1A00A84F879
:1041D000523066653846FEF755FD04F1E809504651
:1041E0000AF00EFE4846FEF74DFD4C4BC4E94C3438
:1041F0004B4BC4E94E364B4BA36032463146284602
:10420000FEF70CFD2846F021FEF73AFA28464FF457
:10421000A071FEF737FA4FF07F43636529462046C9
:1042200007F06EF84C2238460921FEF7F7FC6D4680
:104230004FF0FF334FF0010BC4F888303946284661
:10424000A4F88CB009F0CEFF95E8070004F19408BB
:1042500088E807003946284684F891B009F0C2FF83
:1042600095E8070088E807000222DFF8BC80ADF877
:104270001C2006A93846CDF818800AF05BFA3946AA
:10428000204607F03DF85046EA220D21FEF7C6FC15
:1042900006AA05A95046ADF814B0ADF818600AF0AA
:1042A000A6FA5046A4F8D8B0FFF74EF94FF0FF3306
:1042B0004FF07F42C4E9372304F59872C4F8C82050
:1042C0005146204607F01CF81D2248464121FEF7C2
:1042D000A5FC4FF0FF33C4F8183149462846A4F82E
:1042E0001C6109F07FFF95E8070004F5927383E8ED
:1042F000070006A94846CDF81880ADF81C600AF002
:1043000019FA2046494606F0FBFF204609B0BDE8F1
:10431000F08F00BFF472020838860208DC720208CF
:1043200087410008F0004001606A0208806C704715
:10433000C06C7047704770477047704730B4C268B0
:1043400044685510034604EB6200D20748BF625927
:104350009B6830BC48BFD35818470346406830B10B
:104360009A681AB9D86800F00100704701207047B8
:1043700010B5502104461FF0F9FE204610BD10B5BF
:10438000102104461FF0F2FE204610BD10B54FF478
:10439000277104461FF0EAFE204610BD00F511709B
:1043A000884208B505D10DF0D7F8BDE80840FEF702
:1043B00045BE08BD10B50446FEF764FC034B236000
:1043C0000023C4E91233204610BD00BF8C730208DD
:1043D0002DE9F04F04468DB025460FF0C1F84FF09F
:1043E0000008AB4AC4F83C8045F8402BA94AC4F801
:1043F0006080C4E910284FF4807204F16C0BA4F8BB
:104400006420FF2284F8662004F1B40AC4E912880B
:10441000C4E91488C4E91688C4F868805846FEF7D1
:1044200031FC04F582795046FFF7C4FF4846FFF798
:10443000C1FF04F5AA7318460093FFF7BBFF04F50C
:10444000D27318460193FFF7B5FF04F5FA731846C7
:104450000293FFF7AFFF04F51173184603930AF0B8
:10446000CFFC8D4AC4E9A3248C4A4146C4E9A5285F
:1044700028464246FEF7D2FB2846F021FEF700F917
:1044800028464FF4A071FEF7FDF8261D4FF07F433C
:10449000A3662946304606F033FF182258460D2100
:1044A00004ADFEF7BBFB4FF0FF33C4F89C30594618
:1044B0002846A4F8A08009F095FE95E8070004F1CD
:1044C000A80787E80700764F0A9709220AA95846E5
:1044D000ADF82C200AF02EF95946304606F010FFB0
:1044E00050463C226221FEF799FB6E4AC4F8E42054
:1044F000D4F8B420A4F8E88051462846D2F88420A5
:10450000904795E8070004F1F00C8CE807000822BA
:104510000AA95046ADF82C200A970AF00BF951462B
:10452000304606F0EDFE48468C226221FEF776FB0F
:104530005D4AC4F83421D4F80421A4F838814946EE
:104540002846D2F88420904795E8070004F5A07C1F
:104550008CE8070007220AA94846ADF82C200A97E4
:104560000AF0E8F84946304606F0CAFE0098B42240
:104570006221FEF753FB4D4AC4F88421D4F854213C
:104580000099D2F88420A4F888812846904795E8BD
:10459000070004F5C87C8CE8070005220098ADF8F8
:1045A0002C200AA90A970AF0C5F80099304606F0AF
:1045B000A7FE0198DD226221FEF730FB3C4AC4F8D9
:1045C000D421D4F8A4210199D2F88420A4F8D88168
:1045D0002846904795E8070004F5F07C8CE8070032
:1045E00004220198ADF82C200AA90A970AF0A2F833
:1045F0000199304606F084FE029864226221FEF79B
:104600000DFBD4F8F4312B4A0299C4F82422284631
:10461000D3F88430A4F82882984795E8070004F579
:104620000C7383E8070006230298ADF82C300AA922
:104630000A970AF07FF80299304606F061FE039867
:104640004FF485720D21FEF7E9FA01230AAA09A9A0
:104650000398ADF82430ADF828300AF0C8F80323E9
:104660000398A4F87C32FEF76FFF4FF07F424FF0C3
:10467000FF33C4E9A02304F5237330460399C4F83B
:104680006C3206F03DFE20460DB0BDE8F08F00BF55
:1046900034740208388602081C7402089D4300081E
:1046A000606A02080100FFFF00C3FFFF376A01FFD5
:1046B0008A5100FF0668F7FF7047704770477047E0
:1046C00030B4C26844685510034604EB6200D20758
:1046D00048BF62599B6830BC48BFD358184703464F
:1046E000406830B19A681AB9D86800F00100704784
:1046F0000120704710B5102104461FF037FD2046F9
:1047000010BD10B54FF4C07104461FF02FFD2046B8
:1047100010BD38B500F19803994204460D4603D107
:104720000CF01AFFFEF79AFC04F594739D4203D136
:1047300023682046DB6A9847E034A54205D10CF097
:104740000BFFBDE83840FEF799BC38BD2DE9F04FAE
:10475000044685B025460EF003FF0026684AE6634E
:1047600045F8402B674A2666C4E910264FF480714D
:10477000FF2204F16C0BA4F8641084F86620A4F8FE
:1047800090104FF6FF726049A4F8922084F89420AC
:1047900004F19809E166584603A9C4E91266C4E920
:1047A0001466C4E91666C4E91C66C4E91E66C4E959
:1047B0002066C4E92266A666ADF80C2004F1E00884
:1047C0000AF0DCF948460AF01BFB04F594774046F2
:1047D0000AF016FB38460AF013FB4C4AC4E95C2485
:1047E0004B4A3146C4E95E2628463246FEF716FAA1
:1047F0002846F021FDF744FF4FF07F4A28464FF44A
:10480000A071FDF73FFF2946201DC4F868A006F0FF
:1048100077FD324658464621FEF700FA052203A9E5
:104820005846ADF80C200AF0A9F95946201D06F0AB
:1048300067FD4846CA220D21FEF7F0F9012502A9BD
:1048400003AA4846ADF80850ADF80C5009F0CFFF68
:104850001822A4F8D0204846FEF776FE4FF0FF3B22
:1048600004F5B873C4F8C0304946201DC4F8D4A07C
:10487000C4F8D8B0019306F043FD40464FF483726C
:104880000D21FEF7CBF902A903AA4046ADF8085066
:10489000ADF80C5009F0ABFF1722A4F818214046E0
:1048A000FEF752FE019BC4F808314146201DC4E9C1
:1048B00047AB06F025FD38468E223321FEF7AEF9D0
:1048C000022202A9ADF80820ADF80C20384603AA50
:1048D00009F08DFF1622A4F860213846FEF734FE59
:1048E000019B84F84D61201DC4E959ABC4F85031D7
:1048F000394606F005FD204605B0BDE8F08F00BF43
:104900008074020838860208088702086874020862
:1049100013470008704770477047704770477047EB
:1049200030B4C26844685510034604EB6200D207F5
:1049300048BF62599B6830BC48BFD35818470346EC
:10494000406830B19A681AB9D86800F00100704721
:104950000120704710B5102104461FF007FC2046C7
:1049600010BD10B54FF4E87104461FF0FFFB204660
:1049700010BD38B500F1A003994204460D4603D19D
:104980000368D3F88C30984704F5BC739D4204D17A
:1049900023682046D3F89030984704F1E8039D42FD
:1049A00004D123682046D3F89430984704F59874CE
:1049B000A54205D10CF0D0FDBDE83840FEF73EBB66
:1049C00038BD00002DE9F04F04468BB02546002786
:1049D000FEF712F9814AA76245F82C2B26263246AB
:1049E0003946284620F00FFD2846FEF705F97C4A97
:1049F000E26204F15803FF22394684F852206765C9
:104A000032461846009320F0FEFC0098FEF7F4F8BA
:104A1000744AA2654FF6FF72734BA4F884204FF0DE
:104A2000FF3604F1A00B4FF47F02C4F8803004F18C
:104A3000E80AC4F88C20C4E92667C4F88870A4F892
:104A40009070C4F8947058460AF0DAF904F5987931
:104A500050460AF0D5F948460AF0D2F904F5BC727E
:104A6000104601920AF0CCF9604AC4E97024604A09
:104A7000C4E972275F4AA26039463A462846FEF7E3
:104A8000CDF82846F021FDF7FBFD28464FF4A07134
:104A9000FDF7F8FD4FF07F488C2284F8522029461C
:104AA0002046C4F8548006F02BFC02AD0098172273
:104AB0003F21FEF7B3F80099A4F88C702846C4F89B
:104AC000886009F08FFB95E8070004F1940383E800
:104AD0000700454B0098089308A91E23ADF8243021
:104AE00009F028FE0099204606F00AFC58465D228F
:104AF0000D21FEF793F8012708AA07A95846ADF83B
:104B00001C70ADF8207009F072FE1D23A4F8D83097
:104B100004F5E0755846FEF717FD59462046C4E9EE
:104B20003786C4F8C85006F0EBFB50464FF4857248
:104B30000D21FEF773F808AA07A95046ADF81C70BE
:104B4000ADF8207009F053FE1C23A4F82031504624
:104B5000FEF7FAFC51462046C4E94986C4F81051D4
:104B600006F0CEFB4846C2220D21FEF757F808AAF0
:104B700007A94846ADF81C70ADF8207009F037FE63
:104B80001523A4F868314846FEF7DEFC4946204666
:104B9000C4E95B86C4F8585106F0B2FB01988E2236
:104BA0000D21FEF73BF808AA07A90198ADF81C7083
:104BB000ADF8207009F01BFE1B230198A4F8B0315A
:104BC000FEF7C2FC2046C4E96D860199C4F8A051E5
:104BD00006F096FB20460BB0BDE8F08FD0740208BB
:104BE00038860208A8850208606A0208B8740208BC
:104BF00073490008F00040017047000030B5174DC0
:104C00002C68BFF35B8F14F001048FB022D12846CB
:104C10001FF0AEFAF0B13F230993114B0893114BEB
:104C2000114912480A94CDE9064301220423CDE933
:104C300003320E2300930B220F23CDE90B44CDE961
:104C400001440594FFF742FA094820F0F3F9284699
:104C50001FF09AFA05480FB030BD00BF386200203F
:104C60008CC50208CCC502088CBD02083C6200203D
:104C7000F94B00087047000030B5174D2C68BFF3A2
:104C80005B8F14F001048FB022D128461FF070FA18
:104C9000F0B13F230993114B0893114B114912486E
:104CA0000A94CDE9064301220423CDE903321423FB
:104CB00000930B221623CDE90B44CDE90144059462
:104CC000FFF704FA094820F0B5F928461FF05CFA0E
:104CD00005480FB030BD00BF6862002090C50208D3
:104CE000D0C5020828BE02086C620020754C00087E
:104CF0007047000030B5164D2C68BFF35B8F14F081
:104D000001048FB021D128461FF032FAE8B13F23C9
:104D10000993104B0893104B104911480A94CDE9A0
:104D2000064301220423CDE90332CDE901340C23EB
:104D300000931A22CDE90B440594FFF7C7F90948FF
:104D400020F078F928461FF01FFA05480FB030BD53
:104D50009862002094C50208D4C50208C4BE0208A7
:104D60009C620020F14C00087047000030B5164DE1
:104D70002C68BFF35B8F14F001048FB021D128465B
:104D80001FF0F6F9E8B13F230993104B0893104B3D
:104D9000104911480A94CDE9064301220423CDE9C4
:104DA000033211230622CDE90032CDE90B440594EC
:104DB0000294FFF78BF9094820F03CF928461FF0D0
:104DC000E3F905480FB030BDC862002098C502085D
:104DD000D8C5020830C00208CC620020694D000826
:104DE0007047000030B5174D2C68BFF35B8F14F08F
:104DF00001048FB022D128461FF0BAF9F0B13F2349
:104E00000993114B0893114B11480A94CDE90643BD
:104E100001220423CDE9033207211423CDE9003117
:104E200010220C490594CDE90B440294FFF74EF98A
:104E3000094820F0FFF828461FF0A6F904480FB0F3
:104E400030BD00BFF86200209CC50208DCC5020826
:104E5000FC62002084C00208E14D00087047000099
:104E600030B5164D2C68BFF35B8F14F001048FB082
:104E700021D128461FF07CF9E8B13F230993104B5C
:104E80000893104B104911480A94CDE906430122BA
:104E90000423CDE9033219230922CDE90032CDE9FB
:104EA0000B4405940294FFF711F9094820F0C2F869
:104EB00028461FF069F905480FB030BD286300206F
:104EC000A0C50208E0C5020864C102082C630020E6
:104ED0005D4E00087047000030B5164D2C68BFF3DA
:104EE0005B8F14F001048FB021D128461FF040F9E8
:104EF000E8B13F230993104B0893104B1049114818
:104F00000A94CDE9064301220423CDE90332CDE919
:104F10000134082300930F22CDE90B440594FFF7D9
:104F2000D5F8094820F086F828461FF02DF90548E5
:104F30000FB030BD58630020A4C50208E4C50208C4
:104F4000E4C102085C630020D54E000870470000F1
:104F500030B5164D2C68BFF35B8F14F001048FB091
:104F600021D128461FF004F9E8B13F230993104BE3
:104F70000893104B104911480A94CDE906430122C9
:104F80000423CDE90332142300930322CDE90B441B
:104F9000CDE901440594FFF799F8094820F04AF853
:104FA00028461FF0F1F805480FB030BD8863002097
:104FB000A8C50208E8C50208B8C202088C63002030
:104FC0004D4F00087047000030B5174D2C68BFF3F7
:104FD0005B8F14F001048FB022D128461FF0C8F86F
:104FE000F0B13F230993114B0893114B0793012311
:104FF000CDE9054304930423CDE902430A230D4977
:1050000000932D220C23CDE90B440B480A94019404
:10501000FFF75CF8094820F00DF828461FF0B4F8B7
:1050200005480FB030BD00BFB8630020ACC5020812
:10503000ECC50208E4C20208BC630020C54F0008AA
:105040007047000030B5164D2C68BFF35B8F14F02D
:1050500001048FB020D128461FF08AF8E0B13F2329
:105060000993104B0893104B104911480A940122E0
:10507000CDE906430423CDE903320F230093CDE9A4
:105080000B44CDE901440594FFF720F809481FF0CF
:10509000D1FF28461FF078F805480FB030BD00BF9B
:1050A000E8630020C0C50208F0C502085CC502081C
:1050B000EC630020415000087047000030B5164DE9
:1050C0002C68BFF35B8F14F001048FB020D1284609
:1050D0001FF04EF8E0B13F230993104B0893104B9B
:1050E000104911480A940122CDE906430423CDE971
:1050F000033214230093CDE90B44CDE90144059418
:10510000FEF7E4FF09481FF095FF28461FF03CF822
:1051100005480FB030BD00BF18640020C4C50208A8
:10512000F4C502086CC502081C640020B9500008D0
:105130007047000030B5164D2C68BFF35B8F14F03C
:1051400001048FB020D128461FF012F8E0B13F23B0
:105150000993104B0893104B104911480A940122EF
:10516000CDE906430423CDE9033228230093CDE99A
:105170000B44CDE901440594FEF7A8FF09481FF050
:1051800059FF28461FF000F805480FB030BD00BF9A
:1051900048640020C8C50208F8C502087CC502089A
:1051A0004C640020315100087047704710B5FC2155
:1051B00004461EF0DBFF204610BD00004FF4807156
:1051C0008184FF21002280F8261007498262C0E90D
:1051D0000122C0E90322C0E90522C0E907220160DB
:1051E000C2620286704700BFA08602082DE9F04F18
:1051F0004FF48073054600268384374B8662C0E9EE
:105200000166C0E90366C0E90566C0E9076645F8BE
:105210002C3B044685B004F1600B2846FFF7CEFF17
:1052200004F1940A5846FFF7C9FF5046FFF7C6FF3E
:1052300004F1C80318464FF00E09DFF8A480274F89
:105240000393FFF7BBFF4FF03813A3604A464B466A
:10525000314628460226CDF80090FDF7ECFC2946A1
:105260002046C4E91587A4F85C6006F049F84B466F
:105270004A4649465846CDF80090FDF7DCFC5946B1
:105280002046C4E92287A4F8906006F039F84B461E
:105290004A465046CDF800901C21FDF7CCFC514603
:1052A0002046C4E92F87A4F8C46006F029F80398C3
:1052B000CDF800904B464A462A21FDF7BCFC20461B
:1052C000C4E93C870399A4F8F86006F019F8204671
:1052D00005B0BDE8F08F00BF70750208E4D79FFFEE
:1052E000D8C853FF7047704710B5FC2104461EF024
:1052F0003DFF204610BD00002DE9F04F4FF48073B4
:10530000064600258384384B8562C0E90155C0E913
:105310000355C0E90555C0E9075546F82C3B04463E
:1053200085B004F1600B3046FFF748FF5846FFF7A1
:1053300045FF04F1940318460293FFF73FFF04F181
:10534000C80318464FF00E0ADFF8A090DFF8A080DF
:105350000393FFF733FF4FF038130227A360524641
:10536000534629463046CDF800A0FDF764FC31468F
:105370002046C4E91598A4F85C7005F0C1FF5346B7
:105380001C2229465846CDF800A0FDF754FC59468A
:105390002046C4E92298A4F8907005F0B1FF534666
:1053A0000298CDF800A01C225146FDF744FC02995A
:1053B000A4F8C4702046C4E92F9805F0A1FF1C2270
:1053C00011460398CDF800A05346FDF734FC204663
:1053D000C4E93C980399A4F8F87005F091FF2046C1
:1053E00005B0BDE8F08F00BF04760208A55520FF88
:1053F000A75F2FFF7047704710B5FC2104461EF0D1
:10540000B5FE204610BD00002DE9F04F00230546F3
:105410004FF48072C0E90133C0E90333C0E90533BA
:10542000C0E907338362334B828445F82C3B044642
:1054300085B004F1600B2846FFF7C0FE04F1940A22
:105440005846FFF7BBFE5046FFF7B8FE04F1C8030D
:1054500018464FF00E09DFF8A480274F0393FFF79B
:10546000ADFE4FF038130226A3601C224B4649467E
:105470002846CDF80090FDF7DEFB29462046C4E91A
:105480001587A4F85C6005F03BFF1C224B461146D3
:105490005846CDF80090FDF7CEFB59462046C4E9AA
:1054A0002287A4F8906005F02BFF4B461C22504643
:1054B000CDF800902A21FDF7BEFB51462046C4E9F5
:1054C0002F87A4F8C46005F01BFF0398CDF8009067
:1054D0004B464A462A21FDF7AEFB2046C4E93C87ED
:1054E0000399A4F8F86005F00BFF204605B0BDE86D
:1054F000F08F00BF987602083095FCFF3374F4FFFC
:105500007047704710B5FC2104461EF02FFE204660
:1055100010BD00002DE9F04F002305464FF48072C6
:10552000C0E90133C0E90333C0E90533C0E90733FB
:105530008362334B828445F82C3B044685B004F1EA
:10554000600B2846FFF73AFE04F1940A5846FFF72D
:1055500035FE5046FFF732FE04F1C80318464FF0FF
:105560000E09DFF8A480274F0393FFF727FE4FF0C3
:1055700038130226A3604A464B4649462846CDF8D2
:105580000090FDF758FB29462046C4E91587A4F88A
:105590005C6005F0B5FE4B461C2249465846CDF8E6
:1055A0000090FDF748FB59462046C4E92287A4F83D
:1055B000906005F0A5FE1C224B4611465046CDF8E2
:1055C0000090FDF738FB51462046C4E92F87A4F828
:1055D000C46005F095FE0398CDF800904B464A460E
:1055E0001C21FDF728FB2046C4E93C870399A4F859
:1055F000F86005F085FE204605B0BDE8F08F00BFDD
:105600002C77020857D5DBFF21E9EFFF7047704781
:1056100010B5FC2104461EF0A9FD204610BD000077
:105620002DE9F04F002305464FF48072C0E90133A5
:10563000C0E90333C0E90533C0E907338362334B64
:10564000828445F82C3B044685B004F1600B284663
:10565000FFF7B4FD04F1940A5846FFF7AFFD50463A
:10566000FFF7ACFD04F1C80318464FF00E09DFF850
:10567000A480274F0393FFF7A1FD4FF038130226B4
:10568000A3601C224B4649462846CDF80090FDF702
:10569000D2FA29462046C4E91587A4F85C6005F0D3
:1056A0002FFE1C224B4611465846CDF80090FDF7C0
:1056B000C2FA59462046C4E92287A4F8906005F052
:1056C0001FFE4B464A465046CDF800901C21FDF780
:1056D000B2FA51462046C4E92F87A4F8C46005F009
:1056E0000FFE0398CDF800904B464A462A21FDF75D
:1056F000A2FA2046C4E93C870399A4F8F86005F0B3
:10570000FFFD204605B0BDE8F08F00BFC07702085E
:105710001C17DCFF2E33EEFF7047704710B5FC21DD
:1057200004461EF023FD204610BD00002DE9F04F79
:105730004FF48073054600268384374B8662C0E9A8
:105740000166C0E90366C0E90566C0E9076645F879
:105750002C3B044685B004F1600B2846FFF72EFD74
:1057600004F1940A5846FFF729FD5046FFF726FD3D
:1057700004F1C80318464FF00E09DFF8A480274F44
:105780000393FFF71BFD4FF03813A3604A464B46C7
:10579000314628460226CDF80090FDF74CFA2946FE
:1057A0002046C4E91587A4F85C6005F0A9FD4B46C6
:1057B0004A4649465846CDF80090FDF73CFA59460E
:1057C0002046C4E92287A4F8906005F099FD4B4675
:1057D0004A465046CDF800901C21FDF72CFA514660
:1057E0002046C4E92F87A4F8C46005F089FD03981A
:1057F000CDF800904B461C224946FDF71CFA204686
:10580000C4E93C870399A4F8F86005F079FD2046C7
:1058100005B0BDE8F08F00BF54780208956BCCFF4F
:105820009438A7FF7047704710B5FC2104461EF05E
:105830009DFC204610BD00002DE9F04F4FF4807311
:10584000054600268384374B8662C0E90166C0E9BD
:105850000366C0E90566C0E9076645F82C3B0446C7
:1058600085B004F1600B2846FFF7A8FC04F1940A08
:105870005846FFF7A3FC5046FFF7A0FC04F1C8030D
:1058800018464FF00E09DFF8A480274F0393FFF767
:1058900095FC4FF03813A3604A464B4631462846E4
:1058A0000226CDF80090FDF7C6F929462046C4E946
:1058B0001587A4F85C6005F023FD4B464A4649462F
:1058C0005846CDF80090FDF7B6F959462046C4E990
:1058D0002287A4F8906005F013FD4B461C22494630
:1058E0005046CDF80090FDF7A6F951462046C4E990
:1058F0002F87A4F8C46005F003FD1C22114603980D
:10590000CDF800904B46FDF796F92046C4E93C8758
:105910000399A4F8F86005F0F3FC204605B0BDE853
:10592000F08F00BFE878020873C87DFF46BC63FFB4
:1059300000207047002070470EB403B503AB002170
:1059400053F8042B01930CF08FFE02B05DF804EBCA
:1059500003B070470CB407B504AB53F8042B0193A4
:105960000CF082FE03B05DF804EB02B0704700005B
:10597000436C10B5044673B3038F2BB9184B194A07
:10598000C52119481FF038FBC38E00EB43035B8C25
:105990000BB30EF0EAFC238F012B03D8134B144AF0
:1059A000CB21EEE7E28E531C9BB2092B194688BF30
:1059B000A3F10A0104EB410140F63F10498C8142FA
:1059C00009D10A2B04EB420228BF002304EB430356
:1059D000508C588451842046BDE810400EF0C8BB5E
:1059E000747902087D790208287A0208727A02081E
:1059F000807A02080EF083BB10B586B002AC84E852
:105A000006001A460AAB05930193099B00932146B1
:105A1000089B0BF03FF906B010BD000038B518BB6D
:105A2000124B13481C681349B4B122682244026027
:105A3000626822440A60A26814440F4B00221A8054
:105A400000F038F8054600F033F80C4B1C600C4BA6
:105A50001D600C4B188007E00B4B03600B4B0B6079
:105A60000B4B1C68002CE8D138BD00BF84640020BB
:105A70007C64002078640020806400207C72012017
:105A8000847201208072012084C60208FCC50208CD
:105A900094C90208044B1B6853F82100034B1B6890
:105AA00003EB4000704700BF786400207C64002056
:105AB00022207047004870478864002010B5FFF727
:105AC000FDFA124C2060FFF735FB6060FFF7BAFA71
:105AD000A060FFF70FF9E060FFF784F92061FFF79E
