:020000040800F2
:100000000000032021060008D9170008DB170008AC
:10001000DD170008DF170008E117000800000000E6
:1000200000000000000000000000000051970008E0
:10003000E317000800000000E19700086190000845
:1000400071060008710600087106000871060008B4
:1000500071060008710600087106000871060008A4
:100060007106000871060008710600087106000894
:100070007106000871060008710600087106000884
:100080007106000871060008710600087106000874
:100090007106000871060008710600087106000864
:1000A0007106000871060008710600087106000854
:1000B0007106000871060008710600087106000844
:1000C0007106000871060008710600087106000834
:1000D0007106000871060008710600087106000824
:1000E0007106000871060008710600087106000814
:1000F0007106000871060008710600087106000804
:1001000071060008710600087106000871060008F3
:100110007106000871060008E5170008710600085E
:1001200071060008710600087106000871060008D3
:1001300071060008710600087106000871060008C3
:1001400071060008710600087106000871060008B3
:1001500071060008710600087106000871060008A3
:100160007106000871060008710600087106000893
:100170007106000871060008710600080000000002
:100180007106000871060008710600087106000873
:100190007106000871060008710600087106000863
:0C01A000F117000871060008FD170008A8
:1001B00010B5054C237833B9044B13B10448AFF3A1
:1001C00000800123237010BD4005002000000000C6
:1001D0009859020808B5034B1BB103490348AFF314
:1001E000008008BD00000000440500209859020866
:1001F00001F0FF01102A2BDB10F0070F08D010F8D8
:10020000013B013A8B422DD010F0070F42B3F6D1DB
:10021000F0B441EA012141EA014122F007047FF0F4
:1002200000070023F0E80256083C85EA010586EA4B
:10023000010685FA47F5A3FA87F586FA47F6A5FA87
:1002400087F68EB9EED1F0BC01F0FF0102F0070293
:1002500032B110F8013B013A83EA010313B1F8D13E
:100260000020704701387047002D06BF354603381F
:10027000073815F0010F07D1013015F4807F02BF58
:10028000013015F4C03F0130F0BC0138704700BFA9
:100290007BB972B90029BEBF00204FF0004106E0D3
:1002A00008BF00281CBF6FF000414FF0FF3000F086
:1002B000B5B9ADF1080C6DE904CE002909DB002BBE
:1002C0001ADB00F04DF8DDF804E0DDE9022304B0AC
:1002D0007047404261EB4101002B1BDB00F040F80E
:1002E000DDF804E0DDE9022304B0404261EB4101A6
:1002F000524263EB43037047524263EB430300F007
:100300002FF8DDF804E0DDE9022304B0404261EBA0
:1003100041017047524263EB430300F021F8DDF8DE
:1003200004E0DDE9022304B0524263EB430370476B
:1003300053B94AB9002908BF00281CBF4FF0FF314C
:100340004FF0FF3000F06AB9ADF1080C6DE904CE52
:1003500000F006F8DDF804E0DDE9022304B07047A0
:100360002DE9F047089D0C46002B4ED194468C4554
:100370008646B2FA82F262D94AB1C2F120039140B4
:1003800020FA03F30CFA02FC194300FA02FE4FEACA
:100390001C471FFA8CF6B1FBF7F44FEA1E4307FB2C
:1003A000141143EA014304FB06F199420AD91CEBFC
:1003B000030304F1FF3080F01281994240F20F8173
:1003C000023C6344591A1FFA8EF3B1FBF7F007FBA6
:1003D000101143EA014300FB06F69E420AD91CEBCA
:1003E000030300F1FF3180F0FC809E4240F2F9806F
:1003F000634402389B1B40EA044000211DB1D340F6
:100400000022C5E90032BDE8F0878B4205D90DB165
:10041000C5E9000100210846F5E7B3FA83F1002998
:1004200046D1A34202D39042C0F0F080861A64EB1A
:1004300003030120002DE6D0C5E90063E3E7002AAD
:1004400040F09080A1EB0C044FEA1C481FFA8CF797
:100450000121B4FBF8F64FEA1E4308FB164443EAB9
:10046000044307FB06F0984208D91CEB030306F18E
:10047000FF3402D2984200F2CD8026461C1A1FFAA1
:100480008EF3B4FBF8F008FB104443EA044300FB8E
:1004900007F79F4208D91CEB030300F1FF3402D297
:1004A0009F4200F2B0802046DB1B40EA0640A5E7F1
:1004B000C1F120068B4022FA06F71F4320FA06FC02
:1004C00004FA01F343EA0C03F44000FA01F8380C93
:1004D0004FEA1349B4FBF0FE1FFA87FC00FB1E44F1
:1004E00049EA04440EFB0CF9A14502FA01F20AD9CB
:1004F0003C190EF1FF3A80F08480A14540F28180E2
:10050000AEF1020E3C44A4EB09041FFA83F9B4FBDC
:10051000F0F300FB134449EA044403FB0CFCA4453C
:1005200007D93C1903F1FF3067D2A44565D9023BD6
:100530003C4443EA0E40A0FB0293A4EB0C049C4213
:10054000CE469C4651D34ED055B1B8EB0E0364EB6A
:100550000C0404FA06F6CB401E43CC40C5E9006407
:10056000002150E7C2F1200320FA03F10CFA02FC4B
:1005700024FA03F394400C434FEA1C4800FA02FEAD
:100580001FFA8CF7B3FBF8F008FB1031230C43EA99
:10059000014300FB07F1994208D91CEB030300F16A
:1005A000FF362CD299422AD9023863445B1AA4B28E
:1005B000B3FBF8F108FB113344EA034401FB07F3F2
:1005C000A34208D91CEB040401F1FF3613D2A34265
:1005D00011D902396444E41A41EA004139E704467A
:1005E000F0E6084606E7C845AED2B9EB020E63EB6B
:1005F000070C0138A8E73146EDE7034699E7304696
:10060000D4E7D6467FE7634402384DE706462346E3
:1006100008460FE7023E634430E700BF704700BF63
:10062000DFF834D0002103E00C4B5B584350043119
:100630000B480C4B42189A42F6D30B4A02E00023B7
:1006400042F8043B094B9A42F9D306F067FA24F0CA
:1006500033FC00F055FB704700000320008D0408B8
:100660000000002040030020400500209879012070
:10067000FEE7000070B5134C01230022C4E90023FB
:1006800002210323C4E9021304200523C4E904035F
:100690000623A36104F11C06072524F001FA90FB50
:1006A000F5F303FB1500013D56F8043D54F82020F6
:1006B0003260012D44F82030EFD1034B00221A6044
:1006C00070BD00BF400600203C060020014B1868AA
:1006D000704700BF38060020014B1868704700BF04
:1006E00034060020014B1868704700BF3006002018
:1006F000014B1868704700BF2C060020014B18788A
:10070000704700BF5D060020044B187818B1044BF9
:10071000187880F0010000F0010070475C060020AE
:100720005D060020014B1868704700BF28060020B6
:10073000534203F0030302F0030258BF5A42032A54
:1007400014D8DFE802F00205090E00EB81007047C3
:100750000C31A1EB800070478900C1F10F01081A2C
:100760007047C1F1030101EB800070470020704722
:100770002DE9F74F1B4E00911746984606EB82066F
:1007800000244FEA00194FF0280B4546002104EBE6
:10079000070A009A01912046FFF7CAFF124B019900
:1007A000484453F82020012A0BD1BAF1090F14D87C
:1007B000132D12DC002D04DB0BFB05F2B258012ACD
:1007C0000BD00131042905F10105E2D10134042CDB
:1007D00006F10406D9D1012000E0002003B0BDE8F5
:1007E000F08F00BF640600200800002070B5134E93
:1007F000134D144C33682B602368062B01DDFFF783
:1008000039FF2368104928685A1C22600F4A52F8A1
:1008100023300F4A33600023136003220A600D491E
:100820000B601946FFF7A4FF0B4B80F00100C0B22C
:10083000187010B9094B01221A7070BD28060020EB
:10084000380600203C06002030060020400600202C
:10085000340600202C0600205D0600205C060020E7
:1008600008B54FF4487200210B4824F07CFA0B4A7B
:10087000002313600A4A13700A4A1370FFF7FAFE46
:10088000094B01221A60094B1A68094B1A60BDE82E
:100890000840FFF7ABBF00BF6406002060060020E1
:1008A0005D0600205C0600203C060020400600207B
:1008B0002806002038B51A4B1B78A3B90138032845
:1008C00011D8DFE800F00211151C164D2C68013C10
:1008D000154B1B6822461549096815480068FFF743
:1008E00047FF00B12C6038BD0E4D2C680134EFE796
:1008F0000D4D0C4A2C68126801342346EBE70B4D72
:10090000084A2C6812680134634203F0030304F0C0
:10091000030458BF5C42044B21461B68DDE700BF5F
:100920005D060020300600202C0600203406002042
:10093000380600203A4B1B782DE9F74FA3B9394B05
:10094000394CD3F80080394B2768D3F800A0384BD6
:10095000D3F800907D1C51462B464A464046FFF78F
:1009600007FF014618B1256003B0BDE8F08F314E96
:100970000A2404FB079406EB84044FEA08130025BD
:1009800001EB070B5246284601930091FFF7D0FE7A
:10099000019B294A0099184452F82020012A0AD1C3
:1009A00005EB0902092A06D8BBF1130F9CBF08F119
:1009B000010244F825200135042DE3D10131042939
:1009C00004F12804DBD1002713244FF0280E0EFB7E
:1009D00004631946002251F8040B98B101320A2A27
:1009E000F9D10137254605E09CE8070003C3013D26
:1009F0001A806346A3F1280C002DF5D1C6E90055F5
:100A000035810134013CE2D22FB10C4A13686421D4
:100A100001FB0733136003B0BDE8F04FFFF7E6BEFC
:100A20005D060020380600202C0600203406002039
:100A30003006002064060020080000206006002028
:100A40001D4B2DE9F74FC8221C49DFF884B018462A
:100A500024F059FA1A4A126801921A4A17681A4A77
:100A6000D2F80080194AD2F800900A2404FB0894B6
:100A7000044400263F01002506EB080A019A31468E
:100A80002846FFF755FE38445BF82020012A07D19D
:100A900005EB0901092903D8BAF1130F98BF625574
:100AA0000135042DEAD10136042E04F10A04E2D105
:100AB000014803B0BDE8F08F5C050020640600200B
:100AC00034060020380600202C06002030060020C6
:100AD00008000020054B18684FF41673B0FBF3F0C4
:100AE00001300828A8BF0820704700BF600600201A
:100AF00008B5FFF7EFFF0238062896BF024B4FF408
:100B0000397033F8100008BDF0590208064B1A7806
:100B10005F2A07D05A785F2A04D098785F3818BFC8
:100B2000012070470020704704000020013803288E
:100B300022D8DFE800F0020F1822154B15491A6879
:100B40008B5C5F2B01D0412B02D85A238B5470470A
:100B5000013BFBE70E4B0F491A688B5C592B8CBF8E
:100B600041230133F2E70A4A0A4913685F20002B48
:100B7000C85401DD013B13607047054A05491368FD
:100B8000C95C5F29F8D0012BF6DC0133F3E700BF25
:100B9000240600200400002007B5064BADF806002F
:100BA0001B68054801220DF1060107F0FFFD03B0A7
:100BB0005DF804FBC8010020F00900202DE9F84F82
:100BC000DFF894B01F4EDFF894A0DFF894801E4D3C
:100BD0001E4F05F0D7FF044636F8021B1C4806F0EE
:100BE0002DFA012881460BD19AF80030BBB9DBF809
:100BF0000000C8F800401A4639462C6008F09EFBF9
:100C0000144B0AF8019B9E4208F1040805F1040503
:100C100007F10107E0D1052008F0AAFAD2E7D8F8D9
:100C20000030E31A632BEBD92B68E31A272BE7D9A3
:100C30000023DBF800001A46394608F07FFB2C60E1
:100C4000DEE700BF025A020884090020FE590208AC
:100C5000000402400A5A0208AC090020A40900203E
:100C60009409002030B595B0102200210AA824F084
:100C70007AF81422002103A824F075F800241E4BF2
:100C800001941A6C42F080521A641B6C03F080537A
:100C90000193019B194B02941A6842F440421A6076
:100CA0001B6803F4404302930122029B4FF48033FC
:100CB000CDE9082302254FF480030821CDE90E5326
:100CC0004FF4B473CDE9101308A8042313931295BD
:100CD00007F024F806F0E8FF0F23CDE903354FF4C1
:100CE000A0504FF48053CDE90603052103A80594D5
:100CF00007F0F0F915B030BD003802400070004038
:100D000080B59CB0C64DDFF85483002405F014FF75
:100D1000FFF7A8FF1022002110A824F024F8019466
:100D20002B6BC04843F002032B632B6B03F00203D1
:100D300001930227019B119740F207430FA90F93DC
:100D400006F098F802942B6BB74843F010032B631E
:100D50002B6B03F010030293029B03942B6B43F065
:100D600020032B632B6B03F020030393039B04945A
:100D70002B6B43F080032B632B6B03F080030493F6
:100D8000049B05942B6B43F004032B632B6B03F044
:100D900004030593059B06942B6B43F001032B631F
:100DA0002B6B03F001030693069B07942B6B3B43CD
:100DB0002B632B6B3B400793079B08942B6B43F0F3
:100DC00040032B632B6B03F040030893089B0994AB
:100DD0002B6B43F008032B632B6B944D03F008033C
:100DE000224609933C21099B06F02EF9394690488A
:100DF000012206F029F922468D48042106F024F943
:100E000022468C484FF4405106F01EF901263C233F
:100E1000CDE90F368448119403230FA9129306F0ED
:100E200029F883480FA9CDE90F76CDE9114406F0E2
:100E300021F804237E480FA9CDE90F36CDE91147EB
:100E400006F018F80FA94FF440537A48CDE90F3651
:100E5000CDE9114706F00EF87748784B036005F0AE
:100E6000FDFEDFF8FCE1764B2C62C5E900E3284685
:100E70004FF48043C5E90434C5E90244C5E906449A
:100E800006F0F0FA1021284606F034FD21462846E7
:100E90006C4D06F04EFD4FF48273C5E900834FF4AC
:100EA00000791823C5E9069328460A23C5E90244B8
:100EB000C5E90444C5E90844AC62EB6207F01AFCDA
:100EC0008F23224639465A488DF82C308DF83C4005
:100ED00006F0BAF832464FF47A730BA9284607F0A9
:100EE00065FC4FF47A7332460FA9284607F00AFED4
:100EF000324639464E48544D06F0A6F89DF83C302F
:100F0000D32B04BF514B1E70514B0126C5E900364F
:100F1000102240230024C5E904234FF4C073C5E91F
:100F200006344FF40063C5E908344FF40053022738
:100F30004FF00409AB624FF0030A07230FA92846BC
:100F4000CDE90F73CDE911934FF00808C5E90249C7
:100F5000CDE913A7159707F0B1FA4FF6FF720BA969
:100F60002846CDE90C860A940B960E9407F0C6FA33
:100F7000304605F00DFE4FF6FF720BA92846CDE96D
:100F80000B78CDE90D6407F0B9FA4FF6FF720BA9A3
:100F90002846CDE90BA8CDE90D9407F0AFFA4FF440
:100FA0000C730A930A9B0E934FF6FF720BA9284607
:100FB000CDE90B980D9607F0A1FA40F26A51284648
:100FC00007F0BAFA342221460FA823F0CCFE214DB7
:100FD000214B2C61C5E900340923C5E905361D23E1
:100FE000C5E9073A40F20D1140F24313C5E9091370
:100FF00040F2171040F24713C5E90B032846C5E934
:101000000244AC8685F8364006F038FDFF214FF4E7
:10101000806CF022CDE914140521CDE916C121E040
:10102000003802400004024000100240F00A002094
:1010300000080240000C0240840B002000300240F7
:10104000A0860100F0090020BC090020B0090020A2
:10105000400100A0480A0020006801400050014003
:10106000005C00404FF4A0730FA9CDE91024CDE936
:10107000184228462246204D1A93CDE912370F9484
:10108000ADF86C408DF86E4006F0C3FD1B4B2B6035
:101090001B6898472B681A4DDB689847194B284600
:1010A000C5E90034C5E90274C5E90A47C5E90C443D
:1010B00005F0E4FD3146284605F098FE00F0F7FB08
:1010C00000F0F4FB07F0DAFF0F4A3146404608F023
:1010D000FAF80E4B0E4A186021460E4808F001F847
:1010E0000D4B0E4A186021460D4807F0FAFF0D4BD4
:1010F000186007F0D5FFFEE7A8090020F0010020E6
:10110000440B002000B00240D0010020AC090020B8
:10111000505A0208BD0B0008B80900202C5A0208DA
:10112000BD180008B4090020704770477FB5094B0F
:101130008DF817201B6802930DF11702012300920E
:1011400001930A460146044806F034FA07B05DF8F8
:1011500004FB00BFCC010020F00A00207FB5002373
:101160008DF81730084B1B6802930A4601230DF1D6
:101170001701009101930146044806F0ABFA9DF86F
:10118000170007B05DF804FBCC010020F00A002036
:101190001FB5084C24680092CDE901340A460123AA
:1011A0000146054806F096FA003818BF012004B041
:1011B00010BD00BFCC010020F00A002005F0E8BC03
:1011C00010B5064C00222046042105F03DFF2046C4
:1011D0000122BDE81040042105F036BF000802409E
:1011E00038B50B4D044601220A484FF4005105F072
:1011F0002BFF00220421284605F026FF2046FFF79A
:10120000CBFC28460122BDE83840042105F01CBF74
:1012100000080240000C024038B50B4D0446002285
:101220000A484FF4005105F00FFF00220421284620
:1012300005F00AFF2046FFF7AFFC28460122BDE873
:101240003840042105F000BF00080240000C0240B5
:10125000F7B5144E144F05460C46304600220421C3
:1012600005F0F2FE00224FF40051384605F0ECFE86
:101270002846FFF791FC0D4B0D481B68224601A93B
:1012800007F040FC384601224FF40051019C05F064
:10129000DBFE30460122042105F0D6FE204603B0D5
:1012A000F0BD00BF00080240000C0240C801002051
:1012B000F009002005F06CBC0268034B9A4201D192
:1012C00005F054BC704700BF00100040704700009C
:1012D00082B00E4B00220092596C41F48041596457
:1012E000596C01F48041009100990192196C41F010
:1012F000805119641B6C03F080530193019B0F21F3
:101300006FF0010002B005F069BC00BF0038024078
:101310000268094B9A4282B00BD100230193074B1C
:101320001A6B42F480521A631B6B03F480530193CF
:10133000019B02B0704700BF0030024000380240FD
:1013400007B50F4B02689A4216D10022A3F5F0436D
:101350000192196B41F4000119631B6B03F4000344
:10136000019305215A20019B05F038FC5A2003B057
:101370005DF804EB05F064BC03B05DF804FB00BF4E
:1013800000B002402DE9F043044689B01422002148
:1013900003A823F0E8FC2268244B9A4243D1244C52
:1013A000244800250095236B43F004032363236B3B
:1013B00003F004030093009B0195236B43F00103AA
:1013C0002363236B03F001030193019B4FF0120988
:1013D0004FF400734FF001080327042603A9CDE959
:1013E0000339CDE90587079605F044FD4FF4807376
:1013F0001148079603A9CDE90339CDE9058705F022
:1014000039FD0295236C43F400032364236C03F439
:1014100000030293029B236A43F400032362236ABE
:1014200023F40003236209B0BDE8F083005C0040B0
:10143000003802400008024000000240F0B599B0B8
:1014400004461422002107A823F08DFC30220DEB66
:101450000200002123F087FC22685E4B9A4240F094
:10146000B78008230C93C0231093042312930CA875
:101470004FF40033159306F0F5FE08B1FFF726FF91
:10148000554B5648002400945A6C42F080625A64CE
:101490005A6C02F080620092009A01941A6B42F03A
:1014A00020021A631A6B02F020020192019A029440
:1014B0001A6B42F001021A631A6B02F001020292E7
:1014C000029A03941A6B42F002021A631A6B02F03A
:1014D00002020392039A04941A6B42F040021A63C8
:1014E0001A6B02F040020492049A05941A6B42F0BF
:1014F00004021A631A6B02F004020592059A06941C
:101500001A6B42F008021A631B6B03F00803069380
:1015100002250E26069B0B964FF4806307A9CDE9A2
:101520000735CDE9094505F0A5FC41F658032C48DF
:101530000B9607A9CDE907350927CDE9094505F03F
:1015400099FC032327480B9707A9CDE90735CDE977
:10155000094505F08FFC4FF4706322480B9607A9EC
:10156000CDE90735CDE9094505F084FC4FF40C635E
:101570001D480B9607A9CDE90735CDE9094505F0CA
:1015800079FCC02319480B9607A9CDE90735CDE9A9
:10159000094505F06FFC082315480B9607A9CDE90E
:1015A0000735CDE9094505F065FC4FF4A0530E4819
:1015B0000B9707A9CDE90735CDE9094505F05AFC98
:1015C00058202246052105F009FB582005F038FB7C
:1015D00019B0F0BD0068014000380240001402401C
:1015E00000000240000402400018024000080240CF
:1015F000000C024010B5044688B01422002103A854
:1016000023F0B1FB2268144B9A4223D103F56843BF
:10161000002101915A6C114842F480125A645A6CAC
:1016200002F480120192019A02911A6B42F0200298
:101630001A631B6B03F020030293029B4FF460724A
:1016400002230321CDE903230523CDE9061303A9D2
:1016500005F010FC08B010BD00500140001402401D
:101660002DE9F04186B0002303932B4B1C68002C1E
:101670004FD14FF00108C3F80080284B00949A6BBB
:10168000274842EA08029A639B6B03EA0803009327
:10169000022703260C25009B01A94FF63F03CDE945
:1016A0000137CDE9046505F0E5FB1E48059501A964
:1016B000CDE90187CDE9034605F0DCFB48F23313A1
:1016C0001948059501A9CDE90137CDE9034605F093
:1016D000D1FB4FF683731548059501A9CDE9013774
:1016E000CDE9034605F0C6FB4CF20373104805959F
:1016F00001A9CDE90137CDE9034605F0BBFB602325
:101700000C48059501A9CDE90137CDE9034605F05F
:10171000B1FB06B0BDE8F0818C0B00200038024020
:10172000001402400008024000180240001002406D
:10173000000C02400004024070B588B00023029300
:10174000204B1A6C42F010021A641B6C03F0100359
:101750000293054601A903A8029B06F065FD069BBE
:101760004BBB06F051FD184E184B336040F2E73387
:10177000F360174BB0FBF3F3013B7360304600237B
:101780003361B360B36107F0A1FB044680B9304612
:1017900007F05EFA044658B9362005F051FA0F2DCD
:1017A0000DD822462946362005F018FA094B1D604F
:1017B000204608B070BD06F027FD4000D3E70124A5
:1017C000F6E700BF00380240900B002000100040F8
:1017D00040420F00580200207047FEE7FEE7FEE798
:1017E000FEE77047014807F071BA00BF900B002078
:1017F000014806F0B1B900BF480A0020014805F0D1
:101800006BBA00BF440B00200120704708B523F0DD
:101810004DFB162303604FF0FF3008BD08B523F0E1
:1018200045FB16230360FEE770B50D4614460E46D1
:10183000731B9C4201DC204670BDAFF3008006F8AC
:10184000010BF5E770B50D4614460E46731B9C421E
:1018500001DC204670BD16F8010BAFF30080F5E700
:101860004FF0FF3070474FF400534B60002070473B
:1018700001207047002070470A4A116808B50346E6
:1018800009B9094911601068694603448B4206D9B9
:1018900023F00CFB0C2303604FF0FF3008BD1360F6
:1018A000FCE700BFD80B002098790120704708B5ED
:1018B00000F0BAFDBDE8084000F03CBD00F0B6BD48
:1018C000704710B50421044622F094F8204610BD5C
:1018D00038B50C4B0C4C18800C4B82201980636877
:1018E000984740F6110398420AD1094D23682C60AD
:1018F000822098472B688220DB689847002038BDFB
:101900000120FCE7E60B002028020020E40B002069
:10191000E80B00204FF4A071F020FFF7D9BF0000C2
:10192000F7B5374D2B6804461B6982209847208005
:1019300000284ED02B680DF106025B6901A98220B8
:101940009847304B1B78002B4BD0BDF8063040F643
:10195000746293423FD9ADF80620BDF80630D21A22
:1019600092B20A2A42D90B23B2FBF3F2264B1B8810
:101970009A4201D9013B9AB2BDF8043040F6B83121
:101980008B4235D8C3F571630E339BB20F21B3FB85
:10199000F1F31E4909888B4201D901398BB21C4EE3
:1019A0001C4D30682F68834281B28CBF591AC91A06
:1019B000B8B2BA428CBF101A801A89B280B2014400
:1019C0000529C8BF33603368C8BF2A6063802B68AD
:1019D000A38003B0F0BDB32B9CBFB423ADF8063099
:1019E000BBE7BDF80620A2F5B472B9E70022C3E751
:1019F000C3F56D6308339BB20E2BC7D80023CEE727
:101A0000E80B0020B0090020E40B0020E60B0020CA
:101A1000E00B0020DC0B002037B568460D4614466D
:101A2000FFF77EFFBDF8000030B1BDF802302B603B
:101A3000BDF804302360012003B030BD032821D855
:101A4000DFE800F0020B12190F4B1A68B2FA82F2AB
:101A5000520904210D4805F0F7BA0B4B5A68B2FA47
:101A600082F252090821F5E7074B9A68B2FA82F22E
:101A700052091021EEE7044BDA68B2FA82F25209F9
:101A80002021E7E7704700BFEC0B00200010024068
:101A9000032821D8DFE800F0020B12190F4B1A6857
:101AA000003A18BF012204210D4805F0CDBA0B4BB6
:101AB0005A68003A18BF01220821F5E7074B9A68D7
:101AC000003A18BF01221021EEE7044BDA68003A11
:101AD00018BF01222021E7E7704700BFEC0B002070
:101AE0000010024003280DD8DFE800F00206080AC3
:101AF0000421054805F0ADBA0821FAE71021F8E7FE
:101B00002021F6E7704700BF0010024008B5032807
:101B100011D8DFE800F0020A0C0E0421074805F096
:101B20008DFA431E5842584108BD0821F6E710219E
:101B3000F4E72021F2E70020F3E700BF00100240A5
:101B400070B5084D00240126E0B2FFF7DFFF18B1A1
:101B50002B68012B18BF2E600134052C05F10405FC
:101B6000F2D170BDEC0B0020012380F8781080F8D2
:101B7000793070477047002070470000034B416484
:101B8000003918BF01211970704700BF576C012040
:101B9000704700207047836B0BB1084618477047A9
:101BA0004FF6FF707047406803689B69184770479D
:101BB000704770477047704710B5044600F04CFD01
:101BC00023680349D3F890302046BDE810401847F9
:101BD000000000D008B503680446D3F88430984765
:101BE00023682046DB6F984700F0ECF82368204616
:101BF0005B6F98472920FFF70FFB00F0E3F823689D
:101C000020465B6F9847F8E710B504460AF0A0FB42
:101C100023682046D3F8BC30BDE81040184700F0D8
:101C2000FDBC00F001BD00F035BD00F0D3BC00F0FC
:101C300045BD00F04DBD00F0D7BC09F0B7BD10B5F3
:101C40008421044621F0D6FE204610BD10B590F840
:101C5000341090F878400C4B8C421A7809D03AB97D
:101C60000A4A0B491488088810800C8001221A70D7
:101C700010BD002AFCD0054A054914880888108048
:101C80000C800022F3E700BF506C01204C6C012057
:101C90004E6C012070B50D46194635B9094B0A4AFC
:101CA0000A4840F2FF2122F0EBFDC0E90F52084B39
:101CB000003A18BF01221A700368BDE87040D3F8DB
:101CC000903018478C5A0208C45A0208125B020866
:101CD000566C012008B5094B1B888B4203D8084B72
:101CE0001B88934205D9074B074A0848A32122F0D5
:101CF000C7FD074B1980074B1A8008BD4C6C0120AB
:101D00004E6C0120575B0208BA5B0208125B0208A6
:101D1000526C0120546C0120034690F87A0018B1EF
:101D2000586803681B68184770470000012108B510
:101D30000022084607F028FA0A4B186028B90A4B17
:101D40000A4A28210A4822F09BFD00220421012092
:101D500007F0B9FA074B186018B9074B034A2C2152
:101D6000F0E708BD000C0020EC5C0208355D0208BD
:101D7000645D0208FC0B0020B15D0208024B4FF0CD
:101D8000FF31186807F04ABA000C0020014B1868B0
:101D900007F070BA000C0020024B0021186807F011
:101DA0003DBA00BF000C0020FFF7F0BF0348044914
:101DB000006800231A4607F0C1BA00BFFC0B0020E0
:101DC000E801002013B5084C00231A4601A9206839
:101DD00007F0E5FA20684FF0FF33002201A907F071
:101DE000DEFA02B010BD00BFFC0B002003685B6C84
:101DF00018470120704703689B6A1847FEE740F2C6
:101E0000EF307047054B0360054B4FF08062C3F81D
:101E10008820BFF34F8FBFF36F8F7047505F02086A
:101E200000E100E010B504464FF45A61FFF7EAFF05
:101E3000204621F0DFFD204610BD000082B00023C7
:101E400001930E4B1A6B42F400021A631A6B02F4F0
:101E500000020192019A1A6942F400021A611A6999
:101E600022F400021A61064B064A1A61064A5A61B8
:101E7000064B4FF080629A6002B070470038024013
:101E8000440B0020DD200008FD1D000800E100E0FB
:101E900008B50A2809D8DFE800F006100E0808087F
:101EA000081010101000022008BD054B054A064816
:101EB000902122F0E5FC0020F6E70120F4E700BFC6
:101EC000F35D02080E5E0208595E020838B50C4642
:101ED000887FFFF7DDFFA58AE28A164B21695863E8
:101EE00042EA05425A64628BD963521B1A64256820
:101EF000082D0ED19A611A615862207F0E4A42EA7B
:101F00000062DA61E2681A620C4A5961D9601A60AB
:101F100038BD0022D8611A61E1680A0A480902F452
:101F2000784200F4FC600243C1F3C4010A439A639F
:101F3000034AECE700B0024009000100012302005F
:101F40000123030008B50B280BD8DFE800F00612C8
:101F5000100A0A0A0A0808080808022008BD052015
:101F6000FCE7054B054A06486F2122F089FC00205A
:101F7000F4E70120F2E700BFF35D0208A45E020867
:101F8000595E02082DE9F04191F81D800C4640464B
:101F9000FFF7D8FFA77F05463846FFF7D3FF064671
:101FA0003846FFF775FFA18A628B444B521A1A64B8
:101FB0009A61228B521A1A61E28A586342EA0142FC
:101FC0005A6421696268D963DA602068802828D061
:101FD000227F0FD8202867D0402865D004281AD047
:101FE000364B45EA026545F40035B845DD6161D000
:101FF000334A44E0B0F5807F04D0B0F5007FEFD1E4
:10200000304800E0304840EA0262DA61E2681A6271
:102010005E62596132E045EA026242F40032DA61FE
:10202000F6E7A068021DDA62227F45EA026545F400
:102030000035DD615E625961017841B1012921D02D
:10204000224B234A23484FF48D7122F019FCDA69A0
:10205000418822F47F42013922F0100242EA012233
:10206000DA610121154BDA6942F02002DA61DA699E
:102070009206FCD410229A600029B9D0164A1A6040
:10208000BDE8F081B2F1FF01DA69408822F47F42B5
:1020900000F1FF3022F0100242EA002242F010026A
:1020A00018BF0121DA61DDE745EA0262034B42F421
:1020B0000032B4E742F20132E1E700BF00B0024073
:1020C00001230100090002000A000200EE5E02087E
:1020D000085F0208595E020801230200024B1B68D8
:1020E000586803685B691847586C012070B504464E
:1020F00025460A4B0C30002660602672667245F851
:10210000203B602229460AF079FA04F55A63EE6012
:1021100024359D42FBD1204670BD00BF505F0208B0
:10212000034B1A68D207FCD423229A60704700BF81
:1021300000B002407047000030B50F4C2568ED0735
:10214000FCD423250904A56041F001010225FF2BE1
:1021500065636164E0630AD00849656241EA03632C
:10216000E361074B22626061E060236030BDE5619E
:10217000039BA363034BF8E700B002400900010092
:10218000010002000100030030B50E4C2568ED0788
:10219000FCD423251204A56042F001020225FF2B86
:1021A00065636264E063E16008D01B0643F00213DC
:1021B000E361054B65626061236030BD034BE36101
:1021C0000123F9E700B0024001000200020002FF13
:1021D00030B50B4C2568ED07FCD4232512041B06F3
:1021E000A56043F40033022542F001026563626496
:1021F000E063E160E361034B65626061236030BDD1
:1022000000B0024001000200012070470C2070471E
:102210000C2303FB0100083070470C2303FB010073
:10222000083070470120704743F65870704743F6F6
:10223000587303FB01000830704743F6587303FBE3
:10224000010008307047012070471020704700EBF4
:1022500001100830704700EB011008307047084645
:1022600000F040BE10B5034B0360044608F0F5FFD4
:10227000204610BD0860020810B50446FFF7F2FFC3
:102280002046142121F0B6FB204610BD10B5034BAB
:102290000360044608F0E1FF204610BDD45F020849
:1022A00010B50446FFF7F2FF204643F6607121F0B7
:1022B000A1FB204610BD000010B5034B036004468F
:1022C00008F0CBFF204610BDA05F020810B5044601
:1022D000FFF7F2FF2046182121F08CFB204610BDAD
:1022E00010B5094B0360044600F57E500C30FFF733
:1022F000B9FF04F12C00FFF7C9FF04F11400FFF748
:10230000DBFF204610BD00BF3C60020808B5024854
:10231000FFF7E6FF08BD00BFDC1A002010B5044639
:10232000FFF7DEFF20464FF4824121F063FB204699
:1023300010BD00002DE9F34100F0E8FA054600F079
:10234000E9FA00240146234628462246009412F06A
:102350009FFA274B274A1A60204603F0F5FA264DCC
:10236000264B274A27489A6012F0FAF92B68BFF3E8
:102370005B8FDB0736D4284621F03EFB90B3224C1E
:10238000224F234B236007F1180604F1140004F1D7
:102390002C086060C4F80880E760266108F05EFFE2
:1023A0001C4B6361404608F059FF1B4BE362384603
:1023B00008F054FF04F5405303F57A60174AC3F858
:1023C0008C2F03F0C7FF224607F11401304603F0BB
:1023D0006FFB304600F086FD114822F06FFA284668
:1023E00021F016FB0F4802B0BDE8F041FFF7E4BB57
:1023F000BC6C0120880C0020D81A0020A80C0020FA
:102400008C0C0020EC010020DC1A0020685A00200F
:102410003C600208A05F0208D45F0208086002085E
:102420000D230008040C0020704700000148FFF74E
:10243000D1BB00BF040C002070B5264E264C274DA2
:10244000274B23603046FFF751FE284617F026FB46
:10245000244810F0A9FA244B2448DC6000224FF4F1
:102460008071C3E9121222491A86C3E91A1221495E
:1024700083F85820C3E91E011F49C3F880101F4983
:102480001F480B60F021C3E90422C3E90622C3E917
:102490000822C3E90A22C3E90E22C3E91022C3E9D4
:1024A0001422C3E917225A6683F870205A67C3E9D9
:1024B000016501801348018013484FF4A071018029
:1024C0001248018012490A70012283F83420114A0F
:1024D0001A6070BD340D0020D41A0020A80C002012
:1024E0007C5A02088C0C0020040C00200000010122
:1024F00001000001000450001A001400586C012073
:102500004C6C0120526C01204E6C0120546C012057
:10251000506C0120085C02080148FFF773BC00BF43
:10252000340D00200020704781807047C1807047C3
:10253000018170474181704770477047704770470D
:10254000704710B4C4880368121B84885B6D091B34
:1025500012B25DF8044B09B218474FF6FF7383813E
:102560004FF0FF3303621368C361106070470020AF
:1025700070478B88838001207047704780F8261051
:10258000704790F82600704710B50022B1F9084056
:10259000B1F90A10028042808480C18010BD0022FF
:1025A000028042808280C28070470177704780ED50
:1025B000080A704780F82410704780F8251070478B
:1025C00001207047983070478C30704784307047D6
:1025D00070470000034B902283F85A2383F8582356
:1025E000704700BF00E100E0094A0A49D3680A4881
:1025F000C3F30A03013B9BB20B801169C1F30A01CB
:10260000013901801364536B43F001035363704736
:1026100000680140DE5B0020DC5B0020014BD3F84A
:10262000AC00704700680140024B0122C3F8AC10B7
:102630005A627047006801407047704710B52C21FE
:10264000044621F0D7F9204610BD10B5BC21044640
:1026500021F0D0F9204610BD70B5044609F0FBF812
:1026600023689D6E0EF038FF01462046A847236878
:10267000054AD3F88C502046AC460023BDE8704094
:10268000A2F51631604700BF00B004D009F0CAB807
:1026900009F0D4B809F090B809F0FFB990F82520F6
:1026A00012B103685B691847704790F825201AB18A
:1026B00090F8242002B1186070470000034B4FF0DF
:1026C00080629A604FF080729A60704700E100E08B
:1026D000084B4FF08062C3F88820BFF34F8FBFF3E1
:1026E0006F8F4FF08072C3F88820BFF34F8FBFF316
:1026F0006F8F704700E100E070B50023124E8380B9
:10270000124B0360336893F8582005460AB1D86C21
:1027100000B998680368DB6A98473368B0FA80F4B8
:10272000D86C640930B10368DB6A9847002808BF99
:1027300044F001042CB9064B064A07482C2122F02C
:102740009FF8284670BD00BF586C01204C610208FC
:1027500048600208A6600208DF60020870B5254ED6
:102760003568BFF35B8F15F0010540D1304621F08D
:1027700043F900283BD0204C204B256104F1340064
:10278000C4E90035C4E90255E584A562A58510F0C9
:10279000F0FB04F158000BF0E7FB194BA365204652
:1027A000184B40F8843BFFF7A7FF174BC4F8843061
:1027B0002433C4F88C304FF4C803C4E9283500230F
:1027C000C4F8AC30C4F8B030C4F8B430C4F8B83091
:1027D0000E480F4BC4F89050C4F89C50C4F8A85051
:1027E000C4F8983022F06AF8304621F011F9024816
:1027F00070BD00BFE05B0020E45B0020D07E0208DB
:102800006C610208E4610208847E0208D125000898
:10281000647E020838B5184C23685BB3174B184A1E
:102820001B6C11888B4216D1164B198805F01EFAC5
:10283000236893F86A200025013283F86A2083F820
:102840007C50FFF7B3FA206809F082FD2846BDE806
:102850003840FFF7F3B805F009FA246823682046EA
:102860001B6A9847012384F87C300020BDE838407B
:10287000FFF70EB938BD00BF586C01200068014059
:10288000DE5B0020DC5B0020704708B50A2933D8E6
:10289000DFE801F0060A0E12161A1E22262A2E0062
:1028A00003F09EF8006808BD03F09AF84068FAE764
:1028B00003F096F88068F6E703F092F8C068F2E754
:1028C00003F08EF80069EEE703F08AF84069EAE762
:1028D00003F086F88069E6E703F082F8C069E2E772
:1028E00003F07EF8006ADEE703F07AF8406ADAE780
:1028F00003F076F8806AD6E70020D4E710B504210B
:10290000044621F077F8204610BD000000487047CB
:102910003C6202080620704713B5002451B10368D9
:1029200001948DF8034001AA9C680DF10303A047B0
:1029300002B010BD0846FBE7C0897047008A7047A7
:10294000C088704780887047807A00F07F007047A9
:10295000807AC00970470020704700009FED010A8F
:10296000704700BF00000000806A7047704730B5B4
:102970000368018185B06D460146D3F88430044672
:102980002846984795E807003C3484E8070005B0DE
:1029900030BD30B50368418185B06D460146D3F83E
:1029A000843004462846984795E807003C3484E87C
:1029B000070005B030BD0022028042808280C280C4
:1029C000704780F83610704770B5036804461B6B7B
:1029D000154698472368294620465B6EBDE870403F
:1029E000184700207047806C7047704770477047E9
:1029F00010B50821044620F0FDFF204610BD10B59B
:102A00004C21044620F0F6FF204610BD10B54FF4CF
:102A1000EE71044620F0EEFF204610BD08B5FFF72A
:102A20003DFE08BD036870B55E6B124B1B68044623
:102A30008DB22BB9104B114A6C21114821F020FFA7
:102A40001049828D0988914203D80F4B0B4A6D21A2
:102A5000F3E713F812200D4B1B6853F822000368AC
:102A60001B6B9847291A3346204609B2BDE87040CF
:102A7000184700BFB06C0120B4620208F662020879
:102A800031630208B46C012078630208B86C01203D
:102A900000224FF0FF31C0E9002182607047000042
:102AA000074A02600022C0E90122C0E90322C0E90E
:102AB0000522C0E907224FF480728284704700BF6C
:102AC0003882020870B5036804461B6B15469847A8
:102AD0002368294620465B6BBDE87040184770B5F7
:102AE00004461D46BDF91060FFF7ECFF2368294638
:102AF00020469B6B9847236831462046DB6BBDE838
:102B00007040184710B526220446002122F02BF908
:102B10002046FFF7C5FF044B2360FF2384F82630CF
:102B20000023A362204610BD2480020810B526228F
:102B30000446002122F017F92046FFF7B1FF0A4BA7
:102B400023600A4BA3624FF6FF73A3854FF47F0205
:102B50000023C4E90C3223874FF0FF32C4E910236D
:102B6000E363204610BD00BF947F0208C0630208E3
:102B70002DE9F04F04468BB025460026FFF790FF65
:102B80007C4BA66245F82C3B04F1580B2846FFF716
:102B9000B9FF04F1840A5846FFF7B4FF5046FFF727
:102BA000C5FF04F1CC0304F1F809184604F5A27836
:102BB0000393714FFFF7A6FF4846FFF7B7FFC4F82E
:102BC000F870C4F840614046FFF7B0FF04F5C873E1
:102BD000C4F84471C4F88C6118460293FFF7A6FF4D
:102BE000664BA3606423C4F89071C4F8D861502286
:102BF000009331462846F023FFF771FF4FF07F47DF
:102C0000322384F8523029462046676508F038FBA5
:102C100050233246009331465846F023FFF75FFFBA
:102C2000574BC4F880305946204604AD08F028FBC5
:102C3000062250463921FFF745FF51462846C4F881
:102C4000B470A4F8B8600BF08DFA95E8070004F1B1
:102C5000C00383E80700DFF82CB1CDF820B00D23C6
:102C600008A95046ADF824300BF024FD514620460B
:102C700008F006FB1C230398009322221523402111
:102C8000FFF72DFF4FF0FF33C4F8F430C72384F86B
:102C9000F2300399204608F0F3FA282248464421EE
:102CA000FFF710FFD4F8F830C4F8287149462846D9
:102CB000D3F88430A4F82C61984795E8070004F510
:102CC0009A7383E807000C2308A94846ADF824301E
:102CD000CDF820B00BF0EEFC4946204608F0D0FAC3
:102CE000282240466E21FFF7EDFED4F84431C4F8A7
:102CF000747141462846D3F88430A4F87861984727
:102D000095E8070004F5C07383E807000B2308A9C2
:102D10004046ADF82430CDF820B00BF0CBFC414656
:102D2000204608F0ADFA029828229821FFF7CAFE43
:102D3000D4F890310299D3F88430C4F8C071284691
:102D4000A4F8C461984795E8070004F5E67383E8A2
:102D500007000A230298ADF8243008A9CDF820B066
:102D60000BF0A8FC2046029908F08AFA20460BB026
:102D7000BDE8F08F60640208D0630208F000B40080
:102D800017BDFEFFC06302087047704700F59873D7
:102D90000868496803C370477047704741607047CF
:102DA00070470000064BC0F84C310023C0F850318A
:102DB00000F5A273C0F84801C0F84031704700BF69
:102DC000493300080123037270477047704710B4FD
:102DD000C26841685410034601EB6200D20748BF45
:102DE0000A599B685DF8044B48BFD35818470346FF
:102DF000406830B19A681AB9D86800F0010070478D
:102E00000120704710B50C21044620F0F3FD204648
:102E100010BD10B51021044620F0ECFD204610BD79
:102E200010B54FF4AE71044620F0E4FD204610BD0D
:102E300010B50EF051FB0368BDE81040DB6B18477E
:102E400010B50446D0F8400158B10368DB689847D4
:102E500038B1D4F8400103689B6898470023C4F850
:102E6000403110BD044B1B6893F858200AB1D86C50
:102E700000B99868704700BF586C0120F8B5174634
:102E800004460E460EF0EAFB124B1C60124B236008
:102E9000124B0025C4E95135114BC4E9535518684C
:102EA000036801219B68C4E94F55C4E955769847EA
:102EB000284602F049FDFFF7D5FF18F098FCFFF710
:102EC000D1FF18F00FFDFFF7CDFF18F017FD2046DA
:102ED000F8BD00BFAC6C01209C6A0208846A02083D
:102EE000586C0120064BC0F84C310023C0F850311B
:102EF00000F5A273C0F84801C0F84031704700BF28
:102F000049330008064BC0F84C310023C0F850315B
:102F100000F5A273C0F84801C0F84031704700BF07
:102F2000FD310008064BC0F84C310023C0F8503189
:102F300000F5A273C0F84801C0F84031704700BFE7
:102F4000B5300008064BC0F84C310023C0F85031B2
:102F500000F5A273C0F84801C0F84031704700BFC7
:102F60006D2F000803685B6A184700002DE9F14FD8
:102F7000D0E9556A0746B06803681B6A9847B0F500
:102F8000277F05D2434B444AA321444821F078FCD3
:102F9000706803681B6A98470F2803D8404B3E4A65
:102FA000A421F2E7F06803681B6A98470B2803D84E
:102FB0003C4B394AA521E8E70EF08EFADFF8EC9099
:102FC00004300EF0AEFAD9F8000010B10368DB68E7
:102FD0009847D9F8000010B103681B689847DFF8DC
:102FE000D080D8F8000010B103685B699847D7F823
:102FF0003C0110B103685B689847D8F8000010B135
:1030000003681B689847D7F83C0110B103689B68B8
:103010009847F0680021FFF7A5FF4FF0000B224B07
:10302000C0F804B0044680F808B00360B0680368D4
:1030300059465B6A9847054603F01CF970680368B7
:1030400059465B6A98472946064603F0F1F8331D56
:10305000C7F83C61C9F80040C8F80050CAF8003011
:103060002B68C6F808A02846DB68EE6398473368EB
:1030700030461B6898472146284610F0DDFB236840
:1030800020461B69984723685B69204601B0BDE86C
:10309000F04F1847EC6402087A650208606602087F
:1030A000A76602084A670208F06A0208A06C0120BD
:1030B0009C6C01202DE9F14FD0E9556A0746B068B4
:1030C00003681B6A9847B0F5AA7F05D2434B444A70
:1030D000A321444821F0D4FB706803681B6A984719
:1030E0000F2803D8404B3E4AA421F2E7F06803685A
:1030F0001B6A98470B2803D83C4B394AA521E8E7BF
:103100000EF0EAF9DFF8EC9004300EF00AFAD9F884
:10311000000010B10368DB689847D9F8000010B1CF
:1031200003681B689847DFF8D080D8F8000010B11A
:1031300003685B699847D7F83C0110B103685B6886
:103140009847D8F8000010B103681B689847D7F873
:103150003C0110B103689B689847F0680021FFF7B5
:1031600001FF4FF0000B224BC0F804B0044680F87A
:1031700008B00360B068036859465B6A9847054623
:1031800003F03CF87068036859465B6A9847294623
:10319000064603F011F8331DC7F83C61C9F800403A
:1031A000C8F80050CAF800302B68C6F808A02846B6
:1031B000DB68EE639847336830461B6898472146C2
:1031C000284610F039FB236820461B69984723687E
:1031D0005B69204601B0BDE8F04F1847EC64020877
:1031E000ED67020860660208A76602084A670208DF
:1031F000F06A0208A06C01209C6C01202DE9F14FBF
:10320000D0E9556A0746B06803681B6A984743F6D9
:103210005773984205D8444B444AA321444821F0AF
:103220002FFB706803681B6A98470F2803D8414B2F
:103230003E4AA421F2E7F06803681B6A98470B280E
:1032400003D83D4B394AA521E8E70EF045F9DFF8F0
:10325000F09004300EF065F9D9F8000010B1036861
:10326000DB689847D9F8000010B103681B689847DD
:10327000DFF8D080D8F8000010B103685B69984788
:10328000D7F83C0110B103685B689847D8F8000094
:1032900010B103681B689847D7F83C0110B1036868
:1032A0009B689847F0680021FFF75CFE4FF0000B29
:1032B000224BC0F804B0044680F808B00360B06840
:1032C000036859465B6A9847054602F09FFC7068A0
:1032D000036859465B6A98472946064602F022FC75
:1032E000331DC7F83C61C9F80040C8F80050CAF85F
:1032F00000302B68C6F808A02846DB68EE639847C4
:10330000336830461B6898472146284610F094FAE7
:10331000236820461B69984723685B69204601B0F3
:10332000BDE8F04F184700BFEC640208CF68020800
:1033300060660208A76602084A670208F06A020887
:10334000A06C01209C6C01202DE9F14FD0E9556A59
:103350000746B06803681B6A9847B0F5C07F05D27E
:10336000434B444AA321444821F08AFA7068036819
:103370001B6A98470F2803D8404B3E4AA421F2E726
:10338000F06803681B6A98470B2803D83C4B394AFE
:10339000A521E8E70EF0A0F8DFF8EC9004300EF07D
:1033A000C0F8D9F8000010B10368DB689847D9F875
:1033B000000010B103681B689847DFF8D080D8F888
:1033C000000010B103685B699847D7F83C0110B161
:1033D00003685B689847D8F8000010B103681B6861
:1033E0009847D7F83C0110B103689B689847F0688C
:1033F0000021FFF7B7FD4FF0000B224BC0F804B0DF
:10340000044680F808B00360B068036859465B6AF8
:103410009847054602F070FF7068036859465B6A7A
:1034200098472946064602F03FFF331DC7F83C6126
:10343000C9F80040C8F80050CAF800302B68C6F838
:1034400008A02846DB68EE639847336830461B685F
:1034500098472146284610F0EFF9236820461B695B
:10346000984723685B69204601B0BDE8F04F1847D4
:10347000EC640208A769020860660208A7660208F1
:103480004A670208F06A0208A06C01209C6C0120C7
:103490007047704730B4C26844685510034604EB67
:1034A0006200D20748BF62599B6830BC48BFD358FE
:1034B00018470346406830B19A681AB9D86800F0D6
:1034C000010070470120704710B51021044620F01C
:1034D00091FA204610BD00F5157002F0D3BA38B548
:1034E00000F5BE73994204460D4603D10DF0F4FF7A
:1034F000FFF7F8FC04F5E2739D4204D123682046EF
:10350000D3F88C30984704F50374A54205D10DF02B
:10351000E3FFBDE83840FFF715BD38BD10B5064BD9
:103520000360064BC0F85432044600F51570FFF7EF
:103530005CFA204610BD00BF2C6B0208A075020883
:1035400010B50446FFF7EAFF20464FF4886120F0EB
:1035500051FA204610BD0000F8B5194B018F1B88A9
:103560008B4206462AD9174B1B682BB9164B174AB4
:1035700017486C2121F084F913F81120154B1B68B2
:1035800053F82250144B186802F01AFA2B680746B9
:103590009B6B284698472B6804469B6C3946284607
:1035A00098472B6814FB00F45B6A39462846984715
:1035B000A4B223181BB2A6F84630F8BD0023FAE7E0
:1035C000B46C0120B06C0120B4620208F6620208FB
:1035D00031630208B86C0120BC6C01202DE9F04F6A
:1035E00004468DB025460026FFF75AFAAE4BA66278
:1035F00045F82C3B31462622284621F0B4FB2846CC
:10360000FFF74EFAA94BE36204F1580AFF2304F1D5
:10361000A00984F8523066655046FFF787FA04F136
:10362000E8084846FFF782FA4046FFF77FFAA04BCA
:10363000C4F8E83004F59A73C4F830611846009372
:10364000FFF774FA04F5BE73184601930BF098FB6C
:1036500004F5E27304F5037B184602930BF090FB2C
:1036600058460BF08DFB04F515731846039302F0D2
:10367000FFF9904BC4F830348F4BC4F838348F4B7B
:10368000A360324631462846C4F83444C4F83C644A
:10369000FFF718FA2846F021FEF74AFF28464FF4B4
:1036A000A071FEF747FF4FF07F4363659B2384F8CB
:1036B00052302946204604AD07F0E2FD4FF0FF37B7
:1036C000102250460C21FFF7FDF951462846C4F858
:1036D0008870A4F88C600AF045FD95E8070004F1B5
:1036E000940383E80700764B0A930AA911235046F6
:1036F000ADF82C300AF0DEFF5146204607F0C0FD41
:10370000382248464E21FFF7DDF949462846C4F8DD
:10371000D070A4F8D4600AF025FD95E8070004F104
:10372000DC0383E80700664B0A930AA91023484686
:10373000ADF82C300AF0BEFF4946204607F0A0FD48
:10374000562240467521FFF7BDF94FF0FF23C4F81C
:103750001831D4F8E830A4F81C6141462846D3F863
:103760008430984795E8070004F5927383E80700D2
:10377000534B0A930AA90F234046ADF82C300AF0A8
:1037800099FF4146204607F07BFD009876221821DC
:10379000FFF798F90099C4F864712846A4F86861A5
:1037A0000AF0E0FC95E8070004F5B87383E8070029
:1037B000434B00980A930AA90E23ADF82C300AF067
:1037C00079FF009984F85961204607F059FD019866
:1037D00040F215124621FFF775F903250AAA09A937
:1037E0000198ADF82450ADF828500AF0C0FF092325
:1037F0000198A4F8B431FFF7AFFE04F586684FF0E6
:103800007F43C4E96E370199C4F8A481204607F0CC
:1038100037FD0298EB220C21FFF754F90AAA09A9F7
:103820000298ADF82450ADF828500AF0A0FF082304
:103830000298A4F8FC31FFF78FFE4FF07F43C4E9F4
:1038400080370299C4F8EC81204607F019FD5846EC
:10385000EB228121FFF736F90AAA09A95846ADF8EB
:103860002450ADF828500AF082FF0723A4F8443210
:103870005846FFF771FE4FF07F43C4E9923759462F
:103880002046C4F8348207F0FBFC03988B223146B3
:10389000FFF718F92046039984F8796207F0F0FCE5
:1038A00020460DB0BDE8F08F2C6B02082480020882
:1038B000D0630208146B0208DF340008F0004001F6
:1038C000C063020870477047704770477047704781
:1038D0007047704730B4C26844685510034604EB23
:1038E0006200D20748BF62599B6830BC48BFD358BA
:1038F00018470346406830B19A681AB9D86800F092
:10390000010070470120704790F82D3080F860303A
:10391000704710B56421044620F06CF8204610BDB5
:1039200010B51021044620F065F8204610BD014670
:10393000383091F82C3013B136310BF0DFB8343118
:10394000FBE710B5044600F5337002F032FD04F5D4
:10395000727002F0B8FD04F2C44002F010FE04F5EB
:10396000B86002F0DEFD04F2BC6002F036FE04F541
:10397000F76002F04CFD04F6B40002F076FD04F5A9
:103980001B6002F0E5FC04F53860BDE8104002F071
:10399000B9B810B50446006B50B10368DB689847AE
:1039A00030B1206B036821469B68BDE81040184782
:1039B00010BD00F1C4028A4202D10368DB6A1847D5
:1039C00070470B7970B590F82C6004460D460BB922
:1039D00016B170BD002EFCD0B3FA83F35B0984F8F6
:1039E0002C3023682046D3F88C3098472368204633
:1039F0005B699847002EECD02B79012BE9D1236825
:103A00002046D3F88830BDE870401847224B10B5E7
:103A10000360224BC0F8803B044600F53860FFF796
:103A20007DFD1F4BC4F8B03904F51B6000F04CFF5E
:103A30001C4BC4F8B43804F6B40001F071FC1A4B06
:103A4000C4F8B83704F5F76001F0E2FB174BC4F88F
:103A5000BC3604F2BC6001F07BFE154BC4F8C035E7
:103A600004F5B86001F068FD124BC4F8C43404F2E8
:103A7000C44001F0E7FD104BC4F8C83304F5727080
:103A800001F0D4FC0D4BC4F8CC3204F5337001F0D6
:103A900021FB204610BD00BFE46C020888760208B6
:103AA0009C780208607A0208CC790208B07C02088F
:103AB000887B02081C7C0208F47A02083879020824
:103AC00010B50446FFF7A2FF20464FF47D611FF0BA
:103AD00091FF204610BD0B882DE9F04183861388A5
:103AE000B0F90850C38604461046904610F0E4FE34
:103AF000B4F90A30074603EBD3734046C3F34F06CD
:103B000010F00EFF05EBD575C5F34F0500EBD07037
:103B100007EBD777A6EB6002A5EB670104F138004D
:103B200012B209B2FEF7CEFF23682046D3F88C30DC
:103B3000BDE8F041184700000022C0E90122C0E9B9
:103B40000322C0E90522C0E907224FF48072828473
:103B5000014A0260704700BFC46B02084FF47F4304
:103B600073B50546838540F2011300218384174B0A
:103B70008162C0E90111C0E90311C0E90511C0E982
:103B8000071145F8383B4FF0FF3304462622016306
:103B900043634FF6FF762846ADF8046021F0E3F862
:103BA0002846FFF7C9FF0A4BA363BDF80430A4F809
:103BB0005E3001A9284684F860600AF09FFF204625
:103BC000294607F05DFB204602B070BD2C6C020850
:103BD000F48002082DE9F04F044699B027460025ED
:103BE0000FF07EFCDE4BE56347F8403B3846FEF7BE
:103BF00089FF04F16C0304F19809184604F1C40824
:103C00000593FEF77FFF4846FEF77CFF4046FFF72F
:103C1000A5FF04F594731846D24E0293FEF786FF73
:103C200004F5BA73C4F82861C4F8705118460393B8
:103C3000FEF77CFF04F5DE7304F5017B184604F5FE
:103C4000147A0493FEF772FF5846FEF76FFFC4F82C
:103C50000462C4F84C525046FEF768FF04F5267320
:103C600018460693FEF74EFFBF4BC4F8983204F592
:103C70003373C4F8C452A4F8C8521846079302F02C
:103C800081FB04F572731846089302F005FC04F2F8
:103C9000C4431846099302F05BFC04F5B863184668
:103CA0000A9302F027FC04F2BC6318460B9302F05F
:103CB0007DFC04F5F76318460C9302F091FB04F6C3
:103CC000B40318460D9302F0B9FB04F51B631846C4
:103CD0000E9302F033FB04F5386318460F9301F09E
:103CE00007FFA24BC4F8C03FA14BC4F8C83F4FF434
:103CF000A0732A46C4F8C44FC4F8CC5F2946009389
:103D00003846F023261DFEF7EAFE4FF07F43A366F8
:103D10003946304607F0B4FA4FF4A0732A460598A6
:103D2000009329469623FEF7DAFE924B0599C4F8D4
:103D30009430304607F0A4FA4FF48C73009323229A
:103D400048468C230521FEF7CAFE8B4BC4F8C030D1
:103D50004946304607F094FA042716AA15A94046AA
:103D6000ADF85470ADF85870FFF7B5FE04F57C63FC
:103D7000C4F8F4301C233A46C4F80051404600937E
:103D80000521FEF7ACFE4146304607F079FA02986D
:103D9000DFF8E881FE22BE21FEF794FED4F8283138
:103DA0000299D3F88430A4F85C5110AF4FF0FF397A
:103DB0003846C4F85891984797E8070004F5B2735D
:103DC00083E8070016230298ADF85C3016A9CDF8F9
:103DD00058800AF06FFC0299304607F051FA0398B8
:103DE000E422A621FEF76EFE0399C4F8A49138469A
:103DF000A4F8A8510AF0B6F997E8070004F5D873BB
:103E000083E8070017230398ADF85C3016A9CDF8B6
:103E100058800AF04FFC0399304607F031FA152319
:103E200004980093992250239C21FEF758FE049990
:103E3000C4F8EC913846A4F8F0510AF093F997E8E9
:103E4000070004F5FC7383E8070021230498ADF80C
:103E50005C3016A9CDF858800AF02CFC0499304645
:103E600007F00EFA13230093B422584657239621E5
:103E7000FEF735FE4FF0FF23C4F83432D4F8043295
:103E8000A4F8385259463846D3F88430984797E812
:103E9000070004F5107383E80700202316A958468D
:103EA000ADF85C30CDF858800AF004FC5946304635
:103EB00007F0E6F928225046AA21FEF703FE5146F4
:103EC0003846C4F88092A4F884520AF04BF997E877
:103ED000070004F5237383E807001F2316A9504643
:103EE000ADF85C30CDF858800AF0E4FB514630461E
:103EF00007F0C6F94223069800933C22A321FEF75F
:103F0000EEFD4FF07F43C4F8C03203F57F03C4F8E1
:103F1000C4320323A4F8C8320699304607F0B0F93A
:103F200007984622A821FEF7CDFD079984F8F152A3
:103F3000304607F0A5F908984122A821FEF7C2FDF6
:103F4000089984F8ED53304607F09AF90998412210
:103F5000AF21FEF7B7FD099984F8E95430460FE028
:103F6000E46C0208D06302088C800208CC6C020862
:103F7000B3390008BB4446FF764446FFC0630208DD
:103F800007F07EF90A984122A121FEF79BFD0A99CC
:103F900084F8E555304607F073F90B984122AE21BD
:103FA000FEF790FD0B9984F8E156304607F068F96A
:103FB0000C984122AF21FEF785FD0C9984F8DD575E
:103FC000304607F05DF90D984122A121FEF77AFDF8
:103FD0000D9984F8D958304607F052F92A460E98C0
:103FE0002946FEF76FFD0E9984F8D559304607F043
:103FF00047F90F982A462946FEF764FD30460F9987
:1040000084F8A55B07F03CF9204619B0BDE8F08FB5
:10401000406A7047806A704770478A880B8810B57D
:10402000D20A4C88C1699BB251F8220043EA04438A
:10403000184410BD10B50446BAB1107B68B1537B6B
:10404000D27A1B0203F4E0631A43236A03EB820370
:104050001A888A4202D193F9020010BD05D80138AE
:1040600080B204330028F3D1F7E70020F5E710B55C
:104070002C2104461FF0BEFC204610BD30B58BB08D
:104080000446BDF860500895BDF85C5007959DF852
:10409000505006959DF84C5005959DF84850049554
:1040A0009DF8445003959DF8405002959DF83C5072
:1040B0000195BDF8385000950FF018F8064B2360B5
:1040C000159BE361169B2362199B63621A9BA36293
:1040D00020460BB030BD00BF1C6D02087047704712
:1040E000704730B4C26844685510034604EB620060
:1040F000D20748BF62599B6830BC48BFD3581847A5
:104100000346406830B19A681AB9D86800F00100D7
:1041100070470120704710B5102104461FF06AFC5B
:10412000204610BD10B54FF4AA7104461FF062FC82
:10413000204610BDFC30884208B505D10DF0CCF901
:10414000BDE80840FEF7DEBE08BD00002DE9F04FD7
:1041500004468BB026460FF0C3F900255B4BE563A0
:1041600046F8403B5A4B2566C4E910354FF480733E
:1041700004F16C08A4F86430FF2304F1B40784F858
:104180006630C4E91255C4E91455C4E91655A5664C
:104190004046FEF7CBFC04F1FC093846FEF7C6FCAE
:1041A00048460AF0EDFD4B4BC4E951344A4B2A46D0
:1041B000C4E9533529463046FEF784FC3046F021E9
:1041C000FEF7B6F930464FF4A071FEF7B3F904F1EB
:1041D000040A4FF07F43A3663146504602AE07F013
:1041E0004FF84FF0FF3B1D2240464121FEF76AFC8D
:1041F00041463046C4F89CB0A4F8A05009F0B2FF84
:1042000096E8070004F1A80383E80700334B0893FE
:1042100008A91A234046ADF824300AF04BFA41466B
:10422000504607F02DF84FF001084C22384609217E
:10423000FEF748FC39463046C4F8E4B0A4F8E880FC
:1042400009F090FF96E8070004F1F00383E8070007
:104250003946304684F8ED80019309F083FF96E8F3
:104260000700019B83E807001C4B0893192208A94B
:104270003846ADF824200AF01DFA3946504606F0BB
:10428000FFFF4846EA220D21FEF71CFC08AA07A9F9
:104290004846ADF81C80ADF820500AF068FA1823A3
:1042A000A4F834314846FFF757F94FF07F43C4E98B
:1042B0004E3B04F5A2735046C4F82431494606F03B
:1042C000DFFF20460BB0BDE8F08F00BF9C6D0208F9
:1042D00024800208846D020835410008C06302088A
:1042E000806C7047C06C704770477047704770476C
:1042F00030B4C26844685510034604EB6200D2072C
:1043000048BF62599B6830BC48BFD3581847034622
:10431000406830B19A681AB9D86800F00100704757
:104320000120704710B5502104461FF063FB204662
:1043300010BD10B5102104461FF05CFB204610BDD7
:1043400010B54FF4277104461FF054FB204610BDF2
:1043500000F51170884208B505D10DF0BDF8BDE833
:104360000840FEF7BFBD08BD10B50446FEF7DEFBF2
:10437000034B23600023C4E91233204610BD00BF65
:10438000D06D02082DE9F04F04468DB025460FF0A0
:10439000A7F84FF00009AA4AC4F83C9045F8402B12
:1043A000A84AC4F86090C4E910294FF4807204F15F
:1043B0006C0BA4F86420FF2284F8662004F1B40A90
:1043C000C4E91299C4E91499C4E91699C4F868902B
:1043D0005846FEF7ABFB5046FFF7C6FF04F5827365
:1043E00004F5AA7818460093FFF7BEFF4046FFF792
:1043F000BBFF04F5D27318460193FFF7B5FF04F530
:10440000FA7318460293FFF7AFFF04F511731846CD
:1044100003930AF0B5FC8C4AC4E9A3248B4A4946AD
:10442000C4E9A52928464A46FEF74CFB2846F02158
:10443000FEF77EF828464FF4A071FEF77BF8261DA4
:104440004FF07F43A3662946304606F019FF182235
:1044500058460D2104ADFEF735FB4FF0FF33C4F88D
:104460009C3059462846A4F8A09009F07BFE95E8B8
:10447000070004F1A80787E80700754F0A9706228E
:104480000AA95846ADF82C200AF014F959463046CE
:1044900006F0F6FE50463C226221FEF713FB6D4A01
:1044A000C4F8E420D4F8B420A4F8E8905146284693
:1044B000D2F88420904795E8070004F1F00C8CE8CE
:1044C000070005220AA95046ADF82C200A970AF0E9
:1044D000F1F85146304606F0D3FE00988C22622156
:1044E000FEF7F0FA5C4AC4F83421D4F804210099AC
:1044F000D2F88420A4F838912846904795E8070020
:1045000004F5A07C8CE8070004220098ADF82C206C
:104510000AA90A970AF0CEF80099304606F0B0FED4
:104520004046B4226221FEF7CDFA4C4AC4F88421F9
:10453000D4F85421A4F8889141462846D2F8842022
:10454000904795E8070004F5C87C8CE80700022234
:104550000AA94046ADF82C200A970AF0ABF841466C
:10456000304606F08DFE0198DD226221FEF7AAFAA0
:104570003B4AC4F8D421D4F8A4210199D2F884206C
:10458000A4F8D8912846904795E8070004F5F07CF8
:104590008CE807004FF0010801980A970AA9ADF8C6
:1045A0002C800AF087F80199304606F069FE0298DF
:1045B00064226221FEF786FA2A4AC4F82422D4F83B
:1045C000F4210299D2F88420A4F828922846904732
:1045D00095E8070004F50C7C8CE80700032202989C
:1045E000ADF82C200AA90A970AF064F8029930461F
:1045F00006F046FE03984FF485720D21FEF762FA2D
:104600000AAA09A90398ADF82480ADF828800AF019
:10461000AEF80398A4F87C92FEF79EFF4FF07F421D
:104620004FF0FF33C4E9A02304F523733046039908
:10463000C4F86C3206F024FE20460DB0BDE8F08FC1
:10464000786E020824800208606E02085143000858
:10465000C06302080100FFFF00C3FFFF376A01FFCC
:104660008A5100FF0668F7FF704770477047704730
:10467000704730B4C26844685510034604EB6200CA
:10468000D20748BF62599B6830BC48BFD35818470F
:104690000346406830B19A681AB9D86800F0010042
:1046A00070470120704710B5102104461FF0A2F991
:1046B000204610BD10B54FF4C07104461FF09AF9A2
:1046C000204610BD38B500F19803994204460D46C6
:1046D00002D10368DB6A984704F594739D4203D1C5
:1046E000236820461B6B9847E034A54205D10CF0A7
:1046F000F3FEBDE83840FEF725BC38BD2DE9F04F8C
:10470000044685B025460EF0EBFE0026684AE663B7
:1047100045F8402B674A2666C4E910264FF480719D
:10472000FF2204F16C0BA4F8641084F86620A4F84E
:1047300090104FF6FF726049A4F8922084F89420FC
:1047400004F19809E166584603A9C4E91266C4E970
:104750001466C4E91666C4E91C66C4E91E66C4E9A9
:104760002066C4E92266A666ADF80C2004F1E008D4
:104770000AF0C4F948460AF003FB04F59477404672
:104780000AF0FEFA38460AF0FBFA4C4AC4E95C2407
:104790004B4A3146C4E95E2628463246FEF792F976
:1047A0002846F021FDF7C4FE4FF07F4A28464FF41B
:1047B000A071FDF7BFFE2946201DC4F868A006F0D1
:1047C0005FFD324658464621FEF77CF9052203A9D3
:1047D0005846ADF80C200AF091F95946201D06F014
:1047E0004FFD4846CA220D21FEF76CF9012502A9AA
:1047F00003AA4846ADF80850ADF80C5009F0B7FFD1
:104800001522A4F8D0204846FEF7A6FE4FF0FF3B45
:1048100004F5B873C4F8C0304946201DC4F8D4A0CC
:10482000C4F8D8B0019306F02BFD40464FF48372D4
:104830000D21FEF747F902A903AA4046ADF808503A
:10484000ADF80C5009F093FF1422A4F8182140464B
:10485000FEF782FE019BC4F808314146201DC4E9E1
:1048600047AB06F00DFD38468E223321FEF72AF9BC
:10487000022202A9ADF80820ADF80C20384603AAA0
:1048800009F075FF1322A4F860213846FEF764FE94
:10489000019B84F84D61201DC4E959ABC4F8503127
:1048A000394606F0EDFC204605B0BDE8F08F00BFAC
:1048B000C46E020824800208F4800208AC6E02086C
:1048C000C54600087047704770477047704730B45E
:1048D000C26844685510034604EB6200D20748BF23
:1048E00062599B6830BC48BFD3581847034640689C
:1048F00030B19A681AB9D86800F0010070470120F9
:10490000704710B5102104461FF074F8204610BD02
:1049100010B54FF4E87104461FF06CF8204610BD46
:1049200038B500F1A003994204460D4603D103684F
:10493000D3F88C30984704F5BC739D4204D12368AA
:104940002046D3F89030984704F1E8039D4203D104
:104950000CF0C2FDFEF7E6FA04F59874A54205D105
:104960000CF0BAFDBDE83840FEF7BCBA38BD000017
:104970002DE9F04F04468BB025460027FEF790F84E
:10498000814AA76245F82C2B26263246394628460E
:1049900020F0E9F92846FEF783F87C4AE26204F148
:1049A0005803FF22394684F852206765324618467C
:1049B000009320F0D8F90098FEF772F8744AA265C7
:1049C0004FF6FF72734BA4F884204FF0FF3604F1CA
:1049D000A00B4FF47F02C4F8803004F1E80AC4F859
:1049E0008C20C4E92667C4F88870A4F89070C4F8D5
:1049F000947058460AF0C4F904F5987950460AF0C4
:104A0000BFF948460AF0BCF904F5BC7210460192A1
:104A10000AF0B6F9604AC4E97024604AC4E9722712
:104A20005F4AA26039463A462846FEF74BF82846C8
:104A3000F021FDF77DFD28464FF4A071FDF77AFDCA
:104A40004FF07F488C2284F8522029462046C4F833
:104A5000548006F015FC02AD009817223F21FEF7A6
:104A600031F80099A4F88C702846C4F8886009F0E1
:104A700079FB95E8070004F1940383E80700454BB0
:104A80000098089308A91E23ADF8243009F012FEFF
:104A90000099204606F0F4FB58465D220D21FEF7F2
:104AA00011F8012708AA07A95846ADF81C70ADF8FF
:104AB000207009F05CFE1D23A4F8D83004F5E075E1
:104AC0005846FEF749FD59462046C4E93786C4F8E2
:104AD000C85006F0D5FB50464FF485720D21FDF706
:104AE000F1FF08AA07A95046ADF81C70ADF8207078
:104AF00009F03DFE1C23A4F820315046FEF72CFDA2
:104B000051462046C4E94986C4F8105106F0B8FB66
:104B10004846C2220D21FDF7D5FF08AA07A948463D
:104B2000ADF81C70ADF8207009F021FE1223A4F836
:104B300068314846FEF710FD49462046C4E95B86C9
:104B4000C4F8585106F09CFB01988E220D21FDF708
:104B5000B9FF08AA07A90198ADF81C70ADF820703C
:104B600009F005FE1B230198A4F8B031FEF7F4FC10
:104B70002046C4E96D860199C4F8A05106F080FB77
:104B800020460BB0BDE8F08F186F020824800208A1
:104B9000947F0208C0630208006F020821490008E0
:104BA000F00040017047000030B5164D2C68BFF38F
:104BB0005B8F14F001048FB020D128461EF01CFF3B
:104BC000E0B13F230993104B0893104B1049114853
:104BD0000A940122CDE906430423CDE903320E23D2
:104BE0000093CDE90B44CDE901440594FFF746FA63
:104BF00009481FF063FE28461EF00AFF05480FB063
:104C000030BD00BFA05C002094B70208D0B70208F6
:104C1000BCB00208A45C0020A54B0008704700004F
:104C200030B5164D2C68BFF35B8F14F001048FB0C4
:104C300021D128461EF0E0FEE8B13F230993104B36
:104C40000893104B104911480A94CDE906430122FC
:104C50000423CDE90332CDE901340C2300931A2259
:104C6000CDE90B440594FFF709FA09481FF026FE29
:104C700028461EF0CDFE05480FB030BDD05C0020A8
:104C800098B70208D4B70208CCB00208D45C002060
:104C90001D4C00087047000030B5164D2C68BFF35E
:104CA0005B8F14F001048FB021D128461EF0A4FEC2
:104CB000E8B13F230993104B0893104B104911485A
:104CC0000A94CDE9064301220423CDE903321123DE
:104CD0000622CDE90032CDE90B4405940294FFF79A
:104CE000CDF909481FF0EAFD28461EF091FE05485F
:104CF0000FB030BD005D00209CB70208D8B7020895
:104D000038B20208045D0020954C0008704700008E
:104D100030B5174D2C68BFF35B8F14F001048FB0D2
:104D200022D128461EF068FEF0B13F230993114BB3
:104D30000893114B11480A94CDE90643012204233C
:104D4000CDE9033207211423CDE9003110220C49AB
:104D50000594CDE90B440294FFF790F909481FF040
:104D6000ADFD28461EF054FE04480FB030BD00BF14
:104D7000305D0020A0B70208DCB70208345D0020D7
:104D80008CB202080D4D00087047000030B5164D7A
:104D90002C68BFF35B8F14F001048FB021D128463B
:104DA0001EF02AFEE8B13F230993104B0893104BE5
:104DB000104911480A94CDE9064301220423CDE9A4
:104DC000033219230922CDE90032CDE90B440594C1
:104DD0000294FFF753F909481FF070FD28461EF0B2
:104DE00017FE05480FB030BD605D0020A4B7020873
:104DF000E0B702086CB30208645D0020894D00082A
:104E00007047000030B5164D2C68BFF35B8F14F06F
:104E100001048FB021D128461EF0EEFDE8B13F23FA
:104E20000993104B0893104B104911480A94CDE98F
:104E3000064301220423CDE90332CDE901340823DE
:104E400000930F22CDE90B440594FFF717F90948A9
:104E50001FF034FD28461EF0DBFD05480FB030BDC5
:104E6000905D0020A8B70208E4B70208ECB302087E
:104E7000945D0020014E00087047000030B5164DCB
:104E80002C68BFF35B8F14F001048FB021D128464A
:104E90001EF0B2FDE8B13F230993104B0893104B6D
:104EA000104911480A94CDE9064301220423CDE9B3
:104EB0000332142300930322CDE90B44CDE90144CE
:104EC0000594FFF7DBF809481FF0F8FC28461EF0B0
:104ED0009FFD05480FB030BDC05D0020ACB7020893
:104EE000E8B70208C0B40208C45D0020794E00088B
:104EF0007047000030B5174D2C68BFF35B8F14F07E
:104F000001048FB022D128461EF076FDF0B13F2378
:104F10000993114B0893114B07930123CDE90543E6
:104F200004930423CDE902430A230D4900932D2263
:104F30000C23CDE90B440B480A940194FFF79EF82B
:104F400009481FF0BBFC28461EF062FD05480FB063
:104F500030BD00BFF05D0020B0B70208ECB702081A
:104F6000ECB40208F45D0020F14E00087047000028
:104F700030B5164D2C68BFF35B8F14F001048FB071
:104F800020D128461EF038FDE0B13F230993104B95
:104F90000893104B104911480A940122CDE90643A9
:104FA0000423CDE903320F230093CDE90B44CDE96F
:104FB00001440594FFF762F809481FF07FFC28467A
:104FC0001EF026FD05480FB030BD00BF205E00205A
:104FD000C4B70208F0B7020864B70208245E0020D4
:104FE0006D4F00087047000030B5164D2C68BFF3B8
:104FF0005B8F14F001048FB020D128461EF0FCFC1A
:10500000E0B13F230993104B0893104B104911480E
:105010000A940122CDE906430423CDE90332142387
:105020000093CDE90B44CDE901440594FFF726F840
:1050300009481FF043FC28461EF0EAFC05480FB063
:1050400030BD00BF505E0020C8B70208F4B70208A8
:1050500074B70208545E0020E54F00087047000056
:1050600030B5164D2C68BFF35B8F14F001048FB080
:1050700020D128461EF0C0FCE0B13F230993104B1D
:105080000893104B104911480A940122CDE90643B8
:105090000423CDE9033228230093CDE90B44CDE965
:1050A00001440594FEF7EAFF09481FF007FC284673
:1050B0001EF0AEFC05480FB030BD00BF805E002082
:1050C000CCB70208F8B7020884B70208845E002053
:1050D0005D5000087047704710B5FC2104461EF073
:1050E00089FC204610BD00004FF480718184FF21AF
:1050F000002280F8261007498262C0E90122C0E937
:105100000322C0E90522C0E907220160C2620286CB
:10511000704700BF8C8002082DE9F04F4FF4807378
:10512000054600268384374B8662C0E90166C0E9E4
:105130000366C0E90566C0E9076645F82C3B0446EE
:1051400085B004F1600B2846FFF7CEFF04F1940A06
:105150005846FFF7C9FF5046FFF7C6FF04F1C803E2
:1051600018464FF00E09DFF8A480274F0393FFF78E
:10517000BBFF4FF03813A3604A464B4631462846E2
:105180000226CDF80090FDF7AAFC29462046C4E986
:105190001587A4F85C6006F073F84B464A4649460A
:1051A0005846CDF80090FDF79AFC59462046C4E9D0
:1051B0002287A4F8906006F063F84B464A465046B2
:1051C000CDF800901C21FDF78AFC51462046C4E929
:1051D0002F87A4F8C46006F053F80398CDF8009028
:1051E0004B464A462A21FDF77AFC2046C4E93C8713
:1051F0000399A4F8F86006F043F8204605B0BDE82E
:10520000F08F00BFB46F0208E4D79FFFD8C853FFE8
:105210007047704710B5FC2104461EF0EBFB20469A
:1052200010BD00002DE9F04F4FF4807306460025B5
:105230008384384B8562C0E90155C0E90355C0E954
:105240000555C0E9075546F82C3B044685B004F1E6
:10525000600B3046FFF748FF5846FFF745FF04F163
:10526000940318460293FFF73FFF04F1C803184662
:105270004FF00E0ADFF8A090DFF8A0800393FFF74D
:1052800033FF4FF038130227A36052465346294696
:105290003046CDF800A0FDF722FC31462046C4E997
:1052A0001598A4F85C7005F0EBFF53461C222946C4
:1052B0005846CDF800A0FDF712FC59462046C4E937
:1052C0002298A4F8907005F0DBFF53460298CDF8C1
:1052D00000A01C225146FDF702FC0299A4F8C470FC
:1052E0002046C4E92F9805F0CBFF1C2211460398F5
:1052F000CDF800A05346FDF7F2FB2046C4E93C98E8
:105300000399A4F8F87005F0BBFF204605B0BDE88E
:10531000F08F00BF48700208A55520FFA75F2FFF40
:105320007047704710B5FC2104461EF063FB204611
:1053300010BD00002DE9F04F002305464FF48072A8
:10534000C0E90133C0E90333C0E90533C0E90733DD
:105350008362334B828445F82C3B044685B004F1CC
:10536000600B2846FFF7C0FE04F1940A5846FFF789
:10537000BBFE5046FFF7B8FE04F1C80318464FF0D5
:105380000E09DFF8A480274F0393FFF7ADFE4FF01F
:1053900038130226A3601C224B4649462846CDF806
:1053A0000090FDF79CFB29462046C4E91587A4F828
:1053B0005C6005F065FF1C224B4611465846CDF84F
:1053C0000090FDF78CFB59462046C4E92287A4F8DB
:1053D000906005F055FF4B461C225046CDF80090DA
:1053E0002A21FDF77CFB51462046C4E92F87A4F80B
:1053F000C46005F045FF0398CDF800904B464A463F
:105400002A21FDF76CFB2046C4E93C870399A4F8E8
:10541000F86005F035FF204605B0BDE8F08F00BF0D
:10542000DC7002083095FCFF3374F4FF704770475E
:1054300010B5FC2104461EF0DDFA204610BD000028
:105440002DE9F04F002305464FF48072C0E9013387
:10545000C0E90333C0E90533C0E907338362334B46
:10546000828445F82C3B044685B004F1600B284645
:10547000FFF73AFE04F1940A5846FFF735FE50460E
:10548000FFF732FE04F1C80318464FF00E09DFF8AB
:10549000A480274F0393FFF727FE4FF0381302260F
:1054A000A3604A464B4649462846CDF80090FDF792
:1054B00016FB29462046C4E91587A4F85C6005F070
:1054C000DFFE4B461C2249465846CDF80090FDF7BA
:1054D00006FB59462046C4E92287A4F8906005F0EF
:1054E000CFFE1C224B4611465046CDF80090FDF7EA
:1054F000F6FA51462046C4E92F87A4F8C46005F0A7
:10550000BFFE0398CDF800904B464A461C21FDF79C
:10551000E6FA2046C4E93C870399A4F8F86005F050
:10552000AFFE204605B0BDE8F08F00BF70710208E5
:1055300057D5DBFF21E9EFFF7047704710B5FC211D
:1055400004461EF057FA204610BD00002DE9F04F2A
:10555000002305464FF48072C0E90133C0E90333EC
:10556000C0E90533C0E907338362334B828445F8D1
:105570002C3B044685B004F1600B2846FFF7B4FDD0
:1055800004F1940A5846FFF7AFFD5046FFF7ACFD13
:1055900004F1C80318464FF00E09DFF8A480274F26
:1055A0000393FFF7A1FD4FF038130226A3601C22DE
:1055B0004B4649462846CDF80090FDF790FA29461B
:1055C0002046C4E91587A4F85C6005F059FE1C224A
:1055D0004B4611465846CDF80090FDF780FA5946E3
:1055E0002046C4E92287A4F8906005F049FE4B46A6
:1055F0004A465046CDF800901C21FDF770FA5146FE
:105600002046C4E92F87A4F8C46005F039FE03984A
:10561000CDF800904B464A462A21FDF760FA204615
:10562000C4E93C870399A4F8F86005F029FE2046F8
:1056300005B0BDE8F08F00BF047202081C17DCFF44
:105640002E33EEFF7047704710B5FC2104461EF064
:10565000D1F9204610BD00002DE9F04F4FF48073C2
:10566000054600268384374B8662C0E90166C0E99F
:105670000366C0E90566C0E9076645F82C3B0446A9
:1056800085B004F1600B2846FFF72EFD04F1940A63
:105690005846FFF729FD5046FFF726FD04F1C803E1
:1056A00018464FF00E09DFF8A480274F0393FFF749
:1056B0001BFD4FF03813A3604A464B46314628463F
:1056C0000226CDF80090FDF70AFA29462046C4E9E3
:1056D0001587A4F85C6005F0D3FD4B464A46494661
:1056E0005846CDF80090FDF7FAF959462046C4E92E
:1056F0002287A4F8906005F0C3FD4B464A46504609
:10570000CDF800901C21FDF7EAF951462046C4E986
:105710002F87A4F8C46005F0B3FD0398CDF800907E
:105720004B461C224946FDF7DAF92046C4E93C877E
:105730000399A4F8F86005F0A3FD204605B0BDE884
:10574000F08F00BF98720208956BCCFF9438A7FFCA
:105750007047704710B5FC2104461EF04BF92046F7
:1057600010BD00002DE9F04F4FF480730546002670
:105770008384374B8662C0E90166C0E90366C0E9ED
:105780000566C0E9076645F82C3B044685B004F180
:10579000600B2846FFF7A8FC04F1940A5846FFF76F
:1057A000A3FC5046FFF7A0FC04F1C80318464FF0D5
:1057B0000E09DFF8A480274F0393FFF795FC4FF005
:1057C0003813A3604A464B46314628460226CDF898
:1057D0000090FDF784F929462046C4E91587A4F80E
:1057E0005C6005F04DFD4B464A4649465846CDF8AB
:1057F0000090FDF774F959462046C4E92287A4F8C1
:10580000906005F03DFD4B461C2249465046CDF8C0
:105810000090FDF764F951462046C4E92F87A4F8AB
:10582000C46005F02DFD1C2211460398CDF80090B0
:105830004B46FDF754F92046C4E93C870399A4F888
:10584000F86005F01DFD204605B0BDE8F08F00BFF3
:105850002C73020873C87DFF46BC63FF00207047AD
:10586000002070470EB403B503AB002153F8042B9E
:1058700001930CF0B9FE02B05DF804EB03B0704781
:105880000CB407B504AB53F8042B01930CF0ACFE39
:1058900003B05DF804EB02B070470000436C10B534
:1058A000044673B3038F2BB9184B194AC521194805
:1058B0001EF0E6FFC38E00EB43035B8C0BB30EF0D0
:1058C00014FD238F012B03D8134B144ACB21EEE791
:1058D000E28E531C9BB2092B194688BFA3F10A0123
:1058E00004EB410140F63F10498C814209D10A2B5B
:1058F00004EB420228BF002304EB4303508C58847E
:1059000051842046BDE810400EF0F2BBB873020887
:10591000C17302086C740208B6740208C4740208E9
:105920000EF0ADBB10B586B002AC84E806001A4696
:105930000AAB05930193099B00932146089B0BF04A
:1059400069F906B010BD000038B518BB124B1348FA
:105950001C681349B4B12268224402606268224480
:105960000A60A26814440F4B00221A8000F038F835
:10597000054600F033F80C4B1C600C4B1D600C4BC3
:10598000188007E00B4B03600B4B0B600B4B1C6844
:10599000002CE8D138BD00BFBC5E0020B45E002002
:1059A000B05E0020B85E0020B06C0120B86C012011
:1059B000B46C012084B80208FCB7020894BB02084A
:1059C000044B1B6853F82100034B1B6803EB40009A
:1059D000704700BFB05E0020B45E002022207047F8
:1059E00000487047C05E002010B5FFF7FDFA104C6C
:1059F0002060FFF735FB6060FFF7BAFAA060FFF7A1
:105A00000FF9E060FFF784F92061FFF7CDF86061DE
:105A1000FFF770FAA061FFF7B9F9E061FFF73CF911
:105A20002062FFF7EFF96062FFF728FAA06210BD6D
:105A3000C05E002010B5002404600C6014601C607F
:105A400010BD000010B5034B03600446FCF7CDFF0A
:105A5000204610BDA075020810B50446FFF7F2FFFE
:105A600020464FF4EE711DF0C5FF204610BD00002A
:105A700010B50446FDF77CF8014B2360204610BDAD
:105A8000A0750208FCF7B2BF704710B54FF4AE71B5
:105A900004461DF0AFFF204610BD10B50446D0F8F7
:105AA000580100F05AFC2046BDE810400BF096BDAE
:105AB00010B50446FDF7E2F9014B2360204610BD06
:105AC0003476020810B5034B03600446FDF726FD4B
:105AD000204610BD8876020810B50446FFF7F2FF95
