:020000040800F2
:100000000000032021060008BD190008BF190008E0
:10001000C1190008C3190008C51900080000000034
:10002000000000000000000000000000219E000809
:10003000C719000800000000B19E00082D970008B5
:1000400071060008710600087106000871060008B4
:1000500071060008710600087106000871060008A4
:100060007106000871060008710600087106000894
:100070007106000871060008710600087106000884
:100080007106000871060008710600087106000874
:100090007106000871060008710600087106000864
:1000A0007106000871060008710600087106000854
:1000B0007106000871060008710600087106000844
:1000C0007106000871060008710600087106000834
:1000D0007106000871060008710600087106000824
:1000E0007106000871060008710600087106000814
:1000F0007106000871060008710600087106000804
:1001000071060008710600087106000871060008F3
:100110007106000871060008C91900087106000878
:1001200071060008710600087106000871060008D3
:1001300071060008710600087106000871060008C3
:1001400071060008710600087106000871060008B3
:1001500071060008710600087106000871060008A3
:100160007106000871060008710600087106000893
:100170007106000871060008710600080000000002
:100180007106000871060008710600087106000873
:100190007106000871060008710600087106000863
:0C01A000D519000871060008E1190008DC
:1001B00010B5054C237833B9044B13B10448AFF3A1
:1001C00000800123237010BD4005002000000000C6
:1001D0000067020808B5034B1BB103490348AFF39E
:1001E000008008BD000000004405002000670208F0
:1001F00001F0FF01102A2BDB10F0070F08D010F8D8
:10020000013B013A8B422DD010F0070F42B3F6D1DB
:10021000F0B441EA012141EA014122F007047FF0F4
:1002200000070023F0E80256083C85EA010586EA4B
:10023000010685FA47F5A3FA87F586FA47F6A5FA87
:1002400087F68EB9EED1F0BC01F0FF0102F0070293
:1002500032B110F8013B013A83EA010313B1F8D13E
:100260000020704701387047002D06BF354603381F
:10027000073815F0010F07D1013015F4807F02BF58
:10028000013015F4C03F0130F0BC0138704700BFA9
:100290007BB972B90029BEBF00204FF0004106E0D3
:1002A00008BF00281CBF6FF000414FF0FF3000F086
:1002B000B5B9ADF1080C6DE904CE002909DB002BBE
:1002C0001ADB00F04DF8DDF804E0DDE9022304B0AC
:1002D0007047404261EB4101002B1BDB00F040F80E
:1002E000DDF804E0DDE9022304B0404261EB4101A6
:1002F000524263EB43037047524263EB430300F007
:100300002FF8DDF804E0DDE9022304B0404261EBA0
:1003100041017047524263EB430300F021F8DDF8DE
:1003200004E0DDE9022304B0524263EB430370476B
:1003300053B94AB9002908BF00281CBF4FF0FF314C
:100340004FF0FF3000F06AB9ADF1080C6DE904CE52
:1003500000F006F8DDF804E0DDE9022304B07047A0
:100360002DE9F047089D0C46002B4ED194468C4554
:100370008646B2FA82F262D94AB1C2F120039140B4
:1003800020FA03F30CFA02FC194300FA02FE4FEACA
:100390001C471FFA8CF6B1FBF7F44FEA1E4307FB2C
:1003A000141143EA014304FB06F199420AD91CEBFC
:1003B000030304F1FF3080F01281994240F20F8173
:1003C000023C6344591A1FFA8EF3B1FBF7F007FBA6
:1003D000101143EA014300FB06F69E420AD91CEBCA
:1003E000030300F1FF3180F0FC809E4240F2F9806F
:1003F000634402389B1B40EA044000211DB1D340F6
:100400000022C5E90032BDE8F0878B4205D90DB165
:10041000C5E9000100210846F5E7B3FA83F1002998
:1004200046D1A34202D39042C0F0F080861A64EB1A
:1004300003030120002DE6D0C5E90063E3E7002AAD
:1004400040F09080A1EB0C044FEA1C481FFA8CF797
:100450000121B4FBF8F64FEA1E4308FB164443EAB9
:10046000044307FB06F0984208D91CEB030306F18E
:10047000FF3402D2984200F2CD8026461C1A1FFAA1
:100480008EF3B4FBF8F008FB104443EA044300FB8E
:1004900007F79F4208D91CEB030300F1FF3402D297
:1004A0009F4200F2B0802046DB1B40EA0640A5E7F1
:1004B000C1F120068B4022FA06F71F4320FA06FC02
:1004C00004FA01F343EA0C03F44000FA01F8380C93
:1004D0004FEA1349B4FBF0FE1FFA87FC00FB1E44F1
:1004E00049EA04440EFB0CF9A14502FA01F20AD9CB
:1004F0003C190EF1FF3A80F08480A14540F28180E2
:10050000AEF1020E3C44A4EB09041FFA83F9B4FBDC
:10051000F0F300FB134449EA044403FB0CFCA4453C
:1005200007D93C1903F1FF3067D2A44565D9023BD6
:100530003C4443EA0E40A0FB0293A4EB0C049C4213
:10054000CE469C4651D34ED055B1B8EB0E0364EB6A
:100550000C0404FA06F6CB401E43CC40C5E9006407
:10056000002150E7C2F1200320FA03F10CFA02FC4B
:1005700024FA03F394400C434FEA1C4800FA02FEAD
:100580001FFA8CF7B3FBF8F008FB1031230C43EA99
:10059000014300FB07F1994208D91CEB030300F16A
:1005A000FF362CD299422AD9023863445B1AA4B28E
:1005B000B3FBF8F108FB113344EA034401FB07F3F2
:1005C000A34208D91CEB040401F1FF3613D2A34265
:1005D00011D902396444E41A41EA004139E704467A
:1005E000F0E6084606E7C845AED2B9EB020E63EB6B
:1005F000070C0138A8E73146EDE7034699E7304696
:10060000D4E7D6467FE7634402384DE706462346E3
:1006100008460FE7023E634430E700BF704700BF63
:10062000DFF834D0002103E00C4B5B584350043119
:100630000B480C4B42189A42F6D30B4A02E00023B7
:1006400042F8043B094B9A42F9D306F0CDFD25F060
:10065000DFFA00F045FC704700000320AC530608A9
:100660000000002040030020400500208080012081
:10067000FEE70000F8B50A4D2C787CB9094B0A4F0B
:1006800026461846394625F0EAFA01340346052C79
:10069000466003F10803F4D101232B70F8BD00BFBD
:1006A0005C0500206005002058670208034B5B6A68
:1006B00083422CBF00200120704700BF600500204E
:1006C0002DE9F0410F4613490546002251F832301A
:1006D000AB424FEAC20802F1010304D3052B1A46CC
:1006E000F4D1BDE8F081DB000B4CA3F108062644F1
:1006F000C2F10402E018D200314625F0B4F94444B6
:1007000003223946304625F0D0F90023E3706560B6
:10071000E7E700BF6405002060050020004870473F
:1007200060050020F8B51B4C1B4D01230022C4E9D5
:10073000002302210323C4E9021304200523C4E992
:1007400004030623A3612B6813B909F029F8286074
:100750002B681248072183EA433383EA534383EA31
:10076000431323F00042B2FBF1F601FB16220139DC
:1007700050F8046D54F822700760012944F8226093
:10078000E9D12B60064B676044F8226000221A60B2
:10079000F8BD00BFB009002050060020CC090020A1
:1007A000AC090020014B1868704700BFD009002039
:1007B000014B1878704700BFCD090020044B187812
:1007C00018B1044B187880F0010000F00100704768
:1007D000CC090020CD090020014B1868704700BFEC
:1007E00098090020534203F0030302F0030258BFAC
:1007F0005A42032A14D8DFE802F00205090E00EB82
:10080000810070470C31A1EB800070478900C1F175
:100810000F01081A7047C1F1030101EB8000704716
:10082000002070472DE9F74F1B4E00911746984660
:1008300006EB820600244FEA00194FF0280B4546CC
:10084000002104EB070A009A01912046FFF7CAFF36
:10085000124B0199484453F82020012A0BD1BAF1D8
:10086000090F14D8132D12DC002D04DB0BFB05F24D
:10087000B258002A0BDC0131042905F10105E2D14F
:100880000134042C06F10406D9D1012000E0002037
:1008900003B0BDE8F08F00BFD4090020080000209D
:1008A00070B5134E134D144C33682B602368062B20
:1008B00001DDFFF737FF2368104928685A1C2260C2
:1008C0000F4A52F823300F4A33600023136003228B
:1008D0000A600D490B601946FFF7A4FF0B4B80F02F
:1008E0000100C0B2187010B9094B01221A7070BD16
:1008F00098090020A8090020AC090020A0090020C8
:10090000B0090020A40900209C090020CD09002086
:10091000CC09002008B54FF4487200210B4825F09F
:10092000BCF80B4A002313600A4A13700A4A13707A
:10093000FFF7F8FE094B01221A60094B1A68094BB0
:100940001A60BDE80840FFF7ABBF00BFD409002024
:10095000D0090020CD090020CC090020AC090020DE
:10096000B00900209809002038B51C4B1B781BB13A
:100970001B4B00221A7038BD01380328FBD8DFE872
:1009800000F00212161D174D2C68013C164B1B6817
:1009900022461649096816480068FFF743FF0028F9
:1009A000E9D02C60E7E70F4D2C680134EEE70E4DDF
:1009B0000C4A2C68126801342346EAE70B4D094AB9
:1009C0002C6812680134634203F0030304F003044B
:1009D00058BF5C42044B21461B68DCE7CD09002070
:1009E00057060020A00900209C090020A40900202F
:1009F000A80900203F4B1B782DE9F74F9BB93E4BD0
:100A00003E4C1F683E4B2668D3F800A03D4BD3F800
:100A10000080751C51462B4642463846FFF702FFC0
:100A2000014618B1256003B0BDE8F08FDFF8E09013
:100A30000A2404FB068409EB84043B01002501EB36
:100A4000060B5246284601930091FFF7CBFE019B0F
:100A50002D4A0099184452F82020012A09D105EBAB
:100A60000802092A05D8BBF1130F9CBF7A1C44F871
:100A700025200135042DE4D10131042904F1280495
:100A8000DCD1DFF88CA0002713264FF0280808FBE4
:100A900006942246002352F8041BE1B101330A2BCD
:100AA000F9D10137B4460BE075460FCD0FC40FCD19
:100AB0000FC495E803000CF1FF3C84E80300744682
:100AC000A4F1280EBCF1000FEED128226146504659
:100AD00024F0E3FF0136013ED9D22FB10B4A13684F
:100AE000642101FB0733136003B0BDE8F04FFFF74B
:100AF000D7BE00BFCD090020A80900209C09002016
:100B0000A4090020A009002008000020D00900202E
:100B1000D40900202DE9F74FC8220021264824F0EF
:100B2000BCFF254A25490020154616460C460023E1
:100B3000013354F8047B06F8017B0A2BF8D101300D
:100B4000142801F1280102F10A02EED11C4A1268B0
:100B500001921C4A16681C4A17681C4AD2F8008089
:100B600003FB07834FEA061B1D444FF0000A0136C2
:100B700000240AEB0709019A51462046FFF732FE8E
:100B8000134B584453F82020012A07D104EB0802E4
:100B9000092A03D8B9F1130F98BF2E550134042C3C
:100BA000E9D10AF1010ABAF1040F05F10A05DFD112
:100BB000014803B0BDE8F08F88050020D40900206B
:100BC000A4090020A80900209C090020A0090020F9
:100BD00008000020054B18684FF44873B0FBF3F091
:100BE0000130082828BF0820704700BFD009002026
:100BF00008B5FFF7EFFF0238062896BF024B40F218
:100C0000B63033F8100008BD5C6702081B4B1C4966
:100C10004FF44872184610B525F029F8194A1268A1
:100C2000C0F82023184A1268C0F82423174A126813
:100C3000C0F82823164A1268C0F82C23154A1268F7
:100C4000C0F83023144A1268C0F83423134A1278CB
:100C500080F83823124A127880F83923002203469C
:100C6000114653F8044B0132CF2A81EA0401F8D12E
:100C70000C4BC0F83C1301221A7010BD580600201E
:100C8000D4090020A8090020A4090020A009002000
:100C90009C09002098090020D0090020CD090020DF
:100CA000CC09002057060020014B1870704700BF88
:100CB000560600200A4B187810B578B10949002370
:100CC0001A46084651F8044B0133CF2B82EA04023E
:100CD000F8D1D0F83C03831A5842584110BD00BFE8
:100CE000570600205806002010B5FFF7E3FF30B389
:100CF000134C14484FF44872214624F0B8FF124BAD
:100D0000D4F820231A60114BD4F824231A60104B16
:100D1000D4F828231A600F4BD4F82C231A600E4BFA
:100D2000D4F830231A600D4BD4F834231A600C4BDE
:100D300094F838231A700B4B94F839231A7010BDAD
:100D400058060020D4090020A8090020A40900208A
:100D5000A00900209C09002098090020D00900204B
:100D6000CD090020CC090020014B1870704700BF4E
:100D700054060020054B00221A70054B5F211970A4
:100D800059709970DA70034B1A707047540600203E
:100D90000400002055060020014B1878704700BF62
:100DA00054060020064B1A785F2A07D05A785F2A2B
:100DB00004D098785F3818BF012070470020704732
:100DC0000400002007B5064BADF806001B68054877
:100DD00001220DF1060108F04FF803B05DF804FBA5
:100DE000C80100203C0D00202DE9F341114FDFF830
:100DF00050800026104D8DF80760002435F8021B46
:100E0000384606F081FC01280FD118F804308DF81F
:100E100007300A4800231A460DF10701006808F060
:100E2000F3FD502008F00AFDE4E70134042CE5D17D
:100E3000EFE700BF000402406E670208F80C0020D4
:100E40006A67020830B595B0102200210AA824F084
:100E500024FE1422002103A824F01FFE00241E4BB0
:100E600001941A6C42F080521A641B6C03F0805398
:100E70000193019B194B02941A6842F440421A6094
:100E80001B6803F4404302930122029B4FF480331A
:100E9000CDE9082302254FF480030821CDE90E5344
:100EA0004FF4B473CDE9101308A8042313931295DB
:100EB00007F09AFA07F05EFA0F23CDE903354FF4F5
:100EC000A0504FF48053CDE90603052103A80594F3
:100ED00007F066FC15B030BD0038024000700040DD
:100EE00080B59CB0C74DDFF85883002406F08AF91E
:100EF000FFF7A8FF1022002110A824F0CEFD0194D6
:100F00002B6BC14843F002032B632B6B03F00203EE
:100F10000193019B0FA947F201030F9306F010FB09
:100F200002942B6BB94843F010032B632B6B03F037
:100F300010030293029B03942B6B43F020032B635B
:100F40002B6B03F020030393039B04942B6B43F060
:100F500080032B632B6B03F080030493049B0594A5
:100F60002B6B43F004032B632B6B03F004030593FB
:100F7000059B06942B6B43F001032B632B6B03F053
:100F800001030693069B07942B6B43F002032B632C
:100F90002B6B03F002030793079B08942B6B43F022
:100FA00040032B632B6B03F040030893089B0994C9
:100FB0002B6B43F008032B632B6B954D03F0080359
:100FC000224609933C21099B06F0A4FB914801228B
:100FD000022106F09FFB22468E48042106F09AFB70
:100FE00022468D484FF4405106F094FB01263C23E5
:100FF000CDE90F368548119403230FA902271293D8
:1010000006F09EFA83480FA9CDE90F76CDE9114489
:1010100006F096FA04237F480FA9CDE90F36CDE9F3
:10102000114706F08DFA0FA94FF440537A48CDE9E5
:101030000F36CDE9114706F083FA7848784B036004
:1010400006F072F9DFF8FCE1764B2C62C5E900E3AB
:1010500028464FF48043C5E90434C5E90244C5E994
:10106000064406F065FD1021284606F0A9FF21463A
:1010700028466D4D06F0C3FF4FF48273C5E9008327
:101080004FF400791823C5E9069328460A23C5E9D9
:101090000244C5E90444C5E90844AC62EB6207F0C8
:1010A0008FFE8F23224639465A488DF82C308DF812
:1010B0003C4006F02FFB32464FF47A730BA92846CA
:1010C00007F0DAFE4FF47A7332460FA9284608F08B
:1010D0007FF8324639464F48544D06F01BFB9DF8C9
:1010E0003C30D32B04BF524B1E70524B0126C5E936
:1010F0000036102240230024C5E904234FF4C073B6
:10110000C5E906344FF40063C5E908344FF40053D1
:1011100002274FF00409AB624FF0030A07230FA91F
:101120002846CDE90F73CDE911934FF00808C5E9C2
:101130000249CDE913A7159707F026FD4FF6FF7278
:101140000BA92846CDE90C860A940B960E9407F05D
:101150003BFD304606F082F84FF6FF720BA9284699
:10116000CDE90B78CDE90D6407F02EFD4FF6FF7247
:101170000BA92846CDE90BA8CDE90D9407F024FD75
:101180004FF40C730A930A9B0E934FF6FF720BA950
:101190002846CDE90B980D9607F016FD40F26A51EE
:1011A000284607F02FFD342221460FA824F075FCB5
:1011B000214D224B2C61C5E900340923C5E90536D0
:1011C0001D23C5E9073A40F20D1140F24313C5E96A
:1011D000091340F2171040F24713C5E90B032846E4
:1011E000C5E90244AC8685F8364006F0ADFFFF2124
:1011F0004FF4806CF022CDE914140521CDE916C11D
:1012000022E000BF0038024000040240001002400B
:101210003C0E002000080240000C0240D00E0020CE
:1012200000300240A08601003C0D0020080D002087
:10123000FC0C0020400100A0940D0020006801403B
:1012400000500140005C00404FF4A0730FA9CDE9AD
:101250001024CDE9184228462246204D1A93CDE9A4
:1012600012370F94ADF86C408DF86E4007F037F8E8
:101270001B4B2B601B6898472B681A4DDB689847FF
:10128000194B2846C5E90034C5E90274C5E90A4787
:10129000C5E90C4406F058F83146284606F00CF92A
:1012A00000F0F7FB00F0F4FB08F04EFA0F4A31466D
:1012B000404608F06EFB0E4B0E4A186021460E4861
:1012C00008F075FA0D4B0E4A186021460D4808F0DB
:1012D0006EFA0D4B186008F049FAFEE7F40C002096
:1012E000F0010020900E002000B00240D00100204C
:1012F000F80C0020BC670208E90D0008040D00206E
:1013000098670208A11A0008000D00207047704776
:101310007FB5094B8DF817201B6802930DF117025A
:101320000123009201930A460146044806F0A8FCF6
:1013300007B05DF804FB00BFCC0100203C0E00208C
:101340007FB500238DF81730084B1B6802930A46BF
:1013500001230DF11701009101930146044806F0A5
:101360001FFD9DF8170007B05DF804FBCC010020BD
:101370003C0E00201FB5084C24680092CDE90134D2
:101380000A4601230146054806F00AFD003818BF49
:10139000012004B010BD00BFCC0100203C0E002095
:1013A00005F05CBF10B5064C00222046042106F073
:1013B000B1F920460122BDE81040042106F0AAB987
:1013C0000008024038B50B4D044601220A484FF48C
:1013D000005106F09FF900220421284606F09AF9F0
:1013E0002046FFF7EFFC28460122BDE838400421E3
:1013F00006F090B900080240000C024038B50B4DD1
:10140000044600220A484FF4005106F083F90022F6
:101410000421284606F07EF92046FFF7D3FC284633
:101420000122BDE83840042106F074B900080240EA
:10143000000C0240F7B5144E144F05460C463046DA
:101440000022042106F066F900224FF400513846CC
:1014500006F060F92846FFF7B5FC0D4B0D481B68F8
:10146000224601A907F0B4FE384601224FF400518C
:10147000019C06F04FF930460122042106F04AF99A
:10148000204603B0F0BD00BF00080240000C02403F
:10149000C80100203C0D002005F0E0BE0268034BAF
:1014A0009A4201D105F0C8BE704700BF001000404D
:1014B0007047000082B00E4B00220092596C41F43C
:1014C00080415964596C01F4804100910099019266
:1014D000196C41F0805119641B6C03F08053019327
:1014E000019B0F216FF0010002B005F0DDBE00BFCF
:1014F000003802400268094B9A4282B00BD10023A7
:101500000193074B1A6B42F480521A631B6B03F46E
:1015100080530193019B02B0704700BF003002402E
:101520000038024007B50F4B02689A4216D10022DC
:10153000A3F5F0430192196B41F4000119631B6B91
:1015400003F40003019305215A20019B05F0ACFE32
:101550005A2003B05DF804EB05F0D8BE03B05DF887
:1015600004FB00BF00B002402DE9F043044689B0FF
:101570001422002103A824F090FA2268244B9A42F6
:1015800043D1244C244800250095236B43F00403E9
:101590002363236B03F004030093009B0195236BEB
:1015A00043F001032363236B03F001030193019BC9
:1015B0004FF012094FF400734FF00108032704267F
:1015C00003A9CDE90339CDE90587079605F0B8FFF2
:1015D0004FF480731148079603A9CDE90339CDE98B
:1015E000058705F0ADFF0295236C43F400032364E7
:1015F000236C03F400030293029B236A43F4000369
:101600002362236A23F40003236209B0BDE8F08358
:10161000005C004000380240000802400000024028
:10162000F0B599B004461422002107A824F035FA39
:1016300030220DEB0200002124F02FFA22685E4BCD
:101640009A4240F0B78008230C93C02310930423E0
:1016500012930CA84FF40033159307F069F908B101
:10166000FFF726FF554B5648002400945A6C42F071
:1016700080625A645A6C02F080620092009A01946F
:101680001A6B42F020021A631A6B02F020020192D8
:10169000019A02941A6B42F001021A631A6B02F06B
:1016A00001020292029A03941A6B42F002021A6338
:1016B0001A6B02F002020392039A04941A6B42F02E
:1016C00040021A631A6B02F040020492049A0594D5
:1016D0001A6B42F004021A631A6B02F004020592BC
:1016E000059A06941A6B42F008021A631B6B03F00A
:1016F0000803069302250E26069B0B964FF4806383
:1017000007A9CDE90735CDE9094505F019FF41F6EF
:1017100058032C480B9607A9CDE907350927CDE9D1
:10172000094505F00DFF032327480B9707A9CDE9CD
:101730000735CDE9094505F003FF4FF470632248F2
:101740000B9607A9CDE90735CDE9094505F0F8FE67
:101750004FF40C631D480B9607A9CDE90735CDE979
:10176000094505F0EDFEC02319480B9607A9CDE900
:101770000735CDE9094505F0E3FE082315480B962A
:1017800007A9CDE90735CDE9094505F0D9FE4FF4A4
:10179000A0530E480B9707A9CDE90735CDE90945B8
:1017A00005F0CEFE58202246052105F07DFD58208B
:1017B00005F0ACFD19B0F0BD0068014000380240F2
:1017C00000140240000002400004024000180240E1
:1017D00000080240000C024010B5044688B01422F4
:1017E000002103A824F059F92268144B9A4223D10E
:1017F00003F56843002101915A6C114842F48012AC
:101800005A645A6C02F480120192019A02911A6B86
:1018100042F020021A631B6B03F020030293029B29
:101820004FF4607202230321CDE903230523CDE9A0
:10183000061303A905F084FE08B010BD0050014056
:10184000001402402DE9F04186B0002303932B4B96
:101850001C68002C4FD14FF00108C3F80080284BC2
:1018600000949A6B274842EA08029A639B6B03EA4A
:1018700008030093022703260C25009B01A94FF6BD
:101880003F03CDE90137CDE9046505F059FE1E4857
:10189000059501A9CDE90187CDE9034605F050FE84
:1018A00048F233131948059501A9CDE90137CDE96F
:1018B000034605F045FE4FF683731548059501A9CB
:1018C000CDE90137CDE9034605F03AFE4CF203734A
:1018D0001048059501A9CDE90137CDE9034605F08A
:1018E0002FFE60230C48059501A9CDE90137CDE90C
:1018F000034605F025FE06B0BDE8F081D80E0020B5
:101900000038024000140240000802400018024063
:1019100000100240000C02400004024070B588B084
:1019200000230293204B1A6C42F010021A641B6CC5
:1019300003F010030293054601A903A8029B06F0D9
:10194000D9FF069B4BBB06F0C5FF184E184B336002
:1019500040F2E733F360174BB0FBF3F3013B7360E6
:10196000304600233361B360B36107F015FE0446CF
:1019700080B9304607F0D2FC044658B9362005F04D
:10198000C5FC0F2D0DD822462946362005F08CFCCB
:10199000094B1D60204608B070BD06F09BFF40005B
:1019A000D3E70124F6E700BF00380240DC0E002038
:1019B0000010004040420F00580200207047FEE730
:1019C000FEE7FEE7FEE77047014807F0E5BC00BF11
:1019D000DC0E0020014806F025BC00BF940D00205D
:1019E000014805F0DFBC00BF900E002001207047C9
:1019F00008B524F007F9162303604FF0FF3008BD47
:101A000008B524F0FFF816230360FEE770B50D4615
:101A100014460E46731B9C4201DC204670BDAFF39A
:101A2000008006F8010BF5E770B50D4614460E462A
:101A3000731B9C4201DC204670BD16F8010BAFF30E
:101A40000080F5E74FF0FF3070474FF400534B60D4
:101A50000020704701207047002070470A4A116833
:101A600008B5034609B9094911601068694603447D
:101A70008B4206D924F0C6F80C2303604FF0FF30E8
:101A800008BD1360FCE700BF240F00208080012008
:101A9000704708B500F0BAFDBDE8084000F03CBD55
:101AA00000F0B6BD704710B50421044622F08EFE4A
:101AB000204610BD38B50C4B0C4C18800C4B8220C6
:101AC00019806368984740F6110398420AD1094D7E
:101AD00023682C60822098472B688220DB68984717
:101AE000002038BD0120FCE7320F00202802002032
:101AF000300F0020340F00204FF4A071F020FFF7CA
:101B0000D9BF0000F7B5374D2B6804461B6982200A
:101B10009847208000284ED02B680DF106025B69A3
:101B200001A982209847304B1B78002B4BD0BDF881
:101B3000063040F6746293423FD9ADF80620BDF8F6
:101B40000630D21A92B20A2A42D90B23B2FBF3F220
:101B5000264B1B889A4201D9013B9AB2BDF804304A
:101B600040F6B8318B4235D8C3F571630E339BB262
:101B70000F21B3FBF1F31E4909888B4201D90139CA
:101B80008BB21C4E1C4D30682F68834281B28CBFD3
:101B9000591AC91AB8B2BA428CBF101A801A89B23F
:101BA00080B201440529C8BF33603368C8BF2A60CA
:101BB00063802B68A38003B0F0BDB32B9CBFB4231C
:101BC000ADF80630BBE7BDF80620A2F5B472B9E760
:101BD0000022C3E7C3F56D6308339BB20E2BC7D851
:101BE0000023CEE7340F0020FC0C0020300F002033
:101BF000320F00202C0F0020280F002037B5684638
:101C00000D461446FFF77EFFBDF8000030B1BDF869
:101C100002302B60BDF804302360012003B030BDDA
:101C2000032821D8DFE800F0020B12190F4B1A68C5
:101C3000B2FA82F2520904210D4805F06BBD0B4B3C
:101C40005A68B2FA82F252090821F5E7074B9A68FE
:101C5000B2FA82F252091021EEE7044BDA68B2FAC6
:101C600082F252092021E7E7704700BF380F0020B9
:101C700000100240032821D8DFE800F0020B1219FF
:101C80000F4B1A68003A18BF012204210D4805F0D5
:101C900041BD0B4B5A68003A18BF01220821F5E7F5
:101CA000074B9A68003A18BF01221021EEE7044B57
:101CB000DA68003A18BF01222021E7E7704700BF29
:101CC000380F00200010024003280DD8DFE800F094
:101CD0000206080A0421054805F021BD0821FAE79B
:101CE0001021F8E72021F6E7704700BF00100240FE
:101CF00008B5032811D8DFE800F0020A0C0E042111
:101D0000074805F001FD431E5842584108BD08210F
:101D1000F6E71021F4E72021F2E70020F3E700BF07
:101D20000010024070B5084D00240126E0B2FFF714
:101D3000DFFF18B12B68012B18BF2E600134052C72
:101D400005F10405F2D170BD380F0020012380F8A1
:101D5000781080F879307047704700207047000095
:101D6000034B4164003918BF01211970704700BF4F
:101D70003F730120704700207047836B0BB108460A
:101D8000184770474FF6FF707047406803689B69BB
:101D900018477047704770477047704710B5044642
:101DA00000F04CFD23680349D3F890302046BDE88D
:101DB00010401847000000D008B503680446D3F867
:101DC0008430984723682046DB6F984700F0ECF892
:101DD000236820465B6F98472920FFF70FFB00F030
:101DE000E3F8236820465B6F9847F8E710B5044690
:101DF0000AF016FE23682046D3F8BC30BDE8104038
:101E0000184700F0FDBC00F001BD00F035BD00F04A
:101E1000D3BC00F045BD00F04DBD00F0D7BC0AF0CA
:101E20002DB810B58421044622F0D0FC204610BD08
:101E300010B590F8341090F878400C4B8C421A781A
:101E400009D03AB90A4A0B491488088810800C80D6
:101E500001221A7010BD002AFCD0054A05491488D9
:101E6000088810800C800022F3E700BF387301203F
:101E7000347301203673012070B50D46194635B90B
:101E8000094B0A4A0A4840F2FF2123F0E5FBC0E96A
:101E90000F52084B003A18BF01221A700368BDE8C0
:101EA0007040D3F890301847F8670208306802088D
:101EB0007E6802083E73012008B5094B1B888B42DF
:101EC00003D8084B1B88934205D9074B074A08489B
:101ED000A32123F0C1FB074B1980074B1A8008BDD3
:101EE0003473012036730120C36802082669020892
:101EF0007E6802083A7301203C730120034690F883
:101F00007A0018B1586803681B68184770470000CA
:101F1000012108B50022084607F09CFC0A4B186016
:101F200028B90A4B0A4A28210A4823F095FB0022C7
:101F30000421012007F02DFD074B186018B9074B4D
:101F4000034A2C21F0E708BD4C0F0020586A020814
:101F5000A16A0208D06A0208480F00201D6B02081F
:101F6000024B4FF0FF31186807F0BEBC4C0F002049
:101F7000014B186807F0E4BC4C0F0020024B002115
:101F8000186807F0B1BC00BF4C0F0020FFF7F0BF8E
:101F900003480449006800231A4607F035BD00BF16
:101FA000480F0020E801002013B5084C00231A4612
:101FB00001A9206807F059FD20684FF0FF33002287
:101FC00001A907F052FD02B010BD00BF480F00206C
:101FD00003685B6C18470120704703689B6A1847C9
:101FE000FEE740F2EF307047054B0360054B4FF0C2
:101FF0008062C3F88820BFF34F8FBFF36F8F7047A5
:10200000BC6C020800E100E010B504464FF45A61D0
:10201000FFF7EAFF204622F0D9FB204610BD000062
:1020200082B0002301930E4B1A6B42F400021A6334
:102030001A6B02F400020192019A1A6942F400023A
:102040001A611A6922F400021A61064B064A1A61E3
:10205000064A5A61064B4FF080629A6002B07047A0
:1020600000380240900E0020C1220008E11F000845
:1020700000E100E008B50A2809D8DFE800F0061002
:102080000E080808081010101000022008BD054BAB
:10209000054A0648902123F0DFFA0020F6E70120E8
:1020A000F4E700BF5F6B02087A6B0208C56B020899
:1020B00038B50C46887FFFF7DDFFA58AE28A164B0C
:1020C0002169586342EA05425A64628BD963521B04
:1020D0001A642568082D0ED19A611A615862207F12
:1020E0000E4A42EA0062DA61E2681A620C4A5961F9
:1020F000D9601A6038BD0022D8611A61E1680A0A05
:10210000480902F4784200F4FC600243C1F3C401C0
:102110000A439A63034AECE700B002400900010059
:10212000012302000123030008B50B280BD8DFE8C8
:1021300000F00612100A0A0A0A0808080808022015
:1021400008BD0520FCE7054B054A06486F2123F032
:1021500083FA0020F4E70120F2E700BF5F6B02087A
:10216000106C0208C56B02082DE9F04191F81D8042
:102170000C464046FFF7D8FFA77F05463846FFF7D5
:10218000D3FF06463846FFF775FFA18A628B444BA2
:10219000521A1A649A61228B521A1A61E28A58639F
:1021A00042EA01425A6421696268D963DA602068B0
:1021B000802828D0227F0FD8202867D0402865D0DB
:1021C00004281AD0364B45EA026545F40035B84577
:1021D000DD6161D0334A44E0B0F5807F04D0B0F5D2
:1021E000007FEFD1304800E0304840EA0262DA6117
:1021F000E2681A625E62596132E045EA026242F4C4
:102200000032DA61F6E7A068021DDA62227F45EA51
:10221000026545F40035DD615E625961017841B1C6
:10222000012921D0224B234A23484FF48D7123F0FA
:1022300013FADA69418822F47F42013922F0100250
:1022400042EA0122DA610121154BDA6942F02002EB
:10225000DA61DA699206FCD410229A600029B9D0BA
:10226000164A1A60BDE8F081B2F1FF01DA694088D0
:1022700022F47F4200F1FF3022F0100242EA0022F5
:1022800042F0100218BF0121DA61DDE745EA02627F
:10229000034B42F40032B4E742F20132E1E700BFFF
:1022A00000B0024001230100090002000A00020000
:1022B0005A6C0208746C0208C56B02080123020004
:1022C000024B1B68586803685B691847407301201C
:1022D00070B5044625460A4B0C3000266060267215
:1022E000667245F8203B602229460AF0EFFC04F5AF
:1022F0005A63EE6024359D42FBD1204670BD00BF7D
:10230000BC6C0208034B1A68D207FCD423229A60E3
:10231000704700BF00B002407047000030B50F4C5E
:102320002568ED07FCD423250904A56041F00101CF
:102330000225FF2B65636164E0630AD0084965628A
:1023400041EA0363E361074B22626061E06023605E
:1023500030BDE561039BA363034BF8E700B0024087
:1023600009000100010002000100030030B50E4C1D
:102370002568ED07FCD423251204A56042F0010274
:102380000225FF2B65636264E063E16008D01B06F1
:1023900043F00213E361054B65626061236030BD69
:1023A000034BE3610123F9E700B0024001000200A2
:1023B000020002FF30B50B4C2568ED07FCD4232545
:1023C00012041B06A56043F40033022542F001020B
:1023D00065636264E063E160E361034B65626061D1
:1023E000236030BD00B002400100020001207047B0
:1023F0000C2070470C2303FB0100083070470C23AE
:1024000003FB0100083070470120704744F2982018
:10241000704744F2982303FB01000830704744F2F0
:10242000982303FB010008307047012070471020FB
:10243000704700EB01100830704700EB01100830C6
:102440007047084600F010BF10B5034B0360044608
:1024500009F06BFA204610BD746D020810B50446F1
:10246000FFF7F2FF2046142122F0B0F9204610BDFC
:1024700010B5034B0360044609F057FA204610BD1F
:10248000406D020810B50446FFF7F2FF204644F203
:10249000A02122F09BF9204610BD000010B5034B8F
:1024A0000360044609F041FA204610BD0C6D020895
:1024B00010B50446FFF7F2FF2046182122F086F9F6
:1024C000204610BD10B5094B0360044600F5854059
:1024D0004C30FFF7B9FF04F12C00FFF7C9FF04F1FE
:1024E0001400FFF7DBFF204610BD00BFA86D0208F7
:1024F00008B50248FFF7E6FF08BD00BF281E002010
:1025000010B50446FFF7DEFF204644F2404122F0BA
:102510005DF9204610BD00002DE9F34100F0ECFA12
:10252000054600F0EDFA00240146234628462246DF
:10253000009413F099F8274B274A1A60204603F0BD
:10254000ADFB264D264B274A27489A6012F0F4FF30
:102550002B68BFF35B8FDB0736D4284622F038F9AF
:1025600090B3224C224F234B236007F1180604F14D
:10257000140004F12C086060C4F80880E76026614C
:1025800009F0D4F91C4B6361404609F0CFF91B4BAD
:10259000E362384609F0CAF904F5804303F5387060
:1025A000174AC3F8CC2204F03BFA224607F1140183
:1025B000304603F06BFC304600F056FE114823F025
:1025C00069F8284622F010F90F4802B0BDE8F04142
:1025D000FFF7E4BBA4730120D40F0020241E0020C9
:1025E000F40F0020D80F0020EC010020281E00204E
:1025F000F4600020A86D02080C6D0208406D02080E
:10260000746D0208F1240008500F0020704700008C
:102610000148FFF7D1BB00BF500F002070B5264E18
:10262000264C274D274B23603046FFF751FE2846A6
:1026300018F020F9244810F027FD244B2448DC60D2
:1026400000224FF48071C3E9121222491A86C3E9AD
:102650001A12214983F85820C3E91E011F49C3F803
:1026600080101F491F480B60F021C3E90422C3E911
:102670000622C3E90822C3E90A22C3E90E22C3E9FC
:102680001022C3E91422C3E917225A6683F8702086
:102690005A67C3E9016501801348018013484FF46C
:1026A000A07101801248018012490A70012283F84A
:1026B0003420114A1A6070BD80100020201E0020B6
:1026C000F40F0020E8670208D80F0020500F002008
:1026D0000000010101000001000450001A00140074
:1026E00040730120347301203A73012036730120B6
:1026F0003C73012038730120746902080148FFF718
:1027000073BC00BF8010002000207047818070479C
:10271000C1807047018170474181704770477047A1
:1027200070477047704710B4C4880368121B8488D0
:102730005B6D091B12B25DF8044B09B218474FF6E6
:10274000FF7383814FF0FF3303621368C36110602E
:102750007047002070478B88838001207047704746
:1027600080F82610704790F82600704710B50022B8
:10277000B1F90840B1F90A10028042808480C1801A
:1027800010BD0022028042808280C28070470177A3
:10279000704780ED080A704780F82410704780F871
:1027A0002510704701207047983070478C30704773
:1027B0008430704770470000034B902283F85A23FF
:1027C00083F85823704700BF00E100E0094A0A4936
:1027D000D3680A48C3F30A03013B9BB20B8011691B
:1027E000C1F30A01013901801364536B43F0010303
:1027F00053637047006801406A62002068620020ED
:10280000014BD3F8AC00704700680140024B012235
:10281000C3F8AC105A6270470068014070477047B7
:1028200010B52C21044621F0D1FF204610BD10B573
:10283000BC21044621F0CAFF204610BD70B50446F5
:1028400009F071FB23689D6E0FF0B6F90146204632
:10285000A8472368054AD3F88C502046AC4600238D
:10286000BDE87040A2F51631604700BF00B004D04B
:1028700009F040BB09F04ABB09F006BB09F075BC82
:1028800090F8252012B103685B691847704790F8EB
:1028900025201AB190F8242002B11860704700007A
:1028A000034B4FF080629A604FF080729A607047DD
:1028B00000E100E0084B4FF08062C3F88820BFF3CE
:1028C0004F8FBFF36F8F4FF08072C3F88820BFF334
:1028D0004F8FBFF36F8F704700E100E070B50023AA
:1028E000124E8380124B0360336893F858200546DC
:1028F0000AB1D86C00B998680368DB6A98473368F6
:10290000B0FA80F4D86C640930B10368DB6A984788
:10291000002808BF44F001042CB9064B064A0748BA
:102920002C2122F099FE284670BD00BF4073012083
:10293000B86E0208B46D0208126E02084B6E0208EF
:1029400070B5254E3568BFF35B8F15F0010540D19A
:10295000304621F03DFF00283BD0204C204B256124
:1029600004F13400C4E90035C4E90255E584A562E8
:10297000A58510F06EFE04F158000BF05DFE194BBA
:10298000A3652046184B40F8843BFFF7A7FF174B81
:10299000C4F884302433C4F88C304FF4C803C4E93D
:1029A00028350023C4F8AC30C4F8B030C4F8B430D3
:1029B000C4F8B8300E480F4BC4F89050C4F89C507F
:1029C000C4F8A850C4F8983022F064FE304621F0D4
:1029D0000BFF024870BD00BF6C62002070620020D7
:1029E000EC8C0208D86E0208506F0208A08C020816
:1029F000B5270008808C020838B5184C23685BB3F3
:102A0000174B184A1B6C11888B4216D1164B19882C
:102A100005F092FC236893F86A200025013283F8C0
:102A20006A2083F87C50FFF7B3FA206809F0F8FFBA
:102A30002846BDE83840FFF7F3B805F07DFC246870
:102A4000236820461B6A9847012384F87C300020C5
:102A5000BDE83840FFF70EB938BD00BF4073012014
:102A6000006801406A62002068620020704708B573
:102A70000C2938D8DFE801F0070B0F13172F1B1FA5
:102A800023272B2F330003F055F9006808BD03F00E
:102A900051F94068FAE703F04DF98068F6E703F072
:102AA00049F9C068F2E703F045F90069EEE703F081
:102AB00041F98069EAE703F03DF9C069E6E703F010
:102AC00039F9006AE2E703F035F9406ADEE703F01E
:102AD00031F9806ADAE703F02DF94069D6E703F0AF
:102AE00029F9C06AD2E70020D0E710B504210446D6
:102AF00021F06CFE204610BD00487047A86F020808
:102B00000820704713B5002451B1036801948DF873
:102B1000034001AA9C680DF10303A04702B010BD59
:102B20000846FBE7C0897047008A7047C088704735
:102B300080887047807A00F07F007047807AC009F3
:102B400070470020704700009FED010A704700BFEA
:102B500000000000806A7047704730B5036801814B
:102B600085B06D460146D3F8843004462846984720
:102B700095E807003C3484E8070005B030BD30B567
:102B80000368418185B06D460146D3F88430044620
:102B90002846984795E807003C3484E8070005B0CC
:102BA00030BD0022028042808280C280704780F85F
:102BB0003610704770B5036804461B6B154698477E
:102BC0002368294620465B6EBDE870401847002008
:102BD0007047806C70477047704790F82C304BB14D
:102BE00000F16C021268C2653BB100F174031B680E
:102BF0000366704700F16802F4E700F17003F6E73E
:102C00007047704790F82D3080F85A30704710B5F3
:102C10000821044621F0DAFD204610BD10B54C21F4
:102C2000044621F0D3FD204610BD10B5782104469E
:102C300021F0CCFD204610BD10B54FF415710446AF
:102C400021F0C4FD204610BD08B5FFF719FE08BDF0
:102C500010B50446006B50B10368DB68984730B18B
:102C6000206B036821469B68BDE81040184710BDE3
:102C70000B7970B590F82C6004460D460BB916B16F
:102C800070BD002EFCD0B3FA83F35B0984F82C30BE
:102C900023682046D3F88C309847236820465B6928
:102CA0009847002EECD02B79012BE9D123682046E0
:102CB000D3F88830BDE8704018470000036870B54D
:102CC0005E6B124B1B6804468DB22BB9104B114A38
:102CD0006C21114822F0C0FC1049828D0988914274
:102CE00003D80F4B0B4A6D21F3E713F812200D4B5D
:102CF0001B6853F8220003681B6B9847291A334658
:102D0000204609B2BDE87040184700BF9873012003
:102D1000487002088A700208C57002089C7301207E
:102D20000C710208A073012000224FF0FF31C0E9AE
:102D30000021826070470000074A02600022C0E95B
:102D40000122C0E90322C0E90522C0E907224FF4AD
:102D500080728284704700BFC890020870B5036813
:102D600004461B6B154698472368294620465B6B33
:102D7000BDE87040184770B504461D46BDF91060A7
:102D8000FFF7ECFF2368294620469B6B9847236892
:102D900031462046DB6BBDE87040184710B526224F
:102DA0000446002122F079FE2046FFF7C5FF044BC0
:102DB0002360FF2384F826300023A362204610BD41
:102DC000408E020810B526220446002122F065FE3E
:102DD0002046FFF7B1FF0A4B23600A4BA3624FF670
:102DE000FF73A3854FF47F020023C4E90C322387CD
:102DF0004FF0FF32C4E91023E363204610BD00BF4B
:102E0000B08D0208547102082DE9F04F04468DB0D0
:102E1000A1460025FFF790FFB44BA56249F82C3B73
:102E200004F158064846FFF7B9FF3046FFF784FF24
:102E30004FF47F43A4F88430012384F87C30AC4BFA
:102E4000A36504F18C03C4F88050C4F88850184678
:102E50000393FFF7A3FFA74BC4F88C302A460398CF
:102E6000C4F8B8502946C4E93055C4E93255A4F82D
:102E7000BC50FFF773FF03999F4F304608F068FD81
:102E800004F1D00304F1FC0818460493FFF786FF11
:102E90004046FFF797FF04F5A27318460593FFF726
:102EA0007DFF04F5B87304F5DE7A184604F5027B5D
:102EB0000293FFF787FFC4F87071C4F8B851504609
:102EC000FFF780FFC4F8BC71C4F804525846FFF7FE
:102ED00079FF8A4BA3606423C4F80872C4F8505287
:102EE0005022009329464846F023FFF744FF4FF055
:102EF0007F47322384F8523049462046676508F000
:102F000027FD64232A46294603980093F023FFF700
:102F100032FF0523A4F8BC30794BC4F8C03003F568
:102F20004C533333C4F8C430A3F5CC43663BC4F8E8
:102F3000C83003F1331303F54C53C4F8CC3030469A
:102F4000D4F85890FFF749FE142384F88530D9F857
:102F50009030DFF8B49130469847642384F87D5070
:102F6000502200932946F0233046FFF704FF3146F4
:102F7000204608F0EDFC50232A4604980093294689
:102F8000F023FFF7F8FE5F4BC4F8F83004992046B1
:102F900006AE08F0DDFC062240463C21FFF7DEFECF
:102FA00041463046C4F82C71A4F830510BF042FC75
:102FB00096E8070004F59C7383E8070010230AA92C
:102FC0004046ADF82C30CDF828900BF0DBFE4146A2
:102FD000204608F0BDFC1C230598009322221523EF
:102FE0004021FFF7C8FE4FF0FF33C4F86C31C72310
:102FF0004FF01908059984F86A31204608F0A8FCBA
:103000000298CDF80080434628224421FFF7B3FE02
:10301000D4F870310299D3F88430C4F8A0713046E6
:10302000A4F8A451984796E8070004F5D67383E8FE
:1030300007000F230298ADF82C300AA9CDF828908C
:103040000BF0A0FE0299204608F082FC434628229D
:103050005046CDF800806E21FFF78DFED4F8BC31CC
:10306000C4F8EC7151463046D3F88430A4F8F051DE
:10307000984796E8070004F5FC7383E807000E23E1
:103080000AA95046ADF82C30CDF828900BF07AFE06
:103090005146204608F05CFC434628225846CDF8AD
:1030A00000809821FFF767FED4F80832C4F8387220
:1030B00059463046D3F88430A4F83C52984796E8F5
:1030C000070004F5117383E807000D230AA9584689
:1030D000ADF82C30CDF828900BF054FE2046594620
:1030E00008F036FC20460DB0BDE8F08F9072020863
:1030F000F47102081C8F020864710208F000B40029
:10310000996600FF17BDFEFF5471020870477047B3
:1031100000F598730868496803C3704770477047A3
:103120004160704770470000064BC0F84C310023E7
:10313000C0F8503100F5A273C0F84801C0F8403122
:10314000704700BF65350008012303727047704760
:10315000704710B4C26841685410034601EB620026
:10316000D20748BF0A599B685DF8044B48BFD35843
:1031700018470346406830B19A681AB9D86800F019
:10318000010070470120704710B50C21044621F062
:103190001DFB204610BD10B51021044621F016FB82
:1031A000204610BD10B54FF4AE71044621F00EFB61
:1031B000204610BD10B50EF0FFFC0368BDE81040BE
:1031C000DB6B184710B50446D0F8400158B10368CE
:1031D000DB68984738B1D4F8400103689B6898478A
:1031E0000023C4F8403110BD044B1B6893F85820ED
:1031F0000AB1D86C00B99868704700BF40730120CD
:10320000F8B5174604460E460EF098FD124B1C60AA
:10321000124B2360124B0025C4E95135114BC4E910
:1032200053551868036801219B68C4E94F55C4E9E8
:1032300055769847284602F031FDFFF7D5FF19F083
:10324000C2F9FFF7D1FF19F039FAFFF7CDFF19F0F6
:1032500041FA2046F8BD00BF94730120EC770208C4
:10326000D477020840730120064BC0F84C3100238C
:10327000C0F8503100F5A273C0F84801C0F84031E1
:10328000704700BF65350008064BC0F84C3100237D
:10329000C0F8503100F5A273C0F84801C0F84031C1
:1032A000704700BF19340008064BC0F84C310023AA
:1032B000C0F8503100F5A273C0F84801C0F84031A1
:1032C000704700BFD132000803685B6A18470000EE
:1032D0002DE9F14FD0E9556A0746B06803681B6ACB
:1032E0009847B0F52E7F05D2434B444AA32144486A
:1032F00022F0B2F9706803681B6A98470F2803D858
:10330000404B3E4AA421F2E7F06803681B6A9847E5
:103310000B2803D83C4B394AA521E8E70EF04CFCBA
:10332000DFF8EC9004300EF06CFCD9F8000010B11E
:103330000368DB689847D9F8000010B103681B6880
:103340009847DFF8D080D8F8000010B103685B69B7
:103350009847D7F83C0110B103685B689847D8F8E4
:10336000000010B103681B689847D7F83C0110B102
:1033700003689B689847F0680021FFF7A5FF4FF0AE
:10338000000B224BC0F804B0044680F808B003607C
:10339000B068036859465B6A9847054603F0F6F93A
:1033A0007068036859465B6A98472946064603F0E9
:1033B000CBF9331DC7F83C61C9F80040C8F800508C
:1033C000CAF800302B68C6F808A02846DB68EE6310
:1033D0009847336830461B6898472146284610F0C6
:1033E0009BFD236820461B69984723685B6920463C
:1033F00001B0BDE8F04F18471C730208AA73020819
:1034000090740208D77402087A750208407802089E
:1034100088730120847301202DE9F14FD0E9556AAA
:103420000746B06803681B6A984744F2972398429E
:1034300005D8444B444AA321444822F00DF9706852
:1034400003681B6A98470F2803D8414B3E4AA421C2
:10345000F2E7F06803681B6A98470B2803D83D4BD6
:10346000394AA521E8E70EF0A7FBDFF8F090043019
:103470000EF0C7FBD9F8000010B10368DB6898476D
:10348000D9F8000010B103681B689847DFF8D080B6
:10349000D8F8000010B103685B699847D7F83C0181
:1034A00010B103685B689847D8F8000010B1036852
:1034B0001B689847D7F83C0110B103689B68984790
:1034C000F0680021FFF700FF4FF0000B224BC0F81F
:1034D00004B0044680F808B00360B0680368594639
:1034E0005B6A9847054602F019FE70680368594602
:1034F0005B6A98472946064602F06CFD331DC7F803
:103500003C61C9F80040C8F80050CAF800302B6888
:10351000C6F808A02846DB68EE6398473368304653
:103520001B6898472146284610F0F6FC2368204681
:103530001B69984723685B69204601B0BDE8F04FDE
:10354000184700BF1C7302081D7602089074020819
:10355000D77402087A75020840780208887301203F
:10356000847301202DE9F14FD0E9556A0746B06810
:1035700003681B6A9847B0F5DA7F05D2434B444A8B
:10358000A321444822F068F8706803681B6A9847D2
:103590000F2803D8404B3E4AA421F2E7F0680368A5
:1035A0001B6A98470B2803D83C4B394AA521E8E70A
:1035B0000EF002FBDFF8EC9004300EF022FBD9F89D
:1035C000000010B10368DB689847D9F8000010B11B
:1035D00003681B689847DFF8D080D8F8000010B166
:1035E00003685B699847D7F83C0110B103685B68D2
:1035F0009847D8F8000010B103681B689847D7F8BF
:103600003C0110B103689B689847F0680021FFF700
:103610005BFE4FF0000B224BC0F804B0044680F86C
:1036200008B00360B068036859465B6A984705466E
:1036300003F086F97068036859465B6A9847294623
:10364000064603F047F9331DC7F83C61C9F800404E
:10365000C8F80050CAF800302B68C6F808A0284601
:10366000DB68EE639847336830461B68984721460D
:10367000284610F051FC236820461B6998472368B0
:103680005B69204601B0BDE8F04F18471C73020883
:10369000F576020890740208D77402087A75020859
:1036A00040780208887301208473012070477047B6
:1036B00030B4C26844685510034604EB6200D20778
:1036C00048BF62599B6830BC48BFD358184703466F
:1036D000406830B19A681AB9D86800F001007047A4
:1036E0000120704710B51021044621F06FF82046E4
:1036F00010BD00F5157002F0B3BB38B500F5BE7310
:10370000994204460D4603D10EF056FAFFF7ACFD80
:1037100004F5E2739D4204D123682046D3F88C302F
:10372000984704F50374A54205D10EF045FABDE8AB
:103730003840FFF7B9BD38BD10B5064B0360064BE6
:10374000C0F85432044600F51570FFF744FA2046DD
:1037500010BD00BF7C7802085C83020810B50446E7
:10376000FFF7EAFF204640F2C44121F02FF820463F
:1037700010BD0000F8B5194B018F1B888B4206461F
:103780002AD9174B1B682BB9164B174A17486C21BF
:1037900021F062FF13F81120154B1B6853F82250DB
:1037A000144B186802F0B6FA2B6807469B6B284644
:1037B00098472B6804469B6C3946284698472B68E7
:1037C00014FB00F45B6A394628469847A4B22318D4
:1037D0001BB2A6F84630F8BD0023FAE79C7301201F
:1037E00098730120487002088A700208C5700208A8
:1037F000A0730120A47301202DE9F04F04468FB07F
:1038000025460026FFF798FAAE4BA66245F82C3BFA
:1038100031462622284622F040F92846FFF78CFA46
:10382000A94BE36204F1580AFF2304F1A00984F8CC
:10383000523066655046FFF7C5FA04F1E80848467D
:10384000FFF7C0FA4046FFF7BDFAA04BC4F8E830D6
:1038500004F59A73C4F8306118460293FFF7B2FA80
:1038600004F5BE73184603930BF0FAFD04F5E273FA
:1038700004F5037B184604930BF0F2FD58460BF059
:10388000EFFD04F515731846059302F09FFA904B6F
:10389000C4F8B4348F4BC4F8BC348F4BA3604FF4DE
:1038A000A0733246C4F8B844C4F8C06431460093EB
:1038B0002846F023FFF75FFA4FF07F4363659B23B1
:1038C00084F852302946204606AD08F041F84FF002
:1038D000FF37102250460C21FFF740FA5146284688
:1038E000C4F88870A4F88C600AF0A4FF95E807007B
:1038F00004F1940383E80700784B0C930CA914237C
:103900005046ADF834300BF03DFA5146204608F0F1
:103910001FF8382248464E21FFF720FA494628462C
:10392000C4F8D070A4F8D4600AF084FF95E80700CA
:1039300004F1DC0383E807004FF0130A674B0C9394
:103940000CA94846ADF834A00BF01CFA49462046B5
:1039500007F0FEFF56224046CDF800A057234E2127
:10396000FFF709FA4FF0FF23C4F81831D4F8E83014
:10397000A4F81C6141462846D3F88430984795E85E
:10398000070004F5927383E80700544B0C930CA9CD
:1039900012234046ADF834300BF0F4F9414620468E
:1039A00007F0D6FF029876222221FFF7D7F9029975
:1039B000C4F864712846A4F868610AF03BFF95E8F2
:1039C000070004F5B87383E80700444B02980C9392
:1039D0000CA91123ADF834300BF0D4F9029984F816
:1039E0005961204607F0B4FF039840F215124621B2
:1039F000FFF7B4F903250CAA0BA90398ADF82C50D6
:103A00004FF00C09ADF830500BF01AFA0398A4F8F7
:103A1000B491FFF7AFFE04F2B4484FF07F43C4E91E
:103A20006E370399C4F8A481204607F091FF0498EB
:103A30004946EB22FFF792F90CAA0BA90498ADF8BE
:103A40002C50ADF830500BF0FBF90B230498A4F880
:103A5000FC31FFF78FFE4FF07F43C4E980370499B4
:103A6000C4F8EC81204607F073FF5846EB22812111
:103A7000FFF774F90CAA0BA95846ADF82C50ADF815
:103A800030500BF0DDF90A23A4F844325846FFF712
:103A900071FE4FF07F43C4E9923759462046C4F87F
:103AA000348207F055FF05988B223146FFF756F90F
:103AB0002046059984F8796207F04AFF20460FB046
:103AC000BDE8F08F7C780208408E0208647102081D
:103AD00064780208FB360008F000400154710208C7
:103AE000704770477047704770477047704770471E
:103AF00030B4C26844685510034604EB6200D20734
:103B000048BF62599B6830BC48BFD358184703462A
:103B1000406830B19A681AB9D86800F0010070475F
:103B20000120704790F82D3080F86030704710B554
:103B30006421044620F04AFE204610BD10B5102135
:103B4000044620F043FE204610BD0146383091F86F
:103B50002C3013B136310BF041BB3431FBE710B5DB
:103B6000044600F53E7002F08AFF04F57D7003F014
:103B700010F804F59E6003F068F804F2EC5003F0CE
:103B800036F804F5DD6003F08EF804F2E47002F01C
:103B9000A4FF04F50E6002F0CEFF04F6DC1002F084
:103BA00008FA04F6C46002F039FF04F586500430C8
:103BB000BDE8104002F0B8BD00F1F0028A4202D127
:103BC0000368DB6A18477047274B284A10B5036023
:103BD00000F58053044600F58650C3F8C420043035
:103BE00000F085FB224BC4F8C43E04F6C46000F02C
:103BF000D2FF204BC4F8DC3904F6DC10FFF79CFD43
:103C00001D4BC4F8E03804F50E6001F033FD1B4B8A
:103C1000C4F8E43704F2E47001F0A4FC184BC4F8D3
:103C2000E83604F5DD6001F03DFF164BC4F8EC35D5
:103C300004F2EC5001F02AFE134BC4F8F03404F502
:103C40009E6001F0A9FE114BC4F8F43304F57D70B9
:103C500001F096FD0E4BC4F8F83204F53E7001F009
:103C6000E3FB204610BD00BFCC790208588502084E
:103C7000B4860208608402087C880208E88702088B
:103C8000CC8A0208A4890208388A0208108902082E
:103C90005487020810B50446FFF796FF204641F20C
:103CA000242120F093FD204610BD0B882DE9F04122
:103CB00083861388B0F90850C386044610469046A0
:103CC00011F0E6FCB4F90A30074603EBD373404623
:103CD000C3F34F0611F010FD05EBD575C5F34F0585
:103CE00000EBD07007EBD777A6EB6002A5EB67017E
:103CF00004F1380012B209B2FFF730F82368204609
:103D0000D3F88C30BDE8F041184700002DE9F04FA2
:103D100004469DB0A04600250FF052FFDD4BE56341
:103D200048F8403B4046FFF739F804F16C03184669
:103D30000793FFF733F804F1980318460893FFF749
:103D40002DF804F1C403184604F1F0070993FEF7B7
:103D5000F3FFD14BC4F8C430C4F8EC503846FEF73A
:103D6000EBFF4FF47F43A4F81C31012384F8143196
:103D7000CA4BC4F8F03004F594764FF0FF33262296
:103D8000C4F8243129464FF6FF7BC4F81851C4F813
:103D900020513046ADF868B021F07FFE3046FEF786
:103DA000CBFFBF4BC4F82831BDF86830A4F84E31C2
:103DB00084F850B11AA930460BF010FA3146384653
:103DC00007F0C6FD04F5AA7318460393FEF7FAFF41
:103DD00004F5CE731846B34E0493FEF7F3FF04F5D3
:103DE000F473C4F89C61C4F8E45118460593FEF7D7
:103DF000E9FF04F50C7304F51F7A18460693FEF7E5
:103E0000E1FFC4F83062C4F878525046FEF7DAFF9A
:103E100004F5317318460A93FEF7C0FFA24BC4F8AD
:103E2000C43204F53E73C4F8F052A4F8F4521846B4
:103E30000B9302F00DFE04F57D7318460C9302F00F
:103E400091FE04F59E6318460D9302F0E7FE04F21E
:103E5000EC5318460E9302F0B3FE04F5DD631846EA
:103E60000F9302F009FF04F2E4731846109302F076
:103E70001DFE04F50E631846119302F045FE04F68C
:103E8000DC131846129304F5865B02F04DF804F635
:103E9000C4630BF1040B1846139302F0A3FD5846BC
:103EA00002F02EFC814B04F58059C9E98534804B22
:103EB000C9E987354FF4A0732A4600932946404646
:103EC000F023261DFEF757FF4FF07F43A3664146C0
:103ED000304607F03DFD4FF4A0732A460798009343
:103EE00029469623FEF747FF724B0799C4F8943092
:103EF00030464FF48C7807F02BFD0898CDF8008001
:103F000023228C230521FEF736FF6B4B0899C4F85A
:103F1000C030304607F01CFD0998CDF800808C2396
:103F200023220521FEF727FF0999DFF8908130460B
:103F300007F00EFD06231AAA19A93846ADF8643019
:103F4000ADF86830FFF7B1FE04F590531433C4F8B0
:103F500020311C23C4F82C5104220093384605213B
:103F6000FEF709FF3946304607F0F2FC0398E422D9
:103F7000A62114AFFEF7F2FE4FF0FF330399C4F809
:103F800084313846A4F888510AF054FC97E80700B9
:103F900004F5C87383E807001A230398ADF86C3062
:103FA0001AA9CDF868800AF0EDFE0399304607F0B3
:103FB000CFFC1E2304980093FF2257239621FEF77F
:103FC000DAFE4FF0FF33C4F8CC31D4F89C310499B9
:103FD000D3F88430A4F8D0513846984797E80700C2
:103FE00004F5EC7383E8070019230498ADF86C30EE
:103FF0001AA9CDF868800AF0C5FE0499304607F08A
:10400000A7FC152305980093992250239C21FEF7C5
:10401000B2FE4FF0FF330599C4F818323846A4F8C1
:104020001C520AF007FC97E8070004F5097383E8BF
:10403000070021230598ADF86C301AA9CDF86880E7
:104040000AF0A0FE0599304607F082FC132306987B
:104050000093B42257239621FEF78DFE4FF0FF23E5
:10406000C4F86032D4F830320699D3F88430A4F81A
:1040700064523846984797E8070004F51B7383E8B5
:10408000070020230698ADF86C301AA9CDF8688097
:1040900016E000BFCC790208C08B02081479020830
:1040A000848F0208647102081C8F0208B479020828
:1040B000B93B0008BB4446FF764446FF54710208F2
:1040C0000AF060FE0699304607F042FC282250466E
:1040D000AA21FEF743FE4FF0FF33C4F8AC3251463D
:1040E0003846A4F8B0520AF0A5FB97E8070004F59B
:1040F0002E7383E807001F231AA95046ADF86C30D1
:10410000CDF868800AF03EFE5146304607F020FCAC
:1041100042230A9800933C22A321FEF72CFE4FF085
:104120007F43C4F8EC3203F57F03C4F8F032032375
:10413000A4F8F4320A99304607F00AFC0B9846229C
:10414000A821FEF70BFE0B9984F81D53304607F0AB
:10415000FFFB0C984122A821FEF700FE0C9984F881
:104160001954304607F0F4FB0D984122AF21FEF7B9
:10417000F5FD0D9984F81555304607F0E9FB0E98CA
:104180004122A121FEF7EAFD0E9984F8115630462E
:1041900007F0DEFB0F984122AE21FEF7DFFD0F99FD
:1041A00084F80D57304607F0D3FB10984122AF2119
:1041B000FEF7D4FD109984F80958304607F0C8FB83
:1041C00011984122A121FEF7C9FD119984F80559E2
:1041D000304607F0BDFB2A4612982946FEF7BEFD81
:1041E000129984F8015A304607F0B2FB2A46139818
:1041F0002946FEF7B3FD139984F8E95E304607F0CF
:10420000A7FB2A4629465846FEF7A8FD304689F8FE
:10421000E950594607F09CFB20461DB0BDE8F08FE1
:10422000406A7047806A704770478A880B8810B56B
:10423000D20A4C88C1699BB251F8220043EA044378
:10424000184410BD10B50446BAB1107B68B1537B59
:10425000D27A1B0203F4E0631A43236A03EB82035E
:104260001A888A4202D193F9020010BD05D801389C
:1042700080B204330028F3D1F7E70020F5E710B54A
:104280002C21044620F0A2FA204610BD30B58BB098
:104290000446BDF860500895BDF85C5007959DF840
:1042A000505006959DF84C5005959DF84850049542
:1042B0009DF8445003959DF8405002959DF83C5060
:1042C0000195BDF8385000950FF080FA064B236039
:1042D000159BE361169B2362199B63621A9BA36281
:1042E00020460BB030BD00BF047A0208704770470B
:1042F0007047704730B4C26844685510034604EBF9
:104300006200D20748BF62599B6830BC48BFD3588F
:1043100018470346406830B19A681AB9D86800F067
:10432000010070470120704710B51021044620F0AD
:104330004DFA204610BD10B54FF4A071044620F090
:1043400045FA204610BD00F1A0028A4203D103685D
:10435000D3F88C30184770472DE9F04F044689B0E8
:1043600025460026FEF7E8FC5A4BA66245F82C3B92
:1043700031462622284621F090FB2846FEF7DCFC39
:10438000554BE36204F15807FF2304F1A00A84F8B7
:10439000523066653846FEF715FD04F1E8095046CF
:1043A0000BF05EF84846FEF70DFD4C4BC4E94C346B
:1043B0004B4BC4E94E364B4BA36032463146284640
:1043C000FEF7CCFC2846F021FEF7A4F928464FF46E
:1043D000A071FEF7A1F94FF07F436365294620469F
:1043E00007F0B6FA4C2238460921FEF7B7FC6D46B5
:1043F0004FF0FF334FF0010BC4F8883039462846A0
:10440000A4F88CB00AF016FA95E8070004F19408B5
:1044100088E807003946284684F891B00AF00AFA7D
:1044200095E8070088E807000222DFF8BC80ADF8B5
:104430001C2006A93846CDF818800AF0A3FC39469E
:10444000204607F085FA5046EA220D21FEF786FC49
:1044500006AA05A95046ADF814B0ADF818600AF0E8
:10446000EFFC5046A4F8D8B0FFF784F94FF0FF33C3
:104470004FF07F42C4E9372304F59872C4F8C8208E
:104480005146204607F064FA1D2248464121FEF7B6
:1044900065FC4FF0FF33C4F8183149462846A4F8AC
:1044A0001C610AF0C7F995E8070004F5927383E8E8
:1044B000070006A94846CDF81880ADF81C600AF040
:1044C00061FC2046494607F043FA204609B0BDE8A2
:1044D000F08F00BF847A0208408E02086C7A0208CE
:1044E00047430008F000400154710208806C704797
:1044F000C06C7047704770477047704730B4C268EF
:1045000044685510034604EB6200D20748BF625965
:104510009B6830BC48BFD35818470346406830B149
:104520009A681AB9D86800F00100704701207047F6
:1045300010B55021044620F049F9204610BD10B5B1
:104540001021044620F042F9204610BD10B54FF46A
:104550002771044620F03AF9204610BD00F511708D
:10456000884208B505D10DF027FBBDE80840FEF7ED
:104570007BBE08BD10B50446FEF724FC034B236048
:104580000023C4E91233204610BD00BF1C7B020883
:104590002DE9F04F04468FB025460FF011FB0026A1
:1045A000B24BE66345F8403BB14B2666C4E9103692
:1045B0004FF4807304F16C09A4F86430FF2304F114
:1045C000B40B84F86630C4E91266C4E91466C4E921
:1045D0001666A6664846FEF7F5FB04F5827A58464D
:1045E000FFF7C8FF5046FFF7C5FF04F5AA7318464A
:1045F0000293FFF7BFFF04F5D27318460393FFF74A
:10460000B9FF04F5FA7318460493FFF7B3FF04F5F6
:104610001173184605930AF023FF964BDFF870825A
:10462000C4E9A334944BC4E9A5364FF4A0733246D1
:10463000009331462846F023271DFEF79CFB4FF0E0
:104640007F43A3662946384607F082F91822484678
:104650000D2106ADFEF782FB4FF0FF33C4F89C300E
:1046600049462846A4F8A0600AF0E4F895E8070057
:1046700004F1A80383E8070009230CA94846ADF814
:104680003430CDF830800AF07DFB494638464FF093
:10469000190907F05DF93C225846CDF80090A02397
:1046A0002821FEF768FB754BC4F8E430D4F8B43029
:1046B000A4F8E86059462846D3F88430984795E82E
:1046C000070004F1F00383E8070008230CA958460B
:1046D000ADF83430CDF830800AF054FB59463846F6
:1046E00007F036F98C225046CDF80090A0232821FF
:1046F000FEF741FB624BC4F83431D4F80431A4F81E
:10470000386151462846D3F88430984795E8070029
:1047100004F5A07383E8070007230CA95046ADF801
:104720003430CDF830800AF02DFB5146384607F082
:104730000FF90298CDF80090B422A0232821FEF7AB
:104740001AFB504BC4F88431D4F854310299D3F891
:104750008430A4F888612846984795E8070004F556
:10476000C87383E8070005230298ADF834300CA91C
:10477000CDF830800AF006FB0299384607F0E8F8D9
:104780000398CDF80090DD22A0232821FEF7F3FA4C
:104790003D4BC4F8D431D4F8A4310399D3F8843014
:1047A000A4F8D8612846984795E8070004F5F07307
:1047B00083E8070004230398ADF834300CA9CDF842
:1047C00030800AF0DFFA0399384607F0C1F8049800
:1047D000CDF800906422A0232821FEF7CCFA2B4BC1
:1047E000C4F82432D4F8F4310499D3F88430A4F80E
:1047F00028622846984795E8070004F50C7383E87B
:10480000070006230498ADF834300CA9CDF83080A9
:104810000AF0B8FA0499384607F09AF805984FF468
:1048200085720D21FEF79AFA01230CAA0BA90598AF
:10483000ADF82C30ADF830300AF002FB03230598B8
:10484000A4F87C32FEF796FF4FF07F424FF0FF3323
:10485000C4E9A02304F5237338460599C4F86C32E3
:1048600007F076F820460FB0BDE8F08FC47B020851
:10487000408E0208AC7B02085D4500080100FFFF86
:1048800000C3FFFF376A01FF8A5100FF0668F7FF88
:10489000547102087047704770477047704730B4D2
:1048A000C26844685510034604EB6200D20748BF53
:1048B00062599B6830BC48BFD358184703464068CC
:1048C00030B19A681AB9D86800F001007047012029
:1048D000704710B5102104461FF078FF204610BD28
:1048E00010B54FF4DA7104461FF070FF204610BD7A
:1048F00038B500F19803994204460D4602D1036889
:10490000DB6A984704F594739D4203D123682046DF
:104910001B6B984704F1E0039D4203D10DF04CF965
:10492000FEF7C2FC04F5B874A54205D10DF044F9B8
:10493000BDE83840FEF7A8BC38BD00000022C0E941
:104940000122C0E90322C0E90522C0E907224FF491
:1049500080728284014A0260704700BFF87B0208BF
:104960002DE9F04F044685B0264600250FF028F9C2
:10497000814BE56346F8403B29462622304621F02C
:104980008CF83046FFF7DAFF04F16C087B4B2364A8
:104990004FF0FF0926224FF6FF77294684F86690EC
:1049A000A5664046ADF80C7021F077F84046FFF759
:1049B000C5FF734BE366BDF80C30A4F8923003A931
:1049C00004F1980B84F8949040460AF007FC04F137
:1049D000E00A58460AF044FD04F5947950460AF07E
:1049E0003FFD48460AF03CFD04F5B87329462622EF
:1049F0001846019321F051F80198FFF79FFF614A93
:104A0000C4F87021604AA4F89E71C4E969245F4A21
:104A1000A4F8A071012384F89431C4E96B2584F8CB
:104A2000A2712A4629463046C4F8985184F89C5110
:104A3000FEF794F93046F021FDF76CFE30464FF456
:104A4000A071FDF769FE271D4FF07F43A366314635
:104A5000384606F07DFF2A4640464621FEF77EF99D
:104A6000072203A94046ADF80C200AF0B7FB4146E7
:104A7000384606F06DFF5846CA220D21FEF76EF942
:104A8000012302A903AA5846ADF80830ADF80C304E
:104A90000AF0D6F91822A4F8D0205846FEF76AFE8C
:104AA00004F5D2764FF07F434FF0FF38C4E9353834
:104AB00059463846C4F8C06006F04AFF50464FF4E5
:104AC00083720D21FEF74AF903AA012302A9504679
:104AD000ADF80830ADF80C300AF0B2F91723A4F89D
:104AE00018315046FEF746FE4FF07F43C4E9473881
:104AF00051463846C4F8086106F02AFF48468E221F
:104B00003321FEF72BF903AA022302A94846ADF888
:104B10000830ADF80C300AF093F91623A4F8603190
:104B20004846FEF727FE4FF07F43C4E9593849460F
:104B3000384684F84D51C4F8506106F009FF0198D9
:104B40002A462946FEF70AF904230198ADF80830F1
:104B500003AA052302A9ADF80C300AF071F9384612
:104B6000019984F89551C4F8986106F0F1FE204649
:104B700005B0BDE8F08F00BF787C0208408E0208C7
:104B8000848F0208A88E0208607C0208F1480008A1
:104B900070477047704770477047704730B4C268BD
:104BA00044685510034604EB6200D20748BF6259BF
:104BB0009B6830BC48BFD35818470346406830B1A3
:104BC0009A681AB9D86800F0010070470120704750
:104BD00010B5102104461FF0F9FD204610BD10B598
:104BE0004FF4E87104461FF0F1FD204610BD38B5C2
:104BF00000F1A003994204460D4603D10368D3F89F
:104C00008C30984704F5BC739D4204D1236820463C
:104C1000D3F89030984704F1E8039D4204D123680B
:104C20002046D3F89430984704F59874A54205D1EE
:104C30000CF0C2FFBDE83840FEF716BB38BD0000DF
:104C40002DE9F04F04468BB025460027FEF774F897
:104C5000814AA76245F82C2B26263246394628463B
:104C600020F01BFF2846FEF767F87C4AE26204F159
:104C70005803FF22394684F85220676532461846A9
:104C8000009320F00AFF0098FEF756F8744AA265D8
:104C90004FF6FF72734BA4F884204FF0FF3604F1F7
:104CA000A00B4FF47F02C4F8803004F1E80AC4F886
:104CB0008C20C4E92667C4F88870A4F89070C4F802
:104CC000947058460AF0CCFB04F5987950460AF0E7
:104CD000C7FB48460AF0C4FB04F5BC7210460192BB
:104CE0000AF0BEFB604AC4E97024604AC4E9722736
:104CF0005F4AA26039463A462846FEF72FF8284612
:104D0000F021FDF707FD28464FF4A071FDF704FDE3
:104D10004FF07F488C2284F8522029462046C4F860
:104D2000548006F015FE02AD009817223F21FEF7D1
:104D300015F80099A4F88C702846C4F8886009F02A
:104D400079FD95E8070004F1940383E80700454BDB
:104D50000098089308A91E23ADF824300AF012F831
:104D60000099204606F0F4FD58465D220D21FDF71E
:104D7000F5FF012708AA07A95846ADF81C70ADF841
:104D800020700AF05DF81D23A4F8D83004F5E07512
:104D90005846FEF7EFFC59462046C4E93786C4F86A
:104DA000C85006F0D5FD50464FF485720D21FDF731
:104DB000D5FF08AA07A95046ADF81C70ADF82070C1
:104DC0000AF03EF81C23A4F820315046FEF7D2FC2E
:104DD00051462046C4E94986C4F8105106F0B8FD92
:104DE0004846C2220D21FDF7B9FF08AA07A9484687
:104DF000ADF81C70ADF820700AF022F81523A4F865
:104E000068314846FEF7B6FC49462046C4E95B8651
:104E1000C4F8585106F09CFD01988E220D21FDF733
:104E20009DFF08AA07A90198ADF81C70ADF8207085
:104E30000AF006F81B230198A4F8B031FEF79AFC9B
:104E40002046C4E96D860199C4F8A05106F080FDA2
:104E500020460BB0BDE8F08FCC7C0208408E0208E3
:104E6000B08D020854710208B47C0208EF4B0008B0
:104E7000F00040017047000030B5174D2C68BFF3BB
:104E80005B8F14F001048FB022D128461FF0A0FCE4
:104E9000F0B13F230993114B0893114B114912486C
:104EA0000A94CDE9064301220423CDE903320E23FF
:104EB00000930B220F23CDE90B44CDE90144059467
:104EC000FFF7E4F9094820F0E5FB28461FF08CFCC9
:104ED00005480FB030BD00BF2C6300203807030821
:104EE0007807030840F9020830630020754E000877
:104EF0007047000030B5174D2C68BFF35B8F14F07E
:104F000001048FB022D128461FF062FCF0B13F238C
:104F10000993114B0893114B114912480A94CDE99A
:104F2000064301220423CDE90332142300930B220C
:104F30001623CDE90B44CDE901440594FFF7A6F90A
:104F4000094820F0A7FB28461FF04EFC05480FB08B
:104F500030BD00BF5C6300203C0703087C070308EA
:104F6000DCF9020860630020F14E00087047000081
:104F700030B5164D2C68BFF35B8F14F001048FB071
:104F800021D128461FF024FCE8B13F230993104BA0
:104F90000893104B104911480A94CDE906430122A9
:104FA0000423CDE90332CDE901340C2300931A2206
:104FB000CDE90B440594FFF769F9094820F06AFB35
:104FC00028461FF011FC05480FB030BD8C6300204F
:104FD000400703088007030878FA0208906300205E
:104FE0006D4F00087047000030B5174D2C68BFF3B7
:104FF0005B8F14F001048FB022D128461FF0E8FB2C
:10500000F0B13F230993114B0893114B11480A94B7
:10501000CDE9064301220423CDE903320621112301
:10502000CDE9003135220C490594CDE90B440294B9
:10503000FFF72CF9094820F02DFB28461FF0D4FB80
:1050400004480FB030BD00BFBC6300204407030814
:1050500084070308C0630020E4FB0208E54F000852
:105060007047000030B5174D2C68BFF35B8F14F00C
:1050700001048FB022D128461FF0AAFBF0B13F23D4
:105080000993114B0893114B11480A94CDE906433B
:1050900001220423CDE9033207211423CDE9003195
:1050A00010220C490594CDE90B440294FFF7EEF869
:1050B000094820F0EFFA28461FF096FB04480FB08D
:1050C00030BD00BFEC6300204807030888070308D1
:1050D000F0630020CCFE0208615000087047000019
:1050E00030B5164D2C68BFF35B8F14F001048FB000
:1050F00021D128461FF06CFBE8B13F230993104BE8
:105100000893104B104911480A94CDE90643012237
:105110000423CDE9033219230922CDE90032CDE978
:105120000B4405940294FFF7B1F8094820F0B2FA55
:1051300028461FF059FB05480FB030BD1C64002005
:105140004C0703088C070308ACFF0208206400200A
:10515000DD5000087047000030B5164D2C68BFF3D5
:105160005B8F14F001048FB021D128461FF030FB73
:10517000E8B13F230993104B0893104B1049114895
:105180000A94CDE9064301220423CDE90332CDE997
:105190000134082300930F22CDE90B440594FFF757
:1051A00075F8094820F076FA28461FF01DFB0548DF
:1051B0000FB030BD4C64002050070308900703086F
:1051C0002C0003085064002055510008704700006F
:1051D00030B5164D2C68BFF35B8F14F001048FB00F
:1051E00021D128461FF0F4FAE8B13F230993104B70
:1051F0000893104B104911480A94CDE90643012247
:105200000423CDE90332142300934122CDE90B445A
:10521000CDE901440594FFF739F8094820F03AFA3E
:1052200028461FF0E1FA05480FB030BD7C6400202D
:105230005407030894070308000103088064002052
:10524000CD5100087047000030B5174D2C68BFF3F2
:105250005B8F14F001048FB022D128461FF0B8FAFA
:10526000F0B13F230993114B0893114B079301238E
:10527000CDE9054304930423CDE902430A230D49F4
:1052800000932D220C23CDE90B440B480A94019482
:10529000FEF7FCFF094820F0FDF928461FF0A4FAAC
:1052A00005480FB030BD00BFAC64002058070308AC
:1052B0009807030890040308B064002045520008D2
:1052C0007047000030B5164D2C68BFF35B8F14F0AB
:1052D00001048FB020D128461FF07AFAE0B13F23B5
:1052E0000993104B0893104B104911480A9401225E
:1052F000CDE906430423CDE903320F230093CDE922
:105300000B44CDE901440594FEF7C0FF094820F0A5
:10531000C1F928461FF068FA05480FB030BD00BF3C
:10532000DC6400206C0703089C07030808070308D7
:10533000E0640020C15200087047000030B5164DEF
:105340002C68BFF35B8F14F001048FB020D1284686
:105350001FF03EFAE0B13F230993104B0893104B26
:10536000104911480A940122CDE906430423CDE9EE
:10537000033214230093CDE90B44CDE90144059495
:10538000FEF784FF094820F085F928461FF02CFA23
:1053900005480FB030BD00BF0C6500207007030842
:1053A000A0070308180703081065002039530008F8
:1053B0007047000030B5164D2C68BFF35B8F14F0BA
:1053C00001048FB020D128461FF002FAE0B13F233C
:1053D0000993104B0893104B104911480A9401226D
:1053E000CDE906430423CDE9033228230093CDE918
:1053F0000B44CDE901440594FEF748FF094820F02D
:1054000049F928461FF0F0F905480FB030BD00BF3C
:105410003C65002074070308A40703082807030855
:1054200040650020B15300087047704710B5FC215B
:1054300004461FF0CBF9204610BD00004FF48071E8
:105440008184FF21002280F8261007498262C0E98A
:105450000122C0E90322C0E90522C0E90722016058
:10546000C2620286704700BF1C8F02082DE9F04F10
:105470004FF48073054600268384374B8662C0E96B
:105480000166C0E90366C0E90566C0E9076645F83C
:105490002C3B044685B004F1600B2846FFF7CEFF95
:1054A00004F1940A5846FFF7C9FF5046FFF7C6FFBC
:1054B00004F1C80318464FF00E09DFF8A480274F07
:1054C0000393FFF7BBFF4FF03813A3604A464B46E8
:1054D000314628460226CDF80090FDF74CFC2946BF
:1054E0002046C4E91587A4F85C6006F031FA4B4603
:1054F0004A4649465846CDF80090FDF73CFC5946CF
:105500002046C4E92287A4F8906006F021FA4B46B1
:105510004A465046CDF800901C21FDF72CFC514620
:105520002046C4E92F87A4F8C46006F011FA039856
:10553000CDF800904B464A462A21FDF71CFC204638
:10554000C4E93C870399A4F8F86006F001FA204604
:1055500005B0BDE8F08F00BF6C7D0208E4D79FFF67
:10556000D8C853FF7047704710B5FC2104461FF0A0
:105570002DF9204610BD00002DE9F04F4FF4807347
:10558000064600258384384B8562C0E90155C0E991
:105590000355C0E90555C0E9075546F82C3B0446BC
:1055A00085B004F1600B3046FFF748FF5846FFF71F
:1055B00045FF04F1940318460293FFF73FFF04F1FF
:1055C000C80318464FF00E0ADFF8A090DFF8A0805D
:1055D0000393FFF733FF4FF038130227A3605246BF
:1055E000534629463046CDF800A0FDF7C4FB3146AE
:1055F0002046C4E91598A4F85C7006F0A9F9534652
:105600001C2229465846CDF800A0FDF7B4FB5946A8
:105610002046C4E92298A4F8907006F099F9534600
:105620000298CDF800A01C225146FDF7A4FB029978
:10563000A4F8C4702046C4E92F9806F089F91C220A
:1056400011460398CDF800A05346FDF794FB204681
:10565000C4E93C980399A4F8F87006F079F920465B
:1056600005B0BDE8F08F00BF007E0208A55520FF01
:10567000A75F2FFF7047704710B5FC2104461FF04D
:10568000A5F8204610BD00002DE9F04F0023054687
:105690004FF48072C0E90133C0E90333C0E9053338
:1056A000C0E907338362334B828445F82C3B0446C0
:1056B00085B004F1600B2846FFF7C0FE04F1940AA0
:1056C0005846FFF7BBFE5046FFF7B8FE04F1C8038B
:1056D00018464FF00E09DFF8A480274F0393FFF719
:1056E000ADFE4FF038130226A3601C224B464946FC
:1056F0002846CDF80090FDF73EFB29462046C4E938
:105700001587A4F85C6006F023F91C224B4611466D
:105710005846CDF80090FDF72EFB59462046C4E9C7
:105720002287A4F8906006F013F94B461C225046DD
:10573000CDF800902A21FDF71EFB51462046C4E912
:105740002F87A4F8C46006F003F90398CDF8009001
:105750004B464A462A21FDF70EFB2046C4E93C870A
:105760000399A4F8F86006F0F3F8204605B0BDE808
:10577000F08F00BF947E02083095FCFF3374F4FF75
:105780007047704710B5FC2104461FF01FF82046F3
:1057900010BD00002DE9F04F002305464FF4807244
:1057A000C0E90133C0E90333C0E90533C0E9073379
:1057B0008362334B828445F82C3B044685B004F168
:1057C000600B2846FFF73AFE04F1940A5846FFF7AB
:1057D00035FE5046FFF732FE04F1C80318464FF07D
:1057E0000E09DFF8A480274F0393FFF727FE4FF041
:1057F00038130226A3604A464B4649462846CDF850
:105800000090FDF7B8FA29462046C4E91587A4F8A8
:105810005C6006F09DF84B461C2249465846CDF880
:105820000090FDF7A8FA59462046C4E92287A4F85B
:10583000906006F08DF81C224B4611465046CDF87C
:105840000090FDF798FA51462046C4E92F87A4F846
:10585000C46006F07DF80398CDF800904B464A46A8
:105860001C21FDF788FA2046C4E93C870399A4F877
:10587000F86006F06DF8204605B0BDE8F08F00BF77
:10588000287F020857D5DBFF21E9EFFF70477047FB
:1058900010B5FC2104461EF099FF204610BD000003
:1058A0002DE9F04F002305464FF48072C0E9013323
:1058B000C0E90333C0E90533C0E907338362334BE2
:1058C000828445F82C3B044685B004F1600B2846E1
:1058D000FFF7B4FD04F1940A5846FFF7AFFD5046B8
:1058E000FFF7ACFD04F1C80318464FF00E09DFF8CE
:1058F000A480274F0393FFF7A1FD4FF03813022632
:10590000A3601C224B4649462846CDF80090FDF77F
:1059100032FA29462046C4E91587A4F85C6006F0EF
:1059200017F81C224B4611465846CDF80090FDF75B
:1059300022FA59462046C4E92287A4F8906006F06E
:1059400007F84B464A465046CDF800901C21FDF71B
:1059500012FA51462046C4E92F87A4F8C46005F026
:10596000F7FF0398CDF800904B464A462A21FDF7F1
:1059700002FA2046C4E93C870399A4F8F86005F0D0
:10598000E7FF204605B0BDE8F08F00BFBC7F0208EE
:105990001C17DCFF2E33EEFF7047704710B5FC215B
:1059A00004461EF013FF204610BD00002DE9F04F05
:1059B0004FF48073054600268384374B8662C0E926
:1059C0000166C0E90366C0E90566C0E9076645F8F7
:1059D0002C3B044685B004F1600B2846FFF72EFDF2
:1059E00004F1940A5846FFF729FD5046FFF726FDBB
:1059F00004F1C80318464FF00E09DFF8A480274FC2
:105A00000393FFF71BFD4FF03813A3604A464B4644
:105A1000314628460226CDF80090FDF7ACF929461C
:105A20002046C4E91587A4F85C6005F091FF4B4659
:105A30004A4649465846CDF80090FDF79CF959462C
:105A40002046C4E92287A4F8906005F081FF4B4608
:105A50004A465046CDF800901C21FDF78CF951467E
:105A60002046C4E92F87A4F8C46005F071FF0398AD
:105A7000CDF800904B461C224946FDF77CF92046A4
:105A8000C4E93C870399A4F8F86005F061FF20465B
:105A900005B0BDE8F08F00BF50800208956BCCFFC9
:105AA0009438A7FF7047704710B5FC2104461EF0DC
:105AB0008DFE204610BD00002DE9F04F4FF480739D
:105AC000054600268384374B8662C0E90166C0E93B
:105AD0000366C0E90566C0E9076645F82C3B044645
