:020000040800F2
:100000000000032021060008951900089719000830
:10001000991900089B1900089D19000800000000AC
:10002000000000000000000000000000819A0008AD
:100030009F19000800000000119B00089193000820
:1000400071060008710600087106000871060008B4
:1000500071060008710600087106000871060008A4
:100060007106000871060008710600087106000894
:100070007106000871060008710600087106000884
:100080007106000871060008710600087106000874
:100090007106000871060008710600087106000864
:1000A0007106000871060008710600087106000854
:1000B0007106000871060008710600087106000844
:1000C0007106000871060008710600087106000834
:1000D0007106000871060008710600087106000824
:1000E0007106000871060008710600087106000814
:1000F0007106000871060008710600087106000804
:1001000071060008710600087106000871060008F3
:100110007106000871060008A119000871060008A0
:1001200071060008710600087106000871060008D3
:1001300071060008710600087106000871060008C3
:1001400071060008710600087106000871060008B3
:1001500071060008710600087106000871060008A3
:100160007106000871060008710600087106000893
:100170007106000871060008710600080000000002
:100180007106000871060008710600087106000873
:100190007106000871060008710600087106000863
:0C01A000AD19000871060008B91900082C
:1001B00010B5054C237833B9044B13B10448AFF3A1
:1001C00000800123237010BD4005002000000000C6
:1001D0000863020808B5034B1BB103490348AFF39A
:1001E000008008BD000000004405002008630208EC
:1001F00001F0FF01102A2BDB10F0070F08D010F8D8
:10020000013B013A8B422DD010F0070F42B3F6D1DB
:10021000F0B441EA012141EA014122F007047FF0F4
:1002200000070023F0E80256083C85EA010586EA4B
:10023000010685FA47F5A3FA87F586FA47F6A5FA87
:1002400087F68EB9EED1F0BC01F0FF0102F0070293
:1002500032B110F8013B013A83EA010313B1F8D13E
:100260000020704701387047002D06BF354603381F
:10027000073815F0010F07D1013015F4807F02BF58
:10028000013015F4C03F0130F0BC0138704700BFA9
:100290007BB972B90029BEBF00204FF0004106E0D3
:1002A00008BF00281CBF6FF000414FF0FF3000F086
:1002B000B5B9ADF1080C6DE904CE002909DB002BBE
:1002C0001ADB00F04DF8DDF804E0DDE9022304B0AC
:1002D0007047404261EB4101002B1BDB00F040F80E
:1002E000DDF804E0DDE9022304B0404261EB4101A6
:1002F000524263EB43037047524263EB430300F007
:100300002FF8DDF804E0DDE9022304B0404261EBA0
:1003100041017047524263EB430300F021F8DDF8DE
:1003200004E0DDE9022304B0524263EB430370476B
:1003300053B94AB9002908BF00281CBF4FF0FF314C
:100340004FF0FF3000F06AB9ADF1080C6DE904CE52
:1003500000F006F8DDF804E0DDE9022304B07047A0
:100360002DE9F047089D0C46002B4ED194468C4554
:100370008646B2FA82F262D94AB1C2F120039140B4
:1003800020FA03F30CFA02FC194300FA02FE4FEACA
:100390001C471FFA8CF6B1FBF7F44FEA1E4307FB2C
:1003A000141143EA014304FB06F199420AD91CEBFC
:1003B000030304F1FF3080F01281994240F20F8173
:1003C000023C6344591A1FFA8EF3B1FBF7F007FBA6
:1003D000101143EA014300FB06F69E420AD91CEBCA
:1003E000030300F1FF3180F0FC809E4240F2F9806F
:1003F000634402389B1B40EA044000211DB1D340F6
:100400000022C5E90032BDE8F0878B4205D90DB165
:10041000C5E9000100210846F5E7B3FA83F1002998
:1004200046D1A34202D39042C0F0F080861A64EB1A
:1004300003030120002DE6D0C5E90063E3E7002AAD
:1004400040F09080A1EB0C044FEA1C481FFA8CF797
:100450000121B4FBF8F64FEA1E4308FB164443EAB9
:10046000044307FB06F0984208D91CEB030306F18E
:10047000FF3402D2984200F2CD8026461C1A1FFAA1
:100480008EF3B4FBF8F008FB104443EA044300FB8E
:1004900007F79F4208D91CEB030300F1FF3402D297
:1004A0009F4200F2B0802046DB1B40EA0640A5E7F1
:1004B000C1F120068B4022FA06F71F4320FA06FC02
:1004C00004FA01F343EA0C03F44000FA01F8380C93
:1004D0004FEA1349B4FBF0FE1FFA87FC00FB1E44F1
:1004E00049EA04440EFB0CF9A14502FA01F20AD9CB
:1004F0003C190EF1FF3A80F08480A14540F28180E2
:10050000AEF1020E3C44A4EB09041FFA83F9B4FBDC
:10051000F0F300FB134449EA044403FB0CFCA4453C
:1005200007D93C1903F1FF3067D2A44565D9023BD6
:100530003C4443EA0E40A0FB0293A4EB0C049C4213
:10054000CE469C4651D34ED055B1B8EB0E0364EB6A
:100550000C0404FA06F6CB401E43CC40C5E9006407
:10056000002150E7C2F1200320FA03F10CFA02FC4B
:1005700024FA03F394400C434FEA1C4800FA02FEAD
:100580001FFA8CF7B3FBF8F008FB1031230C43EA99
:10059000014300FB07F1994208D91CEB030300F16A
:1005A000FF362CD299422AD9023863445B1AA4B28E
:1005B000B3FBF8F108FB113344EA034401FB07F3F2
:1005C000A34208D91CEB040401F1FF3613D2A34265
:1005D00011D902396444E41A41EA004139E704467A
:1005E000F0E6084606E7C845AED2B9EB020E63EB6B
:1005F000070C0138A8E73146EDE7034699E7304696
:10060000D4E7D6467FE7634402384DE706462346E3
:1006100008460FE7023E634430E700BF704700BF63
:10062000DFF834D0002103E00C4B5B584350043119
:100630000B480C4B42189A42F6D30B4A02E00023B7
:1006400042F8043B094B9A42F9D306F0FFFB25F030
:10065000E3F800F033FC704700000320B4300608D4
:100660000000002040030020400500200080012001
:10067000FEE70000F8B50A4D2C787CB9094B0A4F0B
:1006800026461846394625F0EEF801340346052C77
:10069000466003F10803F4D101232B70F8BD00BFBD
:1006A0005C05002060050020606302080048704778
:1006B00060050020F8B51B4C1B4D01230022C4E946
:1006C000002302210323C4E9021304200523C4E903
:1006D00004030623A3612B6813B908F093FE286076
:1006E0002B681248072183EA433383EA534383EAA2
:1006F000431323F00042B2FBF1F601FB162201394D
:1007000050F8046D54F822700760012944F8226003
:10071000E9D12B60064B676044F8226000221A6022
:10072000F8BD00BFB409002050060020D009002009
:10073000B0090020014B1868704700BFD4090020A1
:10074000014B1878704700BFD1090020044B18787E
:1007500018B1044B187880F0010000F001007047D8
:10076000D0090020D1090020014B1868704700BF54
:100770009C090020534203F0030302F0030258BF18
:100780005A42032A14D8DFE802F00205090E00EBF2
:10079000810070470C31A1EB800070478900C1F1E6
:1007A0000F01081A7047C1F1030101EB8000704787
:1007B000002070472DE9F74F1B4E009117469846D1
:1007C00006EB820600244FEA00194FF0280B45463D
:1007D000002104EB070A009A01912046FFF7CAFFA7
:1007E000124B0199484453F82020012A0BD1BAF149
:1007F000090F14D8132D12DC002D04DB0BFB05F2BE
:10080000B258002A0BDC0131042905F10105E2D1BF
:100810000134042C06F10406D9D1012000E00020A7
:1008200003B0BDE8F08F00BFD80900200800002009
:1008300070B5134E134D144C33682B602368062B90
:1008400001DDFFF737FF2368104928685A1C226032
:100850000F4A52F823300F4A3360002313600322FB
:100860000A600D490B601946FFF7A4FF0B4B80F09F
:100870000100C0B2187010B9094B01221A7070BD86
:100880009C090020AC090020B0090020A409002028
:10089000B4090020A8090020A0090020D1090020E7
:1008A000D009002008B54FF4487200210B4824F00D
:1008B0000AFF0B4A002313600A4A13700A4A137096
:1008C000FFF7F8FE094B01221A60094B1A68094B21
:1008D0001A60BDE80840FFF7ABBF00BFD809002091
:1008E000D4090020D1090020D0090020B00900203F
:1008F000B40900209C09002038B51C4B1B781BB1A3
:100900001B4B00221A7038BD01380328FBD8DFE8E2
:1009100000F00212161D174D2C68013C164B1B6887
:1009200022461649096816480068FFF743FF002869
:10093000E9D02C60E7E70F4D2C680134EEE70E4D4F
:100940000C4A2C68126801342346EAE70B4D094A29
:100950002C6812680134634203F0030304F00304BB
:1009600058BF5C42044B21461B68DCE7D1090020DC
:1009700059060020A4090020A0090020A809002091
:10098000AC0900203F4B1B782DE9F74F9BB93E4B3C
:100990003E4C1F683E4B2668D3F800A03D4BD3F871
:1009A0000080751C51462B4642463846FFF702FF31
:1009B000014618B1256003B0BDE8F08FDFF8E09084
:1009C0000A2404FB068409EB84043B01002501EBA7
:1009D000060B5246284601930091FFF7CBFE019B80
:1009E0002D4A0099184452F82020012A09D105EB1C
:1009F0000802092A05D8BBF1130F9CBF7A1C44F8E2
:100A000025200135042DE4D10131042904F1280405
:100A1000DCD1DFF88CA0002713264FF0280808FB54
:100A200006942246002352F8041BE1B101330A2B3D
:100A3000F9D10137B4460BE075460FCD0FC40FCD89
:100A40000FC495E803000CF1FF3C84E803007446F2
:100A5000A4F1280EBCF1000FEED1282261465046C9
:100A600024F031FE0136013ED9D22FB10B4A136872
:100A7000642101FB0733136003B0BDE8F04FFFF7BB
:100A8000D7BE00BFD1090020AC090020A00900207A
:100A9000A8090020A409002008000020D409002093
:100AA000D80900202DE9F74FC8220021264824F05C
:100AB0000AFE254A25490020154616460C46002305
:100AC000013354F8047B06F8017B0A2BF8D101307E
:100AD000142801F1280102F10A02EED11C4A126821
:100AE00001921C4A16681C4A17681C4AD2F80080FA
:100AF00003FB07834FEA061B1D444FF0000A013633
:100B000000240AEB0709019A51462046FFF732FEFE
:100B1000134B584453F82020012A07D104EB080254
:100B2000092A03D8B9F1130F98BF2E550134042CAC
:100B3000E9D10AF1010ABAF1040F05F10A05DFD182
:100B4000014803B0BDE8F08F88050020D8090020D7
:100B5000A8090020AC090020A0090020A409002059
:100B600008000020054B18684FF44873B0FBF3F001
:100B70000130082828BF0820704700BFD409002092
:100B800008B5FFF7EFFF0238062896BF024B40F288
:100B9000B63033F8100008BD646302081B4B1C49D3
:100BA0004FF44872184610B524F065FE194A1268D1
:100BB000C0F82023184A1268C0F82423174A126884
:100BC000C0F82823164A1268C0F82C23154A126868
:100BD000C0F83023144A1268C0F83423134A12783C
:100BE00080F83823124A127880F83923002203460D
:100BF000114653F8044B0132CF2A81EA0401F8D19F
:100C00000C4BC0F83C1301221A7010BD5C0600208A
:100C1000D8090020AC090020A8090020A409002060
:100C2000A00900209C090020D4090020D10900203F
:100C3000D009002059060020014B1870704700BFF2
:100C4000580600200A4B187810B578B109490023DE
:100C50001A46084651F8044B0133CF2B82EA0402AE
:100C6000F8D1D0F83C03831A5842584110BD00BF58
:100C7000590600205C06002010B5FFF7E3FF30B3F3
:100C8000134C14484FF44872214624F0F4FD124BE3
:100C9000D4F820231A60114BD4F824231A60104B87
:100CA000D4F828231A600F4BD4F82C231A600E4B6B
:100CB000D4F830231A600D4BD4F834231A600C4B4F
:100CC00094F838231A700B4B94F839231A7010BD1E
:100CD0005C060020D8090020AC090020A8090020EB
:100CE000A4090020A00900209C090020D4090020AC
:100CF000D1090020D0090020044B5F221A705A70DD
:100D00009A700022DA70024B1A60704704000020CB
:100D100054060020064B1A785F2A07D05A785F2ABB
:100D200004D098785F3818BF0120704700207047C2
:100D3000040000200138032822D8DFE800F0020F69
:100D40001822154B15491A688B5C5F2B01D0412B7B
:100D500002D85A238B547047013BFBE70E4B0F49D7
:100D60001A688B5C592B8CBF41230133F2E70A4A86
:100D70000A4913685F20002BC85401DD013B136052
:100D80007047054A05491368C95C5F29F8D0012BF3
:100D9000F6DC0133F3E700BF540600200400002016
:100DA00007B5064BADF806001B68054801220DF19A
:100DB000060107F093FE03B05DF804FBC8010020B4
:100DC000400D00202DE9F341114FDFF8508000263F
:100DD000104D8DF80760002435F8021B384606F0E8
:100DE000C5FA01280FD118F804308DF807300A48E9
:100DF00000231A460DF10701006808F037FC1E2099
:100E000008F04EFBE4E70134042CE5D1EFE700BF26
:100E10000004024076630208FC0C002072630208A2
:100E200030B595B0102200210AA824F04CFC142201
:100E3000002103A824F047FC00241E4B01941A6CE7
:100E400042F080521A641B6C03F080530193019BA3
:100E5000194B02941A6842F440421A601B6803F46A
:100E6000404302930122029B4FF48033CDE90823D3
:100E700002254FF480030821CDE90E534FF4B473DB
:100E8000CDE9101308A804231393129507F0DEF898
:100E900007F0A2F80F23CDE903354FF4A0504FF42B
:100EA0008053CDE90603052103A8059407F0AAFAAB
:100EB00015B030BD003802400070004080B59CB0D5
:100EC000C64DDFF85483002405F0CEFFFFF7A8FFDE
:100ED0001022002110A824F0F6FB01942B6BC048CF
:100EE00043F002032B632B6B03F0020301930227F1
:100EF000019B119740F603430FA90F9306F052F997
:100F000002942B6BB74843F010032B632B6B03F059
:100F100010030293029B03942B6B43F020032B637B
:100F20002B6B03F020030393039B04942B6B43F080
:100F300080032B632B6B03F080030493049B0594C5
:100F40002B6B43F004032B632B6B03F0040305931B
:100F5000059B06942B6B43F001032B632B6B03F073
:100F600001030693069B07942B6B3B432B632B6B70
:100F70003B400793079B08942B6B43F040032B6384
:100F80002B6B03F040030893089B09942B6B43F0F1
:100F900008032B632B6B944D03F00803224609933F
:100FA0003C21099B06F0E8F939469048012206F0F9
:100FB000E3F922468D48042106F0DEF922468C48EA
:100FC0004FF4405106F0D8F901263C23CDE90F3605
:100FD0008448119403230FA9129306F0E3F8834881
:100FE0000FA9CDE90F76CDE9114406F0DBF8042313
:100FF0007E480FA9CDE90F36CDE9114706F0D2F8AA
:101000000FA94FF440537A48CDE90F36CDE9114787
:1010100006F0C8F87748784B036005F0B7FFDFF8B3
:10102000FCE1764B2C62C5E900E328464FF480438F
:10103000C5E90434C5E90244C5E9064406F0AAFB43
:101040001021284606F0EEFD214628466C4D06F09C
:1010500008FE4FF48273C5E900834FF4007918232A
:10106000C5E9069328460A23C5E90244C5E90444B4
:10107000C5E90844AC62EB6207F0D4FC8F2322463A
:1010800039465A488DF82C308DF83C4006F074F9FA
:1010900032464FF47A730BA9284607F01FFD4FF430
:1010A0007A7332460FA9284607F0C4FE3246394605
:1010B0004E48544D06F060F99DF83C30D32B04BFE8
:1010C000514B1E70514B0126C5E9003610224023BA
:1010D0000024C5E904234FF4C073C5E906344FF476
:1010E0000063C5E908344FF4005302274FF00409A8
:1010F000AB624FF0030A07230FA92846CDE90F730F
:10110000CDE911934FF00808C5E90249CDE913A7CD
:10111000159707F06BFB4FF6FF720BA92846CDE938
:101120000C860A940B960E9407F080FB304605F06F
:10113000C7FE4FF6FF720BA92846CDE90B78CDE923
:101140000D6407F073FB4FF6FF720BA92846CDE93B
:101150000BA8CDE90D9407F069FB4FF40C730A93CB
:101160000A9B0E934FF6FF720BA92846CDE90B9808
:101170000D9607F05BFB40F26A51284607F074FBBE
:10118000342221460FA824F09EFA214D214B2C61D8
:10119000C5E900340923C5E905361D23C5E9073A29
:1011A00040F20D1140F24313C5E9091340F2171044
:1011B00040F24713C5E90B032846C5E90244AC8653
:1011C00085F8364006F0F2FDFF214FF4806CF022E6
:1011D000CDE914140521CDE916C121E00038024003
:1011E0000004024000100240400E002000080240AF
:1011F000000C0240D40E002000300240A086010006
:10120000400D00200C0D0020000D0020400100A02A
:10121000980D00200068014000500140005C004033
:101220004FF4A0730FA9CDE91024CDE91842284648
:101230002246204D1A93CDE912370F94ADF86C4039
:101240008DF86E4006F07DFE1B4B2B601B689847A7
:101250002B681A4DDB689847194B2846C5E90034BE
:10126000C5E90274C5E90A47C5E90C4405F09EFECC
:101270003146284605F052FF00F0F7FB00F0F4FB82
:1012800008F094F80F4A3146404608F0B4F90E4B86
:101290000E4A186021460E4808F0BBF80D4B0E4A66
:1012A000186021460D4808F0B4F80D4B186008F09E
:1012B0008FF8FEE7F80C0020F0010020940E0020CB
:1012C00000B00240D0010020FC0C0020C4630208E2
:1012D000C50D0008080D0020A0630208791A000857
:1012E000040D0020704770477FB5094B8DF817201B
:1012F0001B6802930DF117020123009201930A4625
:101300000146044806F0EEFA07B05DF804FB00BFA2
:10131000CC010020400E00207FB500238DF817304F
:10132000084B1B6802930A4601230DF11701009137
:1013300001930146044806F065FB9DF8170007B0CD
:101340005DF804FBCC010020400E00201FB5084CC6
:1013500024680092CDE901340A460123014605487C
:1013600006F050FB003818BF012004B010BD00BFCC
:10137000CC010020400E002005F0A2BD10B5064CA7
:1013800000222046042105F0F7FF20460122BDE897
:101390001040042105F0F0BF0008024038B50B4DA5
:1013A000044601220A484FF4005105F0E5FF0022EF
:1013B0000421284605F0E0FF2046FFF7F1FC28460F
:1013C0000122BDE83840042105F0D6BF00080240E4
:1013D000000C024038B50B4D044600220A484FF479
:1013E000005105F0C9FF00220421284605F0C4FF82
:1013F0002046FFF7D5FC28460122BDE838400421ED
:1014000005F0BABF00080240000C0240F7B5144EC8
:10141000144F05460C4630460022042105F0ACFF6F
:1014200000224FF40051384605F0A6FF2846FFF78A
:10143000B7FC0D4B0D481B68224601A907F0FAFCCA
:10144000384601224FF40051019C05F095FF3046CB
:101450000122042105F090FF204603B0F0BD00BF3B
:1014600000080240000C0240C8010020400D00208E
:1014700005F026BD0268034B9A4201D105F00EBD6E
:10148000704700BF001000407047000082B00E4B54
:1014900000220092596C41F480415964596C01F466
:1014A0008041009100990192196C41F080511964BA
:1014B0001B6C03F080530193019B0F216FF001001F
:1014C00002B005F023BD00BF003802400268094B9E
:1014D0009A4282B00BD100230193074B1A6B42F45E
:1014E00080521A631B6B03F480530193019B02B07B
:1014F000704700BF003002400038024007B50F4B74
:1015000002689A4216D10022A3F5F0430192196BAA
:1015100041F4000119631B6B03F4000301930521DF
:101520005A20019B05F0F2FC5A2003B05DF804EB51
:1015300005F01EBD03B05DF804FB00BF00B0024023
:101540002DE9F043044689B01422002103A824F0B9
:10155000BAF82268244B9A4243D1244C24480025EF
:101560000095236B43F004032363236B03F0040310
:101570000093009B0195236B43F001032363236BCE
:1015800003F001030193019B4FF012094FF4007324
:101590004FF001080327042603A9CDE90339CDE95B
:1015A0000587079605F0FEFD4FF4807311480796F6
:1015B00003A9CDE90339CDE9058705F0F3FD0295CF
:1015C000236C43F400032364236C03F400030293AD
:1015D000029B236A43F400032362236A23F400037B
:1015E000236209B0BDE8F083005C0040003802408F
:1015F0000008024000000240F0B599B004461422F1
:10160000002107A824F05FF830220DEB0200002132
:1016100024F059F822685E4B9A4240F0B7800823C4
:101620000C93C0231093042312930CA84FF400339F
:10163000159306F0AFFF08B1FFF726FF554B56484C
:10164000002400945A6C42F080625A645A6C02F092
:1016500080620092009A01941A6B42F020021A6391
:101660001A6B02F020020192019A02941A6B42F066
:1016700001021A631A6B02F001020292029A0394A9
:101680001A6B42F002021A631A6B02F00202039212
:10169000039A04941A6B42F040021A631A6B02F028
:1016A00040020492049A05941A6B42F004021A63F1
:1016B0001A6B02F004020592059A06941A6B42F026
:1016C00008021A631B6B03F00803069302250E261B
:1016D000069B0B964FF4806307A9CDE90735CDE94A
:1016E000094505F05FFD41F658032C480B9607A904
:1016F000CDE907350927CDE9094505F053FD032359
:1017000027480B9707A9CDE90735CDE9094505F02D
:1017100049FD4FF4706322480B9607A9CDE90735C0
:10172000CDE9094505F03EFD4FF40C631D480B96CD
:1017300007A9CDE90735CDE9094505F033FDC023FB
:1017400019480B9607A9CDE90735CDE9094505F0FC
:1017500029FD082315480B9607A9CDE90735CDE9E2
:10176000094505F01FFD4FF4A0530E480B9707A93C
:10177000CDE90735CDE9094505F014FD582022468D
:10178000052105F0C3FB582005F0F2FB19B0F0BDB0
:10179000006801400038024000140240000002408E
:1017A000000402400018024000080240000C024001
:1017B00010B5044688B01422002103A823F083FF4B
:1017C0002268144B9A4223D103F56843002101910A
:1017D0005A6C114842F480125A645A6C02F4801216
:1017E0000192019A02911A6B42F020021A631B6B5C
:1017F00003F020030293029B4FF460720223032143
:10180000CDE903230523CDE9061303A905F0CAFC9E
:1018100008B010BD00500140001402402DE9F04115
:1018200086B0002303932B4B1C68002C4FD14FF044
:101830000108C3F80080284B00949A6B274842EABD
:1018400008029A639B6B03EA0803009302270326AE
:101850000C25009B01A94FF63F03CDE90137CDE9E7
:10186000046505F09FFC1E48059501A9CDE9018797
:10187000CDE9034605F096FC48F233131948059567
:1018800001A9CDE90137CDE9034605F08BFC4FF600
:1018900083731548059501A9CDE90137CDE90346C4
:1018A00005F080FC4CF203731048059501A9CDE9C1
:1018B0000137CDE9034605F075FC60230C4805951A
:1018C00001A9CDE90137CDE9034605F06BFC06B06F
:1018D000BDE8F081DC0E0020003802400014024018
:1018E000000802400018024000100240000C0240B4
:1018F0000004024070B588B000230293204B1A6C9C
:1019000042F010021A641B6C03F0100302930546A8
:1019100001A903A8029B06F01FFE069B4BBB06F025
:101920000BFE184E184B336040F2E733F360174B51
:10193000B0FBF3F3013B7360304600233361B360C7
:10194000B36107F05BFC044680B9304607F018FB32
:10195000044658B9362005F00BFB0F2D0DD8224652
:101960002946362005F0D2FA094B1D60204608B002
:1019700070BD06F0E1FD4000D3E70124F6E700BFAB
:1019800000380240E00E00200010004040420F00EE
:10199000580200207047FEE7FEE7FEE7FEE77047CB
:1019A000014807F02BBB00BFE00E0020014806F005
:1019B0006BBA00BF980D0020014805F025BB00BFA1
:1019C000940E00200120704708B523F01FFF162356
:1019D00003604FF0FF3008BD08B523F017FF162352
:1019E0000360FEE770B50D4614460E46731B9C421D
:1019F00001DC204670BDAFF3008006F8010BF5E76F
:101A000070B50D4614460E46731B9C4201DC204601
:101A100070BD16F8010BAFF30080F5E74FF0FF3013
:101A200070474FF400534B6000207047012070470F
:101A3000002070470A4A116808B5034609B90949E8
:101A400011601068694603448B4206D923F0DEFE1C
:101A50000C2303604FF0FF3008BD1360FCE700BFAC
:101A6000280F002000800120704708B500F0BAFD63
:101A7000BDE8084000F03CBD00F0B6BD704710B5B1
:101A80000421044622F0D2FC204610BD38B50C4B90
:101A90000C4C18800C4B822019806368984740F6E4
:101AA000110398420AD1094D23682C60822098477F
:101AB0002B688220DB689847002038BD0120FCE7B6
:101AC000360F002028020020340F0020380F00209D
:101AD0004FF4A071F020FFF7D9BF0000F7B5374DE4
:101AE0002B6804461B6982209847208000284ED02E
:101AF0002B680DF106025B6901A982209847304BE3
:101B00001B78002B4BD0BDF8063040F67462934230
:101B10003FD9ADF80620BDF80630D21A92B20A2A93
:101B200042D90B23B2FBF3F2264B1B889A4201D910
:101B3000013B9AB2BDF8043040F6B8318B4235D83B
:101B4000C3F571630E339BB20F21B3FBF1F31E4952
:101B500009888B4201D901398BB21C4E1C4D30686B
:101B60002F68834281B28CBF591AC91AB8B2BA42DF
:101B70008CBF101A801A89B280B201440529C8BFEF
:101B800033603368C8BF2A6063802B68A38003B0CA
:101B9000F0BDB32B9CBFB423ADF80630BBE7BDF856
:101BA0000620A2F5B472B9E70022C3E7C3F56D635E
:101BB00008339BB20E2BC7D80023CEE7380F002086
:101BC000000D0020340F0020360F0020300F0020C1
:101BD0002C0F002037B568460D461446FFF77EFFF0
:101BE000BDF8000030B1BDF802302B60BDF8043004
:101BF0002360012003B030BD032821D8DFE800F0C6
:101C0000020B12190F4B1A68B2FA82F25209042120
:101C10000D4805F0B1BB0B4B5A68B2FA82F252097B
:101C20000821F5E7074B9A68B2FA82F252091021AF
:101C3000EEE7044BDA68B2FA82F252092021E7E7B4
:101C4000704700BF3C0F002000100240032821D83D
:101C5000DFE800F0020B12190F4B1A68003A18BFA8
:101C6000012204210D4805F087BB0B4B5A68003A4E
:101C700018BF01220821F5E7074B9A68003A18BF00
:101C800001221021EEE7044BDA68003A18BF012266
:101C90002021E7E7704700BF3C0F00200010024002
:101CA00003280DD8DFE800F00206080A04210548E1
:101CB00005F067BB0821FAE71021F8E72021F6E7D5
:101CC000704700BF0010024008B5032811D8DFE8B4
:101CD00000F0020A0C0E0421074805F047FB431EE2
:101CE0005842584108BD0821F6E71021F4E72021A9
:101CF000F2E70020F3E700BF0010024070B5084D86
:101D000000240126E0B2FFF7DFFF18B12B68012B9A
:101D100018BF2E600134052C05F10405F2D170BD09
:101D20003C0F0020012380F8781080F8793070474C
:101D30007047002070470000034B4164003918BF12
:101D400001211970704700BFBF7201207047002049
:101D50007047836B0BB10846184770474FF6FF700A
:101D60007047406803689B69184770477047704721
:101D70007047704710B5044600F04CFD23680349D6
:101D8000D3F890302046BDE810401847000000D03E
:101D900008B503680446D3F8843098472368204682
:101DA000DB6F984700F0ECF8236820465B6F98479C
:101DB0002920FFF70FFB00F0E3F8236820465B6F54
:101DC0009847F8E710B504460AF05AFC2368204605
:101DD000D3F8BC30BDE81040184700F0FDBC00F05F
:101DE00001BD00F035BD00F0D3BC00F045BD00F0F2
:101DF0004DBD00F0D7BC09F071BE10B5842104467A
:101E000022F014FB204610BD10B590F8341090F865
:101E100078400C4B8C421A7809D03AB90A4A0B49DF
:101E20001488088810800C8001221A7010BD002AC6
:101E3000FCD0054A05491488088810800C800022CF
:101E4000F3E700BFB8720120B4720120B67201201E
:101E500070B50D46194635B9094B0A4A0A4840F291
:101E6000FF2123F029FAC0E90F52084B003A18BFAE
:101E700001221A700368BDE87040D3F8903018470B
:101E8000006402083864020886640208BE720120F9
:101E900008B5094B1B888B4203D8084B1B8893421B
:101EA00005D9074B074A0848A32123F005FA074B39
:101EB0001980074B1A8008BDB4720120B672012048
:101EC000CB6402082E65020886640208BA720120FB
:101ED000BC720120034690F87A0018B15868036874
:101EE0001B68184770470000012108B5002208460A
:101EF00007F0E2FA0A4B186028B90A4B0A4A28216F
:101F00000A4823F0D9F900220421012007F073FBCD
:101F1000074B186018B9074B034A2C21F0E708BD9E
:101F2000500F002060660208A9660208D866020801
:101F30004C0F002025670208024B4FF0FF31186854
:101F400007F004BB500F0020014B186807F02ABBB4
:101F5000500F0020024B0021186807F0F7BA00BFAD
:101F6000500F0020FFF7F0BF03480449006800232A
:101F70001A4607F07BBB00BF4C0F0020E801002091
:101F800013B5084C00231A4601A9206807F09FFBEF
:101F900020684FF0FF33002201A907F098FB02B040
:101FA00010BD00BF4C0F002003685B6C1847012078
:101FB000704703689B6A1847FEE740F2EF307047AE
:101FC000054B0360054B4FF08062C3F88820BFF3D8
:101FD0004F8FBFF36F8F7047C468020800E100E0C5
:101FE00010B504464FF45A61FFF7EAFF204622F08D
:101FF0001DFA204610BD000082B0002301930E4B55
:102000001A6B42F400021A631A6B02F40002019286
:10201000019A1A6942F400021A611A6922F4000254
:102020001A61064B064A1A61064A5A61064B4FF07E
:1020300080629A6002B0704700380240940E00201F
:1020400099220008B91F000800E100E008B50A283D
:1020500009D8DFE800F006100E0808080810101074
:102060001000022008BD054B054A0648902123F0C8
:1020700023F90020F6E70120F4E700BF67670208B4
:1020800082670208CD67020838B50C46887FFFF7E3
:10209000DDFFA58AE28A164B2169586342EA0542B0
:1020A0005A64628BD963521B1A642568082D0ED1BD
:1020B0009A611A615862207F0E4A42EA0062DA6130
:1020C000E2681A620C4A5961D9601A6038BD002270
:1020D000D8611A61E1680A0A480902F4784200F4FA
:1020E000FC600243C1F3C4010A439A63034AECE76C
:1020F00000B0024009000100012302000123030097
:1021000008B50B280BD8DFE800F00612100A0A0AFF
:102110000A0808080808022008BD0520FCE7054B4E
:10212000054A06486F2123F0C7F80020F4E7012094
:10213000F2E700BF6767020818680208CD67020867
:102140002DE9F04191F81D800C464046FFF7D8FF7D
:10215000A77F05463846FFF7D3FF06463846FFF708
:1021600075FFA18A628B444B521A1A649A61228BC2
:10217000521A1A61E28A586342EA01425A6421699A
:102180006268D963DA602068802828D0227F0FD85F
:10219000202867D0402865D004281AD0364B45EA5D
:1021A000026545F40035B845DD6161D0334A44E04D
:1021B000B0F5807F04D0B0F5007FEFD1304800E06B
:1021C000304840EA0262DA61E2681A625E6259618E
:1021D00032E045EA026242F40032DA61F6E7A068D2
:1021E000021DDA62227F45EA026545F40035DD61B1
:1021F0005E625961017841B1012921D0224B234A05
:1022000023484FF48D7123F057F8DA69418822F49E
:102210007F42013922F0100242EA0122DA610121F3
:10222000154BDA6942F02002DA61DA699206FCD4D1
:1022300010229A600029B9D0164A1A60BDE8F081D0
:10224000B2F1FF01DA69408822F47F4200F1FF30E9
:1022500022F0100242EA002242F0100218BF0121CF
:10226000DA61DDE745EA0262034B42F40032B4E78B
:1022700042F20132E1E700BF00B002400123010059
:10228000090002000A000200626802087C68020875
:10229000CD67020801230200024B1B6858680368DF
:1022A0005B691847C072012070B5044625460A4B89
:1022B0000C30002660602672667245F8203B602272
:1022C00029460AF033FB04F55A63EE6024359D423B
:1022D000FBD1204670BD00BFC4680208034B1A68DA
:1022E000D207FCD423229A60704700BF00B002409E
:1022F0007047000030B50F4C2568ED07FCD423254E
:102300000904A56041F001010225FF2B65636164AA
:10231000E0630AD00849656241EA0363E361074B61
:1023200022626061E060236030BDE561039BA363CE
:10233000034BF8E700B00240090001000100020071
:102340000100030030B50E4C2568ED07FCD42325B1
:102350001204A56042F001020225FF2B656362644E
:10236000E063E16008D01B0643F00213E361054B14
:1023700065626061236030BD034BE3610123F9E7CF
:1023800000B0024001000200020002FF30B50B4C19
:102390002568ED07FCD4232512041B06A56043F431
:1023A0000033022542F0010265636264E063E1608C
:1023B000E361034B65626061236030BD00B00240A1
:1023C00001000200012070470C2070470C2303FB22
:1023D0000100083070470C2303FB010008307047F0
:1023E0000120704744F21420704744F2142303FB89
:1023F00001000830704744F2142303FB0100083049
:102400007047012070471020704700EB0110083022
:10241000704700EB011008307047084600F044BEDA
:1024200010B5034B0360044609F0AFF8204610BD19
:102430007C69020810B50446FFF7F2FF204614211C
:1024400021F0F4FF204610BD10B5034B0360044695
:1024500009F09BF8204610BD4869020810B50446F3
:10246000FFF7F2FF204644F21C2121F0DFFF204657
:1024700010BD000010B5034B0360044609F085F859
:10248000204610BD1469020810B50446FFF7F2FF9C
:102490002046182121F0CAFF204610BD10B5094B77
:1024A0000360044600F584404830FFF7B9FF04F1AB
:1024B0002C00FFF7C9FF04F11400FFF7DBFF2046F3
:1024C00010BD00BFB069020808B50248FFF7E6FF7B
:1024D00008BD00BF2C1E002010B50446FFF7DEFF2C
:1024E000204644F2BC3121F0A1FF204610BD00007F
:1024F0002DE9F34100F0ECFA054600F0EDFA002476
:102500000146234628462246009412F0DDFE274B62
:10251000274A1A60204603F011FB264D264B274A16
:1025200027489A6012F038FE2B68BFF35B8FDB07F9
:1025300036D4284621F07CFF90B3224C224F234B07
:10254000236007F1180604F1140004F12C08606000
:10255000C4F80880E760266109F018F81C4B636135
:10256000404609F013F81B4BE362384609F00EF8B9
:1025700004F5804303F51770174AC3F8482204F0A6
:1025800081F8224607F11401304603F08FFB3046F4
:1025900000F08AFD114822F0ADFE284621F054FFDC
:1025A0000F4802B0BDE8F041FFF7E4BB24730120FF
:1025B000D80F0020281E0020F80F0020DC0F00207C
:1025C000EC0100202C1E002074600020B06902087D
:1025D00014690208486902087C690208C9240008D5
:1025E000540F0020704700000148FFF7D1BB00BF27
:1025F000540F002070B5264E264C274D274B2360E4
:102600003046FFF751FE284617F064FF244810F0CB
:102610006BFB244B2448DC6000224FF48071C3E93B
:10262000121222491A86C3E91A12214983F8582046
:10263000C3E91E011F49C3F880101F491F480B60E2
:10264000F021C3E90422C3E90622C3E90822C3E951
:102650000A22C3E90E22C3E91022C3E91422C3E906
:1026600017225A6683F870205A67C3E90165018012
:102670001348018013484FF4A07101801248018073
:1026800012490A70012283F83420114A1A6070BD81
:1026900084100020241E0020F80F0020F0630208A0
:1026A000DC0F0020540F0020000001010100000198
:1026B000000450001A001400C0720120B4720120FE
:1026C000BA720120B6720120BC720120B8720120DA
:1026D0007C6502080148FFF773BC00BF841000202E
:1026E0000020704781807047C1807047018170472A
:1026F000418170477047704770477047704710B40A
:10270000C4880368121B84885B6D091B12B25DF8D4
:10271000044B09B218474FF6FF7383814FF0FF3324
:1027200003621368C36110607047002070478B8894
:10273000838001207047704780F82610704790F81A
:102740002600704710B50022B1F90840B1F90A100F
:10275000028042808480C18010BD002202804280BD
:102760008280C28070470177704780ED080A704709
:1027700080F82410704780F82510704701207047BA
:10278000983070478C307047843070477047000035
:10279000034B902283F85A2383F85823704700BFD5
:1027A00000E100E0094A0A49D3680A48C3F30A0372
:1027B000013B9BB20B801169C1F30A010139018011
:1027C0001364536B43F00103536370470068014087
:1027D000EA610020E8610020014BD3F8AC007047AB
:1027E00000680140024B0122C3F8AC105A627047E6
:1027F000006801407047704710B52C21044621F055
:1028000015FE204610BD10B5BC21044621F00EFE79
:10281000204610BD70B5044609F0B5F923689D6ED9
:102820000EF0FAFF01462046A8472368054AD3F870
:102830008C502046AC460023BDE87040A2F516310E
:10284000604700BF00B004D009F084B909F08EB928
:1028500009F04AB909F0B9BA90F8252012B1036815
:102860005B691847704790F825201AB190F824202A
:1028700002B1186070470000034B4FF080629A600D
:102880004FF080729A60704700E100E0084B4FF013
:102890008062C3F88820BFF34F8FBFF36F8F4FF074
:1028A0008072C3F88820BFF34F8FBFF36F8F7047DC
:1028B00000E100E070B50023124E8380124B0360EC
:1028C000336893F8582005460AB1D86C00B9986867
:1028D0000368DB6A98473368B0FA80F4D86C6409FF
:1028E00030B10368DB6A9847002808BF44F0010450
:1028F0002CB9064B064A07482C2122F0DDFC28465D
:1029000070BD00BFC0720120C06A0208BC69020825
:102910001A6A0208536A020870B5254E3568BFF37B
:102920005B8F15F0010540D1304621F081FD002874
:102930003BD0204C204B256104F13400C4E9003524
:10294000C4E90255E584A562A58510F0B2FC04F146
:1029500058000BF0A1FC194BA3652046184B40F81A
:10296000843BFFF7A7FF174BC4F884302433C4F827
:102970008C304FF4C803C4E928350023C4F8AC30C8
:10298000C4F8B030C4F8B430C4F8B8300E480F4BB7
:10299000C4F89050C4F89C50C4F8A850C4F89830BB
:1029A00022F0A8FC304621F04FFD024870BD00BF68
:1029B000EC610020F061002054880208E06A0208FF
:1029C000586B0208088802088D270008E88702086B
:1029D00038B5184C23685BB3174B184A1B6C118829
:1029E0008B4216D1164B198805F0D8FA236893F854
:1029F0006A200025013283F86A2083F87C50FFF7B3
:102A0000B3FA206809F03CFE2846BDE83840FFF7DD
:102A1000F3B805F0C3FA2468236820461B6A984778
:102A2000012384F87C300020BDE83840FFF70EB960
:102A300038BD00BFC072012000680140EA6100207B
:102A4000E8610020704708B50C2938D8DFE801F0AC
:102A5000070B0F13172F1B1F23272B2F330003F0F8
:102A6000B9F8006808BD03F0B5F84068FAE703F06C
:102A7000B1F88068F6E703F0ADF8C068F2E703F05C
:102A8000A9F80069EEE703F0A5F88069EAE703F02A
:102A9000A1F8C069E6E703F09DF8006AE2E703F0F9
:102AA00099F8406ADEE703F095F8806ADAE703F008
:102AB00091F84069D6E703F08DF8C06AD2E70020AC
:102AC000D0E710B50421044621F0B0FC204610BD2B
:102AD00000487047B06B02080820704713B5002407
:102AE00051B1036801948DF8034001AA9C680DF16F
:102AF0000303A04702B010BD0846FBE7C08970473A
:102B0000008A7047C088704780887047807A00F0DC
:102B10007F007047807AC00970470020704700002E
:102B20009FED010A704700BF00000000806A7047F7
:102B3000704730B50368018185B06D460146D3F812
:102B4000843004462846984795E807003C3484E8DA
:102B5000070005B030BD30B50368418185B06D46D2
:102B60000146D3F8843004462846984795E8070084
:102B70003C3484E8070005B030BD0022028042806A
:102B80008280C280704780F83610704770B5036845
:102B900004461B6B154698472368294620465B6E02
:102BA000BDE87040184700207047806C7047704740
:102BB0007047704710B50821044621F037FC2046C5
:102BC00010BD10B54C21044621F030FC204610BD4C
:102BD00010B54FF4EE71044621F028FC204610BDDC
:102BE00008B5FFF739FE08BD036870B55E6B124B80
:102BF0001B6804468DB22BB9104B114A6C21114849
:102C000022F05AFB1049828D0988914203D80F4B5C
:102C10000B4A6D21F3E713F812200D4B1B6853F894
:102C2000220003681B6B9847291A3346204609B2D5
:102C3000BDE87040184700BF18730120506C0208AF
:102C4000926C0208CD6C02081C730120146D0208FE
:102C50002073012000224FF0FF31C0E90021826083
:102C600070470000074A02600022C0E90122C0E963
:102C70000322C0E90522C0E907224FF48072828452
:102C8000704700BF308C020870B5036804461B6BA8
:102C9000154698472368294620465B6BBDE870407F
:102CA000184770B504461D46BDF91060FFF7ECFFEC
:102CB0002368294620469B6B984723683146204667
:102CC000DB6BBDE87040184710B526220446002192
:102CD00022F0F9FC2046FFF7C5FF044B2360FF23D9
:102CE00084F826300023A362204610BDA88902087C
:102CF00010B526220446002122F0E5FC2046FFF70D
:102D0000B1FF0A4B23600A4BA3624FF6FF73A38502
:102D10004FF47F020023C4E90C3223874FF0FF32C7
:102D2000C4E91023E363204610BD00BF18890208E0
:102D30005C6D02082DE9F04F04468BB02546002655
:102D4000FFF790FF7C4BA66245F82C3B04F1580B33
:102D50002846FFF7B9FF04F1840A5846FFF7B4FF8D
:102D60005046FFF7C5FF04F1CC0304F1F8091846FB
:102D700004F5A2780393714FFFF7A6FF4846FFF7CB
:102D8000B7FFC4F8F870C4F840614046FFF7B0FFE1
:102D900004F5C873C4F84471C4F88C6118460293F2
:102DA000FFF7A6FF664BA3606423C4F89071C4F8D4
:102DB000D8615022009331462846F023FFF771FF77
:102DC0004FF07F47322384F852302946204667650A
:102DD00008F0EEFB50233246009331465846F0236C
:102DE000FFF75FFF574BC4F880305946204604ADCB
:102DF00008F0DEFB062250463C21FFF745FF514616
:102E00002846C4F8B470A4F8B8600BF043FB95E80A
:102E1000070004F1C00383E80700DFF82CB1CDF808
:102E200020B0102308A95046ADF824300BF0DAFD8D
:102E30005146204608F0BCFB1C2303980093222235
:102E400015234021FFF72DFF4FF0FF33C4F8F43076
:102E5000C72384F8F2300399204608F0A9FB282202
:102E600048464421FFF710FFD4F8F830C4F8287121
:102E700049462846D3F88430A4F82C61984795E851
:102E8000070004F59A7383E807000F2308A9484652
:102E9000ADF82430CDF820B00BF0A4FD4946204613
:102EA00008F086FB282240466E21FFF7EDFED4F89D
:102EB0004431C4F8747141462846D3F88430A4F8EC
:102EC0007861984795E8070004F5C07383E8070028
:102ED0000E2308A94046ADF82430CDF820B00BF001
:102EE00081FD4146204608F063FB02982822982184
:102EF000FFF7CAFED4F890310299D3F88430C4F8B1
:102F0000C0712846A4F8C461984795E8070004F505
:102F1000E67383E807000D230298ADF8243008A972
:102F2000CDF820B00BF05EFD2046029908F040FB82
:102F300020460BB0BDE8F08FFC6D02086C6D0208F6
:102F4000F000B40017BDFEFF5C6D020870477047CB
:102F500000F598730868496803C370477047704765
:102F60004160704770470000064BC0F84C310023A9
:102F7000C0F8503100F5A273C0F84801C0F84031E4
:102F8000704700BFA53300080123037270477047E4
:102F9000704710B4C26841685410034601EB6200E8
:102FA000D20748BF0A599B685DF8044B48BFD35805
:102FB00018470346406830B19A681AB9D86800F0DB
:102FC000010070470120704710B50C21044621F024
:102FD0002DFA204610BD10B51021044621F026FA26
:102FE000204610BD10B54FF4AE71044621F01EFA14
:102FF000204610BD10B50EF00FFC0368BDE8104070
:10300000DB6B184710B50446D0F8400158B103688F
:10301000DB68984738B1D4F8400103689B6898474B
:103020000023C4F8403110BD044B1B6893F85820AE
:103030000AB1D86C00B99868704700BFC07201200F
:10304000F8B5174604460E460EF0A8FC124B1C605D
:10305000124B2360124B0025C4E95135114BC4E9D2
:1030600053551868036801219B68C4E94F55C4E9AA
:1030700055769847284602F061FDFFF7D5FF19F015
:10308000D2F8FFF7D1FF19F049F9FFF7CDFF19F09A
:1030900051F92046F8BD00BF14730120587302088F
:1030A00040730208C0720120064BC0F84C31002367
:1030B000C0F8503100F5A273C0F84801C0F84031A3
:1030C000704700BFA5330008064BC0F84C31002301
:1030D000C0F8503100F5A273C0F84801C0F8403183
:1030E000704700BF59320008064BC0F84C3100232E
:1030F000C0F8503100F5A273C0F84801C0F8403163
:10310000704700BF1131000803685B6A1847000070
:103110002DE9F14FD0E9556A0746B06803681B6A8C
:103120009847B0F52E7F05D2434B444AA32144482B
:1031300022F0C2F8706803681B6A98470F2803D80A
:10314000404B3E4AA421F2E7F06803681B6A9847A7
:103150000B2803D83C4B394AA521E8E70EF05CFB6D
:10316000DFF8EC9004300EF07CFBD9F8000010B1D1
:103170000368DB689847D9F8000010B103681B6842
:103180009847DFF8D080D8F8000010B103685B6979
:103190009847D7F83C0110B103685B689847D8F8A6
:1031A000000010B103681B689847D7F83C0110B1C4
:1031B00003689B689847F0680021FFF7A5FF4FF070
:1031C000000B224BC0F804B0044680F808B003603E
:1031D000B068036859465B6A9847054603F060F992
:1031E0007068036859465B6A98472946064603F0AB
:1031F00035F9331DC7F83C61C9F80040C8F80050E4
:10320000CAF800302B68C6F808A02846DB68EE63D1
:103210009847336830461B6898472146284610F087
:10322000ABFC236820461B69984723685B692046EE
:1032300001B0BDE8F04F1847886E0208166F02080B
:10324000FC6F020843700208E6700208AC730208C3
:1032500008730120047301202DE9F14FD0E9556A6C
:103260000746B06803681B6A984744F213239842E4
:1032700005D8444B444AA321444822F01DF8706805
:1032800003681B6A98470F2803D8414B3E4AA42184
:10329000F2E7F06803681B6A98470B2803D83D4B98
:1032A000394AA521E8E70EF0B7FADFF8F0900430CC
:1032B0000EF0D7FAD9F8000010B10368DB68984720
:1032C000D9F8000010B103681B689847DFF8D08078
:1032D000D8F8000010B103685B699847D7F83C0143
:1032E00010B103685B689847D8F8000010B1036814
:1032F0001B689847D7F83C0110B103689B68984752
:10330000F0680021FFF700FF4FF0000B224BC0F8E0
:1033100004B0044680F808B00360B06803685946FA
:103320005B6A9847054602F0E9FD706803685946F4
:103330005B6A98472946064602F03CFD331DC7F8F4
:103340003C61C9F80040C8F80050CAF800302B684A
:10335000C6F808A02846DB68EE6398473368304615
:103360001B6898472146284610F006FC2368204633
:103370001B69984723685B69204601B0BDE8F04FA0
:10338000184700BF886E020889710208FC6F0208A6
:1033900043700208E6700208AC730208087301204B
:1033A000047301202DE9F14FD0E9556A0746B06852
:1033B00003681B6A9847B0F5DA7F05D2434B444A4D
:1033C000A321444821F078FF706803681B6A98477E
:1033D0000F2803D8404B3E4AA421F2E7F068036867
:1033E0001B6A98470B2803D83C4B394AA521E8E7CC
:1033F0000EF012FADFF8EC9004300EF032FAD9F841
:10340000000010B10368DB689847D9F8000010B1DC
:1034100003681B689847DFF8D080D8F8000010B127
:1034200003685B699847D7F83C0110B103685B6893
:103430009847D8F8000010B103681B689847D7F880
:103440003C0110B103689B689847F0680021FFF7C2
:103450005BFE4FF0000B224BC0F804B0044680F82E
:1034600008B00360B068036859465B6A9847054630
:1034700003F098F87068036859465B6A98472946D4
:10348000064603F059F8331DC7F83C61C9F80040FF
:10349000C8F80050CAF800302B68C6F808A02846C3
:1034A000DB68EE639847336830461B6898472146CF
:1034B000284610F061FB236820461B699847236863
:1034C0005B69204601B0BDE8F04F1847886E0208DE
:1034D00061720208FC6F020843700208E67002087D
:1034E000AC73020808730120047301207047704711
:1034F00030B4C26844685510034604EB6200D2073A
:1035000048BF62599B6830BC48BFD3581847034630
:10351000406830B19A681AB9D86800F00100704765
:103520000120704710B51021044620F07FFF20468F
:1035300010BD00F5157002F0A3BB38B500F5BE73E1
:10354000994204460D4603D10EF066F9FFF7ACFD33
:1035500004F5E2739D4204D123682046D3F88C30F1
:10356000984704F50374A54205D10EF055F9BDE85E
:103570003840FFF7B9BD38BD10B5064B0360064BA8
:10358000C0F85432044600F51570FFF710FB2046D2
:1035900010BD00BFE8730208C47E020810B50446DF
:1035A000FFF7EAFF20464FF4886120F03FFF2046F6
:1035B00010BD0000F8B5194B018F1B888B420646E1
:1035C0002AD9174B1B682BB9164B174A17486C2181
:1035D00021F072FE13F81120154B1B6853F822508E
:1035E000144B186802F0E6FA2B6807469B6B2846D6
:1035F00098472B6804469B6C3946284698472B68A9
:1036000014FB00F45B6A394628469847A4B2231895
:103610001BB2A6F84630F8BD0023FAE71C73012060
:1036200018730120506C0208926C0208CD6C0208DD
:1036300020730120247301202DE9F04F04468FB040
:1036400025460026FFF70EFBAE4BA66245F82C3B45
:1036500031462622284622F036F82846FFF702FB9C
:10366000A94BE36204F1580AFF2304F1A00984F88E
:10367000523066655046FFF73BFB04F1E8084846C8
:10368000FFF736FB4046FFF733FBA04BC4F8E830AA
:1036900004F59A73C4F8306118460293FFF728FBCB
:1036A00004F5BE73184603930BF00AFD04F5E273AC
:1036B00004F5037B184604930BF002FD58460BF00B
:1036C000FFFC04F515731846059302F0CFFA904BF2
:1036D000C4F830348F4BC4F838348F4BA3604FF4A8
:1036E000A0733246C4F83444C4F83C6431460093B5
:1036F0002846F023FFF7D5FA4FF07F4363659B23FD
:1037000084F852302946204606AD07F051FF4FF0AD
:10371000FF37102250460C21FFF7B6FA51462846D3
:10372000C4F88870A4F88C600AF0B4FE95E807002D
:1037300004F1940383E80700784B0C930CA914233D
:103740005046ADF834300BF04DF95146204607F0A5
:103750002FFF382248464E21FFF796FA4946284661
:10376000C4F8D070A4F8D4600AF094FE95E807007D
:1037700004F1DC0383E807004FF0130A674B0C9356
:103780000CA94846ADF834A00BF02CF94946204668
:1037900007F00EFF56224046CDF800A057234E21D9
:1037A000FFF77FFA4FF0FF23C4F81831D4F8E83060
:1037B000A4F81C6141462846D3F88430984795E820
:1037C000070004F5927383E80700544B0C930CA98F
:1037D00012234046ADF834300BF004F94146204640
:1037E00007F0E6FE029876222221FFF74DFA0299B1
:1037F000C4F864712846A4F868610AF04BFE95E8A5
:10380000070004F5B87383E80700444B02980C9353
:103810000CA91123ADF834300BF0E4F8029984F8C8
:103820005961204607F0C4FE039840F21512462164
:10383000FFF72AFA03250CAA0BA90398ADF82C5020
:103840004FF00C09ADF830500BF02AF90398A4F8AA
:10385000B491FFF7AFFE04F586684FF07F43C4E9EB
:103860006E370399C4F8A481204607F0A1FE04989E
:103870004946EB22FFF708FA0CAA0BA90498ADF809
:103880002C50ADF830500BF00BF90B230498A4F832
:10389000FC31FFF78FFE4FF07F43C4E98037049976
:1038A000C4F8EC81204607F083FE5846EB228121C4
:1038B000FFF7EAF90CAA0BA95846ADF82C50ADF861
:1038C00030500BF0EDF80A23A4F844325846FFF7C5
:1038D00071FE4FF07F43C4E9923759462046C4F841
:1038E000348207F065FE05988B223146FFF7CCF94C
:1038F0002046059984F8796207F05AFE20460FB0F9
:10390000BDE8F08FE8730208A88902086C6D020810
:10391000D07302083B350008F00040015C6D0208DE
:1039200070477047704770477047704770477047DF
:1039300030B4C26844685510034604EB6200D207F5
:1039400048BF62599B6830BC48BFD35818470346EC
:10395000406830B19A681AB9D86800F00100704721
:103960000120704790F82D3080F86030704710B516
:103970006421044620F05AFD204610BD10B51021E8
:10398000044620F053FD204610BD0146383091F822
:103990002C3013B136310BF051BA3431FBE710B58E
:1039A000044600F53E7002F09CFE04F57D7002F0C6
:1039B00022FF04F59E6002F07AFF04F2EC5002F060
:1039C00048FF04F5DD6002F0A0FF04F2E47002F0AD
:1039D000B6FE04F50E6002F0E0FE04F6DC1002F024
:1039E000D9F904F5646002F04BFE04F58250BDE89D
:1039F000104002F023BD10B50446006B50B10368BF
:103A0000DB68984730B1206B036821469B68BDE8AE
:103A10001040184710BD00F1F0028A4202D103683D
:103A2000DB6A184770470B7970B590F82C60044634
:103A30000D460BB916B170BD002EFCD0B3FA83F35E
:103A40005B0984F82C3023682046D3F88C309847E3
:103A5000236820465B699847002EECD02B79012B18
:103A6000E9D123682046D3F88830BDE87040184774
:103A7000264B274A10B5036000F5805304461A64AC
:103A800000F5825000F083FB224BC4F8403E04F561
:103A9000646000F0D0FF204BC4F8DC3904F6DC1081
:103AA000FFF76AFD1D4BC4F8E03804F50E6001F025
:103AB00031FD1B4BC4F8E43704F2E47001F0A2FCC2
:103AC000184BC4F8E83604F5DD6001F03BFF164BF7
:103AD000C4F8EC3504F2EC5001F028FE134BC4F8A6
:103AE000F03404F59E6001F0A7FE114BC4F8F433E6
:103AF00004F57D7001F094FD0E4BC4F8F83204F526
:103B00003E7001F0E1FB204610BD00BF3875020891
:103B1000C08002081C820208C87F0208E4830208F1
:103B200050830208348602080C850208A08502082A
:103B300078840208BC82020810B50446FFF798FF9B
:103B400020464FF48D5120F071FC204610BD0B88AB
:103B50002DE9F04183861388B0F90850C3860446E6
:103B60001046904611F0C4FBB4F90A30074603EB47
:103B7000D3734046C3F34F0611F0EEFB05EBD5754A
:103B8000C5F34F0500EBD07007EBD777A6EB6002CB
:103B9000A5EB670104F1380012B209B2FFF774F81F
:103BA00023682046D3F88C30BDE8F0411847000068
:103BB0002DE9F04F04469DB0A04600250FF030FEE1
:103BC000DE4BE56348F8403B4046FFF77DF804F1E3
:103BD0006C0318460693FFF777F804F1980318462C
:103BE0000793FFF771F804F1C403184604F1F007D6
:103BF0000893FFF737F8D24BC4F8C430C4F8EC5040
:103C00003846FFF72FF84FF47F43A4F81C31012307
:103C100084F81431CB4BC4F8F03004F594764FF0AF
:103C2000FF332622C4F8243129464FF6FF7BC4F81F
:103C30001851C4F820513046ADF868B021F043FD6A
:103C40003046FFF70FF8C04BC4F82831BDF8683094
:103C5000A4F84E3184F850B11AA930460BF0EEF8B2
:103C60003146384607F0A4FC04F5AA7318460393BE
:103C7000FFF73EF804F5CE731846B44E0493FFF7F1
:103C800037F804F5F47304F50C7B1846C4F89C610E
:103C9000C4F8E45104F51F7A0593FFF729F8584654
:103CA000FFF726F8C4F83062C4F878525046FFF7A0
:103CB0001FF804F5317318460993FFF705F8A44B74
:103CC000C4F8C43204F53E73C4F8F052A4F8F452B8
:103CD00018460A9302F0EEFC04F57D7318460B9328
:103CE00002F072FD04F59E6318460C9302F0C8FDC5
:103CF00004F2EC5318460D9302F094FD04F5DD63D5
:103D000018460E9302F0EAFD04F2E47318460F938E
:103D100002F0FEFC04F50E631846109302F026FD37
:103D200004F6DC131846119302F00EF804F56463F0
:103D30001846129302F088FC04F582531846139338
:103D400002F068FB834B04F58059C9E96434824B67
:103D5000C9E966354FF4A0732A46009329464046C8
:103D6000F023261DFEF79DFF4FF07F43A3664146DB
:103D7000304607F01DFC4FF4A0732A4606980093C6
:103D800029469623FEF78DFF744B0699C4F89430AC
:103D900030464FF48C7807F00BFC0798CDF8008084
:103DA00023228C230521FEF77CFF6D4B0799C4F875
:103DB000C030304607F0FCFB0898CDF800808C231B
:103DC00023220521FEF76DFF0899DFF89881304620
:103DD00007F0EEFB06231AAA19A93846ADF864309D
:103DE000ADF86830FFF7B3FE04F58C531033C4F818
:103DF00020311C23C4F82C5104220093384605219D
:103E0000FEF74FFF3946304607F0D2FB0398E42215
:103E1000A62114AFFEF738FF4FF0FF330399C4F823
:103E200084313846A4F888510AF034FB97E807003B
:103E300004F5C87383E807001A230398ADF86C30C3
:103E40001AA9CDF868800AF0CDFD0399304607F035
:103E5000AFFB1E2304980093FF2257239621FEF701
:103E600020FF4FF0FF33C4F8CC31D4F89C310499D3
:103E7000D3F88430A4F8D0513846984797E8070023
:103E800004F5EC7383E8070019230498ADF86C304F
:103E90001AA9CDF868800AF0A5FD0499304607F00C
:103EA00087FB152305980093992250239C21FEF748
:103EB000F8FE4FF0FF330599C4F818323846A4F8DD
:103EC0001C520AF0E7FA97E8070004F5097383E843
:103ED000070021230598ADF86C301AA9CDF8688049
:103EE0000AF080FD0599304607F062FB132300932A
:103EF000B422584657239621FEF7D3FE4FF0FF23F6
:103F0000C4F86032D4F83032A4F8645259463846C6
:103F1000D3F88430984797E8070004F51B7383E8CB
:103F2000070020231AA95846ADF86C30CDF86880F8
:103F30000AF058FD5946304616E000BF38750208B1
:103F40002887020880740208EC8A02086C6D020857
:103F5000848A020820750208173A0008BB4446FF0D
:103F6000764446FF5C6D020807F022FB282250468B
:103F7000AA21FEF789FE4FF0FF33C4F8AC32514658
:103F80003846A4F8B0520AF085FA97E8070004F51D
:103F90002E7383E807001F231AA95046ADF86C3032
:103FA000CDF868800AF01EFD5146304607F000FB50
:103FB0004223099800933C22A321FEF772FE4FF0A2
:103FC0007F43C4F8EC3203F57F03C4F8F0320323D7
:103FD000A4F8F4320999304607F0EAFA0A98462222
:103FE000A821FEF751FE0A9984F81D53304607F0C8
:103FF000DFFA0B984122A821FEF746FE0B9984F8C0
:104000001954304607F0D4FA0C984122AF21FEF73C
:104010003BFE0C9984F81555304607F0C9FA0D9807
:104020004122A121FEF730FE0D9984F81156304649
:1040300007F0BEFA0E984122AE21FEF725FE0E993A
:1040400084F80D57304607F0B3FA0F984122AF219C
:10405000FEF71AFE0F9984F80958304607F0A8FABF
:1040600010984122A121FEF70FFE109984F80559FE
:10407000304607F09DFA2A4611982946FEF704FEBD
:10408000119984F8015A304607F092FA2A4612989C
:104090002946FEF7F9FD129984F8655E304607F06F
:1040A00087FA13982A462946FEF7EEFD3046139903
:1040B00089F8655007F07CFA20461DB0BDE8F08F06
:1040C000406A7047806A704770478A880B8810B5CD
:1040D000D20A4C88C1699BB251F8220043EA0443DA
:1040E000184410BD10B50446BAB1107B68B1537BBB
:1040F000D27A1B0203F4E0631A43236A03EB8203C0
:104100001A888A4202D193F9020010BD05D80138FD
:1041100080B204330028F3D1F7E70020F5E710B5AB
:104120002C21044620F082F9204610BD30B58BB01A
:104130000446BDF860500895BDF85C5007959DF8A1
:10414000505006959DF84C5005959DF848500495A3
:104150009DF8445003959DF8405002959DF83C50C1
:104160000195BDF8385000950FF060F9064B2360BB
:10417000159BE361169B2362199B63621A9BA362E2
:1041800020460BB030BD00BF707502087047704705
:104190007047704730B4C26844685510034604EB5A
:1041A0006200D20748BF62599B6830BC48BFD358F1
:1041B00018470346406830B19A681AB9D86800F0C9
:1041C000010070470120704710B51021044620F00F
:1041D0002DF9204610BD10B54FF4A071044620F013
:1041E00025F9204610BD00F1A0028A4203D10368E0
:1041F000D3F88C30184770472DE9F04F044689B04A
:1042000025460026FEF72EFD5A4BA66245F82C3BAC
:1042100031462622284621F056FA2846FEF722FD8E
:10422000554BE36204F15807FF2304F1A00A84F818
:10423000523066653846FEF75BFD04F1E8095046EA
:104240000AF03EFF4846FEF753FD4C4BC4E94C34A0
:104250004B4BC4E94E364B4BA360324631462846A1
:10426000FEF712FD2846F021FEF740FA28464FF4EB
:10427000A071FEF73DFA4FF07F4363652946204663
:1042800007F096F94C2238460921FEF7FDFC6D46F1
:104290004FF0FF334FF0010BC4F888303946284601
:1042A000A4F88CB00AF0F6F895E8070004F1940839
:1042B00088E807003946284684F891B00AF0EAF801
:1042C00095E8070088E807000222DFF8BC80ADF817
:1042D0001C2006A93846CDF818800AF083FB394621
:1042E000204607F065F95046EA220D21FEF7CCFC86
:1042F00006AA05A95046ADF814B0ADF818600AF04A
:10430000CFFB5046A4F8D8B0FFF754F94FF0FF3375
:104310004FF07F42C4E9372304F59872C4F8C820EF
:104320005146204607F044F91D2248464121FEF738
:10433000ABFC4FF0FF33C4F8183149462846A4F8C7
:104340001C610AF0A7F895E8070004F5927383E86A
:10435000070006A94846CDF81880ADF81C600AF0A1
:1043600041FB2046494607F023F9204609B0BDE845
:10437000F08F00BFF0750208A8890208D8750208FE
:10438000E7410008F00040015C6D0208806C704756
:10439000C06C7047704770477047704730B4C26850
:1043A00044685510034604EB6200D20748BF6259C7
:1043B0009B6830BC48BFD35818470346406830B1AB
:1043C0009A681AB9D86800F0010070470120704758
:1043D00010B55021044620F029F8204610BD10B534
:1043E0001021044620F022F8204610BD10B54FF4ED
:1043F0002771044620F01AF8204610BD00F5117010
:10440000884208B505D10DF007FABDE80840FEF76F
:104410004BBE08BD10B50446FEF76AFC034B236093
:104420000023C4E91233204610BD00BF887602087D
:104430002DE9F04F04468FB025460FF0F1F9002624
:10444000B24BE66345F8403BB14B2666C4E91036F3
:104450004FF4807304F16C09A4F86430FF2304F175
:10446000B40B84F86630C4E91266C4E91466C4E982
:104470001666A6664846FEF73BFC04F5827A584667
:10448000FFF7C8FF5046FFF7C5FF04F5AA731846AB
:104490000293FFF7BFFF04F5D27318460393FFF7AB
:1044A000B9FF04F5FA7318460493FFF7B3FF04F558
:1044B0001173184605930AF003FE964BDFF87082DD
:1044C000C4E9A334944BC4E9A5364FF4A073324633
:1044D000009331462846F023271DFEF7E2FB4FF0FC
:1044E0007F43A3662946384607F062F818224846FB
:1044F0000D2106ADFEF7C8FB4FF0FF33C4F89C302A
:1045000049462846A4F8A06009F0C4FF95E80700D2
:1045100004F1A80383E8070009230CA94846ADF875
:104520003430CDF830800AF05DFA494638464FF015
:10453000190907F03DF83C225846CDF80090A02319
:104540002821FEF7AEFB754BC4F8E430D4F8B43044
:10455000A4F8E86059462846D3F88430984795E88F
:10456000070004F1F00383E8070008230CA958466C
:10457000ADF83430CDF830800AF034FA5946384678
:1045800007F016F88C225046CDF80090A023282181
:10459000FEF787FB624BC4F83431D4F80431A4F839
:1045A000386151462846D3F88430984795E807008B
:1045B00004F5A07383E8070007230CA95046ADF863
:1045C0003430CDF830800AF00DFA5146384606F006
:1045D000EFFF0298CDF80090B422A0232821FEF727
:1045E00060FB504BC4F88431D4F854310299D3F8AD
:1045F0008430A4F888612846984795E8070004F5B8
:10460000C87383E8070005230298ADF834300CA97D
:10461000CDF830800AF0E6F90299384606F0C8FF76
:104620000398CDF80090DD22A0232821FEF739FB66
:104630003D4BC4F8D431D4F8A4310399D3F8843075
:10464000A4F8D8612846984795E8070004F5F07368
:1046500083E8070004230398ADF834300CA9CDF8A3
:1046600030800AF0BFF90399384606F0A1FF04989C
:10467000CDF800906422A0232821FEF712FB2B4BDB
:10468000C4F82432D4F8F4310499D3F88430A4F86F
:1046900028622846984795E8070004F50C7383E8DC
:1046A000070006230498ADF834300CA9CDF830800B
:1046B0000AF098F90499384606F07AFF05984FF405
:1046C00085720D21FEF7E0FA01230CAA0BA90598CB
:1046D000ADF82C30ADF830300AF0E2F9032305983C
:1046E000A4F87C32FEF766FF4FF07F424FF0FF33B5
:1046F000C4E9A02304F5237338460599C4F86C3245
:1047000006F056FF20460FB0BDE8F08F3077020864
:10471000A889020818770208FD4300080100FFFF7E
:1047200000C3FFFF376A01FF8A5100FF0668F7FFE9
:104730005C6D02087047704770477047704730B42F
:10474000C26844685510034604EB6200D20748BFB4
:1047500062599B6830BC48BFD3581847034640682D
:1047600030B19A681AB9D86800F00100704701208A
:10477000704710B5102104461FF058FE204610BDAA
:1047800010B54FF4DA7104461FF050FE204610BDFC
:1047900038B500F19803994204460D4602D10368EA
:1047A000DB6A984704F594739D4203D12368204641
:1047B0001B6B984704F1E0039D4203D10DF02CF8E8
:1047C000FEF792FC04F5B874A54205D10DF024F86B
:1047D000BDE83840FEF778BC38BD00000022C0E9D3
:1047E0000122C0E90322C0E90522C0E907224FF4F3
:1047F00080728284014A0260704700BF64770208B9
:104800002DE9F04F044685B0264600250FF008F844
:10481000814BE56346F8403B29462622304620F08E
:1048200052FF3046FFF7DAFF04F16C087B4B23643C
:104830004FF0FF0926224FF6FF77294684F866904D
:10484000A5664046ADF80C7020F03DFF4046FFF7EE
:10485000C5FF734BE366BDF80C30A4F8923003A992
:1048600004F1980B84F8949040460AF0E7FA04F1BA
:10487000E00A58460AF024FC04F5947950460AF000
:104880001FFC48460AF01CFC04F5B8732946262292
:104890001846019320F017FF0198FFF79FFF614A28
:1048A000C4F87021604AA4F89E71C4E969245F4A83
:1048B000A4F8A071012384F89431C4E96B2584F82D
:1048C000A2712A4629463046C4F8985184F89C5172
:1048D000FEF7DAF93046F021FDF708FF30464FF4D5
:1048E000A071FDF705FF271D4FF07F43A3663146FA
:1048F000384606F05DFE2A4640464621FEF7C4F9DA
:10490000072203A94046ADF80C200AF097FA414669
:10491000384606F04DFE5846CA220D21FEF7B4F97E
:10492000012302A903AA5846ADF80830ADF80C30AF
:104930000AF0B6F81822A4F8D0205846FEF73AFE3E
:1049400004F5D2764FF07F434FF0FF38C4E9353895
:1049500059463846C4F8C06006F02AFE50464FF467
:1049600083720D21FEF790F903AA012302A9504694
:10497000ADF80830ADF80C300AF092F81723A4F81F
:1049800018315046FEF716FE4FF07F43C4E9473812
:1049900051463846C4F8086106F00AFE48468E22A1
:1049A0003321FEF771F903AA022302A94846ADF8A4
:1049B0000830ADF80C300AF073F81623A4F8603113
:1049C0004846FEF7F7FD4FF07F43C4E959384946A2
:1049D000384684F84D51C4F8506106F0E9FD01985D
:1049E0002A462946FEF750F904230198ADF808300D
:1049F00003AA052302A9ADF80C300AF051F8384695
:104A0000019984F89551C4F8986106F0D1FD2046CB
:104A100005B0BDE8F08F00BFE4770208A88902085E
:104A2000EC8A0208108A0208CC7702089147000835
:104A300070477047704770477047704730B4C2681E
:104A400044685510034604EB6200D20748BF625920
:104A50009B6830BC48BFD35818470346406830B104
:104A60009A681AB9D86800F00100704701207047B1
:104A700010B5102104461FF0D9FC204610BD10B51A
:104A80004FF4E87104461FF0D1FC204610BD38B544
:104A900000F1A003994204460D4603D10368D3F800
:104AA0008C30984704F5BC739D4204D1236820469E
:104AB000D3F89030984704F1E8039D4204D123686D
:104AC0002046D3F89430984704F59874A54205D150
:104AD0000CF0A2FEBDE83840FEF7E6BA38BD000093
:104AE0002DE9F04F04468BB025460027FEF7BAF8B3
:104AF000814AA76245F82C2B26263246394628469D
:104B000020F0E1FD2846FEF7ADF87C4AE26204F1B0
:104B10005803FF22394684F852206765324618460A
:104B2000009320F0D0FD0098FEF79CF8744AA2652F
:104B30004FF6FF72734BA4F884204FF0FF3604F158
:104B4000A00B4FF47F02C4F8803004F1E80AC4F8E7
:104B50008C20C4E92667C4F88870A4F89070C4F863
:104B6000947058460AF0ACFA04F5987950460AF069
:104B7000A7FA48460AF0A4FA04F5BC72104601925E
:104B80000AF09EFA604AC4E97024604AC4E97227B8
:104B90005F4AA26039463A462846FEF775F828462D
:104BA000F021FDF7A3FD28464FF4A071FDF7A0FD0D
:104BB0004FF07F488C2284F8522029462046C4F8C2
:104BC000548006F0F5FC02AD009817223F21FEF755
:104BD0005BF80099A4F88C702846C4F8886009F046
:104BE00059FC95E8070004F1940383E80700454B5E
:104BF0000098089308A91E23ADF8243009F0F2FEAE
:104C00000099204606F0D4FC58465D220D21FEF79F
:104C10003BF8012708AA07A95846ADF81C70ADF863
:104C2000207009F03DFF1D23A4F8D83004F5E0758D
:104C30005846FEF7BFFC59462046C4E93786C4F8FB
:104C4000C85006F0B5FC50464FF485720D21FEF7B2
:104C50001BF808AA07A95046ADF81C70ADF82070E3
:104C600009F01EFF1C23A4F820315046FEF7A2FCD9
:104C700051462046C4E94986C4F8105106F098FC14
:104C80004846C2220D21FDF7FFFF08AA07A94846A2
:104C9000ADF81C70ADF8207009F002FF1523A4F8E0
:104CA00068314846FEF786FC49462046C4E95B86E3
:104CB000C4F8585106F07CFC01988E220D21FDF7B6
:104CC000E3FF08AA07A90198ADF81C70ADF82070A1
:104CD00009F0E6FE1B230198A4F8B031FEF76AFC48
:104CE0002046C4E96D860199C4F8A05106F060FC25
:104CF00020460BB0BDE8F08F38780208A88902087A
:104D0000188902085C6D0208207802088F4A0008A2
:104D1000F00040017047000030B5174D2C68BFF31C
:104D20005B8F14F001048FB022D128461FF080FB66
:104D3000F0B13F230993114B0893114B11491248CD
:104D40000A94CDE9064301220423CDE903320E2360
:104D500000930B220F23CDE90B44CDE901440594C8
:104D6000FFF7E4F9094820F0C5FA28461FF06CFB6C
:104D700005480FB030BD00BFAC62002040E402081F
:104D800080E4020820D90208B0620020154D000816
:104D90007047000030B5174D2C68BFF35B8F14F0DF
:104DA00001048FB022D128461FF042FBF0B13F230F
:104DB0000993114B0893114B114912480A94CDE9FC
:104DC000064301220423CDE90332142300930B226E
:104DD0001623CDE90B44CDE901440594FFF7A6F96C
:104DE000094820F087FA28461FF02EFB05480FB02F
:104DF00030BD00BFDC62002044E4020884E4020805
:104E0000BCD90208E0620020914D00087047000004
:104E100030B5164D2C68BFF35B8F14F001048FB0D2
:104E200021D128461FF004FBE8B13F230993104B22
:104E30000893104B104911480A94CDE9064301220A
:104E40000423CDE90332CDE901340C2300931A2267
:104E5000CDE90B440594FFF769F9094820F04AFAB7
:104E600028461FF0F1FA05480FB030BD0C63002052
:104E700048E4020888E4020858DA020810630020B7
:104E80000D4E00087047000030B5174D2C68BFF379
:104E90005B8F14F001048FB022D128461FF0C8FAAE
:104EA000F0B13F230993114B0893114B11480A9419
:104EB000CDE9064301220423CDE903320621112363
:104EC000CDE900311B220C490594CDE90B44029435
:104ED000FFF72CF9094820F00DFA28461FF0B4FA24
:104EE00004480FB030BD00BF3C6300204CE4020812
:104EF0008CE4020840630020C4DB0208854E0008F1
:104F00007047000030B5174D2C68BFF35B8F14F06D
:104F100001048FB022D128461FF08AFAF0B13F2356
:104F20000993114B0893114B11480A94CDE906439C
:104F300001220423CDE9033207211423CDE90031F6
:104F400010220C490594CDE90B440294FFF7EEF8CA
:104F5000094820F0CFF928461FF076FA04480FB030
:104F600030BD00BF6C63002050E4020890E40208EA
:104F70007063002040DD0208014F00087047000008
:104F800030B5164D2C68BFF35B8F14F001048FB061
:104F900021D128461FF04CFAE8B13F230993104B6A
:104FA0000893104B104911480A94CDE90643012299
:104FB0000423CDE9033219230922CDE90032CDE9DA
:104FC0000B4405940294FFF7B1F8094820F092F9D8
:104FD00028461FF039FA05480FB030BD9C63002009
:104FE00054E4020894E4020820DE0208A0630020D2
:104FF0007D4F00087047000030B5164D2C68BFF398
:105000005B8F14F001048FB021D128461FF010FAF5
:10501000E8B13F230993104B0893104B10491148F6
:105020000A94CDE9064301220423CDE90332CDE9F8
:105030000134082300930F22CDE90B440594FFF7B8
:1050400075F8094820F056F928461FF0FDF9054883
:105050000FB030BDCC63002058E4020898E4020889
:10506000A0DE0208D0630020F54F00087047000062
:1050700030B5164D2C68BFF35B8F14F001048FB070
:1050800021D128461FF0D4F9E8B13F230993104BF2
:105090000893104B104911480A94CDE906430122A8
:1050A0000423CDE90332142300932722CDE90B44D6
:1050B000CDE901440594FFF739F8094820F01AF9C1
:1050C00028461FF0C1F905480FB030BDFC63002031
:1050D0005CE402089CE4020874DF0208006400201B
:1050E0006D5000087047000030B5174D2C68BFF3B5
:1050F0005B8F14F001048FB022D128461FF098F97D
:10510000F0B13F230993114B0893114B07930123EF
:10511000CDE9054304930423CDE902430A230D4955
:1051200000932D220C23CDE90B440B480A940194E3
:10513000FEF7FCFF094820F0DDF828461FF084F94F
:1051400005480FB030BD00BF2C64002060E40208A9
:10515000A0E4020898E1020830640020E55000084D
:105160007047000030B5164D2C68BFF35B8F14F00C
:1051700001048FB020D128461FF05AF9E0B13F2337
:105180000993104B0893104B104911480A940122BF
:10519000CDE906430423CDE903320F230093CDE983
:1051A0000B44CDE901440594FEF7C0FF094820F007
:1051B000A1F828461FF048F905480FB030BD00BFE0
:1051C0005C64002074E40208A4E4020810E402080D
:1051D00060640020615100087047000030B5164D32
:1051E0002C68BFF35B8F14F001048FB020D12846E8
:1051F0001FF01EF9E0B13F230993104B0893104BA9
:10520000104911480A940122CDE906430423CDE94F
:10521000033214230093CDE90B44CDE901440594F6
:10522000FEF784FF094820F065F828461FF00CF9C6
:1052300005480FB030BD00BF8C64002078E4020840
:10524000A8E4020820E4020890640020D951000874
:105250007047000030B5164D2C68BFF35B8F14F01B
:1052600001048FB020D128461FF0E2F8E0B13F23BF
:105270000993104B0893104B104911480A940122CE
:10528000CDE906430423CDE9033228230093CDE979
:105290000B44CDE901440594FEF748FF094820F08E
:1052A00029F828461FF0D0F805480FB030BD00BFE0
:1052B000BC6400207CE40208ACE4020830E402088C
:1052C000C0640020515200087047704710B5FC219F
:1052D00004461FF0ABF8204610BD00004FF480716B
:1052E0008184FF21002280F8261007498262C0E9EC
:1052F0000122C0E90322C0E90522C0E907220160BA
:10530000C2620286704700BF848A02082DE9F04F0E
:105310004FF48073054600268384374B8662C0E9CC
:105320000166C0E90366C0E90566C0E9076645F89D
:105330002C3B044685B004F1600B2846FFF7CEFFF6
:1053400004F1940A5846FFF7C9FF5046FFF7C6FF1D
:1053500004F1C80318464FF00E09DFF8A480274F68
:105360000393FFF7BBFF4FF03813A3604A464B4649
:10537000314628460226CDF80090FDF792FC2946DA
:105380002046C4E91587A4F85C6006F011F94B4685
:105390004A4649465846CDF80090FDF782FC5946EA
:1053A0002046C4E92287A4F8906006F001F94B4634
:1053B0004A465046CDF800901C21FDF772FC51463C
:1053C0002046C4E92F87A4F8C46006F0F1F80398DA
:1053D000CDF800904B464A462A21FDF762FC204654
:1053E000C4E93C870399A4F8F86006F0E1F8204688
:1053F00005B0BDE8F08F00BFD8780208E4D79FFF62
:10540000D8C853FF7047704710B5FC2104461FF001
:105410000DF8204610BD00002DE9F04F4FF48073C9
:10542000064600258384384B8562C0E90155C0E9F2
:105430000355C0E90555C0E9075546F82C3B04461D
:1054400085B004F1600B3046FFF748FF5846FFF780
:1054500045FF04F1940318460293FFF73FFF04F160
:10546000C80318464FF00E0ADFF8A090DFF8A080BE
:105470000393FFF733FF4FF038130227A360524620
:10548000534629463046CDF800A0FDF70AFC3146C8
:105490002046C4E91598A4F85C7006F089F85346D4
:1054A0001C2229465846CDF800A0FDF7FAFB5946C4
:1054B0002046C4E92298A4F8907006F079F8534683
:1054C0000298CDF800A01C225146FDF7EAFB029994
:1054D000A4F8C4702046C4E92F9806F069F81C228D
:1054E00011460398CDF800A05346FDF7DAFB20469D
:1054F000C4E93C980399A4F8F87006F059F82046DE
:1055000005B0BDE8F08F00BF6C790208A55520FFFB
:10551000A75F2FFF7047704710B5FC2104461EF0AF
:1055200085FF204610BD00002DE9F04F0023054601
:105530004FF48072C0E90133C0E90333C0E9053399
:10554000C0E907338362334B828445F82C3B044621
:1055500085B004F1600B2846FFF7C0FE04F1940A01
:105560005846FFF7BBFE5046FFF7B8FE04F1C803EC
:1055700018464FF00E09DFF8A480274F0393FFF77A
:10558000ADFE4FF038130226A3601C224B4649465D
:105590002846CDF80090FDF784FB29462046C4E953
:1055A0001587A4F85C6006F003F81C224B461146F0
:1055B0005846CDF80090FDF774FB59462046C4E9E3
:1055C0002287A4F8906005F0F3FF4B461C2250465A
:1055D000CDF800902A21FDF764FB51462046C4E92E
:1055E0002F87A4F8C46005F0E3FF0398CDF800907E
:1055F0004B464A462A21FDF754FB2046C4E93C8726
:105600000399A4F8F86005F0D3FF204605B0BDE883
:10561000F08F00BF007A02083095FCFF3374F4FF6E
:105620007047704710B5FC2104461EF0FFFE20466F
:1056300010BD00002DE9F04F002305464FF48072A5
:10564000C0E90133C0E90333C0E90533C0E90733DA
:105650008362334B828445F82C3B044685B004F1C9
:10566000600B2846FFF73AFE04F1940A5846FFF70C
:1056700035FE5046FFF732FE04F1C80318464FF0DE
:105680000E09DFF8A480274F0393FFF727FE4FF0A2
:1056900038130226A3604A464B4649462846CDF8B1
:1056A0000090FDF7FEFA29462046C4E91587A4F8C4
:1056B0005C6005F07DFF4B461C2249465846CDF8FC
:1056C0000090FDF7EEFA59462046C4E92287A4F877
:1056D000906005F06DFF1C224B4611465046CDF8F8
:1056E0000090FDF7DEFA51462046C4E92F87A4F862
:1056F000C46005F05DFF0398CDF800904B464A4624
:105700001C21FDF7CEFA2046C4E93C870399A4F892
:10571000F86005F04DFF204605B0BDE8F08F00BFF2
:10572000947A020857D5DBFF21E9EFFF70477047F5
:1057300010B5FC2104461EF079FE204610BD000085
:105740002DE9F04F002305464FF48072C0E9013384
:10575000C0E90333C0E90533C0E907338362334B43
:10576000828445F82C3B044685B004F1600B284642
:10577000FFF7B4FD04F1940A5846FFF7AFFD504619
:10578000FFF7ACFD04F1C80318464FF00E09DFF82F
:10579000A480274F0393FFF7A1FD4FF03813022693
:1057A000A3601C224B4649462846CDF80090FDF7E1
:1057B00078FA29462046C4E91587A4F85C6005F00C
:1057C000F7FE1C224B4611465846CDF80090FDF7D7
:1057D00068FA59462046C4E92287A4F8906005F08B
:1057E000E7FE4B464A465046CDF800901C21FDF797
:1057F00058FA51462046C4E92F87A4F8C46005F042
:10580000D7FE0398CDF800904B464A462A21FDF773
:1058100048FA2046C4E93C870399A4F8F86005F0EB
:10582000C7FE204605B0BDE8F08F00BF287B020808
:105830001C17DCFF2E33EEFF7047704710B5FC21BC
:1058400004461EF0F3FD204610BD00002DE9F04F88
:105850004FF48073054600268384374B8662C0E987
:105860000166C0E90366C0E90566C0E9076645F858
:105870002C3B044685B004F1600B2846FFF72EFD53
:1058800004F1940A5846FFF729FD5046FFF726FD1C
:1058900004F1C80318464FF00E09DFF8A480274F23
:1058A0000393FFF71BFD4FF03813A3604A464B46A6
:1058B000314628460226CDF80090FDF7F2F9294638
:1058C0002046C4E91587A4F85C6005F071FE4B46DC
:1058D0004A4649465846CDF80090FDF7E2F9594648
:1058E0002046C4E92287A4F8906005F061FE4B468B
:1058F0004A465046CDF800901C21FDF7D2F951469A
:105900002046C4E92F87A4F8C46005F051FE03982F
:10591000CDF800904B461C224946FDF7C2F92046BF
:10592000C4E93C870399A4F8F86005F041FE2046DD
:1059300005B0BDE8F08F00BFBC7B0208956BCCFFC3
:105940009438A7FF7047704710B5FC2104461EF03D
:105950006DFD204610BD00002DE9F04F4FF480731F
:10596000054600268384374B8662C0E90166C0E99C
:105970000366C0E90566C0E9076645F82C3B0446A6
:1059800085B004F1600B2846FFF7A8FC04F1940AE7
:105990005846FFF7A3FC5046FFF7A0FC04F1C803EC
:1059A00018464FF00E09DFF8A480274F0393FFF746
:1059B00095FC4FF03813A3604A464B4631462846C3
:1059C0000226CDF80090FDF76CF929462046C4E97F
:1059D0001587A4F85C6005F0EBFD4B464A46494646
:1059E0005846CDF80090FDF75CF959462046C4E9C9
:1059F0002287A4F8906005F0DBFD4B461C22494647
:105A00005046CDF80090FDF74CF951462046C4E9C8
:105A10002F87A4F8C46005F0CBFD1C221146039823
:105A2000CDF800904B46FDF73CF92046C4E93C8791
:105A30000399A4F8F86005F0BBFD204605B0BDE869
:105A4000F08F00BF507C020873C87DFF46BC63FF27
:105A500000207047002070470EB403B503AB00214F
:105A600053F8042B01930CF05FFF02B05DF804EBD8
:105A700003B070470CB407B504AB53F8042B019383
:105A80000CF052FF03B05DF804EB02B07047000069
:105A9000436C10B5044673B3038F2BB9184B194AE6
:105AA000C52119481FF008FCC38E00EB43035B8C33
:105AB0000BB30EF0BAFD238F012B03D8134B144AFE
:105AC000CB21EEE7E28E531C9BB2092B194688BF0F
:105AD000A3F10A0104EB410140F63F10498C8142D9
