:020000040800F2
:100000000000032021060008CD190008CF190008C0
:10001000D1190008D3190008D51900080000000004
:10002000000000000000000000000000319F0008F8
:10003000D719000800000000C19F0008419800087F
:1000400071060008710600087106000871060008B4
:1000500071060008710600087106000871060008A4
:100060007106000871060008710600087106000894
:100070007106000871060008710600087106000884
:100080007106000871060008710600087106000874
:100090007106000871060008710600087106000864
:1000A0007106000871060008710600087106000854
:1000B0007106000871060008710600087106000844
:1000C0007106000871060008710600087106000834
:1000D0007106000871060008710600087106000824
:1000E0007106000871060008710600087106000814
:1000F0007106000871060008710600087106000804
:1001000071060008710600087106000871060008F3
:100110007106000871060008D91900087106000868
:1001200071060008710600087106000871060008D3
:1001300071060008710600087106000871060008C3
:1001400071060008710600087106000871060008B3
:1001500071060008710600087106000871060008A3
:100160007106000871060008710600087106000893
:100170007106000871060008710600080000000002
:100180007106000871060008710600087106000873
:100190007106000871060008710600087106000863
:0C01A000E519000871060008F1190008BC
:1001B00010B5054C237833B9044B13B10448AFF3A1
:1001C00000800123237010BD000400200000000007
:1001D0001068020808B5034B1BB103490348AFF38D
:1001E000008008BD00000000040400201068020820
:1001F00001F0FF01102A2BDB10F0070F08D010F8D8
:10020000013B013A8B422DD010F0070F42B3F6D1DB
:10021000F0B441EA012141EA014122F007047FF0F4
:1002200000070023F0E80256083C85EA010586EA4B
:10023000010685FA47F5A3FA87F586FA47F6A5FA87
:1002400087F68EB9EED1F0BC01F0FF0102F0070293
:1002500032B110F8013B013A83EA010313B1F8D13E
:100260000020704701387047002D06BF354603381F
:10027000073815F0010F07D1013015F4807F02BF58
:10028000013015F4C03F0130F0BC0138704700BFA9
:100290007BB972B90029BEBF00204FF0004106E0D3
:1002A00008BF00281CBF6FF000414FF0FF3000F086
:1002B000B5B9ADF1080C6DE904CE002909DB002BBE
:1002C0001ADB00F04DF8DDF804E0DDE9022304B0AC
:1002D0007047404261EB4101002B1BDB00F040F80E
:1002E000DDF804E0DDE9022304B0404261EB4101A6
:1002F000524263EB43037047524263EB430300F007
:100300002FF8DDF804E0DDE9022304B0404261EBA0
:1003100041017047524263EB430300F021F8DDF8DE
:1003200004E0DDE9022304B0524263EB430370476B
:1003300053B94AB9002908BF00281CBF4FF0FF314C
:100340004FF0FF3000F06AB9ADF1080C6DE904CE52
:1003500000F006F8DDF804E0DDE9022304B07047A0
:100360002DE9F047089D0C46002B4ED194468C4554
:100370008646B2FA82F262D94AB1C2F120039140B4
:1003800020FA03F30CFA02FC194300FA02FE4FEACA
:100390001C471FFA8CF6B1FBF7F44FEA1E4307FB2C
:1003A000141143EA014304FB06F199420AD91CEBFC
:1003B000030304F1FF3080F01281994240F20F8173
:1003C000023C6344591A1FFA8EF3B1FBF7F007FBA6
:1003D000101143EA014300FB06F69E420AD91CEBCA
:1003E000030300F1FF3180F0FC809E4240F2F9806F
:1003F000634402389B1B40EA044000211DB1D340F6
:100400000022C5E90032BDE8F0878B4205D90DB165
:10041000C5E9000100210846F5E7B3FA83F1002998
:1004200046D1A34202D39042C0F0F080861A64EB1A
:1004300003030120002DE6D0C5E90063E3E7002AAD
:1004400040F09080A1EB0C044FEA1C481FFA8CF797
:100450000121B4FBF8F64FEA1E4308FB164443EAB9
:10046000044307FB06F0984208D91CEB030306F18E
:10047000FF3402D2984200F2CD8026461C1A1FFAA1
:100480008EF3B4FBF8F008FB104443EA044300FB8E
:1004900007F79F4208D91CEB030300F1FF3402D297
:1004A0009F4200F2B0802046DB1B40EA0640A5E7F1
:1004B000C1F120068B4022FA06F71F4320FA06FC02
:1004C00004FA01F343EA0C03F44000FA01F8380C93
:1004D0004FEA1349B4FBF0FE1FFA87FC00FB1E44F1
:1004E00049EA04440EFB0CF9A14502FA01F20AD9CB
:1004F0003C190EF1FF3A80F08480A14540F28180E2
:10050000AEF1020E3C44A4EB09041FFA83F9B4FBDC
:10051000F0F300FB134449EA044403FB0CFCA4453C
:1005200007D93C1903F1FF3067D2A44565D9023BD6
:100530003C4443EA0E40A0FB0293A4EB0C049C4213
:10054000CE469C4651D34ED055B1B8EB0E0364EB6A
:100550000C0404FA06F6CB401E43CC40C5E9006407
:10056000002150E7C2F1200320FA03F10CFA02FC4B
:1005700024FA03F394400C434FEA1C4800FA02FEAD
:100580001FFA8CF7B3FBF8F008FB1031230C43EA99
:10059000014300FB07F1994208D91CEB030300F16A
:1005A000FF362CD299422AD9023863445B1AA4B28E
:1005B000B3FBF8F108FB113344EA034401FB07F3F2
:1005C000A34208D91CEB040401F1FF3613D2A34265
:1005D00011D902396444E41A41EA004139E704467A
:1005E000F0E6084606E7C845AED2B9EB020E63EB6B
:1005F000070C0138A8E73146EDE7034699E7304696
:10060000D4E7D6467FE7634402384DE706462346E3
:1006100008460FE7023E634430E700BF704700BF63
:10062000DFF834D0002103E00C4B5B584350043119
:100630000B480C4B42189A42F6D30B4A02E00023B7
:1006400042F8043B094B9A42F9D306F057FE25F0D5
:1006500067FB00F04DFC704700000320186406089B
:1006600000000020F0010020000400204C7F012049
:10067000FEE70000F8B50A4D2C787CB9094B0A4F0B
:1006800026461846394625F072FB01340346052CF0
:10069000466003F10803F4D101232B70F8BD00BFBD
:1006A0001C0400202004002068680208024B18780F
:1006B00080F00100704700BF1C040020034B5B6A00
:1006C00083422CBF00200120704700BF200400207F
:1006D000134A2DE9F84306468846002452F8343080
:1006E000B3424FEAC40904F1010305D3052B1C46AC
:1006F000F4D1E0B2BDE8F883DB000A4DA3F10807AE
:100700002F44C4F10402E818D20039464D4425F0C4
:1007100032FA04224146384625F04FFA6E60E8E787
:100720002404002020040020F8B5194C194D0023A2
:100730002370012363700223A3700323E370042357
:100740002371052363710623A3712B6813B909F084
:10075000B1F828602B681048072183EA433383EA05
:10076000534383EA431323F00042B2FBF1F601FB4B
:100770001622013910F9016DA75607700129A654F8
:10078000EBD12B60054B6770A65400221A70F8BDA0
:1007900052080020100500205908002051080020B0
:1007A000014B1868704700BF5C080020014B1878A7
:1007B000704700BF5A080020044B187818B1044B4A
:1007C000187880F0010000F00100704759080020FF
:1007D0005A080020014B93F9000070474C08002094
:1007E000534203F0030302F0030258BF5A42032AA4
:1007F00014D8DFE802F00205090E00EB8100704713
:100800000C31A1EB800070478900C1F10F01081A7B
:100810007047C1F1030101EB800070470020704771
:100820002DE9F74F1A4E009198461A4B174606EBE2
:100830008206002403EB001A4FF0280945460021E8
:1008400004EB070B009A01912046FFF7C9FF1AF845
:1008500000200199012A0BD1BBF1090F14D8132DE7
:1008600012DC002D04DB09FB05F2B258002A0BDC78
:100870000131042905F10105E4D10134042C06F10C
:100880000406DBD1012000E0002003B0BDE8F08FBA
:10089000600800200800002070B5144E144D154C5F
:1008A00033782B7094F90030062B01DDFFF73CFF05
:1008B00094F90030104995F900005A1C22700F4A33
:1008C000D35C0F4A33700023137003220A700D4962
:1008D0000B701946FFF7A4FF0B4B80F00100C0B26C
:1008E000187010B9094B01221A7070BD4C08002015
:1008F00050080020510800204E0800205208002017
:100900004F0800204D0800205A08002059080020F8
:1009100008B54FF4487200210B4825F046F90B4A00
:10092000002313600A4A13700A4A1370FFF7FCFE93
:10093000094B01221A70094B1A78094B1A70BDE84D
:100940000840FFF7A9BF00BF600800205C08002036
:100950005A080020590800205108002052080020A1
:100960004C08002038B5214B1B781BB1204B0022CE
:100970001A7038BD01380328FBD8DFE800F00216F2
:100980001B241C4D95F90040013C1B4B93F9003092
:1009900022461A4991F90010194890F90000FFF712
:1009A0003FFF0028E5D02C70E3E7124D95F9004099
:1009B0000134EAE7104D0F4A95F9004092F9002002
:1009C00001342346E5E70D4D0A4A95F9004092F9B6
:1009D00000200134634203F0030304F0030458BF12
:1009E0005C42054B214693F90030D5E75A080020B8
:1009F000170500204E0800204D0800204F08002059
:100A0000500800202DE9F84F3C4B1B78BBB93C4BFC
:100A10003C4E93F900703C4B96F9005093F90090CE
:100A20003A4B93F9008005F1010A53464246494684
:100A30003846FFF7F5FE044618B186F800A0BDE879
:100A4000F88F334B03EB071BC24600264A4621466C
:100A50003046FFF7C5FE1BF80030012B0BD1BAF171
:100A6000090F08D8132D06D82A4B282202FB05337C
:100A70007A1C43F82A200136042E0AF1010AE5D136
:100A80000134042C05F10105DED1DFF888904FF028
:100A9000000813274FF0280A0AFB07942246002378
:100AA00052F8041BD9B101330A2BF9D108F101081E
:100AB0003E460AE065460FCD0FC40FCD0FC495E842
:100AC0000300013E84E803006446A4F1280C002ED4
:100AD000F0D128223146484625F067F80137013F1A
:100AE000DAD2B8F1000F05D00B4A1368642101FB7C
:100AF00008331360BDE8F84FFFF7CEBE5A08002058
:100B0000500800204D0800204F0800204E0800200B
:100B100008000020600800205C0800202DE9F74F45
:100B2000DFF8BCA0C8220021504625F03EF8264B35
:100B300052460021154618460024013450F8046B33
:100B400005F8016B0A2CF8D10131142903F12803AF
:100B500002F10A02EED11D4B1D4993F900201D4BF5
:100B600091F9007093F900901B4B1C4993F90030E8
:100B700001EB091B4FF0000809F101091E46002591
:100B800041462846CDE90023FFF72AFE1BF8001056
:100B90000129DDE9002307D1092E05D8132F9CBFB9
:100BA00004FB07A101F806900135042D06F10106AA
:100BB000E6D108F10108B8F1040F07F10107DDD112
:100BC000074803B0BDE8F08F600800204F08002000
:100BD0004D080020500800204E080020080000208A
:100BE00048040020054B18684FF44873B0FBF3F03D
:100BF0000130082828BF0820704700BF5C0800208B
:100C000008B5FFF7EFFF0238062896BF024B40F207
:100C1000B63033F8100008BD6C6802081B4B1C4945
:100C20004FF44872184610B525F0A9F8194A127801
:100C300080F82023184A127880F82123174A127866
:100C400080F82223164A127880F82323154A127856
:100C500080F82423144A1268C0F82823134A127813
:100C600080F82C23124A127880F82D2300220346A4
:100C7000114653F8044B0132CC2A81EA0401F8D121
:100C80000C4BC0F8301301221A7010BD180500205B
:100C900060080020500800204F0800204E08002067
:100CA0004D0800204C0800205C0800205A08002055
:100CB0005908002017050020014B1870704700BF2D
:100CC000160500200A4B187810B578B109490023A1
:100CD0001A46084651F8044B0133CC2B82EA040231
:100CE000F8D1D0F83003831A5842584110BD00BFE4
:100CF000170500201805002010B5FFF7E3FF30B3FB
:100D0000134C14484FF44872214625F038F8124B22
:100D100094F820231A70114B94F821231A70104B69
:100D200094F822231A700F4B94F823231A700E4B59
:100D300094F824231A700D4BD4F828231A600C4B16
:100D400094F82C231A700B4B94F82D231A7010BDB5
:100D50001805002060080020500800204F080020DF
:100D60004E0800204D0800204C0800205C080020A0
:100D70005A08002059080020014B1870704700BF26
:100D800014050020054B00221A70054B5F211970D5
:100D900059709970DA70034B1A707047140500206F
:100DA0000400002015050020014B1878704700BF93
:100DB00014050020064B1A785F2A07D05A785F2A5C
:100DC00004D098785F3818BF012070470020704722
:100DD0000400002007B5064BADF806001B68054867
:100DE00001220DF1060108F0D1F803B05DF804FB13
:100DF00078000020C80B00202DE9F341114FDFF8E7
:100E000050800026104D8DF80760002435F8021B35
:100E1000384606F003FD01280FD118F804308DF88C
:100E200007300A4800231A460DF10701006808F050
:100E300075FE502008F08CFDE4E70134042CE5D168
:100E4000EFE700BF000402407E680208840B002028
:100E50007A68020830B595B0102200210AA824F063
:100E6000A4FE1422002103A824F09FFE00241E4BA0
:100E700001941A6C42F080521A641B6C03F0805388
:100E80000193019B194B02941A6842F440421A6084
:100E90001B6803F4404302930122029B4FF480330A
:100EA000CDE9082302254FF480030821CDE90E5334
:100EB0004FF4B473CDE9101308A8042313931295CB
:100EC00007F01CFB07F0E0FA0F23CDE903354FF4E0
:100ED000A0504FF48053CDE90603052103A80594E3
:100EE00007F0E8FC15B030BD00380240007000404B
:100EF00080B59CB0C74DDFF85883002406F00CFA8B
:100F0000FFF7A8FF1022002110A824F04EFE019444
:100F10002B6BC14843F002032B632B6B03F00203DE
:100F20000193019B0FA947F201030F9306F092FB77
:100F300002942B6BB94843F010032B632B6B03F027
:100F400010030293029B03942B6B43F020032B634B
:100F50002B6B03F020030393039B04942B6B43F050
:100F600080032B632B6B03F080030493049B059495
:100F70002B6B43F004032B632B6B03F004030593EB
:100F8000059B06942B6B43F001032B632B6B03F043
:100F900001030693069B07942B6B43F002032B631C
:100FA0002B6B03F002030793079B08942B6B43F012
:100FB00040032B632B6B03F040030893089B0994B9
:100FC0002B6B43F008032B632B6B954D03F0080349
:100FD000224609933C21099B06F026FC91480122F8
:100FE000022106F021FC22468E48042106F01CFC5A
:100FF00022468D484FF4405106F016FC01263C2352
:10100000CDE90F368548119403230FA902271293C7
:1010100006F020FB83480FA9CDE90F76CDE91144F6
:1010200006F018FB04237F480FA9CDE90F36CDE960
:10103000114706F00FFB0FA94FF440537A48CDE952
:101040000F36CDE9114706F005FB7848784B036071
:1010500006F0F4F9DFF8FCE1764B2C62C5E900E319
:1010600028464FF48043C5E90434C5E90244C5E984
:10107000064406F0E7FD1021284607F02BF821462C
:1010800028466D4D07F045F84FF48273C5E900839B
:101090004FF400791823C5E9069328460A23C5E9C9
:1010A0000244C5E90444C5E90844AC62EB6207F0B8
:1010B00011FF8F23224639465A488DF82C308DF87F
:1010C0003C4006F0B1FB32464FF47A730BA9284638
:1010D00007F05CFF4FF47A7332460FA9284608F0F8
:1010E00001F9324639464F48544D06F09DFB9DF8B4
:1010F0003C30D32B04BF524B1E70524B0126C5E926
:101100000036102240230024C5E904234FF4C073A5
:10111000C5E906344FF40063C5E908344FF40053C1
:1011200002274FF00409AB624FF0030A07230FA90F
:101130002846CDE90F73CDE911934FF00808C5E9B2
:101140000249CDE913A7159707F0A8FD4FF6FF72E6
:101150000BA92846CDE90C860A940B960E9407F04D
:10116000BDFD304606F004F94FF6FF720BA9284684
:10117000CDE90B78CDE90D6407F0B0FD4FF6FF72B5
:101180000BA92846CDE90BA8CDE90D9407F0A6FDE3
:101190004FF40C730A930A9B0E934FF6FF720BA940
:1011A0002846CDE90B980D9607F098FD40F26A515C
:1011B000284607F0B1FD342221460FA824F0F5FCA3
:1011C000214D224B2C61C5E900340923C5E90536C0
:1011D0001D23C5E9073A40F20D1140F24313C5E95A
:1011E000091340F2171040F24713C5E90B032846D4
:1011F000C5E90244AC8685F8364007F02FF8FF2198
:101200004FF4806CF022CDE914140521CDE916C10C
:1012100022E000BF003802400004024000100240FB
:10122000C80C002000080240000C02405C0D0020A9
:1012300000300240A0860100C80B0020940B002063
:10124000880B0020400100A0200C00200068014015
:1012500000500140005C00404FF4A0730FA9CDE99D
:101260001024CDE9184228462246204D1A93CDE994
:1012700012370F94ADF86C408DF86E4007F0B9F856
:101280001B4B2B601B6898472B681A4DDB689847EF
:10129000194B2846C5E90034C5E90274C5E90A4777
:1012A000C5E90C4406F0DAF83146284606F08EF916
:1012B00000F0F7FB00F0F4FB08F0D0FA0F4A3146DB
:1012C000404608F0F0FB0E4B0E4A186021460E48CF
:1012D00008F0F7FA0D4B0E4A186021460D4808F049
:1012E000F0FA0D4B186008F0CBFAFEE7800B0020F7
:1012F000A00000201C0D002000B002408000002053
:10130000840B0020CC680208F90D0008900B002027
:10131000A8680208B11A00088C0B002070477047BB
:101320007FB5094B8DF817201B6802930DF117024A
:101330000123009201930A460146044806F02AFD63
:1013400007B05DF804FB00BF7C000020C80C002043
:101350007FB500238DF81730084B1B6802930A46AF
:1013600001230DF11701009101930146044806F095
:10137000A1FD9DF8170007B05DF804FB7C0000207C
:10138000C80C00201FB5084C24680092CDE9013438
:101390000A4601230146054806F08CFD003818BFB7
:1013A000012004B010BD00BF7C000020C80C00204C
:1013B00005F0DEBF10B5064C00222046042106F0E1
:1013C00033FA20460122BDE81040042106F02CBA71
:1013D0000008024038B50B4D044601220A484FF47C
:1013E000005106F021FA00220421284606F01CFADA
:1013F0002046FFF7EFFC28460122BDE838400421D3
:1014000006F012BA00080240000C024038B50B4D3D
:10141000044600220A484FF4005106F005FA002263
:101420000421284606F000FA2046FFF7D3FC2846A0
:101430000122BDE83840042106F0F6B90008024058
:10144000000C0240F7B5144E144F05460C463046CA
:101450000022042106F0E8F900224FF4005138463A
:1014600006F0E2F92846FFF7B5FC0D4B0D481B6866
:10147000224601A907F036FF384601224FF40051F9
:10148000019C06F0D1F930460122042106F0CCF986
:10149000204603B0F0BD00BF00080240000C02402F
:1014A00078000020C80B002005F062BF0268034BE3
:1014B0009A4201D105F04ABF704700BF00100040BA
:1014C0007047000082B00E4B00220092596C41F42C
:1014D00080415964596C01F4804100910099019256
:1014E000196C41F0805119641B6C03F08053019317
:1014F000019B0F216FF0010002B005F05FBF00BF3C
:10150000003802400268094B9A4282B00BD1002396
:101510000193074B1A6B42F480521A631B6B03F45E
:1015200080530193019B02B0704700BF003002401E
:101530000038024007B50F4B02689A4216D10022CC
:10154000A3F5F0430192196B41F4000119631B6B81
:1015500003F40003019305215A20019B05F02EFF9F
:101560005A2003B05DF804EB05F05ABF03B05DF8F4
:1015700004FB00BF00B002402DE9F043044689B0EF
:101580001422002103A824F010FB2268244B9A4265
:1015900043D1244C244800250095236B43F00403D9
:1015A0002363236B03F004030093009B0195236BDB
:1015B00043F001032363236B03F001030193019BB9
:1015C0004FF012094FF400734FF00108032704266F
:1015D00003A9CDE90339CDE90587079606F03AF866
:1015E0004FF480731148079603A9CDE90339CDE97B
:1015F000058706F02FF80295236C43F4000323645B
:10160000236C03F400030293029B236A43F4000358
:101610002362236A23F40003236209B0BDE8F08348
:10162000005C004000380240000802400000024018
:10163000F0B599B004461422002107A824F0B5FAA9
:1016400030220DEB0200002124F0AFFA22685E4B3D
:101650009A4240F0B78008230C93C02310930423D0
:1016600012930CA84FF40033159307F0EBF908B16F
:10167000FFF726FF554B5648002400945A6C42F061
:1016800080625A645A6C02F080620092009A01945F
:101690001A6B42F020021A631A6B02F020020192C8
:1016A000019A02941A6B42F001021A631A6B02F05B
:1016B00001020292029A03941A6B42F002021A6328
:1016C0001A6B02F002020392039A04941A6B42F01E
:1016D00040021A631A6B02F040020492049A0594C5
:1016E0001A6B42F004021A631A6B02F004020592AC
:1016F000059A06941A6B42F008021A631B6B03F0FA
:101700000803069302250E26069B0B964FF4806372
:1017100007A9CDE90735CDE9094505F09BFF41F65D
:1017200058032C480B9607A9CDE907350927CDE9C1
:10173000094505F08FFF032327480B9707A9CDE93B
:101740000735CDE9094505F085FF4FF47063224860
:101750000B9607A9CDE90735CDE9094505F07AFFD4
:101760004FF40C631D480B9607A9CDE90735CDE969
:10177000094505F06FFFC02319480B9607A9CDE96D
:101780000735CDE9094505F065FF082315480B9697
:1017900007A9CDE90735CDE9094505F05BFF4FF411
:1017A000A0530E480B9707A9CDE90735CDE90945A8
:1017B00005F050FF58202246052105F0FFFD582076
:1017C00005F02EFE19B0F0BD00680140003802405F
:1017D00000140240000002400004024000180240D1
:1017E00000080240000C024010B5044688B01422E4
:1017F000002103A824F0D9F92268144B9A4223D17E
:1018000003F56843002101915A6C114842F480129B
:101810005A645A6C02F480120192019A02911A6B76
:1018200042F020021A631B6B03F020030293029B19
:101830004FF4607202230321CDE903230523CDE990
:10184000061303A905F006FF08B010BD00500140C3
:10185000001402402DE9F04186B0002303932B4B86
:101860001C68002C4FD14FF00108C3F80080284BB2
:1018700000949A6B274842EA08029A639B6B03EA3A
:1018800008030093022703260C25009B01A94FF6AD
:101890003F03CDE90137CDE9046505F0DBFE1E48C5
:1018A000059501A9CDE90187CDE9034605F0D2FEF2
:1018B00048F233131948059501A9CDE90137CDE95F
:1018C000034605F0C7FE4FF683731548059501A939
:1018D000CDE90137CDE9034605F0BCFE4CF20373B8
:1018E0001048059501A9CDE90137CDE9034605F07A
:1018F000B1FE60230C48059501A9CDE90137CDE97A
:10190000034605F0A7FE06B0BDE8F081640D002097
:101910000038024000140240000802400018024053
:1019200000100240000C02400004024070B588B074
:1019300000230293204B1A6C42F010021A641B6CB5
:1019400003F010030293054601A903A8029B07F0C8
:101950005BF8069B4BBB07F047F8184E184B3360FB
:1019600040F2E733F360174BB0FBF3F3013B7360D6
:10197000304600233361B360B36107F097FE04463D
:1019800080B9304607F054FD044658B9362005F0BA
:1019900047FD0F2D0DD822462946362005F00EFDB5
:1019A000094B1D60204608B070BD07F01DF84000CF
:1019B000D3E70124F6E700BF00380240680D00209D
:1019C0000010004040420F00080100207047FEE771
:1019D000FEE7FEE7FEE77047014807F067BD00BF7E
:1019E000680D0020014806F0A7BC00BF200C0020B5
:1019F000014805F061BD00BF1C0D002001207047AB
:101A000008B524F087F9162303604FF0FF3008BDB6
:101A100008B524F07FF916230360FEE770B50D4684
:101A200014460E46731B9C4201DC204670BDAFF38A
:101A3000008006F8010BF5E770B50D4614460E461A
:101A4000731B9C4201DC204670BD16F8010BAFF3FE
:101A50000080F5E74FF0FF3070474FF400534B60C4
:101A60000020704701207047002070470A4A116823
:101A700008B5034609B9094911601068694603446D
:101A80008B4206D924F046F90C2303604FF0FF3057
:101A900008BD1360FCE700BFB00D0020507F01209F
:101AA000704708B500F0BAFDBDE8084000F03CBD45
:101AB00000F0B6BD704710B50421044622F00EFFB9
:101AC000204610BD38B50C4B0C4C18800C4B8220B6
:101AD00019806368984740F6110398420AD1094D6E
:101AE00023682C60822098472B688220DB68984707
:101AF000002038BD0120FCE7BE0D0020D8000020EA
:101B0000BC0D0020C00D00204FF4A071F020FFF7A5
:101B1000D9BF0000F7B5374D2B6804461B698220FA
:101B20009847208000284ED02B680DF106025B6993
:101B300001A982209847304B1B78002B4BD0BDF871
:101B4000063040F6746293423FD9ADF80620BDF8E6
:101B50000630D21A92B20A2A42D90B23B2FBF3F210
:101B6000264B1B889A4201D9013B9AB2BDF804303A
:101B700040F6B8318B4235D8C3F571630E339BB252
:101B80000F21B3FBF1F31E4909888B4201D90139BA
:101B90008BB21C4E1C4D30682F68834281B28CBFC3
:101BA000591AC91AB8B2BA428CBF101A801A89B22F
:101BB00080B201440529C8BF33603368C8BF2A60BA
:101BC00063802B68A38003B0F0BDB32B9CBFB4230C
:101BD000ADF80630BBE7BDF80620A2F5B472B9E750
:101BE0000022C3E7C3F56D6308339BB20E2BC7D841
:101BF0000023CEE7C00D0020880B0020BC0D002084
:101C0000BE0D0020B80D0020B40D002037B5684689
:101C10000D461446FFF77EFFBDF8000030B1BDF859
:101C200002302B60BDF804302360012003B030BDCA
:101C3000032821D8DFE800F0020B12190F4B1A68B5
:101C4000B2FA82F2520904210D4805F0EDBD0B4BAA
:101C50005A68B2FA82F252090821F5E7074B9A68EE
:101C6000B2FA82F252091021EEE7044BDA68B2FAB6
:101C700082F252092021E7E7704700BFC40D00201F
:101C800000100240032821D8DFE800F0020B1219EF
:101C90000F4B1A68003A18BF012204210D4805F0C5
:101CA000C3BD0B4B5A68003A18BF01220821F5E763
:101CB000074B9A68003A18BF01221021EEE7044B47
:101CC000DA68003A18BF01222021E7E7704700BF19
:101CD000C40D00200010024003280DD8DFE800F0FA
:101CE0000206080A0421054805F0A3BD0821FAE709
:101CF0001021F8E72021F6E7704700BF00100240EE
:101D000008B5032811D8DFE800F0020A0C0E042100
:101D1000074805F083FD431E5842584108BD08217D
:101D2000F6E71021F4E72021F2E70020F3E700BFF7
:101D30000010024070B5084D00240126E0B2FFF704
:101D4000DFFF18B12B68012B18BF2E600134052C62
:101D500005F10405F2D170BDC40D0020012380F807
:101D6000781080F879307047704700207047000085
:101D7000034B4164003918BF01211970704700BF3F
:101D80000B720120704700207047836B0BB108462F
:101D9000184770474FF6FF707047406803689B69AB
:101DA00018477047704770477047704710B5044632
:101DB00000F04CFD23680349D3F890302046BDE87D
:101DC00010401847000000D008B503680446D3F857
:101DD0008430984723682046DB6F984700F0ECF882
:101DE000236820465B6F98472920FFF70FFB00F020
:101DF000E3F8236820465B6F9847F8E710B5044680
:101E00000AF096FE23682046D3F8BC30BDE81040A7
:101E1000184700F0FDBC00F001BD00F035BD00F03A
:101E2000D3BC00F045BD00F04DBD00F0D7BC0AF0BA
:101E3000ADB810B58421044622F050FD204610BDF7
:101E400010B590F8341090F878400C4B8C421A780A
:101E500009D03AB90A4A0B491488088810800C80C6
:101E600001221A7010BD002AFCD0054A05491488C9
:101E7000088810800C800022F3E700BF0472012064
:101E8000007201200272012070B50D46194635B965
:101E9000094B0A4A0A4840F2FF2123F065FCC0E9D9
:101EA0000F52084B003A18BF01221A700368BDE8B0
:101EB0007040D3F89030184708690208406902085A
:101EC0008E6902080A72012008B5094B1B888B42F3
:101ED00003D8084B1B88934205D9074B074A08488B
:101EE000A32123F041FC074B1980074B1A8008BD42
:101EF0000072012002720120D3690208366A0208CA
:101F00008E6902080672012008720120034690F8CB
:101F10007A0018B1586803681B68184770470000BA
:101F2000012108B50022084607F01EFD0A4B186083
:101F300028B90A4B0A4A28210A4823F015FC002236
:101F40000421012007F0AFFD074B186018B9074BBB
:101F5000034A2C21F0E708BDD80D0020686B020869
:101F6000B16B0208E06B0208D40D00202D6C020852
:101F7000024B4FF0FF31186807F040BDD80D00202C
:101F8000014B186807F066BDD80D0020024B0021F8
:101F9000186807F033BD00BFD80D0020FFF7F0BF71
:101FA00003480449006800231A4607F0B7BD00BF84
:101FB000D40D00209800002013B5084C00231A46C9
:101FC00001A9206807F0DBFD20684FF0FF330022F5
:101FD00001A907F0D4FD02B010BD00BFD40D002050
:101FE00003685B6C18470120704703689B6A1847B9
:101FF000FEE740F2EF307047054B0360054B4FF0B2
:102000008062C3F88820BFF34F8FBFF36F8F704794
:10201000CC6D020800E100E010B504464FF45A61AF
:10202000FFF7EAFF204622F059FC204610BD0000D1
:1020300082B0002301930E4B1A6B42F400021A6324
:102040001A6B02F400020192019A1A6942F400022A
:102050001A611A6922F400021A61064B064A1A61D3
:10206000064A5A61064B4FF080629A6002B0704790
:10207000003802401C0D0020D1220008F11F00088A
:1020800000E100E008B50A2809D8DFE800F00610F2
:102090000E080808081010101000022008BD054B9B
:1020A000054A0648902123F05FFB0020F6E7012057
:1020B000F4E700BF6F6C02088A6C0208D56C020856
:1020C00038B50C46887FFFF7DDFFA58AE28A164BFC
:1020D0002169586342EA05425A64628BD963521BF4
:1020E0001A642568082D0ED19A611A615862207F02
:1020F0000E4A42EA0062DA61E2681A620C4A5961E9
:10210000D9601A6038BD0022D8611A61E1680A0AF4
:10211000480902F4784200F4FC600243C1F3C401B0
:102120000A439A63034AECE700B002400900010049
:10213000012302000123030008B50B280BD8DFE8B8
:1021400000F00612100A0A0A0A0808080808022005
:1021500008BD0520FCE7054B054A06486F2123F022
:1021600003FB0020F4E70120F2E700BF6F6C0208D8
:10217000206D0208D56C02082DE9F04191F81D8010
:102180000C464046FFF7D8FFA77F05463846FFF7C5
:10219000D3FF06463846FFF775FFA18A628B444B92
:1021A000521A1A649A61228B521A1A61E28A58638F
:1021B00042EA01425A6421696268D963DA602068A0
:1021C000802828D0227F0FD8202867D0402865D0CB
:1021D00004281AD0364B45EA026545F40035B84567
:1021E000DD6161D0334A44E0B0F5807F04D0B0F5C2
:1021F000007FEFD1304800E0304840EA0262DA6107
:10220000E2681A625E62596132E045EA026242F4B3
:102210000032DA61F6E7A068021DDA62227F45EA41
:10222000026545F40035DD615E625961017841B1B6
:10223000012921D0224B234A23484FF48D7123F0EA
:1022400093FADA69418822F47F42013922F01002C0
:1022500042EA0122DA610121154BDA6942F02002DB
:10226000DA61DA699206FCD410229A600029B9D0AA
:10227000164A1A60BDE8F081B2F1FF01DA694088C0
:1022800022F47F4200F1FF3022F0100242EA0022E5
:1022900042F0100218BF0121DA61DDE745EA02626F
:1022A000034B42F40032B4E742F20132E1E700BFEF
:1022B00000B0024001230100090002000A000200F0
:1022C0006A6D0208846D0208D56C020801230200C1
:1022D000024B1B68586803685B6918470C72012041
:1022E00070B5044625460A4B0C3000266060267205
:1022F000667245F8203B602229460AF06FFD04F51E
:102300005A63EE6024359D42FBD1204670BD00BF6C
:10231000CC6D0208034B1A68D207FCD423229A60C2
:10232000704700BF00B002407047000030B50F4C4E
:102330002568ED07FCD423250904A56041F00101BF
:102340000225FF2B65636164E0630AD0084965627A
:1023500041EA0363E361074B22626061E06023604E
:1023600030BDE561039BA363034BF8E700B0024077
:1023700009000100010002000100030030B50E4C0D
:102380002568ED07FCD423251204A56042F0010264
:102390000225FF2B65636264E063E16008D01B06E1
:1023A00043F00213E361054B65626061236030BD59
:1023B000034BE3610123F9E700B002400100020092
:1023C000020002FF30B50B4C2568ED07FCD4232535
:1023D00012041B06A56043F40033022542F00102FB
:1023E00065636264E063E160E361034B65626061C1
:1023F000236030BD00B002400100020001207047A0
:102400000C2070470C2303FB0100083070470C239D
:1024100003FB010008307047012070474FF48640ED
:1024200070474FF4864303FB0100083070474FF4B8
:10243000864303FB010008307047012070471020DD
:10244000704700EB01100830704700EB01100830B6
:102450007047084600F00EBF10B5034B03600446FA
:1024600009F0EBFA204610BD846E020810B5044650
:10247000FFF7F2FF2046142122F030FA204610BD6B
:1024800010B5034B0360044609F0D7FA204610BD8F
:10249000506E020810B50446FFF7F2FF204644F2E2
:1024A000083122F01BFA204610BD000010B5034B86
:1024B0000360044609F0C1FA204610BD1C6E0208F4
:1024C00010B50446FFF7F2FF2046182122F006FA65
:1024D000204610BD10B5094B0360044600F5864048
:1024E0003430FFF7B9FF04F12C00FFF7C9FF04F106
:1024F0001400FFF7DBFF204610BD00BFB86E0208D6
:1025000008B50248FFF7E6FF08BD00BFB41C002075
:1025100010B50446FFF7DEFF204644F2A84122F042
:10252000DDF9204610BD00002DE9F34100F0ECFA82
:10253000054600F0EDFA00240146234628462246CF
:10254000009413F019F9274B274A1A60204603F02C
:10255000E1FB264D264B274A27489A6013F074F872
:102560002B68BFF35B8FDB0736D4284622F0B8F91F
:1025700090B3224C224F234B236007F1180604F13D
:10258000140004F12C086060C4F80880E76026613C
:1025900009F054FA1C4B6361404609F04FFA1B4B9B
:1025A000E362384609F04AFA04F5804303F55270B5
:1025B000174AC3F8342304F0BDFA224607F1140188
:1025C000304603F09FFC304600F054FE114823F0E3
:1025D000E9F8284622F090F90F4802B0BDE8F04132
:1025E000FFF7E4BB70720120600E0020B01C0020D9
:1025F000800E0020640E00209C000020B41C0020EF
:10260000E85F0020B86E02081C6E0208506E0208D7
:10261000846E020801250008DC0D002070470000D0
:102620000148FFF7D1BB00BFDC0D002070B5264E7E
:10263000264C274D274B23603046FFF751FE284696
:1026400018F0A0F9244810F0A7FD244B2448DC60C2
:1026500000224FF48071C3E9121222491A86C3E99D
:102660001A12214983F85820C3E91E011F49C3F8F3
:1026700080101F491F480B60F021C3E90422C3E901
:102680000622C3E90822C3E90A22C3E90E22C3E9EC
:102690001022C3E91422C3E917225A6683F8702076
:1026A0005A67C3E9016501801348018013484FF45C
:1026B000A07101801248018012490A70012283F83A
:1026C0003420114A1A6070BD0C0F0020AC1C002091
:1026D000800E0020F8680208640E0020DC0D002047
:1026E0000000010101000001000450001A00140064
:1026F0000C7201200072012006720120027201207A
:102700000872012004720120846A02080148FFF760
:1027100073BC00BF0C0F0020002070478180704701
:10272000C180704701817047418170477047704791
:1027300070477047704710B4C4880368121B8488C0
:102740005B6D091B12B25DF8044B09B218474FF6D6
:10275000FF7383814FF0FF3303621368C36110601E
:102760007047002070478B88838001207047704736
:1027700080F82610704790F82600704710B50022A8
:10278000B1F90840B1F90A10028042808480C1800A
:1027900010BD0022028042808280C2807047017793
:1027A000704780ED080A704780F82410704780F861
:1027B0002510704701207047983070478C30704763
:1027C0008430704770470000034B902283F85A23EF
:1027D00083F85823704700BF00E100E0094A0A4926
:1027E000D3680A48C3F30A03013B9BB20B8011690B
:1027F000C1F30A01013901801364536B43F00103F3
:1028000053637047006801405E6100205C610020F6
:10281000014BD3F8AC00704700680140024B012225
:10282000C3F8AC105A6270470068014070477047A7
:1028300010B52C21044622F051F8204610BD10B5E9
:10284000BC21044622F04AF8204610BD70B504466B
:1028500009F0F1FB23689D6E0FF036FA0146204621
:10286000A8472368054AD3F88C502046AC4600237D
:10287000BDE87040A2F51631604700BF00B004D03B
:1028800009F0C0BB09F0CABB09F086BB09F0F5BC72
:1028900090F8252012B103685B691847704790F8DB
:1028A00025201AB190F8242002B11860704700006A
:1028B000034B4FF080629A604FF080729A607047CD
:1028C00000E100E0084B4FF08062C3F88820BFF3BE
:1028D0004F8FBFF36F8F4FF08072C3F88820BFF324
:1028E0004F8FBFF36F8F704700E100E070B500239A
:1028F000124E8380124B0360336893F858200546CC
:102900000AB1D86C00B998680368DB6A98473368E5
:10291000B0FA80F4D86C640930B10368DB6A984778
:10292000002808BF44F001042CB9064B064A0748AA
:102930002C2122F019FF284670BD00BF0C72012027
:10294000C86F0208C46E0208226F02085B6F02089B
:1029500070B5254E3568BFF35B8F15F0010540D18A
:10296000304621F0BDFF00283BD0204C204B256194
:1029700004F13400C4E90035C4E90255E584A562D8
:10298000A58510F0EEFE04F158000BF0DDFE194BAA
:10299000A3652046184B40F8843BFFF7A7FF174B71
:1029A000C4F884302433C4F88C304FF4C803C4E92D
:1029B00028350023C4F8AC30C4F8B030C4F8B430C3
:1029C000C4F8B8300E480F4BC4F89050C4F89C506F
:1029D000C4F8A850C4F8983022F0E4FE304621F044
:1029E0008BFF024870BD00BF606100206461002061
:1029F000F88D0208E86F020860700208AC8D0208CA
:102A0000C52700088C8D020838B5184C23685BB3C5
:102A1000174B184A1B6C11888B4216D1164B19881C
:102A200005F014FD236893F86A200025013283F82D
:102A30006A2083F87C50FFF7B3FA20680AF078F830
:102A40002846BDE83840FFF7F3B805F0FFFC2468DE
:102A5000236820461B6A9847012384F87C300020B5
:102A6000BDE83840FFF70EB938BD00BF0C72012039
:102A7000006801405E6100205C610020704708B57D
:102A80000C2938D8DFE801F0070B0F13172F1B1F95
:102A900023272B2F330003F089F9006808BD03F0CA
:102AA00085F94068FAE703F081F98068F6E703F0FA
:102AB0007DF9C068F2E703F079F90069EEE703F009
:102AC00075F98069EAE703F071F9C069E6E703F098
:102AD0006DF9006AE2E703F069F9406ADEE703F0A6
:102AE00065F9806ADAE703F061F94069D6E703F037
:102AF0005DF9C06AD2E70020D0E710B50421044692
:102B000021F0ECFE204610BD00487047B870020866
:102B10000820704713B5002451B1036801948DF863
:102B2000034001AA9C680DF10303A04702B010BD49
:102B30000846FBE7C0897047008A7047C088704725
:102B400080887047807A00F07F007047807AC009E3
:102B500070470020704700009FED010A704700BFDA
:102B600000000000806A7047704730B5036801813B
:102B700085B06D460146D3F8843004462846984710
:102B800095E807003C3484E8070005B030BD30B557
:102B90000368418185B06D460146D3F88430044610
:102BA0002846984795E807003C3484E8070005B0BC
:102BB00030BD0022028042808280C280704780F84F
:102BC0003610704770B5036804461B6B154698476E
:102BD0002368294620465B6EBDE8704018470020F8
:102BE0007047806C70477047704790F82C304BB13D
:102BF00000F16C021268C2653BB100F174031B68FE
:102C00000366704700F16802F4E700F17003F6E72D
:102C10007047704790F82D3080F85A30704710B5E3
:102C20000821044621F05AFE204610BD10B54C2163
:102C3000044621F053FE204610BD10B5782104460D
:102C400021F04CFE204610BD10B54FF4157104461E
:102C500021F044FE204610BD08B5FFF719FE08BD5F
:102C600010B50446006B50B10368DB68984730B17B
:102C7000206B036821469B68BDE81040184710BDD3
:102C80000B7970B590F82C6004460D460BB916B15F
:102C900070BD002EFCD0B3FA83F35B0984F82C30AE
:102CA00023682046D3F88C309847236820465B6918
:102CB0009847002EECD02B79012BE9D123682046D0
:102CC000D3F88830BDE8704018470000036870B53D
:102CD0005E6B124B1B6804468DB22BB9104B114A28
:102CE0006C21114822F040FD1049828D09889142E3
:102CF00003D80F4B0B4A6D21F3E713F812200D4B4D
:102D00001B6853F8220003681B6B9847291A334647
:102D1000204609B2BDE87040184700BF6472012028
:102D2000587102089A710208D57102086872012070
:102D30001C7202086C72012000224FF0FF31C0E9C2
:102D40000021826070470000074A02600022C0E94B
:102D50000122C0E90322C0E90522C0E907224FF49D
:102D600080728284704700BFD491020870B50368F6
:102D700004461B6B154698472368294620465B6B23
:102D8000BDE87040184770B504461D46BDF9106097
:102D9000FFF7ECFF2368294620469B6B9847236882
:102DA00031462046DB6BBDE87040184710B526223F
:102DB0000446002122F0F9FE2046FFF7C5FF044B30
:102DC0002360FF2384F826300023A362204610BD31
:102DD0004C8F020810B526220446002122F0E5FEA1
:102DE0002046FFF7B1FF0A4B23600A4BA3624FF660
:102DF000FF73A3854FF47F020023C4E90C322387BD
:102E00004FF0FF32C4E91023E363204610BD00BF3A
:102E1000BC8E0208647202082DE9F04F04468DB0A2
:102E2000A1460025FFF790FFB34BA56249F82C3B64
:102E300004F158064846FFF7B9FF3046FFF784FF14
:102E40004FF47F43A4F88430012384F87C30AB4BEB
:102E5000A36504F18C03C4F88050C4F88850184668
:102E60000393FFF7A3FFA64BC4F88C302A460398C0
:102E7000C4F8B8502946C4E93055C4E93255A4F81D
:102E8000BC50FFF773FF03999E4F304608F0E8FDF2
:102E900004F1D00304F1FC0818460493FFF786FF01
:102EA0004046FFF797FF04F5A27318460593FFF716
:102EB0007DFF04F5B87304F5DE7A184604F5027B4D
:102EC0000293FFF787FFC4F87071C4F8B8515046F9
:102ED000FFF780FFC4F8BC71C4F804525846FFF7EE
:102EE00079FF894BA3606423C4F80872C4F8505278
:102EF0005022009329464846F023FFF744FF4FF045
:102F00007F47322384F8523049462046676508F0EF
:102F1000A7FD64232A46294603980093F023FFF770
:102F200032FF0523A4F8BC30784BC4F8C03003F559
:102F30004C533333C4F8C430A3F5CC43663BC4F8D8
:102F4000C83003F1331303F54C53C4F8CC3030468A
:102F5000D4F85890FFF749FE142384F88530D9F847
:102F60009030DFF8B09130469847642300935022A8
:102F7000F02329463046FFF706FF3146204608F089
:102F80006FFD50232A46049800932946F023FFF74B
:102F9000FAFE5F4BC4F8F8300499204606AE08F0FC
:102FA0005FFD062240463C21FFF7E0FE41463046E9
:102FB000C4F82C71A4F830510BF0C4FC96E807005B
:102FC00004F59C7383E8070011230AA94046ADF875
:102FD0002C30CDF828900BF05DFF4146204608F0DC
:102FE0003FFD1C2305980093222215234021FFF763
:102FF000CAFE4FF0FF33C4F86C31C7234FF01908F5
:10300000059984F86A31204608F02AFD0298CDF827
:103010000080434628224421FFF7B5FED4F87031E2
:103020000299D3F88430C4F8A0713046A4F8A451B2
:10303000984796E8070004F5D67383E80700102345
:103040000298ADF82C300AA9CDF828900BF022FF99
:103050000299204608F004FD434628225046CDF848
:1030600000806E21FFF78FFED4F8BC31C4F8EC71FC
:1030700051463046D3F88430A4F8F051984796E88A
:10308000070004F5FC7383E807000F230AA95046E4
:10309000ADF82C30CDF828900BF0FCFE51462046C0
:1030A00008F0DEFC434628225846CDF800809821DF
:1030B000FFF769FED4F80832C4F838725946304632
:1030C000D3F88430A4F83C52984796E8070004F5FA
:1030D000117383E807000E230AA95846ADF82C3077
:1030E000CDF828900BF0D6FE2046594608F0B8FCE3
:1030F00020460DB0BDE8F08FA073020804730208EB
:103100002890020874720208F000B400996600FF6B
:1031100017BDFEFF647202087047704700F5987390
:103120000868496803C3704770477047416070473B
:1031300070470000064BC0F84C310023C0F85031F6
:1031400000F5A273C0F84801C0F84031704700BFD5
:103150006D3500080123037270477047704710B443
:10316000C26841685410034601EB6200D20748BFB1
:103170000A599B685DF8044B48BFD358184703466B
:10318000406830B19A681AB9D86800F001007047F9
:103190000120704710B50C21044621F09FFB20460A
:1031A00010BD10B51021044621F098FB204610BD3B
:1031B00010B54FF4AE71044621F090FB204610BDCF
:1031C00010B50EF081FD0368BDE81040DB6B1847B9
:1031D00010B50446D0F8400158B10368DB68984741
:1031E00038B1D4F8400103689B6898470023C4F8BD
:1031F000403110BD044B1B6893F858200AB1D86CBD
:1032000000B99868704700BF0C720120F8B51746E6
:1032100004460E460EF01AFE124B1C60124B236041
:10322000124B0025C4E95135114BC4E953551868B8
:10323000036801219B68C4E94F55C4E95576984756
:10324000284602F067FDFFF7D5FF19F044FAFFF7B3
:10325000D1FF19F0BBFAFFF7CDFF19F0C3FA2046F2
:10326000F8BD00BF60720120FC780208E478020813
:103270000C720120064BC0F84C310023C0F85031CD
:1032800000F5A273C0F84801C0F84031704700BF94
:103290006D350008064BC0F84C310023C0F85031A2
:1032A00000F5A273C0F84801C0F84031704700BF74
:1032B00025340008064BC0F84C310023C0F85031CB
:1032C00000F5A273C0F84801C0F84031704700BF54
:1032D000DD32000803685B6A184700002DE9F14FF2
:1032E000D0E9556A0746B06803681B6A9847B0F58D
:1032F000437F05D2434B444AA321444822F034FA89
:10330000706803681B6A98470F2803D8404B3E4AF1
:10331000A421F2E7F06803681B6A98470B2803D8DA
:103320003C4B394AA521E8E70EF0CEFCDFF8EC90E3
:1033300004300EF0EEFCD9F8000010B10368DB6831
:103340009847D9F8000010B103681B689847DFF868
:10335000D080D8F8000010B103685B699847D7F8AF
:103360003C0110B103685B689847D8F8000010B1C1
:1033700003681B689847D7F83C0110B103689B6845
:103380009847F0680021FFF7A5FF4FF0000B224B94
:10339000C0F804B0044680F808B00360B068036861
:1033A00059465B6A9847054603F06EFA70680368F1
:1033B00059465B6A98472946064603F043FA331D8F
:1033C000C7F83C61C9F80040C8F80050CAF800309E
:1033D0002B68C6F808A02846DB68EE639847336878
:1033E00030461B6898472146284610F01DFE23688A
:1033F00020461B69984723685B69204601B0BDE8F9
:10340000F04F18472C740208BA740208A07502081D
:10341000E77502088A760208507902085472012082
:10342000507201202DE9F14FD0E9556A0746B06886
:1034300003681B6A9847B0F5864F05D2434B444A50
:10344000A321444822F090F9706803681B6A9847EA
:103450000F2803D8404B3E4AA421F2E7F0680368E6
:103460001B6A98470B2803D83C4B394AA521E8E74B
:103470000EF02AFCDFF8EC9004300EF04AFCD9F88C
:10348000000010B10368DB689847D9F8000010B15C
:1034900003681B689847DFF8D080D8F8000010B1A7
:1034A00003685B699847D7F83C0110B103685B6813
:1034B0009847D8F8000010B103681B689847D7F800
:1034C0003C0110B103689B689847F0680021FFF742
:1034D00001FF4FF0000B224BC0F804B0044680F807
:1034E00008B00360B068036859465B6A98470546B0
:1034F00002F07AFE7068036859465B6A984729466D
:10350000064602F0CBFD331DC7F83C61C9F8004008
:10351000C8F80050CAF800302B68C6F808A0284642
:10352000DB68EE639847336830461B68984721464E
:10353000284610F079FD236820461B6998472368C8
:103540005B69204601B0BDE8F04F18472C740208B3
:103550002D770208A0750208E77502088A7602082E
:103560005079020854720120507201202DE9F14F68
:10357000D0E9556A0746B06803681B6A9847B0F5FA
:10358000DA7F05D2434B444AA321444822F0ECF8A9
:10359000706803681B6A98470F2803D8404B3E4A5F
:1035A000A421F2E7F06803681B6A98470B2803D848
:1035B0003C4B394AA521E8E70EF086FBDFF8EC909A
:1035C00004300EF0A6FBD9F8000010B10368DB68E8
:1035D0009847D9F8000010B103681B689847DFF8D6
:1035E000D080D8F8000010B103685B699847D7F81D
:1035F0003C0110B103685B689847D8F8000010B12F
:1036000003681B689847D7F83C0110B103689B68B2
:103610009847F0680021FFF75DFE4FF0000B224B4A
:10362000C0F804B0044680F808B00360B0680368CE
:1036300059465B6A9847054603F00AFA70680368C2
:1036400059465B6A98472946064603F0CBF9331D75
:10365000C7F83C61C9F80040C8F80050CAF800300B
:103660002B68C6F808A02846DB68EE6398473368E5
:1036700030461B6898472146284610F0D5FC236841
:1036800020461B69984723685B69204601B0BDE866
:10369000F04F18472C74020805780208A07502083C
:1036A000E77502088A7602085079020854720120F0
:1036B00050720120806C7047C06C70477047704733
:1036C000704730B4C26844685510034604EB62008A
:1036D000D20748BF62599B6830BC48BFD3581847CF
:1036E0000346406830B19A681AB9D86800F0010002
:1036F00070470120704710B55021044621F0EEF8C4
:10370000204610BD10B51021044621F0E7F82046F0
:1037100010BD00F5297002F0DFBB38B500F5BE73AF
:10372000994204460D4603D10EF0CEFAFFF7A2FDF2
:1037300004F5E2739D4204D123682046D3F88C300F
:10374000984704F50374A54205D10EF0BDFABDE813
:103750003840FFF7AFBD38BD10B5064B0360064BD0
:10376000C0F8A432044600F52970FFF73CFA204661
:1037700010BD00BF1C7A02086C84020810B5044614
:10378000FFF7EAFF204640F2145121F0A7F8204647
:1037900010BD0000F8B5194B018F1B888B420646FF
:1037A0002AD9174B1B682BB9164B174A17486C219F
:1037B00021F0DAFF13F81120154B1B6853F8225043
:1037C000144B186802F0E2FA2B6807469B6B2846F8
:1037D00098472B6804469B6C3946284698472B68C7
:1037E00014FB00F45B6A394628469847A4B22318B4
:1037F0001BB2A6F84630F8BD0023FAE76872012034
:1038000064720120587102089A710208D571020889
:103810006C720120707201202DE9F04F044691B0C6
:1038200025460026FFF790FAC84BA66245F82C3BC8
:1038300031462622284622F0B8F92846FFF784FAB6
:10384000C34BE36204F1580BFF2304F1A00A84F890
:10385000523066655846FFF7BDFA04F1E809504654
:10386000FFF7B8FA4846FFF7B5FABA4BC4F8E830A4
:1038700004F59A73C4F8306118460393FFF7AAFA67
:1038800004F5BE73184604930BF072FE04F5E27360
:10389000184605930BF06CFE04F5037304F51578D8
:1038A000184606930BF064FE4046FFF793FAAA4BC6
:1038B000C4F8543204F52973C4E9A766184607937F
:1038C00002F0C0FAA54BC4F80435A54BC4F80C357A
:1038D000A44BA3604FF4A0733246C4F80845C4F863
:1038E0001065314600932846F023FFF74CFA4FF05D
:1038F0007F4363659B2384F852302946204608ADF8
:103900004FF0FF3708F0ACF8102258460C21FFF7B3
:103910002DFA59462846C4F88870A4F88C600BF03C
:1039200011F895E8070004F1940383E807008E4B33
:103930000E934FF015020EA95846ADF83C200BF03F
:10394000A9FA5946204608F08BF8382250464E21F5
:10395000FFF70CFA51462846C4F8D070A4F8D4609A
:103960000AF0F0FF95E8070004F1DC0383E80700A4
:103970007D4B0E930EA914235046ADF83C300BF04E
:1039800089FA514620464FF0130A08F069F8CDF83D
:1039900000A05622484657234E21FFF7F4F94FF076
:1039A000FF23C4F81831D4F8E830A4F81C61494664
:1039B0002846D3F88430984795E8070004F59273B9
:1039C00083E80700684B0E930EA94846ADF83CA06B
:1039D0000BF060FA4946204608F042F80398762238
:1039E0002221FFF7C3F90399C4F864712846A4F8AB
:1039F00068610AF0A7FF95E8070004F5B87383E84B
:103A00000700594B03980E930EA91223ADF83C30D2
:103A10000BF040FA039984F85961204608F020F829
:103A2000049840F215124621FFF7A0F94FF0030960
:103A30000EAA0DA90498ADF83490ADF838900BF0AB
:103A400087FA0D23A4F8B4310498FFF7A3FE04F21B
:103A5000045A4FF07F42C4E96E270499C4F8A4A128
:103A6000204607F0FDFF0598EB220C21FFF77EF9B9
:103A70000EAA0DA90598ADF83490ADF838900BF06A
:103A800067FA0C23A4F8FC310598FFF783FE4FF08A
:103A90007F42C4E980270599C4F8ECA1204607F0CD
:103AA000DFFF0698EB228121FFF760F90EAA0DA92E
:103AB0000698ADF83490ADF838900BF049FA0B2326
:103AC000A4F844320698FFF765FE4FF07F42C4E940
:103AD00092270699C4F834A2204607F0C1FF1923A3
:103AE000009387224046C8231521FFF74CF9D4F8EC
:103AF0005432C4F8847241462846D3F88430A4F87E
:103B00008862984795E8070004F5247383E8070066
:103B1000154B0E930EA94046ADF83C600BF0BAF978
:103B20004146204684F8796207F09AFF07988B2275
:103B30003146FFF71BF92046079984F8C96207F060
:103B40008FFF204611B0BDE8F08F00BF1C7A02083D
:103B50004C8F02087472020874790208047A020811
:103B60001B370008F000400164720208704770477C
:103B700070477047704770477047704730B4C268ED
:103B800044685510034604EB6200D20748BF6259EF
:103B90009B6830BC48BFD35818470346406830B1D3
:103BA0009A681AB9D86800F0010070470120704780
:103BB00090F82D3080F86030704710B564210446CD
:103BC00020F08CFE204610BD10B51021044620F0D8
:103BD00085FE204610BD0146383091F82C3013B1D7
:103BE00036310BF083BB3431FBE710B5044600F5EA
:103BF0003E7002F0CEFF04F57D7003F054F804F53A
:103C00009E6003F0ACF804F2EC5003F07AF804F58F
:103C1000DD6003F0D2F804F2E47002F0E8FF04F58E
:103C20000E6003F012F804F6DC1002F020FA04F63D
:103C30002C7002F07DFF04F589500C30BDE8104077
:103C400002F0F0BD00F1F0028A4202D10368DB6AA3
:103C500018477047274B284A10B5036000F580537A
:103C6000044600F58950C3F82C210C3000F085FB88
:103C7000224BC4F82C3F04F62C7000F0C6FF204BFA
:103C8000C4F8DC3904F6DC10FFF766FD1D4BC4F800
:103C9000E03804F50E6001F029FD1B4BC4F8E43751
:103CA00004F2E47001F09AFC184BC4F8E83604F50D
:103CB000DD6001F033FF164BC4F8EC3504F2EC5034
:103CC00001F020FE134BC4F8F03404F59E6001F0BF
:103CD0009FFE114BC4F8F43304F57D7001F08CFDA8
:103CE0000E4BC4F8F83204F53E7001F0D9FB2046C3
:103CF00010BD00BF6C7B020868860208C0870208FE
:103D00007085020888890208F4880208D88B0208A6
:103D1000B08A0208448B02081C8A020860880208E4
:103D200010B50446FFF796FF204641F28C2120F0A3
:103D3000D5FD204610BD0B882DE9F0418386138800
:103D4000B0F90850C38604461046904611F028FD8D
:103D5000B4F90A30074603EBD3734046C3F34F066A
:103D600011F052FD05EBD575C5F34F0500EBD07092
:103D700007EBD777A6EB6002A5EB670104F13800EB
:103D800012B209B2FEF7F2FF23682046D3F88C3056
:103D9000BDE8F041184700002DE9F04F04469DB002
:103DA000A04600250FF094FFDD4BE56348F8403B4B
:103DB0004046FEF7FBFF04F16C0318460793FEF73D
:103DC000F5FF04F1980318460893FEF7EFFF04F19E
:103DD000C403184604F1F0070993FEF7B5FFD14B71
:103DE000C4F8C430C4F8EC503846FEF7ADFF4FF4C9
:103DF0007F43A4F81C31012384F81431CA4BC4F862
:103E0000F03004F594764FF0FF332622C4F82431C5
:103E100029464FF6FF7BC4F81851C4F820513046AC
:103E2000ADF868B021F0C1FE3046FEF78DFFBF4B04
:103E3000C4F82831BDF86830A4F84E3184F850B188
:103E40001AA930460BF052FA3146384607F008FE00
:103E500004F5AA7318460393FEF7BCFF04F5CE736E
:103E60001846B34E0493FEF7B5FF04F5F473C4F897
:103E70009C61C4F8E45118460593FEF7ABFF04F5C6
:103E80000C7304F51F7A18460693FEF7A3FFC4F8D7
:103E90003062C4F878525046FEF79CFF04F5317347
:103EA00018460A93FEF782FFA24BC4F8C43204F509
:103EB0003E73C4F8F052A4F8F45218460B9302F083
:103EC00051FE04F57D7318460C9302F0D5FE04F5FF
:103ED0009E6318460D9302F02BFF04F2EC53184634
:103EE0000E9302F0F7FE04F5DD6318460F9302F01F
:103EF0004DFF04F2E4731846109302F061FE04F5DE
:103F00000E631846119302F089FE04F6DC1318467E
:103F1000129304F5895B02F043F804F62C730BF15D
:103F20000C0B1846139302F0E7FD584602F066FCAE
:103F3000814B04F58059C9E99F34804BC9E9A1350B
:103F40004FF4A0732A46009329464046F023261DCD
:103F5000FEF719FF4FF07F43A3664146304607F056
:103F60007FFD4FF4A0732A460798009329469623B5
:103F7000FEF709FF724B0799C4F8943030464FF4AE
:103F80008C7807F06DFD0898CDF8008023228C23F3
:103F90000521FEF7F8FE6B4B0899C4F8C030304697
:103FA00007F05EFD0998CDF800808C2323220521BF
:103FB000FEF7E9FE0999DFF89081304607F050FDE1
:103FC00006231AAA19A93846ADF86430ADF868304E
:103FD000FFF7B1FE04F593531C33C4F820311C23C2
:103FE000C4F82C510422009338460521FEF7CBFE7D
:103FF0003946304607F034FD0398E422A62114AF79
:10400000FEF7B4FE4FF0FF330399C4F8843138460D
:10401000A4F888510AF096FC97E8070004F5C873E5
:1040200083E807001B230398ADF86C301AA9CDF87C
:1040300068800AF02FFF0399304607F011FD1E2318
:1040400004980093FF2257239621FEF79CFE4FF021
:10405000FF33C4F8CC31D4F89C310499D3F88430C0
:10406000A4F8D0513846984797E8070004F5EC7358
:1040700083E807001A230498ADF86C301AA9CDF82C
:1040800068800AF007FF0499304607F0E9FC152321
:1040900005980093992250239C21FEF774FE4FF05F
:1040A000FF330599C4F818323846A4F81C520AF0B8
:1040B00049FC97E8070004F5097383E80700222309
:1040C0000598ADF86C301AA9CDF868800AF0E2FEC8
:1040D0000599304607F0C4FC132306980093B422D8
:1040E00057239621FEF74FFE4FF0FF23C4F86032AE
:1040F000D4F830320699D3F88430A4F864523846A4
:10410000984797E8070004F51B7383E8070021230D
:104110000698ADF86C301AA9CDF8688016E000BF9B
:104120006C7B0208CC8C0208B47A020890900208DA
:104130007472020828900208547B0208453C00086B
:10414000BB4446FF764446FF647202080AF0A2FEB2
:104150000699304607F084FC28225046AA21FEF733
:1041600005FE4FF0FF33C4F8AC3251463846A4F890
:10417000B0520AF0E7FB97E8070004F52E7383E8D6
:10418000070020231AA95046ADF86C30CDF868809E
:104190000AF080FE5146304607F062FC42230A983E
:1041A00000933C22A321FEF7EEFD4FF07F43C4F8BD
:1041B000EC3203F57F03C4F8F0320323A4F8F432A1
:1041C0000A99304607F04CFC0B984622A821FEF7CE
:1041D000CDFD0B9984F81D53304607F041FC0C9837
:1041E0004122A821FEF7C2FD0C9984F819543046EB
:1041F00007F036FC0D984122AF21FEF7B7FD0D996F
:1042000084F81555304607F02BFC0E984122A12169
:10421000FEF7ACFD0E9984F81156304607F020FCED
:104220000F984122AE21FEF7A1FD0F9984F80D579A
:10423000304607F015FC10984122AF21FEF796FD9D
:10424000109984F80958304607F00AFC1198412269
:10425000A121FEF78BFD119984F80559304607F02E
:10426000FFFB2A4612982946FEF780FD129984F832
:10427000015A304607F0F4FB2A4613982946FEF708
:1042800075FD139984F8515F304607F0E9FB2A4623
:1042900029465846FEF76AFD304689F8515159467D
:1042A00007F0DEFB20461DB0BDE8F08F406A704786
:1042B000806A704770478A880B8810B5D20A4C888C
:1042C000C1699BB251F8220043EA0443184410BD6F
:1042D00010B50446BAB1107B68B1537BD27A1B0289
:1042E00003F4E0631A43236A03EB82031A888A42C9
:1042F00002D193F9020010BD05D8013880B2043311
:104300000028F3D1F7E70020F5E710B52C2104468B
:1043100020F0E4FA204610BD30B58BB00446BDF85D
:1043200060500895BDF85C5007959DF85050069573
:104330009DF84C5005959DF8485004959DF84450C3
:1043400003959DF8405002959DF83C500195BDF8AD
:10435000385000950FF0C2FA064B2360159BE361BD
:10436000169B2362199B63621A9BA36220460BB0C3
:1043700030BD00BFA47B020870477047704770478C
:1043800030B4C26844685510034604EB6200D2079B
:1043900048BF62599B6830BC48BFD3581847034692
:1043A000406830B19A681AB9D86800F001007047C7
:1043B0000120704710B51021044620F08FFA2046E6
:1043C00010BD10B54FF4A071044620F087FA2046C6
:1043D00010BD00F1A0028A4203D10368D3F88C30EB
:1043E000184770472DE9F04F044689B02546FEF77F
:1043F000ABFC00265A4BA66245F82C3B31462622E0
:10440000284621F0D2FB2846FEF79EFC554BE3627E
:1044100004F15807FF2304F1A00A84F852306665BE
:104420003846FEF7D7FC04F1E80950460BF0A0F837
:104430004846FEF7CFFC4C4BC4E94C344B4BC4E927
:104440004E364B4BA360324631462846FEF78EFC73
:104450002846F021FEF766F928464FF4A071FEF7D2
:1044600063F94FF07F4363652946204607F0F8FA69
:104470004C2238460921FEF779FC6D464FF0FF3398
:104480004FF0010BC4F8883039462846A4F88CB0A8
:104490000AF058FA95E8070004F1940888E8070044
:1044A0003946284684F891B00AF04CFA95E807009E
:1044B00088E807000322DFF8BC80ADF81C2006A9BD
:1044C0003846CDF818800AF0E5FC3946204607F05A
:1044D000C7FA5046EA220D21FEF748FC05A906AAB4
:1044E0005046ADF814B0ADF818600AF031FD022264
:1044F000A4F8D8205046FFF74DF94FF0FF334FF0A6
:104500007F42C4E9372304F59872C4F8C8205146A5
:10451000204607F0A5FA1D2248464121FEF726FC59
:104520004FF0FF33C4F8183149462846A4F81C61FF
:104530000AF008FA95E8070004F5927383E807008B
:1045400006A94846CDF81880ADF81CB00AF0A2FCC8
:104550002046494607F084FA204609B0BDE8F08FAE
:10456000247C02084C8F02080C7C0208D34300080C
:10457000F00040016472020870477047704730B421
:10458000C26844685510034604EB6200D20748BF76
:1045900062599B6830BC48BFD358184703464068EF
:1045A00030B19A681AB9D86800F00100704701204C
:1045B000704710B51021044620F090F9204610BD38
:1045C00010B54FF42771044620F088F9204610BD3D
:1045D00000F51170884208B505D10DF075FBBDE8F6
:1045E0000840FEF747BE08BD10B50446FEF7F2FBD3
:1045F000034B23600023C4E91233204610BD00BFE3
:10460000747902082DE9F04F04468FB025460FF06B
:104610005FFB0026B24BE66345F8403BB14B266694
:10462000C4E910364FF4807304F16C09A4F86430C7
:10463000FF2304F1B40B84F86630C4E91266C4E9C0
:104640001466C4E91666A6664846FEF7C3FB04F581
:10465000827A5846FFF7C8FF5046FFF7C5FF04F5BA
:10466000AA7318460293FFF7BFFF04F5D2731846EA
:104670000393FFF7B9FF04F5FA7318460493FFF7A5
:10468000B3FF04F51173184605930AF071FF964BBA
:10469000DFF87082C4E9A334944BC4E9A5364FF423
:1046A000A0733246009331462846F023271DFEF7BB
:1046B0006AFB4FF07F43A3662946384607F0D0F9DE
:1046C000182248460D2106ADFEF750FB4FF0FF3390
:1046D000C4F89C3049462846A4F8A0600AF032F994
:1046E00095E8070004F1A80383E807000A230CA952
:1046F0004846ADF83430CDF830800AF0CBFB49465F
:1047000038464FF0190907F0ABF93C225846CDF86E
:104710000090C8231421FEF736FB754BC4F8E43033
:10472000D4F8B430A4F8E86059462846D3F8843069
:10473000984795E8070004F1F00383E80700092390
:104740000CA95846ADF83430CDF830800AF0A2FB01
:104750005946384607F084F98D225046CDF800902E
:10476000C8231421FEF70FFB624BC4F83431D4F890
:104770000431A4F8386151462846D3F8843098476C
:1047800095E8070004F5A07383E8070008230CA947
:104790005046ADF83430CDF830800AF07BFB5146FE
:1047A000384607F05DF90298CDF80090B422C8238E
:1047B0001421FEF7E8FA504BC4F88431D4F8543190
:1047C0000299D3F88430A4F888612846984795E880
:1047D000070004F5C87383E8070006230298ADF8C4
:1047E00034300CA9CDF830800AF054FB02993846D9
:1047F00007F036F90398CDF80090DD22C823142184
:10480000FEF7C1FA3D4BC4F8D431D4F8A431039972
:10481000D3F88430A4F8D8612846984795E8070073
:1048200004F5F07383E8070005230398ADF83430EE
:104830000CA9CDF830800AF02DFB0399384607F01B
:104840000FF90498CDF800906422C8231421FEF7D4
:104850009AFA2B4BC4F82432D4F8F4310499D3F8E3
:104860008430A4F828622846984795E8070004F5A4
:104870000C7383E8070007230498ADF834300CA9C3
:10488000CDF830800AF006FB0499384607F0E8F8C6
:1048900005984FF485720D21FEF768FA01230CAAE2
:1048A0000BA90598ADF82C30ADF830300AF050FB6C
:1048B00004230598A4F87C32FEF76CFF4FF07F428A
:1048C0004FF0FF33C4E9A02304F52373384605995C
:1048D000C4F86C3207F0C4F820460FB0BDE8F08F82
:1048E000D47C02084C8F0208BC7C0208D145000829
:1048F0000100FFFF00C3FFFF376A01FF8A5100FF7D
:104900000668F7FF64720208704770477047704787
:10491000704730B4C26844685510034604EB620027
:10492000D20748BF62599B6830BC48BFD35818476C
:104930000346406830B19A681AB9D86800F001009F
:1049400070470120704710B5102104461FF0C6FFC4
:10495000204610BD10B54FF4DA7104461FF0BEFFBB
:10496000204610BD38B500F19803994204460D4623
:1049700002D10368DB6A984704F594739D4203D122
:10498000236820461B6B984704F1E0039D4203D146
:104990000DF09AF9FEF78EFC04F5B874A54205D126
:1049A0000DF092F9BDE83840FEF774BC38BD000048
:1049B0000022C0E90122C0E90322C0E90522C0E9C2
:1049C00007224FF480728284014A0260704700BF60
:1049D000087D02082DE9F04F044685B026460025E3
:1049E0000FF076F9814BE56346F8403B29462622D5
:1049F000304621F0DAF83046FFF7DAFF04F16C08B0
:104A00007B4B23644FF0FF0926224FF6FF772946A0
:104A100084F86690A5664046ADF80C7021F0C5F8A4
:104A20004046FFF7C5FF734BE366BDF80C30A4F8B2
:104A3000923003A904F1980B84F8949040460AF050
:104A400055FC04F1E00A58460AF092FD04F5947909
:104A500050460AF08DFD48460AF08AFD04F5B87309
:104A6000294626221846019321F09FF80198FFF766
:104A70009FFF614AC4F87021604AA4F89E71C4E99E
:104A800069245F4AA4F8A071012384F89431C4E931
:104A90006B2584F8A2712A4629463046C4F89851FD
:104AA00084F89C51FEF762F93046F021FDF73AFE9A
:104AB00030464FF4A071FDF737FE271D4FF07F43BE
:104AC000A3663146384606F0CBFF2A4640464621CB
:104AD000FEF74CF9072203A94046ADF80C200AF076
:104AE00005FC4146384606F0BBFF5846CA220D2158
:104AF000FEF73CF9012302A903AA5846ADF8083095
:104B0000ADF80C300AF024FA1922A4F8D020584647
:104B1000FEF740FE04F5D2764FF07F434FF0FF38AA
:104B2000C4E9353859463846C4F8C06006F098FFE5
:104B300050464FF483720D21FEF718F903AA0123A2
:104B400002A95046ADF80830ADF80C300AF000FA72
:104B50001823A4F818315046FEF71CFE4FF07F438F
:104B6000C4E9473851463846C4F8086106F078FF72
:104B700048468E223321FEF7F9F803AA022302A940
:104B80004846ADF80830ADF80C300AF0E1F91723CB
:104B9000A4F860314846FEF7FDFD4FF07F43C4E9BD
:104BA00059384946384684F84D51C4F8506106F0EA
:104BB00057FF01982A462946FEF7D8F804230198A2
:104BC000ADF8083003AA052302A9ADF80C300AF0AD
:104BD000BFF93846019984F89551C4F8986106F0F8
:104BE0003FFF204605B0BDE8F08F00BF887D02087A
:104BF0004C8F020890900208B48F0208707D020862
:104C000065490008704770477047704770477047A4
:104C100030B4C26844685510034604EB6200D20702
:104C200048BF62599B6830BC48BFD35818470346F9
:104C3000406830B19A681AB9D86800F0010070472E
:104C40000120704710B5102104461FF047FE204692
:104C500010BD10B54FF4E87104461FF03FFE20462A
:104C600010BD38B500F1A003994204460D4603D1AA
:104C70000368D3F88C30984704F5BC739D4204D187
:104C800023682046D3F89030984704F1E8039D420A
:104C900004D123682046D3F89430984704F59874DB
:104CA000A54205D10DF010F8BDE83840FEF7E2BA94
:104CB00038BD00002DE9F04F04468BB02546002793
:104CC000FEF742F8814AA76245F82C2B2626324689
:104CD0003946284620F069FF2846FEF735F87C4A19
:104CE000E26204F15803FF22394684F852206765D6
:104CF00032461846009320F058FF0098FEF724F83B
:104D0000744AA2654FF6FF72734BA4F884204FF0EB
:104D1000FF3604F1A00B4FF47F02C4F8803004F199
:104D2000E80AC4F88C20C4E92667C4F88870A4F89F
:104D30009070C4F8947058460AF01AFC04F59879FB
:104D400050460AF015FC48460AF012FC04F5BC7205
:104D5000104601920AF00CFC604AC4E97024604AD3
:104D6000C4E972275F4AA26039463A462846FDF7F1
:104D7000FDFF2846F021FDF7D5FC28464FF4A07131
:104D8000FDF7D2FC4FF07F488C2284F85220294650
:104D90002046C4F8548006F063FE02AD0098172246
:104DA0003F21FDF7E3FF0099A4F88C702846C4F872
:104DB000886009F0C7FD95E8070004F1940383E8D3
:104DC0000700454B0098089308A91F23ADF824302D
:104DD0000AF060F80099204606F042FE58465D222F
:104DE0000D21FDF7C3FF012708AA07A95846ADF812
:104DF0001C70ADF820700AF0ABF81E23A4F8D83070
:104E000004F5E0755846FEF7C5FC59462046C4E94E
:104E10003786C4F8C85006F023FE50464FF485721A
:104E20000D21FDF7A3FF08AA07A95046ADF81C7095
:104E3000ADF820700AF08CF81D23A4F820315046FC
:104E4000FEF7A8FC51462046C4E94986C4F8105133
:104E500006F006FE4846C2220D21FDF787FF08AA8C
:104E600007A94846ADF81C70ADF820700AF070F83C
:104E70001623A4F868314846FEF78CFC49462046C4
:104E8000C4E95B86C4F8585106F0EAFD01988E2209
:104E90000D21FDF76BFF08AA07A90198ADF81C705A
:104EA000ADF820700AF054F81C230198A4F8B03132
:104EB000FEF770FC2046C4E96D860199C4F8A05144
:104EC00006F0CEFD20460BB0BDE8F08FDC7D020879
:104ED0004C8F0208BC8E020864720208C47D02086E
:104EE000634C0008F00040017047000030B5174DDA
:104EF0002C68BFF35B8F14F001048FB022D12846D9
:104F00001FF0EEFCF0B13F230993114B0893114BB6
:104F1000114912480A94CDE9064301220423CDE940
:104F200003320E2300930B220F23CDE90B44CDE96E
:104F300001440594FFF7F0F9094820F033FC2846B6
:104F40001FF0DAFC05480FB030BD00BF2062002022
:104F500030170308DC17030838090308246200200F
:104F6000E94E00087047000030B5174D2C68BFF3BC
:104F70005B8F14F001048FB022D128461FF0B0FCE3
:104F8000F0B13F230993114B0893114B114912487B
:104F90000A94CDE9064301220423CDE90332142308
:104FA00000930B221623CDE90B44CDE9014405946F
:104FB000FFF7B2F9094820F0F5FB28461FF09CFCEA
:104FC00005480FB030BD00BF506200203417030801
:104FD000E0170308D409030854620020654F000855
:104FE0007047000030B5174D2C68BFF35B8F14F08D
:104FF00001048FB022D128461FF072FCF0B13F238C
:105000000993114B0893114B07930123CDE90543F5
:1050100004930423CDE9024316230D490093412252
:105020001823CDE90B440B480A940194FFF774F957
:10503000094820F0B7FB28461FF05EFC05480FB07A
:1050400030BD00BF8062002038170308E417030852
:10505000700A030884620020E14F000870470000D6
:1050600030B5164D2C68BFF35B8F14F001048FB080
:1050700021D128461FF034FCE8B13F230993104B9F
:105080000893104B104911480A94CDE906430122B8
:105090000423CDE90332CDE901340C2300931A2215
:1050A000CDE90B440594FFF737F9094820F07AFB66
:1050B00028461FF021FC05480FB030BDB06200202B
:1050C000A8170308E8170308000E0308B4620020BD
:1050D0005D5000087047000030B5174D2C68BFF3D5
:1050E0005B8F14F001048FB022D128461FF0F8FB2B
:1050F000F0B13F230993114B0893114B11480A94C7
:10510000CDE9064301220423CDE903320621112310
:10511000CDE9003135220C490594CDE90B440294C8
:10512000FFF7FAF8094820F03DFB28461FF0E4FBA2
:1051300004480FB030BD00BFE0620020AC17030888
:10514000EC170308E46200206C0F0308D550000838
:105150007047000030B5174D2C68BFF35B8F14F01B
:1051600001048FB022D128461FF0BAFBF0B13F23D3
:105170000993114B0893114B11480A94CDE906434A
:1051800001220423CDE9033207211423CDE90031A4
:1051900010220C490594CDE90B440294FFF7BCF8AA
:1051A000094820F0FFFA28461FF0A6FB04480FB07C
:1051B00030BD00BF10630020B0170308F0170308CC
:1051C0001463002054120308515100087047000076
:1051D00030B5164D2C68BFF35B8F14F001048FB00F
:1051E00021D128461FF07CFBE8B13F230993104BE7
:1051F0000893104B104911480A94CDE90643012247
:105200000423CDE9033219230922CDE90032CDE987
:105210000B4405940294FFF77FF8094820F0C2FA86
:1052200028461FF069FB05480FB030BD40630020E1
:10523000B4170308F4170308341303084463002069
:10524000CD5100087047000030B5164D2C68BFF3F3
:105250005B8F14F001048FB021D128461FF040FB72
:10526000E8B13F230993104B0893104B10491148A4
:105270000A94CDE9064301220423CDE90332CDE9A6
:105280000134082300930F22CDE90B440594FFF766
:1052900043F8094820F086FA28461FF02DFB054800
:1052A0000FB030BD70630020B8170308F81703086B
:1052B000B4130308746300204552000870470000CF
:1052C00030B5174D2C68BFF35B8F14F001048FB01D
:1052D00022D128461FF004FBF0B13F230993114B64
:1052E0000893114B07930123CDE90543049304234D
:1052F000CDE902430A230D4900932D220C23CDE969
:105300000B440B480A940194FFF706F8094820F073
:1053100049FA28461FF0F0FA05480FB030BD00BF2B
:10532000A0630020BC170308FC17030888140308B7
:10533000A4630020BD5200087047000030B5164D30
:105340002C68BFF35B8F14F001048FB020D1284686
:105350001FF0C6FAE0B13F230993104B0893104B9E
:10536000104911480A940122CDE906430423CDE9EE
:1053700003320F230093CDE90B44CDE9014405949A
:10538000FEF7CAFF094820F00DFA28461FF0B4FACC
:1053900005480FB030BD00BFD0630020D017030810
:1053A0000018030800170308D463002039530008CD
:1053B0007047000030B5164D2C68BFF35B8F14F0BA
:1053C00001048FB020D128461FF08AFAE0B13F23B4
:1053D0000993104B0893104B104911480A9401226D
:1053E000CDE906430423CDE9033214230093CDE92C
:1053F0000B44CDE901440594FEF78EFF094820F0E7
:10540000D1F928461FF078FA05480FB030BD00BF2B
:1054100000640020D41703080418030810170308B9
:1054200004640020B15300087047000030B5164DE9
:105430002C68BFF35B8F14F001048FB020D1284695
:105440001FF04EFAE0B13F230993104B0893104B25
:10545000104911480A940122CDE906430423CDE9FD
:10546000033228230093CDE90B44CDE90144059490
:10547000FEF752FF094820F095F928461FF03CFA44
:1054800005480FB030BD00BF30640020D8170308B6
:105490000818030820170308346400202954000862
:1054A0007047704710B5FC2104461FF017FA2046DC
:1054B00010BD00004FF480718184FF21002280F82C
:1054C000261007498262C0E90122C0E90322C0E92F
:1054D0000522C0E907220160C2620286704700BF50
:1054E000289002082DE9F04F4FF4807305460026FE
:1054F0008384374B8662C0E90166C0E90366C0E970
:105500000566C0E9076645F82C3B044685B004F102
:10551000600B2846FFF7CEFF04F1940A5846FFF7C8
:10552000C9FF5046FFF7C6FF04F1C80318464FF005
:105530000E09DFF8A480274F0393FFF7BBFF4FF05E
:105540003813A3604A464B46314628460226CDF81A
:105550000090FDF718FC29462046C4E91587A4F8F9
:105560005C6006F07DFA4B464A4649465846CDF8FF
:105570000090FDF708FC59462046C4E92287A4F8AC
:10558000906006F06DFA4B464A465046CDF80090C2
:105590001C21FDF7F8FB51462046C4E92F87A4F8EB
:1055A000C46006F05DFA0398CDF800904B464A4679
:1055B0002A21FDF7E8FB2046C4E93C870399A4F8BB
:1055C000F86006F04DFA204605B0BDE8F08F00BF48
:1055D0007C7E0208E4D79FFFD8C853FF704770470E
:1055E00010B5FC2104461FF079F9204610BD0000DB
:1055F0002DE9F04F4FF48073064600258384384B25
:105600008562C0E90155C0E90355C0E90555C0E907
:10561000075546F82C3B044685B004F1600B304634
:10562000FFF748FF5846FFF745FF04F1940318467B
:105630000293FFF73FFF04F1C80318464FF00E0A2C
:10564000DFF8A090DFF8A0800393FFF733FF4FF05F
:1056500038130227A3605246534629463046CDF8F8
:1056600000A0FDF790FB31462046C4E91598A4F848
:105670005C7006F0F5F953461C2229465846CDF8D1
:1056800000A0FDF780FB59462046C4E92298A4F803
:10569000907006F0E5F953460298CDF800A01C2260
:1056A0005146FDF770FB0299A4F8C4702046C4E986
:1056B0002F9806F0D5F91C2211460398CDF800A0CA
:1056C0005346FDF760FB2046C4E93C980399A4F8D3
:1056D000F87006F0C5F9204605B0BDE8F08F00BFB0
:1056E000107F0208A55520FFA75F2FFF7047704766
:1056F00010B5FC2104461FF0F1F8204610BD000053
:105700002DE9F04F002305464FF48072C0E90133C4
:10571000C0E90333C0E90533C0E907338362334B83
:10572000828445F82C3B044685B004F1600B284682
:10573000FFF7C0FE04F1940A5846FFF7BBFE50463F
:10574000FFF7B8FE04F1C80318464FF00E09DFF862
:10575000A480274F0393FFF7ADFE4FF038130226C6
:10576000A3601C224B4649462846CDF80090FDF721
:105770000AFB29462046C4E91587A4F85C6006F0B8
:105780006FF91C224B4611465846CDF80090FDF7A4
:10579000FAFA59462046C4E92287A4F8906006F038
:1057A0005FF94B461C225046CDF800902A21FDF7A8
:1057B000EAFA51462046C4E92F87A4F8C46006F0EF
:1057C0004FF90398CDF800904B464A462A21FDF741
:1057D000DAFA2046C4E93C870399A4F8F86006F099
:1057E0003FF9204605B0BDE8F08F00BFA47F020856
:1057F0003095FCFF3374F4FF7047704710B5FC21FF
:1058000004461FF06BF8204610BD00002DE9F04F54
:10581000002305464FF48072C0E90133C0E9033329
:10582000C0E90533C0E907338362334B828445F80E
:105830002C3B044685B004F1600B2846FFF73AFE86
:1058400004F1940A5846FFF735FE5046FFF732FE42
:1058500004F1C80318464FF00E09DFF8A480274F63
:105860000393FFF727FE4FF038130226A3604A4642
:105870004B4649462846CDF80090FDF784FA294664
:105880002046C4E91587A4F85C6006F0E9F84B46A9
:105890001C2249465846CDF80090FDF774FA594647
:1058A0002046C4E92287A4F8906006F0D9F81C22AB
:1058B0004B4611465046CDF80090FDF764FA51462C
:1058C0002046C4E92F87A4F8C46006F0C9F80398FD
:1058D000CDF800904B464A461C21FDF754FA20466D
:1058E000C4E93C870399A4F8F86006F0B9F82046AB
:1058F00005B0BDE8F08F00BF3880020857D5DBFF48
:1059000021E9EFFF7047704710B5FC2104461EF0F7
:10591000E5FF204610BD00002DE9F04F00230546AD
:105920004FF48072C0E90133C0E90333C0E90533A5
:10593000C0E907338362334B828445F82C3B04462D
:1059400085B004F1600B2846FFF7B4FD04F1940A1A
:105950005846FFF7AFFD5046FFF7ACFD04F1C80312
:1059600018464FF00E09DFF8A480274F0393FFF786
:10597000A1FD4FF038130226A3601C224B46494676
:105980002846CDF80090FDF7FEF929462046C4E9E7
:105990001587A4F85C6006F063F81C224B4611469C
:1059A0005846CDF80090FDF7EEF959462046C4E977
:1059B0002287A4F8906006F053F84B464A465046BA
:1059C000CDF800901C21FDF7DEF951462046C4E9D0
:1059D0002F87A4F8C46006F043F80398CDF8009030
:1059E0004B464A462A21FDF7CEF92046C4E93C87BA
:1059F0000399A4F8F86006F033F8204605B0BDE836
:105A0000F08F00BFCC8002081C17DCFF2E33EEFFA6
:105A10007047704710B5FC2104461EF05FFF20461A
:105A200010BD00002DE9F04F4FF4807305460026AD
:105A30008384374B8662C0E90166C0E90366C0E92A
:105A40000566C0E9076645F82C3B044685B004F1BD
:105A5000600B2846FFF72EFD04F1940A5846FFF725
:105A600029FD5046FFF726FD04F1C80318464FF004
:105A70000E09DFF8A480274F0393FFF71BFD4FF0BB
:105A80003813A3604A464B46314628460226CDF8D5
:105A90000090FDF778F929462046C4E91587A4F857
:105AA0005C6005F0DDFF4B464A4649465846CDF856
:105AB0000090FDF768F959462046C4E92287A4F80A
:105AC000906005F0CDFF4B464A465046CDF8009019
:105AD0001C21FDF758F951462046C4E92F87A4F848
